:020000040800F2
:10000000881B012069020008710200088B030008A8
:10001000750200087702000879020008000000005D
:100020000000000000000000000000007B0200084B
:100030007D02000800000000D70200087554000887
:10004000830200088302000883020008830200087C
:10005000830200088302000883020008830200086C
:10006000830200088302000883020008830200085C
:10007000830200088302000883020008830200084C
:10008000830200088302000883020008830200083C
:10009000830200088302000883020008830200082C
:1000A000830200088302000883020008830200081C
:1000B000830200088302000883020008830200080C
:1000C00083020008830200088302000883020008FC
:1000D00083020008830200088302000883020008EC
:1000E00083020008830200088302000883020008DC
:1000F00083020008830200088302000883020008CC
:1001000083020008830200088302000883020008BB
:1001100083020008830200088302000883020008AB
:10012000830200088302000883020008830200089B
:10013000830200088302000883020008830200088B
:10014000830200088302000883020008830200087B
:10015000830200088302000883020008830200086B
:10016000830200088302000883020008830200085B
:1001700083020008830200088302000800000000D8
:10018000830200088302000800F002F800F05CF827
:100190000AA090E8000C82448344AAF10107DA45E2
:1001A00001D100F051F8AFF2090EBAE80F0013F0D8
:1001B000010F18BFFB1A43F0010318471C86020009
:1001C0003C8602000A444FF0000C10F8013B13F08B
:1001D000070408BF10F8014B1D1108BF10F8015BA0
:1001E000641E05D010F8016B641E01F8016BF9D193
:1001F00013F0080F1EBF10F8014BAD1C0C1B09D1EA
:100200006D1E58BF01F801CBFAD505E014F8016B5B
:1002100001F8016B6D1EF9D59142D6D370470000ED
:100220000023002400250026103A28BF78C1FBD8FF
:10023000520728BF30C148BF0B6070471FB524F07C
:10024000B1FE1FBD10B510BD00F053FA1146FFF707
:10025000F5FF00F088FA00F071FA03B4FFF7F2FF3F
:1002600003BC00F079FA00000948804709480047BC
:10027000FEE7FEE7FEE7FEE7FEE7FEE7FEE7FEE756
:10028000FEE7FEE704480549054A064B70470000B3
:10029000595500088901000888150120881B012094
:1002A0008817012088170120EFF3108072B670477D
:1002B00080F3108870473A4A1368012B04D04FF03E
:1002C00001031360374A1060374A116037484FF016
:1002D000805101607047EFF3108272B630480168B8
:1002E00051B34FF0000101602E48016891B1EFF366
:1002F00009811EF0100F08BF21ED108B21E9F00FCE
:100300004FF000041EF0100F08BF012441F8044D07
:100310000068016024490968096808C9B1E8F00F5C
:10032000002B18BFB1EC108B81F309884EF0100E32
:10033000002B18BF2EF0100E82F310884EF0040E22
:10034000704719490860EFF3148222F0040282F327
:10035000148814494FF00000086011494FF0010063
:10036000086013484FF47F01D0F8002041EA0201F1
:1003700001600E484FF0805101600E48006800682F
:1003800080F3088861B662B67047EFF3098000B564
:1003900020F0DEFE5DF804EB4EF0040E7047000026
:1003A00050010020480100204C01002004ED00E035
:1003B00020ED00E008ED00E053EA020C00F0698057
:1003C0002DE9F04B4FF00006002B1FBFB3FA83F569
:1003D00003FA05F424FA05F65E4012BF1643B2FA9A
:1003E00082F502FA05F4C5F120051EBF22FA05FCCC
:1003F00044EA0C04203556EA044C4FEA144418BF72
:10040000641C4FF000084FF00009904271EB030CA0
:1004100039D3002919BFB1FA81F701FA07F6B0FA0A
:1004200080F700FA07F6C7F120071EBF20FA07FC85
:1004300046EA0C062037B6FBF4FCA7EB0507103F95
:1004400007F01F0BCBF120060CFA0BFB2CFA06F67B
:1004500044BFB3460026202FA4BF5E464FF0000BDA
:100460005BEA060C08BF4FF0010B19EB0B09ABFB65
:10047000027C48EB0608C01B06FB02CC0BFB03CC3E
:1004800071EB0C01C1E70B46024641464846BDE808
:10049000F08B13B54FF000004FF00001AFF3008078
:1004A000BDE81C40704740EA010310B59B070FD11F
:1004B000042A0DD310C808C9121F9C42F8D020BAD4
:1004C00019BA884201D9012010BD4FF0FF3010BD8C
:1004D0001AB1D30703D0521C07E0002010BD10F85A
:1004E000013B11F8014B1B1B07D110F8013B11F820
:1004F000014B1B1B01D1921EF1D1184610BD40EAE1
:100500000103024630B59B0710D14FF0013400E0E3
:1005100008C208C91D1B9D4315EAC41FF8D013F07B
:10052000FF0102F8011B0DD01B0AF8E711F8013B8F
:10053000002B02F8013B05D011F8013B002B02F81B
:10054000013BF3D130BD10B5431C02E010F8011B94
:1005500071B18107FAD14FF0013202C88C1A8C4375
:1005600014EAC211F9D0C01A0A0603D0C01E10BD89
:10057000C01A10BD0A0401D0801E10BD0902FCD0B3
:10058000401E10BD4FF0000200B51346944696463B
:10059000203922BFA0E80C50A0E80C50B1F1200196
:1005A000BFF4F7AF090728BFA0E80C5048BF0CC044
:1005B0005DF804EB890028BF40F8042B08BF7047A2
:1005C00048BF20F8022B11F0804F18BF00F8012B14
:1005D000704710B5044610F0030F08BF11F0030F69
:1005E00040F015804FF0013E121FC0F20E8051F80E
:1005F000043BA3EB0E0C2CEA030C1CEACE1C08BF38
:1006000040F8043BF0D0A1F1040102F10402521EB3
:1006100008DB11F8013B002B00F8013BF7D1114634
:1006200000F045F8204610BD4FF0013C50F8042B77
:1006300051F8043B9A4221D1A2EB0C03934313EAF5
:10064000CC1317D150F8042B51F8043B9A4215D122
:10065000A2EB0C03934313EACC130BD150F8042BF9
:1006600051F8043B9A4209D1A2EB0C03934313EADD
:10067000CC13DBD04FF00000704700BFD01A01BA96
:10068000B1FA81F101F0180122FA01F0CB40C1F179
:100690002001DBB2C0B2C01A2CFA01F3D11A914387
:1006A00011EAC311E6D170477047704770474FF0A9
:1006B00000020429C0F0128010F0030C3FF464AF74
:1006C000CCF1040CBCF1020F18BF00F8012BA8BF3D
:1006D00020F8022BA1EB0C01FFF756BF5FEAC17CAB
:1006E00024BF00F8012B00F8012B48BF00F8012BB4
:1006F0007047754600F02CF8AE4605006946534633
:1007000020F00700854618B020B5FFF7BBFDBDE817
:1007100020404FF000064FF000074FF000084FF068
:10072000000B21F00701AC46ACE8C009ACE8C009F9
:10073000ACE8C009ACE8C0098D46704710B5044666
:10074000AFF300802046BDE81040FFF786BD0000F3
:10075000004870472415012001491820ABBEFEE770
:1007600026000200704710B5FFF79EFD21F088FEBD
:10077000002010BD70B5044621F098FB051900BF9C
:1007800021F094FBA842FBD370BD00E0401E00287E
:10079000FCD170477047000070B504461D46002329
:1007A000B5F5804F13D154F822300C480340D1E9FD
:1007B000000640EA06108E6840EA06208E8940EA6C
:1007C00006408E693043034344F8223003E06FF063
:1007D000704044F82200002070BD00000000F0CFFF
:1007E00010B503460022086853F820201248024042
:1007F000D1E901042043CC6820430C6920434C69B3
:1008000020438C692043CC6920430C6A20434C6A06
:1008100020438C6A2043CC6A2043CC6B20430C6B72
:10082000204302438868082801D142F0400208684A
:1008300043F82020002010BD8000F0FF30B50346B3
:100840000024501C53F8204004F04044D1E9000536
:1008500040EA05108D6840EA05208D8940EA05458B
:10086000088A401E45EA0055087D801E45EA006062
:100870008D6928430443501C43F82040002030BDBC
:1008800000B587B0142102A8FFF77CFE1B48006862
:1008900008B107B000BD01201849086000BF002062
:1008A00001901748006840F00100154908600846AB
:1008B000006800F00100019000BF00BF4FF680709B
:1008C00002900220039000200490032005900C2049
:1008D000069002A90B4800F019F84EF2B37002908E
:1008E0000220039000200490032005900C20069025
:1008F00002A9054800F00AF800BFCAE7100000206E
:100900003838024000100240000C0240F8B50246A0
:100910000B460025002400200021DCE0012606FA19
:1009200001F51E6806EA0504AC4273D15E68012E2B
:1009300008D05E68022E05D05E68112E02D05E6877
:10094000122E13D190684F000326BE40B0434F00D3
:10095000DE68BE4030439060506801268E40B04350
:100960001E79C6F300168E4030435060D0684F00A9
:100970000326BE40B0434F009E68BE403043D06067
:100980005E68022E02D05E68122E13D1CF0802F1EB
:10099000200656F827004E07F70E0F26BE40B0433C
:1009A0004F07FF0E1E69BE403043CF0802F12006FC
:1009B00046F8270010684F000326BE40B0431E795A
:1009C00006F003064F00BE40304310605E6806F03C
:1009D0008056B6F1805F7DD100BF00260096404E64
:1009E000366846F480463E4F3E603E46366806F422
:1009F0008046009600BF00BF3A4E8F0856F8270089
:100A00008E07370F0F26BE40B043374EB24202D199
:100A1000002624E05EE0354EB24201D101261EE000
:100A2000334EB24201D1022619E0324EB24201D118
:100A3000032614E0304EB24201D104260FE02F4EBF
:100A4000B24201D105260AE02D4EB24201D106265E
:100A500005E02C4EB24201D1072600E008268F07A0
:100A60003F0FBE4030431F4E8F0846F82700264EEA
:100A70003068A0435E6806F48036B6F5803F00D14A
:100A80002043214E3060361D3068A0435E6806F476
:100A90000036B6F5003F00D120431B4E361D3060B6
:100AA000361D3068A0435E6806F48016B6F5801FD8
:100AB00000D12043144E08363060361D3068A04304
:100AC0005E6806F40016B6F5001F00D120430E4EF6
:100AD0000C363060491C1029FFF420AFF8BD00002F
:100AE000443802400838014000000240000402403F
:100AF00000080240000C02400010024000140240B6
:100B000000180240001C0240003C01400AB1816113
:100B100001E00B0483617047044840680449B0FB5E
:100B2000F1F04FF47A71484370470000001000E084
:100B3000007A030A10B50D48006840F400700B49B4
:100B400008600846006840F4806008600846006855
:100B500040F480700860032000F044F8002000F0AA
:100B600007F800F01BF8002010BD0000003C024018
:100B700001460848006840F08070064A1060002076
:100B8000054A50601046006840F0010010600020E7
:100B900070470000FCED00E0001000E008B500BF69
:100BA000002000900E48006840F480400C49086026
:100BB0000846006800F48040009000BF00BF00BFFE
:100BC00000200090081F006840F08050091F086056
:100BD0000846006800F08050009000BF00BF08BDCC
:100BE0004438024000BF00F00702064B19684FF678
:100BF000FF031940044B0B4343EA0221014B1960E8
:100C000000BF70470CED00E00000FA05F8B504469F
:100C100000250026207800F0010020B9207800F09F
:100C2000040004282FD100205B498866FFF774FF79
:100C3000054606E0FFF770FF401B022801D903209C
:100C4000F8BD56480068C0F3C0600028F2D1606863
:100C50008101207A41EA0070504984310860012006
:100C60004D498866FFF758FF054606E0FFF754FF39
:100C7000401B022801D90320E2E748480068C0F37E
:100C8000C0600028F2D0207800F0020002287DD158
:100C900000BF0020009041484030006840F0805084
:100CA0003E49403108600846006800F080500090DE
:100CB00000BF00BF3A48006840F4807038490860BF
:100CC000FFF72AFF054606E0FFF726FF401B022834
:100CD00001D90320B4E73248006800F4807000288E
:100CE000F2D02E487030006800F440764EB3A089F0
:100CF00000F44070B04224D028487030006820F4DE
:100D000040760120274908600020086023487030A1
:100D10000660006800F0010098B1FFF7FDFE05468F
:100D200008E0FFF7F9FE401B41F28831884201D903
:100D3000032085E7194870300068C0F340000028A0
:100D4000EFD000BFA08900F44070B0F5407F0CD117
:100D500012480830006820F4F810134AE168114086
:100D600008430E490831086007E00C480830006865
:100D700020F4F8100949083108600848703000680C
:100D8000A189C1F30B010843044900E002E070317E
:100D9000086000BF002053E70000474200380240CF
:100DA00000700040400E4742FFFCFF0F70B5044644
:100DB0000D460CB9012070BD5848006800F00F00C6
:100DC000A84209D255490D700846006800F00F008E
:100DD000A84201D00120EEE7207800F002000228AE
:100DE0001DD1207800F00400042805D14C4800688B
:100DF00040F4E0504A490860207800F008000828D4
:100E000005D14748006840F46040454908604448BF
:100E1000006820F0F000A16808434149086020788C
:100E200000F00100A8B36068012807D13C480838E9
:100E30000068C0F34040B8B90120BCE760680228F0
:100E400002D06068032807D1354808380068C0F32D
:100E5000406048B90120AEE7314808380068C0F367
:100E6000400008B90120A6E72D48006820F00300E3
:100E7000616808432A490860FFF74EFE064609E00C
:100E8000FFF74AFE801B41F28831884202D90320D5
:100E900091E707E02248006800F00C006168B0EBC1
:100EA000810FEDD11D48006800F00F00A84209D95C
:100EB0001A490D700846006800F00F00A84201D0E2
:100EC000012078E7207800F00400042807D11448B6
:100ED000006820F4E050E168084311490860207878
:100EE00000F00800082808D10D48006820F4604090
:100EF000216940EAC1000A49086000F019F8084970
:100F00000968C1F30311074A515CC84006490860EB
:100F100006480068FFF72CFE00204CE7003C02402A
:100F200008380240B64F0208240000201C000020B0
:100F30002DE9F047002400250026A1462548006839
:100F400000F00C0020B1042805D008283AD105E0B3
:100F5000DFF8849039E0DFF8849036E01D48001F08
:100F6000006800F03F041B48001F006800F4800088
:100F700078B11A481749091F0968C1F38811A0FB05
:100F800001700146224600233846FFF715FA054650
:100F90000EE011480F49091F0968C1F38811A0FB31
:100FA00001700146224600233846FFF705FA054640
:100FB0000848001F0068C0F30140401C4600B5FB14
:100FC000F6F902E0DFF8109000BF00BF4846BDE828
:100FD000F0870000083802400024F40000127A0074
:100FE000F8B504460CB90120F8BD207800F00100E6
:100FF000002874D0F948006800F00C0004280DD0D7
:10100000F648006800F00C00082813D1F348001FD0
:10101000006800F48000B0F5800F0BD1EF4808386D
:101020000068C0F34040002859D06068002856D1BD
:101030000120D9E700BF6068B0F5803F08D1E748DC
:101040000838006840F48030E449083908601EE040
:101050006068B0F5A02F0DD1E0480838006840F472
:101060008020DE49083908600846006840F4803076
:1010700008600CE0D9480838006820F48030D7496F
:10108000083908600846006820F48020086000BF26
:10109000606890B1FFF740FD054606E0FFF73CFDB4
:1010A000401B642801D903209EE7CC48083800681B
:1010B000C0F340400028F1D011E0FFF72DFD0546B8
:1010C00006E0FFF729FD401B642801D903208BE7C8
:1010D000C24808380068C0F340400028F1D12078A9
:1010E00000F0020002285FD1BC48006800F00C004C
:1010F00058B1BA48006800F00C0008281CD1B74865
:10110000001F006800F48000B0B9B44808380068D7
:10111000C0F3400020B1E068012801D0012063E75E
:10112000AE480838006820F0F800216940EAC100A4
:10113000AA490839086037E0E06800B30120A849EF
:101140000860FFF7E9FC054606E0FFF7E5FC401BF9
:10115000022801D9032047E7A04808380068C0F3F7
:1011600040000028F1D09D480838006820F0F800C1
:10117000216940EAC10099490839086014E000205B
:1011800097490860FFF7C8FC054606E0FFF7C4FC76
:10119000401B022801D9032026E790480838006840
:1011A000C0F340000028F1D1207800F008000828A2
:1011B0002CD16069A8B101208A490860FFF7ACFC16
:1011C000054606E0FFF7A8FC401B022801D90320D2
:1011D0000AE782486C300068C0F340000028F1D074
:1011E00014E000207F490860FFF796FC054606E002
:1011F000FFF792FC401B022801D90320F4E6774850
:101200006C300068C0F340000028F1D1207800F075
:101210000400042870D1002770483830006800F0BE
:10122000805090B900BF002000906C4838300068B2
:1012300040F080506949383108600846006800F085
:101240008050009000BF00BF01276748006800F48D
:101250008070B0B96448006840F4807062490860EA
:10126000FFF75AFC054606E0FFF756FC401B022834
:1012700001D90320B8E65C48006800F480700028BB
:10128000F2D000BFA068012808D154486830006837
:1012900040F001005149683108601DE0A068052850
:1012A0000DD14E486830006840F004004B49683169
:1012B00008600846006840F0010008600CE04748FC
:1012C0006830006820F00100444968310860084631
:1012D000006820F00400086000BFA068A8B1FFF714
:1012E0001BFC054609E0FFF717FC401B41F2883163
:1012F000884202D9032077E626E038486830006843
:10130000C0F340000028EED013E0FFF705FC0546CF
:1013100008E0FFF701FC401B41F28831884201D907
:10132000032061E62D4868300068C0F340000028C3
:10133000EFD1012F07D129483830006820F08050C4
:1013400026493831086000BFA069002845D02348ED
:10135000006800F00C0008285DD0A069022845D183
:1013600000201F490866FFF7D7FB054606E0FFF798
:10137000D3FB401B022801D9032035E61748083863
:101380000068C0F340600028F1D1D4E907010843A8
:10139000616A40EA81110122A06AC2EB500041EA71
:1013A00000412C20005D41EA00600C49091F0860E3
:1013B00001200B490866FFF7AFFB054606E0FFF783
:1013C000ABFB401B022801D903200DE60348083877
:1013D0000068C0F340600028F1D03FE008380240C8
:1013E00000004742800E47420070004000201C4928
:1013F0000866FFF791FB054606E0FFF78DFB401BF3
:10140000022801D90320EFE516480068C0F34060C8
:101410000028F2D122E0A069012800D1E4E51148BA
:101420000830066806F48001E069814214D106F0B4
:101430003F01206A81420FD147F6C0703040616A97
:10144000884209D106F44031A06A814204D106F0F5
:101450007061E06A814201D00120C5E50020C3E54A
:10146000000047420038024070B504460E4615465B
:101470000CB9012070BD94F8490028B9002084F807
:101480004800204600F01CF804F108012068FFF72E
:10149000A7F93146A2682068FFF7D0F92946236BE7
:1014A000D4E90102FFF778F9A168206850F821001B
:1014B00040F00100A268216841F822000020D9E72D
:1014C00010B50446FFF7DCF910BD70B5044625469B
:1014D000681EB0F1807F01D301200FE0681E4FF03D
:1014E000E02148610F214FF0FF3004F043F8002065
:1014F0004FF0E021886107200861002070BD0000E6
:1015000010B50446002C66D16C498871F020088023
:101510004FF4A07048800846808849F241318842E3
:101520000BD06648808846F60401884205D063489F
:10153000808845F2103188421AD12C205F490881F9
:101540002A2048812B2088810846808846F604019D
:10155000884205D05948808845F21031884206D12A
:101560004FF4A070554908804FF4F0704880A1E016
:101570005248808845F21051884210D14FF43050C3
:101580004E4908814FF4285048814FF42C508881EF
:101590004FF4F07008804FF4487048808AE0474864
:1015A000808841F6631188420DD12C20434908817F
:1015B0002B2048812A2088814FF4F07008804FF456
:1015C0004870488076E022203C49088120204881EC
:1015D000212088816EE00120384988714FF4A07085
:1015E0000880F02048800846808849F241318842CE
:1015F00005D03248808845F21031884207D12C202E
:101600002E4908812A2048812B2088813FE02B48E1
:10161000808846F60401884207D12C20274908819A
:101620002B2048812A20888131E02448808845F297
:101630001051884210D14FF43050204908814FF4A6
:10164000285048814FF42C5088814FF4487008800E
:101650004FF4F07048801AE01848808841F6631112
:1016600088420DD12C20154908812A2048812B2041
:1016700088814FF4487008804FF4F070488006E08D
:1016800022200E49088121204881202088810B4892
:10169000808846F60401884205D00848808845F2D3
:1016A0001031884206D14FF4F070044908804FF49D
:1016B000A0704880002003F09DFC10BD0C020020AB
:1016C00030B503460C4615465A48808849F24131E8
:1016D000884205D05748808845F21031884214D19D
:1016E0005449488903F002FE181203F0F9FDD8B2FC
:1016F00003F0F6FD4F49888903F0F8FD201203F04E
:10170000EFFDE0B203F0ECFD8CE04A48808845F242
:101710001051884220D14749488903F0E7FD18124B
:1017200003F0DEFD43494989491C88B203F0DEFD20
:10173000D8B203F0D5FD3F49888903F0D7FD2012C8
:1017400003F0CEFD3B498989491C88B203F0CEFDE8
:10175000E0B203F0C5FD65E03648808841F66311CC
:10176000884228D13348807920B932480088401E09
:10177000C01A83B22F49488903F0B8FD181203F04C
:10178000AFFDD8B203F0ACFD181203F0A9FDD8B23A
:1017900003F0A6FD2749888903F0A8FD201203F075
:1017A0009FFDE0B203F09CFD201203F099FDE0B232
:1017B00003F096FD36E01F48808846F60401884213
:1017C0001DD11C488079012804D11A480088401E88
:1017D000C01A83B21749488903F088FD181203F034
:1017E0007FFDD8B203F07CFD1249888903F07EFDAD
:1017F000201203F075FDE0B203F072FD12E00D4817
:101800008079012804D10B480088401EC01A83B299
:1018100008494889194603F06FFD06498889214621
:1018200003F06AFD0348008903490880881C05808D
:1018300030BD00000C020020FEFF076010B5FE481E
:10184000FFF73EFE03F060FD3220FEF793FF01211B
:10185000002003F051FD3220FEF78CFF002003F042
:101860008DFBF649888008468088FF280ADB0846F9
:1018700080884FF6FF71884204D0F0488088B0F528
:10188000134F7CD1D32003F031FD03F071FBEB4902
:10189000888003F06DFBE949888003F069FBE74924
:1018A0008880084680884FF6FF7101EA0020E349EE
:1018B000888003F05DFBE14989880843DF4988801F
:1018C0000846808849F24131884258D0BF2003F051
:1018D0000DFD03F04DFBD949888003F049FBD74942
:1018E000888003F045FBD549888003F041FBD3494C
:1018F0008880084680884FF6FF7101EA0020CF49B2
:10190000888003F035FBCD4989880843CB4988801E
:101910000846808846F6040188427AD0D42003F035
:10192000E5FC03F025FBC549888003F021FBC34992
:10193000888003F01DFBC1498880084680884FF6E7
:10194000FF7101EA0020BD49888003F011FBBB490B
:1019500089880843B94988800846808845F2103153
:10196000884256D04FF45A4003F0C0FC03F000FB0D
:10197000B24988804FF45B4003F0B8FC00E048E0D7
:1019800003F0F6FAAD498880084680884FF6FF716B
:1019900001EA0020A94988804FF45C4003F0A6FCCE
:1019A00003F0E6FAA54989880843A44988800846D7
:1019B0008088B0F5004F02D145F2105088809F48D2
:1019C000808845F21051884223D0A12003F08EFC7C
:1019D00003F0CEFA9949888003F0CAFA97498880C3
:1019E000084680884FF6FF7101EA002093498880FD
:1019F00003F0BEFA914989880843904988800846D7
:101A0000808845F26171884203D141F663108B49A9
:101A100088808A48808849F24131884211D08748BD
:101A2000808845F2103188420BD08448808845F286
:101A30001051884205D08148808841F66311884260
:101A40001DD17F48006820F00F004FF02041C1F801
:101A50001C010846D0F81C0120F47060C1F81C017C
:101A60000846D0F81C0140F00300C1F81C010846EC
:101A7000D0F81C0140F40070C1F81C0128E06F4848
:101A8000808846F60401884205D06C4880884CF274
:101A9000055188421CD16A48006820F00F004FF0C1
:101AA0002041C1F81C010846D0F81C0120F47060E8
:101AB000C1F81C010846D0F81C0140F00A00C1F82A
:101AC0001C010846D0F81C0140F44060C1F81C011C
:101AD0005A48808849F2413188427CD1CF2003F0B6
:101AE00005FC002003F0FCFBC12003F0F9FB3020D3
:101AF00003F0F6FBED2003F0F9FB642003F0F0FBAC
:101B0000032003F0EDFB122003F0EAFB812003F039
:101B1000E7FBE82003F0EAFB852003F0E1FB10205F
:101B200003F0DEFB7A2003F0DBFBCB2003F0DEFBCF
:101B3000392003F0D5FB2C2003F0D2FB002003F06A
:101B4000CFFB342003F0CCFB022003F0C9FBF720CD
:101B500003F0CCFB202003F0C3FBEA2003F0C6FB1C
:101B6000002003F0BDFB002003F0BAFBC02003F00F
:101B7000BDFB1B2003F0B4FBC12003F0B7FB012029
:101B800003F0AEFBC52003F0B1FB302003F0A8FB4F
:101B9000302003F0A5FBC72003F0A8FBB72003F01B
:101BA0009FFB362003F0A2FB482003F099FB3A206C
:101BB00003F09CFB552003F093FBB12003F096FB50
:101BC000002003F08DFB1A2003F08AFBB62003F0FF
:101BD0008DFB0A2000E0A0E003F082FBA22003F0CE
:101BE0007FFBF22003F082FB002003F079FB26202C
:101BF00003F07CFB012003F073FBE02003F076FB95
:101C00000F2003F06DFB2A2003F06AFB282003F06D
:101C100067FB082003F064FB0E2003F061FB082043
:101C200003F05EFB542003F05BFBA92003F058FB9C
:101C3000432003F055FB05E01C0200200C020020AD
:101C40001C0100A00A2003F04BFB0F2003F048FB0F
:101C5000002003F045FB002003F042FB002003F0CE
:101C60003FFB002003F03CFBE12003F03FFB0020A2
:101C700003F036FB152003F033FB172003F030FB95
:101C8000072003F02DFB112003F02AFB062003F0B0
:101C900027FB2B2003F024FB562003F021FB3C20E4
:101CA00003F01EFB052003F01BFB102003F018FBC4
:101CB0000F2003F015FB3F2003F012FB3F2003F041
:101CC0000FFB0F2003F00CFB2B2003F00FFB002079
:101CD00003F006FB002003F003FB012003F000FBF0
:101CE0003F2003F0FDFA2A2003F000FB002003F060
:101CF000F7FA002003F0F4FA002003F0F1FAEF20E5
:101D000003F0EEFA112003F0F1FA7820FEF732FD2D
:101D1000292003F0EBFA03F01DB9FE48808846F64F
:101D2000040188427ED1112003F0E0FA1420FEF76E
:101D300021FDD02003F0DAFA072003F0D1FA422087
:101D400003F0CEFA1D2003F0CBFAD12003F0CEFA37
:101D5000002003F0C5FA1A2003F0C2FA092003F0AC
:101D6000BFFAD22003F0C2FA012003F0B9FA222010
:101D700003F0B6FAC02003F0B9FA102003F0B0FA6D
:101D80003B2003F0ADFA002003F0AAFA022003F092
:101D9000A7FA112003F0A4FAC52003F0A7FA032044
:101DA00003F09EFAC82003F0A1FA002003F098FA8D
:101DB000252003F095FA212003F092FA052003F084
:101DC0008FFA002003F08CFA0A2003F089FA6520CC
:101DD00003F086FA252003F083FA772003F080FAD7
:101DE000502003F07DFA0F2003F07AFA002003F070
:101DF00077FAF82003F07AFA012003F071FAFE2056
:101E000003F074FA002003F06BFA022003F068FA82
:101E1000202003F06BFA362003F068FA082003F064
:101E20005FFA00E02AE03A2003F060FA552003F060
:101E300057FA2B2003F05AFA002003F051FA002041
:101E400003F04EFA012003F04BFA3F2003F048FA6A
:101E50002A2003F04BFA002003F042FA002003F09E
:101E60003FFA012003F03CFADF2003F039FA782032
:101E7000FEF780FC292003F039FA4CE7A54880885A
:101E800045F21031884240F07C87ED2003F02EFAB5
:101E9000012003F025FAFE2003F022FAEE2003F0E1
:101EA00025FADE2003F01CFA212003F019FAF120B4
:101EB00003F01CFA012003F013FADF2003F016FAF6
:101EC000102003F00DFAC42003F010FA8F2003F065
:101ED00007FAC62003F00AFA002003F001FAE22014
:101EE00003F0FEF9E22003F0FBF9E22003F0F8F939
:101EF000BF2003F0FBF9AA2003F0F2F9B02003F0B1
:101F0000F5F90D2003F0ECF9002003F0E9F90D20BC
:101F100003F0E6F9002003F0E3F9112003F0E0F903
:101F2000002003F0DDF9192003F0DAF9002003F0B6
:101F3000D7F9212003F0D4F9002003F0D1F92D20A6
:101F400003F0CEF9002003F0CBF93D2003F0C8F9EF
:101F5000002003F0C5F95D2003F0C2F9002003F072
:101F6000BFF95D2003F0BCF9002003F0B9F9B120FE
:101F700003F0BCF9802003F0B3F9002003F0B0F9BE
:101F80008B2003F0ADF9002003F0AAF9962003F0AE
:101F9000A7F9002003F0A4F9B22003F0A7F900206C
:101FA00003F09EF9002003F09BF9022003F098F95A
:101FB000002003F095F9032003F092F9002003F0CC
:101FC0008FF9B32003F092F9002003F089F9002083
:101FD00003F086F9002003F083F9002003F080F974
:101FE000002003F07DF9002003F07AF9002003F0CF
:101FF00077F9002003F074F9002003F071F9002054
:1020000003F06EF9002003F06BF9002003F068F98B
:10201000002003F065F9002003F062F9002003F0CE
:102020005FF9002003F05CF9002003F059F900206B
:1020300003F056F9002003F053F9002003F050F9A3
:10204000002003F04DF9002003F04AF9002003F0CE
:1020500047F9002003F044F9B42003F047F98B203E
:1020600003F03EF9002003F03BF9962003F038F925
:10207000002003F035F9A12003F032F9002003F02D
:102080002FF9B52003F032F9022003F029F90020DE
:1020900003F026F9032003F023F9002003F020F9D0
:1020A000042003F01DF9002003F01AF9B62003F014
:1020B0001DF9002003F014F9002003F011F9B720F6
:1020C00003F014F9002003F00BF9002003F008F9E5
:1020D0003F2003F005F9002003F002F95E2003F031
:1020E000FFF8002003F0FCF8642003F0F9F800206A
:1020F00003F0F6F88C2003F0F3F8002003F0F0F87A
:10210000AC2003F0EDF8002003F0EAF8DC2003F047
:10211000E7F801E00C020020002003F0E1F8702055
:1021200003F0DEF8002003F0DBF8902003F0D8F88D
:10213000002003F0D5F8EB2003F0D2F8002003F0E4
:10214000CFF8DC2003F0CCF8002003F0C9F8B82069
:1021500003F0CCF8002003F0C3F8002003F0C0F82F
:10216000002003F0BDF8002003F0BAF8002003F0CF
:10217000B7F8002003F0B4F8002003F0B1F8002015
:1021800003F0AEF8BA2003F0B1F8242003F0A8F869
:10219000002003F0A5F8002003F0A2F8002003F0CF
:1021A0009FF8C12003F0A2F8202003F099F8002046
:1021B00003F096F8542003F093F8002003F090F811
:1021C000FF2003F08DF8002003F08AF8C22003F00E
:1021D0008DF80A2003F084F8002003F081F8042031
:1021E00003F07EF8002003F07BF8C32003F07EF8B4
:1021F0003C2003F075F8002003F072F83A2003F059
:102200006FF8002003F06CF8392003F069F8002023
:1022100003F066F8372003F063F8002003F060F85D
:102220003C2003F05DF8002003F05AF8362003F05C
:1022300057F8002003F054F8322003F051F8002042
:1022400003F04EF82F2003F04BF8002003F048F87D
:102250002C2003F045F8002003F042F8292003F079
:102260003FF8002003F03CF8262003F039F8002066
:1022700003F036F8242003F033F8002003F030F8A0
:10228000242003F02DF8002003F02AF8232003F087
:1022900027F8002003F024F83C2003F021F8002068
:1022A00003F01EF8362003F01BF8002003F018F8A6
:1022B000322003F015F8002003F012F82F2003F06D
:1022C0000FF8002003F00CF82C2003F009F8002090
:1022D00003F006F8292003F003F8002003F000F8CB
:1022E000262002F0FDFF002002F0FAFF242002F079
:1022F000F7FF002002F0F4FF242002F0F1FF00209D
:1023000002F0EEFF232002F0EBFF002002F0E8FFD6
:10231000C42002F0EBFF622002F0E2FF002002F096
:10232000DFFF052002F0DCFF002002F0D9FF84204F
:1023300002F0D6FF002002F0D3FFF02002F0D0FF21
:10234000002002F0CDFF182002F0CAFF002002F0AA
:10235000C7FFA42002F0C4FF002002F0C1FF182034
:1023600002F0BEFF002002F0BBFF502002F0B8FFD9
:10237000002002F0B5FF0C2002F0B2FF002002F0B6
:10238000AFFF172002F0ACFF002002F0A9FF95205C
:1023900002F0A6FF002002F0A3FFF32002F0A0FF4E
:1023A000002002F09DFFE62002F09AFF002002F0DC
:1023B00097FFC52002F09AFF322002F091FF002023
:1023C00002F08EFF442002F08BFF002002F088FF15
:1023D000652002F085FF002002F082FF762002F0E7
:1023E0007FFF002002F07CFF882002F079FF0020B0
:1023F00002F076FFC62002F079FF202002F070FF85
:10240000002002F06DFF172002F06AFF002002F0AA
:1024100067FF012002F064FF002002F061FFC72087
:1024200002F064FF002002F05BFF002002F058FF82
:10243000002002F055FF002002F052FFC82002F0F9
:1024400055FF002002F04CFF002002F049FF002061
:1024500002F046FF002002F043FFC92002F046FFD1
:10246000002002F03DFF002002F03AFF002002F0C1
:1024700037FF002002F034FF002002F031FF00207F
:1024800002F02EFF002002F02BFF002002F028FFB8
:10249000002002F025FF002002F022FF002002F0C1
:1024A0001FFF002002F01CFF002002F019FF002097
:1024B00002F016FF002002F013FF002002F010FFD0
:1024C000E02002F013FF162002F00AFF002002F0C5
:1024D00007FF1C2002F004FF002002F001FF212072
:1024E00002F0FEFE002002F0FBFE362002F0F8FEB5
:1024F000002002F0F5FE462002F0F2FE002002F07D
:10250000EFFE522002F0ECFE002002F0E9FE642013
:1025100002F0E6FE002002F0E3FE7A2002F0E0FE88
:10252000002002F0DDFE8B2002F0DAFE002002F037
:10253000D7FE992002F0D4FE002002F0D1FEA820A0
:1025400002F0CEFE002002F0CBFEB92002F0C8FE61
:10255000002002F0C5FEC42002F0C2FE002002F0FE
:10256000BFFECA2002F0BCFE002002F0B9FED2205D
:1025700002F0B6FE002002F0B3FED92002F0B0FE59
:10258000002002F0ADFEE02002F0AAFE002002F0E2
:10259000A7FEF32002F0A4FE002002F0A1FEE1203D
:1025A00002F0A4FE162002F09BFE002002F098FE2E
:1025B0001C2002F095FE002002F092FE222002F084
:1025C0008FFE002002F08CFE362002F089FE0020F3
:1025D00002F086FE452002F083FE002002F080FE1D
:1025E000522002F07DFE002002F07AFE642002F00C
:1025F00077FE002002F074FE7A2002F071FE0020C7
:1026000002F06EFE8B2002F06BFE002002F068FEEE
:10261000992002F065FE002002F062FEA82002F080
:102620005FFE002002F05CFEB92002F059FE00209F
:1026300002F056FEC42002F053FE002002F050FECD
:10264000CA2002F04DFE002002F04AFED22002F025
:1026500047FE002002F044FED82002F041FE002098
:1026600002F03EFEE02002F03BFE002002F038FEC9
:10267000F32002F035FE002002F032FEE22002F0EC
:1026800035FE052002F02CFE002002F029FE0B2072
:1026900002F026FE002002F023FE1B2002F020FEA6
:1026A000002002F01DFE342002F01AFE002002F08D
:1026B00017FE442002F014FE002002F011FE4F200D
:1026C00002F00EFE002002F00BFE612002F008FE78
:1026D000002002F005FE792002F002FE002002F048
:1026E000FFFD882002F0FCFD002002F0F9FD97209C
:1026F00002F0F6FD002002F0F3FDA62002F0F0FD4E
:10270000002002F0EDFDB72002F0EAFD002002F00B
:10271000E7FDC22002F0E4FD002002F0E1FDC72049
:1027200002F0DEFD002002F0DBFDD12002F0D8FD3A
:10273000002002F0D5FDD62002F0D2FD002002F0EC
:10274000CFFDDD2002F0CCFD002002F0C9FDF3201A
:1027500002F0C6FD002002F0C3FDE32002F0C6FD3A
:10276000052002F0BDFD002002F0BAFD0A2002F0B3
:10277000B7FD002002F0B4FD1C2002F0B1FD0020E6
:1027800002F0AEFD332002F0ABFD002002F0A8FD08
:10279000442002F0A5FD002002F0A2FD502002F02E
:1027A0009FFD002002F09CFD622002F099FD0020B8
:1027B00002F096FD782002F093FD002002F090FDDB
:1027C000882002F08DFD002002F08AFD972002F0A3
:1027D00087FD002002F084FDA62002F081FD00208C
:1027E00002F07EFDB72002F07BFD002002F078FDB4
:1027F000C22002F075FD002002F072FDC72002F039
:102800006FFD002002F06CFDD12002F069FD002078
:1028100002F066FDD52002F063FD002002F060FDAD
:10282000DD2002F05DFD002002F05AFDF32002F0F1
:1028300057FD002002F054FDE42002F057FD012076
:1028400002F04EFD002002F04BFD012002F048FD99
:10285000002002F045FD022002F042FD002002F0BF
:102860003FFD2A2002F03CFD002002F039FD3C2013
:1028700002F036FD002002F033FD4B2002F030FD67
:10288000002002F02DFD5D2002F02AFD002002F064
:1028900027FD742002F024FD002002F021FD842099
:1028A00002F01EFD002002F01BFD932002F018FD37
:1028B000002002F015FDA22002F012FD002002F01F
:1028C0000FFDB32002F00CFD002002F009FDBE2038
:1028D00002F006FD002002F003FDC42002F000FD1E
:1028E000002002F0FDFCCD2002F0FAFC002002F0F6
:1028F000F7FCD32002F0F4FC002002F0F1FCDD2014
:1029000002F0EEFC002002F0EBFCF32002F0E8FC09
:10291000002002F0E5FCE52002F0E8FC002002F0D7
:10292000DFFC002002F0DCFC002002F0D9FC0020DB
:1029300002F0D6FC022002F0D3FC002002F0D0FC12
:10294000292002F0CDFC002002F0CAFC3C2002F05D
:10295000C7FC002002F0C4FC4B2002F0C1FC0020A8
:1029600002F0BEFC5D2002F0BBFC002002F0B8FCCF
:10297000742002F0B5FC002002F0B2FC842002F0CA
:10298000AFFC002002F0ACFC932002F0A9FC002078
:1029900002F0A6FCA22002F0A3FC002002F0A0FCA2
:1029A000B32002F09DFC002002F09AFCBE2002F051
:1029B00097FC002002F094FCC42002F091FC00205F
:1029C00002F08EFCCD2002F08BFC002002F088FC8F
:1029D000D32002F085FC002002F082FCDC2002F013
:1029E0007FFC002002F07CFCF32002F079FC002048
:1029F00002F076FCE62002F079FC112002F070FC77
:102A0000002002F06DFC342002F06AFC002002F08D
:102A100067FC562002F064FC002002F061FC762086
:102A200002F05EFC002002F05BFC772002F058FC14
:102A3000002002F055FC662002F052FC002002F05B
:102A40004FFC882002F04CFC002002F049FC992049
:102A500002F046FC002002F043FCBB2002F040FCE8
:102A6000002002F03DFC992002F03AFC002002F028
:102A700037FC662002F034FC002002F031FC5520C7
:102A800002F02EFC002002F02BFC552002F028FC66
:102A9000002002F025FC452002F022FC002002F07C
:102AA0001FFC432002F01CFC002002F019FC442013
:102AB00002F016FC002002F013FCE72002F016FCE6
:102AC000322002F00DFC002002F00AFC552002F03A
:102AD00007FC002002F004FC762002F001FC00203C
:102AE00002F0FEFB662002F0FBFB002002F0F8FB88
:102AF000672002F0F5FB002002F0F2FB672002F0F5
:102B0000EFFB002002F0ECFB872002F0E9FB002045
:102B100002F0E6FB992002F0E3FB002002F0E0FB6C
:102B2000BB2002F0DDFB002002F0DAFB992002F06E
:102B3000D7FB002002F0D4FB772002F0D1FB00206D
:102B400002F0CEFB442002F0CBFB002002F0C8FBD9
:102B5000562002F0C5FB002002F0C2FB232002F049
:102B6000BFFB002002F0BCFB332002F0B9FB0020C9
:102B700002F0B6FB452002F0B3FB002002F0B0FBF0
:102B8000E82002F0B3FB002002F0AAFB002002F0D4
:102B9000A7FB992002F0A4FB002002F0A1FB8720F4
:102BA00002F09EFB002002F09BFB882002F098FBC5
:102BB000002002F095FB772002F092FB002002F04B
:102BC0008FFB662002F08CFB002002F089FB88203E
:102BD00002F086FB002002F083FBAA2002F080FBBB
:102BE000002002F07DFBBB2002F07AFB002002F007
:102BF00077FB992002F074FB002002F071FB662045
:102C000002F06EFB002002F06BFB552002F068FB27
:102C1000002002F065FB552002F062FB002002F06C
:102C20005FFB442002F05CFB002002F059FB4420D3
:102C300002F056FB002002F053FB552002F050FB3F
:102C4000002002F04DFBE92002F050FBAA2002F028
:102C500047FB002002F044FB002002F041FB002073
:102C600002F03EFB002002F041FBAA2002F038FBFC
:102C7000CF2002F03BFB002002F032FB002002F0EC
:102C80002FFB002002F02CFB002002F029FB00208B
:102C900002F026FB002002F023FB002002F020FBC4
:102CA000002002F01DFB002002F01AFB002002F0C1
:102CB00017FB002002F014FB002002F011FB0020A3
:102CC00002F00EFB002002F00BFB002002F008FBDC
:102CD000002002F005FB002002F002FBF02002F0D1
:102CE00005FB002002F0FCFA502002F0F9FA002067
:102CF00002F0F6FA002002F0F3FA002002F0F0FAF7
:102D0000F32002F0F3FA002002F0EAFAF92002F0D0
:102D1000EDFA062002F0E4FA102002F0E1FA292090
:102D200002F0DEFA002002F0DBFA3A2002F0DEFACE
:102D3000552002F0D5FA112002F0D8FA6420FDF7F0
:102D400019FD292002F0D2FA352002F0CFFA002036
:102D500002F0C6FA512002F0C9FAFF2002F0C0FAD0
:102D6000532002F0C3FA2C2002F0BAFA552002F0E8
:102D7000BDFA822002F0B4FA2C2002F0B7FA02F079
:102D8000E9B8FE48808845F2105188427ED155212D
:102D90004FF4704002F0B0FAAA214FF2010002F0A5
:102DA000ABFA52214FF2020002F0A6FA08214FF2CC
:102DB000030002F0A1FA01214FF2040002F09CFA94
:102DC0000D214FF4304002F097FA0D214BF2010033
:102DD00002F092FA0D214BF2020002F08DFA34213A
:102DE0004FF4364002F088FA34214BF2016002F0D1
:102DF00083FA34214BF2026002F07EFA0D214FF487
:102E0000314002F079FA0D214BF2011002F074FA10
:102E10000D214BF2021002F06FFA34214FF43740CB
:102E200002F06AFA34214BF2017002F065FA3421A3
:102E30004BF2027002F060FA00214FF4324002F0CF
:102E40005BFA00214BF2012002F056FA00214BF20E
:102E5000022002F051FA24214FF4384002F04CFADB
:102E600024214BF6010002F047FA24214BF6020020
:102E700002F042FA01214FF43F4002F03DFA0F21E7
:102E80004FF4334002F038FA0F2100E0FEE34BF23A
:102E9000013002F031FA0F214BF2023002F02CFA2D
:102EA00034214FF4394002F027FA34214BF6011057
:102EB00002F022FA34214BF6021002F01DFA08212A
:102EC0004FF4354002F018FA08214BF2015002F09D
:102ED00013FA08214BF2025002F00EFA03214FF4CC
:102EE000424002F009FA24214FF43A4002F004FA79
:102EF00024214BF6012002F0FFF924214BF6022099
:102F000002F0FAF900214FF43C4002F0F5F9782183
:102F10004BF6014002F0F0F900214BF6024002F0BE
:102F2000EBF900214FF43D4002F0E6F978214BF631
:102F3000015002F0E1F900214BF6025002F0DCF9F9
:102F400000214FF43E4002F0D7F964214BF60160B6
:102F500002F0D2F900214FF4514002F0CDF93321B3
:102F60004DF2011002F0C8F900214DF2021002F0FA
:102F7000C3F934214DF2031002F0BEF900214DF2E5
:102F8000041002F0B9F93A214DF2051002F0B4F93B
:102F900000214DF2061002F0AFF94A214DF2071060
:102FA00002F0AAF900214DF2081002F0A5F95C2107
:102FB0004DF2091002F0A0F900214DF20A1002F0C2
:102FC0009BF981214DF20B1002F096F900214DF290
:102FD0000C1002F091F9A6214DF20D1002F08CF9BF
:102FE00000214DF20E1002F087F9E5214DF20F108D
:102FF00002F082F901214DF2101002F07DF9132147
:103000004DF2111002F078F901214DF2121002F088
:1030100073F954214DF2131002F06EF901214DF2B3
:10302000141002F069F982214DF2151002F064F9D2
:1030300001214DF2161002F05FF9CA214DF217106E
:1030400002F05AF902214DF2181002F055F9002150
:103050004DF2191002F050F902214DF21A1002F04F
:103060004BF901214DF21B1002F046F902214DF2FD
:103070001C1002F041F934214DF21D1002F03CF910
:1030800002214DF21E1002F037F967214DF21F1098
:1030900002F032F902214DF2201002F02DF98421C4
:1030A0004DF2211002F028F902214DF2221002F017
:1030B00023F9A4214DF2231002F01EF902214DF252
:1030C000241002F019F9B7214DF2251002F014F97D
:1030D00002214DF2261002F00FF9CF214DF22710F8
:1030E00002F00AF902214DF2281002F005F9DE2162
:1030F0004DF2291002F000F902214DF22A1002F0DF
:10310000FBF8F2214DF22B1002F0F6F802214DF2FD
:103110002C1002F0F1F8FE214DF22D1002F0ECF827
:1031200003214DF22E1002F0E7F810214DF22F107E
:1031300002F0E2F803214DF2301002F0DDF8332105
:103140004DF2311002F0D8F803214DF2321002F0A6
:10315000D3F86D214DF2331002F0CEF800214FF478
:10316000524002F0C9F833214DF2012002F0C4F8B8
:1031700000214DF2022002F0BFF801E00C02002015
:1031800034214DF2032002F0B7F800214DF2042063
:1031900002F0B2F83A214DF2052002F0ADF800211C
:1031A0004DF2062002F0A8F84A214DF2072002F065
:1031B000A3F800214DF2082002F09EF85C214DF2A8
:1031C000092002F099F800214DF20A2002F094F84B
:1031D00081214DF20B2002F08FF800214DF20C20DE
:1031E00002F08AF8A6214DF20D2002F085F80021A8
:1031F0004DF20E2002F080F8E5214DF20F2002F092
:103200007BF801214DF2102002F076F813214DF2E7
:10321000112002F071F801214DF2122002F06CF839
:1032200054214DF2132002F067F801214DF21420D1
:1032300002F062F882214DF2152002F05DF80121C2
:103240004DF2162002F058F8CA214DF2172002F074
:1032500053F802214DF2182002F04EF800214DF2F1
:10326000192002F049F802214DF21A2002F044F828
:1032700001214DF21B2002F03FF802214DF21C20EB
:1032800002F03AF834214DF21D2002F035F8022107
:103290004DF21E2002F030F867214DF21F2002F09F
:1032A0002BF802214DF2202002F026F884214DF265
:1032B000212002F021F802214DF2222002F01CF818
:1032C000A4214DF2232002F017F802214DF2242010
:1032D00002F012F8B7214DF2252002F00DF802217C
:1032E0004DF2262002F008F8CF214DF2272002F0FF
:1032F00003F802214DF2282001F0FEFFDE214DF2FD
:10330000292001F0F9FF02214DF22A2001F0F4FFFB
:10331000F2214DF22B2001F0EFFF02214DF22C2083
:1033200001F0EAFFFE214DF22D2001F0E5FF03211F
:103330004DF22E2001F0E0FF10214DF22F2001F080
:10334000DBFF03214DF2302001F0D6FF33214DF297
:10335000312001F0D1FF03214DF2322001F0CCFFEA
:103360006D214DF2332001F0C7FF00214FF453408F
:1033700001F0C2FF33214DF2013001F0BDFF002109
:103380004DF2023001F0B8FF34214DF2033001F06C
:10339000B3FF00214DF2043001F0AEFF3A214DF2AF
:1033A000053001F0A9FF00214DF2063001F0A4FF25
:1033B0004A214DF2073001F09FFF00214DF2083005
:1033C00001F09AFF5C214DF2093001F095FF0021D8
:1033D0004DF20A3001F090FF81214DF20B3001F0E7
:1033E0008BFF00214DF20C3001F086FFA6214DF23B
:1033F0000D3001F081FF00214DF20E3001F07CFF15
:10340000E5214DF20F3001F077FF01214DF2103030
:1034100001F072FF13214DF2113001F06DFF012117
:103420004DF2123001F068FF54214DF2133001F0DB
:1034300063FF01214DF2143001F05EFF82214DF255
:10344000153001F059FF01214DF2163001F054FF03
:10345000CA214DF2173001F04FFF02214DF2183012
:1034600001F04AFF00214DF2193001F045FF022121
:103470004DF21A3001F040FF01214DF21B3001F0F6
:103480003BFF02214DF21C3001F036FF34214DF29A
:103490001D3001F031FF02214DF21E3001F02CFFF2
:1034A00067214DF21F3001F027FF02214DF220303D
:1034B00001F022FF84214DF2213001F01DFF022195
:1034C0004DF2223001F018FFA4214DF2233001F01B
:1034D00013FF02214DF2243001F00EFFB7214DF20F
:1034E000253001F009FF02214DF2263001F004FFE2
:1034F000CF214DF2273001F0FFFE02214DF228309E
:1035000001F0FAFEDE214DF2293001F0F5FE022134
:103510004DF22A3001F0F0FEF2214DF22B3001F095
:10352000EBFE02214DF22C3001F0E6FEFE214DF2C1
:103530002D3001F0E1FE03214DF22E3001F0DCFED2
:1035400010214DF22F3001F0D7FE03214DF2303023
:1035500001F0D2FE33214DF2313001F0CDFE0321D6
:103560004DF2323001F0C8FE6D214DF2333001F0E2
:10357000C3FE00214FF4544001F0BEFE33214DF252
:10358000014001F0B9FE00214DF2024001F0B4FE0D
:1035900034214DF2034001F0AFFE00214DF2044012
:1035A00001F0AAFE3A214DF2054001F0A5FE0021EE
:1035B0004DF2064001F0A0FE4A214DF2074001F015
:1035C0009BFE00214DF2084001F096FE5C214DF279
:1035D000094001F091FE00214DF20A4001F08CFEFD
:1035E00081214DF20B4001F087FE00214DF20C408D
:1035F00001F082FEA6214DF20D4001F07DFE00217A
:103600004DF20E4001F078FEE5214DF20F4001F041
:1036100073FE01214DF2104001F06EFE13214DF2B8
:10362000114001F069FE01214DF2124001F064FEEB
:1036300054214DF2134001F05FFE01214DF2144080
:1036400001F05AFE82214DF2154001F055FE012194
:103650004DF2164001F050FECA214DF2174001F024
:103660004BFE02214DF2184001F046FE00214DF2C2
:10367000194001F041FE02214DF21A4001F03CFEDA
:1036800001214DF21B4001F037FE00E004E302216E
:103690004DF21C4001F030FE34214DF21D4001F08E
:1036A0002BFE02214DF21E4001F026FE67214DF255
:1036B0001F4001F021FE02214DF2204001F01CFECE
:1036C00084214DF2214001F017FE02214DF22240EB
:1036D00001F012FEA4214DF2234001F00DFE022163
:1036E0004DF2244001F008FEB7214DF2254001F0D3
:1036F00003FE02214DF2264001F0FEFDCF214DF2E6
:10370000274001F0F9FD02214DF2284001F0F4FDBF
:10371000DE214DF2294001F0EFFD02214DF22A4059
:1037200001F0EAFDF2214DF22B4001F0E5FD02210E
:103730004DF22C4001F0E0FDFE214DF22D4001F054
:10374000DBFD03214DF22E4001F0D6FD10214DF29C
:103750002F4001F0D1FD03214DF2304001F0CCFDAE
:1037600033214DF2314001F0C7FD03214DF23240CB
:1037700001F0C2FD6D214DF2334001F0BDFD00218D
:103780004FF4554001F0B8FD33214DF2015001F0E6
:10379000B3FD00214DF2025001F0AEFD34214DF297
:1037A000035001F0A9FD00214DF2045001F0A4FDE9
:1037B0003A214DF2055001F09FFD00214DF20650D7
:1037C00001F09AFD4A214DF2075001F095FD0021CC
:1037D0004DF2085001F090FD5C214DF2095001F0CE
:1037E0008BFD00214DF20A5001F086FD81214DF242
:1037F0000B5001F081FD00214DF20C5001F07CFDD9
:10380000A6214DF20D5001F077FD00214DF20E5032
:1038100001F072FDE5214DF20F5001F06DFD012127
:103820004DF2105001F068FD13214DF2115001F0DE
:1038300063FD01214DF2125001F05EFD54214DF265
:10384000135001F059FD01214DF2145001F054FDC7
:1038500082214DF2155001F04FFD01214DF216501D
:1038600001F04AFDCA214DF2175001F045FD022139
:103870004DF2185001F040FD00214DF2195001F0B9
:103880003BFD02214DF21A5001F036FD01214DF2AF
:103890001B5001F031FD02214DF21C5001F02CFDB6
:1038A00034214DF21D5001F027FD02214DF21E5032
:1038B00001F022FD67214DF21F5001F01DFD022194
:1038C0004DF2205001F018FD84214DF2215001F0FD
:1038D00013FD02214DF2225001F00EFDA4214DF204
:1038E000235001F009FD02214DF2245001F004FDA6
:1038F000B7214DF2255001F0FFFC02214DF2265078
:1039000001F0FAFCCF214DF2275001F0F5FC022125
:103910004DF2285001F0F0FCDE214DF2295001F06B
:10392000EBFC02214DF22A5001F0E6FCF2214DF2AF
:103930002B5001F0E1FC02214DF22C5001F0DCFC97
:10394000FE214DF22D5001F0D7FC03214DF22E50F7
:1039500001F0D2FC10214DF22F5001F0CDFC0321DB
:103960004DF2305001F0C8FC33214DF2315001F0DE
:10397000C3FC03214DF2325001F0BEFC6D214DF22B
:10398000335001F0B9FC00214FF4564001F0B4FC73
:1039900033214DF2016001F0AFFC00214DF20260D5
:1039A00001F0AAFC34214DF2036001F0A5FC0021D6
:1039B0004DF2046001F0A0FC3A214DF2056001F0E7
:1039C0009BFC00214DF2066001F096FC4A214DF26D
:1039D000076001F091FC00214DF2086001F08CFCC1
:1039E0005C214DF2096001F087FC00214DF20A6074
:1039F00001F082FC81214DF20B6001F07DFC002181
:103A00004DF20C6001F078FCA6214DF20D6001F042
:103A100073FC00214DF20E6001F06EFCE5214DF2C9
:103A20000F6001F069FC01214DF2106001F064FCAF
:103A300013214DF2116001F05FFC01214DF2126083
:103A400001F05AFC54214DF2136001F055FC0121A4
:103A50004DF2146001F050FC82214DF2156001F02E
:103A60004BFC01214DF2166001F046FCCA214DF2DB
:103A7000176001F041FC02214DF2186001F03CFC9E
:103A800000214DF2196001F037FC02214DF21A605D
:103A900001F032FC01214DF21B6001F02DFC0221EE
:103AA0004DF21C6001F028FC34214DF21D6001F044
:103AB00023FC02214DF21E6001F01EFC67214DF235
:103AC0001F6001F019FC02214DF2206001F014FC8E
:103AD00084214DF2216001F00FFC02214DF22260A1
:103AE00001F00AFCA4214DF2236001F005FC022143
:103AF0004DF2246001F000FCB7214DF2256001F089
:103B0000FBFB02214DF2266001F0F6FBCF214DF2C6
:103B1000276001F0F1FB02214DF2286001F0ECFB7F
:103B2000DE214DF2296001F0E7FB02214DF22A600F
:103B300001F0E2FBF2214DF22B6001F0DDFB0221EE
:103B40004DF22C6001F0D8FBFE214DF22D6001F00A
:103B5000D3FB03214DF22E6001F0CEFB10214DF27C
:103B60002F6001F0C9FB03214DF2306001F0C4FB6E
:103B700033214DF2316001F0BFFB03214DF2326081
:103B800001F0BAFB6D214DF2336001F0B5FB552118
:103B90004FF4704001F0B0FBAA214FF2010001F098
:103BA000ABFB52214FF2020001F0A6FB08214FF2BD
:103BB000030001F0A1FB00214FF2040001F09CFB87
:103BC000CC214FF4314001F097FB00214BF2011062
:103BD00001F092FB05214FF4364001F08DFB70217E
:103BE0004FF4374001F088FB70214BF2017001F077
:103BF00083FB01214FF4384001F07EFB03214BF69B
:103C0000010001F079FB03214BF6020001F074FB87
:103C100003214BF6030001F06FFB02214FF43C40FF
:103C200001F06AFB00214BF6014001F065FB002129
:103C30004BF6024001F060FBD0214FF4494001F007
:103C40005BFB02214CF6011001F056FB50214CF6B3
:103C5000021001F051FB50214CF6031001F04CFB17
:103C600050214CF6041001F047FB00214FF4545052
:103C700001F042FB55214FF4685001F03DFB4FF439
:103C8000885001F033FB7820FCF77FFD4FF424507F
:103C900001F02CFB01F05EB9FE48808849F2253125
:103CA00088427DD147F6F001E52001F025FB4FF475
:103CB0008071012001F020FB4FF4E061022001F04F
:103CC0001BFB41F23001032001F016FB0021042010
:103CD00001F012FB40F20221082001F00DFB00214F
:103CE000092001F009FB00210A2001F005FB002159
:103CF0000C2001F001FB00210D2001F0FDFA002154
:103D00000F2001F0F9FA0021102001F0F5FA072147
:103D1000112001F0F1FA0021122001F0EDFA00214A
:103D2000132001F0E9FA0021072001F0E5FA41F241
:103D30009061102001F0E0FA40F22721112001F0FB
:103D4000DBFA9D21122001F0D7FA4FF4C85113205D
:103D500001F0D2FA2521292001F0CEFA0D212B20E5
:103D600001F0CAFA0721302001F0C6FA40F203310F
:103D7000312001F0C1FA0321322001F0BDFA40F2F6
:103D80000621352001F0B8FA0821362001F0B4FAF6
:103D900040F20641372001F0AFFA4FF4417100E0E4
:103DA00058E0382001F0A8FA0721392001F0A4FAE0
:103DB00040F202613C2001F09FFA08213D2001F011
:103DC0009BFA0021502001F097FAEF21512001F0D9
:103DD00093FA0021522001F08FFA40F23F11532054
:103DE00001F08AFA4FF42741602001F085FA0121A1
:103DF000612001F081FA00216A2001F07DFA0021A2
:103E0000802001F079FA0021812001F075FA00216B
:103E1000822001F071FA0021832001F06DFA002167
:103E2000842001F069FA0021852001F065FA102153
:103E3000902001F061FA4FF4C061922001F05CFA29
:103E400040F23311072001F057FA2221002001F03F
:103E500053FA1FE78F48808849F2283188427DD184
:103E600041F28F01EC2001F047FA41F23421EF20BA
:103E700001F042FA4FF48071012001F03DFA4FF455
:103E8000E061022001F038FA41F23001032001F034
:103E900033FA0021042001F02FFA40F20221082019
:103EA00001F02AFA0021092001F026FA00210A2057
:103EB00001F022FA01210C2001F01EFA00210D2050
:103EC00001F01AFA00210F2001F016FA002110204B
:103ED00001F012FA0721112001F00EFA0021122040
:103EE00001F00AFA0021132001F006FA012107204F
:103EF00001F002FA3220FCF73DFC41F29041102023
:103F000001F0FAF940F22721112001F0F5F93220F1
:103F1000FCF730FC8A21122001F0EEF93220FCF788
:103F200029FC4FF4D051132001F0E6F90621292095
:103F300001F0E2F90D212B2001F0DEF93220FCF72F
:103F400019FC0021202001F0D7F90021212001F0E7
:103F5000D3F93220FCF70EFC002100E075E03020A0
:103F600001F0CAF940F20461312001F0C5F940F2D4
:103F70000531322001F0C0F90021352001F0BCF9F3
:103F800040F60941362001F0B7F94FF401713720AE
:103F900001F0B2F940F20131382001F0ADF940F200
:103FA0000771392001F0A8F900213C2001F0A4F9A3
:103FB00040F60A213D2001F09FF93220FCF7DAFBA0
:103FC0000021502001F098F9EF21512001F094F9DF
:103FD0000021522001F090F940F23F11532001F0EE
:103FE0008BF94FF42741602001F086F9012161200F
:103FF00001F082F900216A2001F07EF90021802081
:1040000001F07AF90021812001F076F90021822067
:1040100001F072F90021832001F06EF90021842063
:1040200001F06AF90021852001F066F91021902045
:1040300001F062F94FF4C061922001F05DF940F2A5
:104040003311072001F058F924E61248808849F21C
:10405000203188427ED10021084601F04DF94FF40D
:104060008071012001F048F94FF4E061022001F075
:1040700043F941F23001032001F03EF90021042010
:1040800001F03AF940F20221082001F035F900214F
:10409000092001E00C02002001F02EF900210A2085
:1040A00001F02AF901210C2001F026F900210D2050
:1040B00001F022F900210F2001F01EF93220FCF757
:1040C00059FB40F20111072001F016F93220FCF7EC
:1040D00051FB4FF48651102001F00EF907211120F9
:1040E00001F00AF94FF48871122001F005F94FF43C
:1040F0003061132001F000F90021292001F0FCF8C3
:1041000044F210012B2001F0F7F80021502001F0BB
:10411000F3F8EF21512001F0EFF80021522001F0D7
:10412000EBF840F23F11532001F0E6F84FF41C5138
:10413000602001F0E1F80121612001F0DDF80021AB
:104140006A2001F0D9F80021802001F0D5F8002183
:10415000812000E030E001F0CFF80021822001F062
:10416000CBF80021832001F0C7F80021842001F062
:10417000C3F80021852001F0BFF81021902001F044
:10418000BBF80021922001F0B7F80121932001F043
:10419000B3F84FF48871952001F0AEF80021972014
:1041A00001F0AAF80021982001F0A6F840F273115E
:1041B000072001F0A1F86DE5FE48808849F2313111
:1041C00088427DD141F21401E72001F095F84FF4C7
:1041D0008071012001F090F84FF40071022001F08D
:1041E0008BF841F23801032001F086F840F20221F9
:1041F000082001F081F80021092001F07DF800215C
:104200000A2001F079F800210C2001F075F8002156
:104210000D2001F071F800210F2001F06DF8002150
:10422000102001F069F80721112001F065F8002144
:10423000122001F061F80021132001F05DF8C82080
:10424000FCF798FA41F29061102001F055F840F225
:104250002721112001F050F83220FCF78BFA0C21B5
:10426000122001F049F83220FCF784FA4FF4006183
:10427000132001F041F81121292001F03DF80B2114
:104280002B2001F039F83220FCF774FA00212020AD
:1042900001F032F840F23F11212001F02DF8002109
:1042A000302001F029F84FF48371312001F024F817
:1042B0000021322001F020F84FF40171352000E098
:1042C00064E001F019F841F20A61362001F014F8B7
:1042D00040F20771372001F00FF84FF48371382056
:1042E00001F00AF840F20771392001F005F840F2B8
:1042F00002413C2001F000F840F60F413D2000F063
:10430000FBFF0021502000F0F7FFEF21512000F0CB
:10431000F3FF0021522000F0EFFF40F23F11532045
:1043200000F0EAFF4FF41C51602000F0E5FF01218E
:10433000612000F0E1FF00216A2000F0DDFF002194
:10434000802000F0D9FF0021812000F0D5FF00215E
:10435000822000F0D1FF0021832000F0CDFF00215A
:10436000842000F0C9FF0021852000F0C5FF102146
:10437000902000F0C1FF4FF4C061922000F0BCFF1C
:1043800040F23311072000F0B7FF83E489488088AA
:1043900045F2084188427DD14FF48071012000F040
:1043A000ABFF4FF4E061022000F0A6FF41F23001C4
:1043B000032000F0A1FF0021042000F09DFF40F247
:1043C0000721082000F098FF0021092000F094FF49
:1043D00000210A2000F090FF00210C2000F08CFF4B
:1043E00000210D2000F088FF00210F2000F084FF45
:1043F0001420FCF7BFF941F2B061102000F07CFFFF
:104400000121112000F078FF0121172000F074FF36
:104410004FF49C71122000F06FFF4FF400611320E5
:1044200000F06AFF0921292000F066FF09212A20F7
:1044300000F062FF0021A42000F05EFF0021502068
:1044400000F05AFFEF21512000F056FF00215220CA
:1044500000F052FF40F23F11532000F04DFF4FF4A7
:104460001C51602000F048FF0121612000F044FF52
:1044700000216A2000F040FF0021802000F03CFF76
:104480000021812000F038FF0021822000F034FF5D
:10449000002100E024E0832000F02EFF0021842092
:1044A00000F02AFF0021852000F026FF1321902034
:1044B00000F022FF0021922000F01EFF0321932034
:1044C00000F01AFF4FF48871952000F015FF40F2BC
:1044D0007311072000F010FF3220FCF74BF9B8E40D
:1044E0003448808841F2055188427DD1002107205F
:1044F00000F002FF3220FCF73DF94FF48E711220DC
:1045000000F0FAFE0121A42000F0F6FE0F210820A1
:1045100000F0F2FE08210A2000F0EEFE08210D2036
:1045200000F0EAFE40F20771302000F0E5FE0721BE
:10453000312000F0E1FE40F20361322000F0DCFEA9
:104540004FF4E061332000F0D7FE40F20221342026
:1045500000F0D2FE0221352000F0CEFE41F60F71B0
:10456000362000F0C9FE40F20771372000F0C4FE8B
:104570000021382000F0C0FE0021392000F0BCFEF0
:1045800040F207713A2000F0B7FE00213B2000F016
:10459000B3FE07213C2000F0AFFE00213D2000F0DB
:1045A000ABFE3220FCF7E6F80121072000F0A4FE64
:1045B000012101E00C020020172000F09DFE3220B6
:1045C000FCF7D8F84FF4BD51102000F095FE40F2F2
:1045D0001721112000F090FE4FF48F71122000F08F
:1045E0008BFE4FF4706100E098E0132000F084FE31
:1045F00000212A2000F080FE0A21292000F07CFE04
:104600004FF49F71122000F077FE0021502000F03F
:1046100073FEEF21512000F06FFE0021522000F0C8
:104620006BFE40F23F11532000F066FE4FF41C5128
:10463000602000F061FE0121612000F05DFE00219C
:104640006A2000F059FE0021802000F055FE002174
:10465000812000F051FE0021822000F04DFE00215B
:10466000832000F049FE0021842000F045FE002157
:10467000852000F041FE1321902000F03DFE4FF414
:104680004071922000F038FE0521932000F034FEA6
:104690000021952000F030FE0021972000F02CFE34
:1046A0000021982000F028FE4FF48071012000F0D6
:1046B00023FE4FF4E061022000F01EFE41F23801BB
:1046C000032000F019FE0021042000F015FE002157
:1046D0000C2000F011FE00210F2000F00DFE002143
:1046E000202000F009FE0021212000F005FE2121FC
:1046F000072000F001FE1420FCF73CF861210720A0
:1047000000F0FAFD1420FCF735F840F27311072091
:1047100000F0F2FD1420FCF72DF895E4FE488088A7
:104720004BF2055188427CD10021084600F0E4FD9F
:104730000021084600F0E0FD0021084600F0DCFD05
:104740000021084600F0D8FD0121A42000F0D4FD8E
:104750001420FCF70FF84FF41C51602000F0CCFD42
:1047600040F20221082000F0C7FD4FF4057130200F
:1047700000F0C2FD43F21571312000F0BDFD40F2A2
:104780000461322000F0B8FD40F61661332000F0DD
:10479000B3FD42F21121342000F0AEFD4FF4A851D8
:1047A000352000F0A9FD48F20751362000F0A4FDA5
:1047B00041F20741372000F09FFD41F203413820CC
:1047C00000F09AFD2021392000F096FD1A2190205A
:1047D00000F092FD0021102000F08EFD0721112035
:1047E00000F08AFD0021122000F086FD0021132038
:1047F00000F082FD1420FBF7BDFF4FF4E6611020AE
:1048000000F07AFD40F23711112000F075FD142000
:10481000FBF7B0FF4FF4DC71122000F06DFD1420A7
:1048200000E085E0FBF7A6FF4FF47061132000F075
:1048300063FD80212A2000F05FFD4821292000F03F
:104840005BFD1420FBF796FF4FF48071012000F010
:1048500053FD4FF4E061022000F04EFD41F23801BB
:10486000032000F049FD40F20221082000F044FD41
:1048700000210A2000F040FD00210C2000F03CFD4A
:1048800000210D2000F038FD30210E2000F034FD15
:104890000021502000F030FDEF21512000F02CFDD0
:1048A0000021522000F028FD40F23F11532000F07B
:1048B00023FD4FF41C51602000F01EFD01216120FA
:1048C00000F01AFD00216A2000F016FD1121902051
:1048D00000F012FD4FF4C061922000F00DFD40F297
:1048E0000241932000F008FD0221942000F004FD15
:1048F0001420FBF73FFF0121072000F0FDFC1420EE
:10490000FBF738FF6121072000F0F6FC40F273113D
:10491000072000F0F1FC0021202000F0EDFC002138
:10492000212000F0E9FC2221002000F0E5FC11E349
:10493000794880884CF2055188427CD10021084694
:1049400000F0DAFC0021084600F0D6FC1420FBF74A
:1049500011FF0021084600F0CFFC0021084600F0BE
:10496000CBFC0021084600F0C7FC0021084600F0FF
:10497000C3FC0121A42000F0BFFC1420FBF7FAFEC9
:104980004FF41C51602000F0B7FC40F606010820EF
:1049900000F0B2FC40F20371302000F0ADFC0121C8
:1049A000312000F0A9FC0421322000F0A5FC4FF4D6
:1049B0008171332000F0A0FC4FF44071342000F0EE
:1049C0009BFC40F20311352000F096FC1F2136209D
:1049D00000F092FC40F20371372000F08DFC0121C1
:1049E000382000F089FC0421392000F085FC1521D5
:1049F000902000F081FC4FF48261102000F07CFCDC
:104A000040F24721112000F077FC4FF4DE711220B4
:104A100000F072FC4FF46061132000F06DFC782010
:104A2000FBF7A8FE4FF48071012000F065FC4FF405
:104A30000071022000E052E000F05EFC41F2300123
:104A4000032000F059FC08210A2000F055FC002149
:104A50000C2000F051FC20210E2000F04DFC002124
:104A60000F2000F049FC0021202000F045FC00212F
:104A7000212000F041FC3D212A2000F03DFC1420C3
:104A8000FBF778FE2D21292000F036FC0021502074
:104A900000F032FC4DF2EF01512000F02DFC00211E
:104AA000522000F029FC40F23F11532000F024FC7A
:104AB0000021612000F020FC00216A2000F01CFC95
:104AC0004FF44071922000F017FC0521932000F074
:104AD00013FC4FF48071072000F00EFC3AE20E4800
:104AE000808844F2315188427ED10121002000F0BB
:104AF00003FC0A20FBF73EFE41F22861102000F083
:104B0000FBFB0E21122000F0F7FB40F639211320A9
:104B100000F0F2FB0A2001E00C020020FBF72AFE65
:104B20004021112000F0E8FB5021152000F0E4FBAB
:104B30000A20FBF71FFE1E21122000F0DDFB0A20D9
:104B4000FBF718FE4FF4B151102000F0D5FB42F6F0
:104B50003921132000F0D0FB0A20FBF70BFE4FF4A5
:104B60008071012000F0C8FB4FF44071022000F07A
:104B7000C3FB41F23801032000F0BEFB40F20221EA
:104B8000082000F0B9FB08210A2000F0B5FB002145
:104B9000302000F0B1FB40F20241312000F0ACFBCC
:104BA0004FF48371322000F0A7FB40F20351332011
:104BB00000F0A2FB4FF48271342000F09DFB40F224
:104BC0000131352000F098FB40F20771362000F0EB
:104BD00093FB40F20531372000F08EFB4FF4027159
:104BE000382000F089FB00E03EE040F60B713920F0
:104BF00000F082FB0221412000F07EFB4FF41C51AB
:104C0000602000F079FB0121612000F075FB4FF47A
:104C10000471902000F070FB4FF48571922000F039
:104C20006BFB0421932000F067FB4FF48071A02000
:104C300000F062FB0121072000F05EFB212107202C
:104C400000F05AFB2321072000F056FB33210720F8
:104C500000F052FB40F23311072000F04DFB002121
:104C6000A02000F049FB75E1BF48808844F235512F
:104C700088427CD13021152000F03EFB10219A2083
:104C800000F03AFB2021112000F036FB43F22841CE
:104C9000102000F031FB0221122000F02DFB41F228
:104CA0003801132000F028FB2820FBF763FD1221B8
:104CB000084600F021FB2820FBF75CFD43F2204171
:104CC000102000F019FB43F23801132000F014FB10
:104CD0004620FBF74FFD0021302000F00DFB40F295
:104CE0000241312000F008FB40F20731322000F091
:104CF00003FB4FF44171332000F0FEFA042134200D
:104D000000F0FAFA40F20141352000F0F5FA40F2E5
:104D10000771362000F0F0FA40F20531372000F03C
:104D2000EBFA4FF4C261382000F0E6FA4FF4C261AA
:104D3000392000F0E1FA4FF48071012000F0DCFA34
:104D40004FF44071022000F0D7FA41F23001032005
:104D500000F0D2FA40F60801082000F0CDFA082150
:104D60000A2000F0C9FA4FF41C51602000E033E043
:104D700000F0C2FA0121612000F0BEFA4FF49F71E9
:104D8000902000F0B9FA4FF48071922000F0B4FA4C
:104D90004FF48071932000F0AFFA4FF44051A020FF
:104DA00000F0AAFA1021A32000F0A6FA01210720A2
:104DB00000F0A2FA2121072000F09EFA232107200B
:104DC00000F09AFA3321072000F096FA40F23311EE
:104DD000072000F091FABDE06348808841F6631136
:104DE0008842F8D1E22000F081FA1D2000F078FA24
:104DF000022000F075FA042000F072FA6420FBF73C
:104E0000C4FCE02000F072FA012000F069FA0A20E8
:104E1000FBF7B0FCE02000F069FA032000F060FA34
:104E20000C20FBF7A7FC012000F060FA0A20FBF73A
:104E3000A1FCE62000F05AFA2F2000F051FAFF20E2
:104E400000F04EFAFF2000F04BFAB02000F04EFACE
:104E5000202000F045FA002000F042FA032000F084
:104E60003FFA40F21F3000F03BFA012000F038FA20
:104E700040F2DF1000F034FA002000F031FAB420E4
:104E800000F034FA042000F02BFA40F21F4000F04A
:104E900027FA002000F024FA2E2000F021FA00204A
:104EA00000F01EFA002000F01BFA002000F018FAB3
:104EB000002000F015FAB62000F018FA022000F0E9
:104EC0000FFA4FF4037000F00BFA002000F008FA1C
:104ED000172000F005FA152000F002FA002000F07B
:104EE000FFF9002000F0FCF9F02000F0FFF90320AA
:104EF00000F0F6F9292000F0F9F9D02000F0F6F9D9
:104F0000002000F0EDF9BE2000F0F0F9052000F0DF
:104F1000E7F9FE2000F0E4F9012000F0E1F90020BB
:104F200000F0DEF9002000F0DBF9002000F0D8F9F5
:104F3000B82000F0DBF9032000F0D2F9012000F0E6
:104F4000CFF9BA2000F0D2F9012000F0C9F96420AD
:104F500000F020F80120FCF7D3FA0448006820F0A4
:104F600002000249086010BD0C0200201404024037
:104F700001490888704700000000086000B502463B
:104F8000104600F0B3F90520FBF7FFFBFFF7F0FF39
:104F900000BD000070B52DED048B0446BE2000F06E
:104FA000A5F9052000F09CF920461FF0EAFE41EC2F
:104FB000190B9FED0E0B53EC102B1FF0F5FE41EC7F
:104FC000180B1FF0B1FE85B2284600F089F90120C8
:104FD00000F086F9FF2000F083F9002000F080F94E
:104FE000002000F07DF9BDEC048B70BD666666663E
:104FF0006666044070B5044600230026B7488079F1
:1050000001280BD1B548808846F60401884205D0B6
:10501000B248808841F66311884208D1AF48807950
:10502000F0B9AE48808841F66311884218D1082C47
:1050300015D2DFE804F00406080A0C0E101206244C
:105040000DE007240BE0042409E0052407E0012417
:1050500005E0002403E0032401E0022400BF00BFB8
:105060009E48808849F24131884217D09B48808809
:1050700046F60401884211D09848808845F21031E4
:1050800088420BD09548808845F21051884205D05F
:105090009248808841F6631188427DD1082C1CD249
:1050A000DFE804F00406090C0F12151800BF14E025
:1050B00043F0800311E043F040030EE043F0C003EF
:1050C0000BE043F0200308E043F0600305E043F009
:1050D000A00302E043F0E00300BF00BF7F488088E8
:1050E00045F21051884202D14FF4585600E036265E
:1050F0007A48808845F2103188420DD07748808800
:1051000045F21051884207D07448808841F66311F7
:10511000884201D043F008037048808846F60401B5
:10512000884201D143F002031946304600F0E4F80A
:105130006A48808841F6631188421DD003F0200040
:1051400068B16648008865494988884214DA63482E
:105150000588408861490880084645800CE05F4822
:1051600000885E494988884206DD5C480588408899
:105170005A490880084645805848808845F21051B1
:10518000884254D15549488900F0B0F8002000F019
:10519000A7F85249498900E078E0491C88B200F03C
:1051A000A5F8002000F09CF84C494989891C88B278
:1051B00000F09CF849490988491EC1F30F2000F00E
:1051C0008FF846494989C91C88B200F08FF84349D5
:1051D0000978491EC8B200F083F84049888900F078
:1051E00085F8002000F07CF83C498989491C88B288
:1051F00000F07CF8002000F073F838498989891C98
:1052000088B200F073F835494988491EC1F30F2070
:1052100000F066F831498989C91C88B200F066F847
:105220002E498978491EC8B200F05AF855E02B493A
:10523000488900F05BF8002000F052F8002000F0F0
:105240004FF826490988491EC1F30F2000F048F89D
:1052500022490978491EC8B200F042F81F498889DE
:1052600000F044F8002000F03BF8002000F038F88F
:105270001A494988491EC1F30F2000F031F8174937
:105280008978491EC8B200F02BF826E0082C1CD201
:10529000DFE804F004070A0D0F12151843F030037D
:1052A00013E043F0100310E043F020030DE000BFD3
:1052B0000BE043F0380308E043F0280305E043F037
:1052C000180302E043F0080300BF00BF032643F4C5
:1052D00080531946304600F00FF870BD0C020020D4
:1052E00000BF0149088070470000086000BF014905
:1052F00008807047FEFF0760024A1080921C1180F0
:1053000070470000FEFF076000B587B01C216846AB
:10531000FBF738F94FF020401849086018484860FA
:105320000020886000211548C160016110214161A1
:1053300000218161C161016241624FF4805181624B
:105340000021C162016341638163416409200090CF
:105350000F200190092002900F200390102004904C
:105360001120059000200690002269460348FCF7B2
:105370007BF808B1FBF70EFA07B000BD1C02002055
:10538000040100A000B587B0142102A8FBF7FAF8C9
:1053900000BF002001903548006840F00400334908
:1053A00008600846006800F00400019000BF00BFDC
:1053B00000BF002001900846006840F080000860AF
:1053C0000846006800F08000019000BF00BF00BFE9
:1053D000002001900846006840F00100086008467F
:1053E000006800F00100019000BF00BF00BF002076
:1053F00001900846006840F0020008600846006816
:1054000000F00200019000BF00BF00BF002001902B
:105410000846006840F0100008600846006800F088
:105420001000019000BF00BF00BF0020019008469F
:10543000006840F0080008600846006800F00800B6
:10544000019000BF00BF002202210948FBF75EFB6C
:10545000022002900120039000200490059002A9F0
:105460000348FBF753FA07B000BD00003038024094
:105470000004024010B51BF019FF1CF01DFD1BF0CD
:1054800025FF10BD00B597B030210BA8FBF77AF8C7
:10549000142106A8FBF776F80020029003900490F0
:1054A000059000BF01902A48006840F080502849CC
:1054B00008600846006800F08050019000BF00BFFF
:1054C00000BF002001902348006840F4804021493B
:1054D00008600846006800F48040019000BF00BFEB
:1054E00005200B904FF480300C9001200D9002208D
:1054F00011904105129104211391A82114910221C8
:105500001591042116910BA8FBF76AFD08B1FBF772
:1055100041F90F20069002200790002008904FF4D8
:10552000A05009904FF480500A90052106A8FBF77F
:105530003DFC08B1FBF72EF902200290C001059056
:1055400002A8FBF763FB08B1FBF724F917B000BD15
:1055500040380240007000400548006840F4700088
:10556000034908604FF000600149803908607047C6
:1055700088ED00E010B5002804DB0A07130E054A89
:10558000135406E00A07140E034A00F00F031B1F12
:10559000D45410BD00E400E018ED00E0014609B964
:1055A00000207047C8B220B1C8B20E4A105C401C3F
:1055B000F7E701F47F4028B10A48C1F30722805C75
:1055C0000930EEE701F47F0028B10648C1F3074235
:1055D000805C1130E5E7034800EB1160007819307A
:1055E000DFE700005286020870B50446002508E097
:1055F0002168481C20600878303805EB850100EBF5
:1056000041052168087800F00FF80028F0D12846FD
:1056100070BD000003490868884201D0012070472E
:105620000020FCE7F80100200146302903DB39297E
:1056300001DC012070470020FCE7000010B540218C
:10564000084801F062FC002304221E21064819F0DC
:10565000DBFD0649086003F019FF002004490870CB
:1056600010BD0000A843002079950008A00000208C
:105670009C0000202DE9F04705460F4616461C46C3
:10568000152E30D2DFE806F00B3034495765839A87
:10569000AFCDD6F9F7F6F5F4F3F2F1F0EF002846C6
:1056A0000DF04CFE814600EBD9704FEA600A384697
:1056B0000DF044FE804600EBD870AAEB600000B20B
:1056C000208028460DF0D5FD814600EBD9704FEAC9
:1056D000600A38460DF0CDFD804600EBD870AAEB8D
:1056E000600000B260806AE100202080608066E196
:1056F00028460DF023FE814600EBD9704FEA600A80
:1057000038460DF01BFE804600EBD870AAEB600017
:1057100000B220800020608051E128460DF00EFE8E
:10572000804638460DF00AFEA8EB000000B220804B
:105730000020608043E10020208028460DF099FD84
:10574000804638460DF095FDA8EB000000B2608061
:1057500035E128460DF0F2FD814600EBD9704FEAA5
:10576000600A38460DF0EAFD804600EBD870AAEBDF
:10577000600000B2208028460DF07BFD8046384650
:105780000DF077FDA8EB000000B2608017E128461D
:105790000DF0D4FD804638460DF0D0FDA8EB00009A
:1057A00000B2208028460DF064FD804638460DF09A
:1057B00060FDA8EB000000B2608000E100202080C6
:1057C00028460DF056FD814600EBD9704FEA600A7D
:1057D00038460DF04EFD804600EBD870AAEB600015
:1057E00000B26080EBE028460DF0A8FD8046384608
:1057F0000DF0A4FDA8EB000000B2208028460DF0BB
:1058000038FD814600EBD9704FEA600A38460DF04A
:1058100030FD804600EBD870AAEB600000B26080DB
:10582000CDE00020208038460DF023FD404200B23C
:105830006080C4E028460DF081FD814600EBD97000
:105840004FEA600A38460DF079FD804600EBD870CB
:10585000AAEB600000B2208038460DF00AFD4042FD
:1058600000B26080ABE09AE082E07AE067E04DE071
:1058700043E032E01AE012E0FFE728460DF05EFD5B
:10588000804638460DF05AFDA8EB000000B220809B
:1058900038460DF0EEFC404200B260808FE0002000
:1058A000208028460DF0E5FC608088E028460DF059
:1058B00045FD814600EBD9704FEA600A38460DF08D
:1058C0003DFD804600EBD870AAEB600000B220805E
:1058D00028460DF0CEFC608071E028460DF02EFDCC
:1058E000804638460DF02AFDA8EB000000B220806B
:1058F00028460DF0BEFC608061E038460DF01EFDCC
:10590000404200B220800020608058E038460DF010
:1059100015FD404200B2208028460DF0AAFC8146C9
:1059200000EBD9704FEA600A38460DF0A2FC8046C1
:1059300000EBD870AAEB600000B260803FE0384610
:105940000DF0FCFC404200B2208028460DF091FC96
:10595000804638460DF08DFCA8EB000000B2608058
:105960002DE028460DF0EAFC20800020608026E033
:1059700028460DF0E3FC208028460DF07AFC814695
:1059800000EBD9704FEA600A38460DF072FC804691
:1059900000EBD870AAEB600000B260800FE02846F0
:1059A0000DF0CCFC208028460DF063FC8046384684
:1059B0000DF05FFCA8EB000000B2608000BF00BFEC
:1059C00020882988084400B22080608869880844BB
:1059D00000B26080BDE8F08730B50346B1F9004001
:1059E000B2F90050AC4202DDB1F9004001E0B2F979
:1059F00000401C80B1F90240B2F90250AC4202DD15
:105A0000B1F9024001E0B2F902405C80B1F9044012
:105A1000B2F90450AC4202DAB1F9044001E0B2F943
:105A200004409C80B1F90640B2F90650AC4202DA5B
:105A3000B1F9064001E0B2F90640DC800120B3F97B
:105A40000040B3F90450AC4205DCB3F90240B3F9AD
:105A50000650AC4200DD002030BDF8B504460D46CE
:105A600016460027B4F90000B5F90010884212DB91
:105A7000B4F90200B5F9021088420CDBB4F9040055
:105A8000B5F90410884206DCB4F90600B5F9061031
:105A9000884200DC01270FB90020F8BD0EB90120B3
:105AA000FBE72088ADF800006088ADF802003246C0
:105AB0006946284600F04CF808B90020EDE7A088B8
:105AC000ADF800006088ADF802003246694628460D
:105AD00000F03EF808B90020DFE72088ADF80000AC
