:020000040800F2
:1000000058BF002069020008455600088B140008FC
:100010004156000857060008455700080000000038
:100020000000000000000000000000004956000829
:100030005B06000800000000475600084B56000809
:10004000830200088302000883020008830200087C
:10005000830200088302000883020008830200086C
:10006000830200088302000883020008830200085C
:10007000830200088302000883020008830200084C
:10008000830200088302000883020008830200083C
:10009000830200088302000883020008830200082C
:1000A000830200088302000883020008830200081C
:1000B000830200088302000883020008830200080C
:1000C00083020008830200088302000883020008FC
:1000D00083020008830200088302000883020008EC
:1000E00083020008830200088302000883020008DC
:1000F00083020008830200088302000883020008CC
:1001000083020008830200088302000883020008BB
:1001100083020008830200088302000883020008AB
:10012000830200088302000883020008830200089B
:10013000830200088302000883020008830200088B
:10014000830200088302000883020008830200087B
:10015000830200088302000883020008830200086B
:10016000830200088302000883020008830200085B
:1001700083020008830200088302000800000000D8
:10018000830200088302000800F002F800F05CF827
:100190000AA090E8000C82448344AAF10107DA45E2
:1001A00001D100F051F8AFF2090EBAE80F0013F0D8
:1001B000010F18BFFB1A43F001031847486D0200F6
:1001C000686D02000A444FF0000C10F8013B13F078
:1001D000070408BF10F8014B1D1108BF10F8015BA0
:1001E000641E05D010F8016B641E01F8016BF9D193
:1001F00013F0080F1EBF10F8014BAD1C0C1B09D1EA
:100200006D1E58BF01F801CBFAD505E014F8016B5B
:1002100001F8016B6D1EF9D59142D6D370470000ED
:100220000023002400250026103A28BF78C1FBD8FF
:10023000520728BF30C148BF0B6070471FB523F07D
:10024000DFFA1FBD10B510BD00F0CBF91146FFF766
:10025000F5FF1FF045FD00F0E9F903B4FFF7F2FFE9
:1002600003BC00F0F1F90000094880470948004745
:10027000FEE7FEE7FEE7FEE7FEE7FEE7FEE7FEE756
:10028000FEE7FEE704480549054A064B70470000B3
:10029000295700088901000858B9002058BF0020DC
:1002A00058BB002058BB002053EA020C00F06980C4
:1002B0002DE9F04B4FF00006002B1FBFB3FA83F57A
:1002C00003FA05F424FA05F65E4012BF1643B2FAAB
:1002D00082F502FA05F4C5F120051EBF22FA05FCDD
:1002E00044EA0C04203556EA044C4FEA144418BF83
:1002F000641C4FF000084FF00009904271EB030CB2
:1003000039D3002919BFB1FA81F701FA07F6B0FA1B
:1003100080F700FA07F6C7F120071EBF20FA07FC96
:1003200046EA0C062037B6FBF4FCA7EB0507103FA6
:1003300007F01F0BCBF120060CFA0BFB2CFA06F68C
:1003400044BFB3460026202FA4BF5E464FF0000BEB
:100350005BEA060C08BF4FF0010B19EB0B09ABFB76
:10036000027C48EB0608C01B06FB02CC0BFB03CC4F
:1003700071EB0C01C1E70B46024641464846BDE819
:10038000F08B13B54FF000004FF00001AFF3008089
:10039000BDE81C40704740EA010310B59B070FD130
:1003A000042A0DD310C808C9121F9C42F8D020BAE5
:1003B00019BA884201D9012010BD4FF0FF3010BD9D
:1003C0001AB1D30703D0521C07E0002010BD10F86B
:1003D000013B11F8014B1B1B07D110F8013B11F831
:1003E000014B1B1B01D1921EF1D1184610BD40EAF2
:1003F0000103024630B59B0710D14FF0013400E0F5
:1004000008C208C91D1B9D4315EAC41FF8D013F08C
:10041000FF0102F8011B0DD01B0AF8E711F8013BA0
:10042000002B02F8013B05D011F8013B002B02F82C
:10043000013BF3D130BD10B5431C02E010F8011BA5
:1004400071B18107FAD14FF0013202C88C1A8C4386
:1004500014EAC211F9D0C01A0A0603D0C01E10BD9A
:10046000C01A10BD0A0401D0801E10BD0902FCD0C4
:10047000401E10BD4FF0000200B51346944696464C
:10048000203922BFA0E80C50A0E80C50B1F12001A7
:10049000BFF4F7AF090728BFA0E80C5048BF0CC055
:1004A0005DF804EB890028BF40F8042B08BF7047B3
:1004B00048BF20F8022B11F0804F18BF00F8012B25
:1004C000704710B5044610F0030F08BF11F0030F7A
:1004D00040F015804FF0013E121FC0F20E8051F81F
:1004E000043BA3EB0E0C2CEA030C1CEACE1C08BF49
:1004F00040F8043BF0D0A1F1040102F10402521EC5
:1005000008DB11F8013B002B00F8013BF7D1114645
:1005100000F045F8204610BD4FF0013C50F8042B88
:1005200051F8043B9A4221D1A2EB0C03934313EA06
:10053000CC1317D150F8042B51F8043B9A4215D133
:10054000A2EB0C03934313EACC130BD150F8042B0A
:1005500051F8043B9A4209D1A2EB0C03934313EAEE
:10056000CC13DBD04FF00000704700BFD01A01BAA7
:10057000B1FA81F101F0180122FA01F0CB40C1F18A
:100580002001DBB2C0B2C01A2CFA01F3D11A914398
:1005900011EAC311E6D170477047704770474FF0BA
:1005A00000020429C0F0128010F0030C3FF464AF85
:1005B000CCF1040CBCF1020F18BF00F8012BA8BF4E
:1005C00020F8022BA1EB0C01FFF756BF5FEAC17CBC
:1005D00024BF00F8012B00F8012B48BF00F8012BC5
:1005E0007047754600F02CF8AE4605006946534644
:1005F00020F00700854618B020B5FFF743FEBDE8A0
:1006000020404FF000064FF000074FF000084FF079
:10061000000B21F00701AC46ACE8C009ACE8C0090A
:10062000ACE8C009ACE8C0098D46704710B5044677
:10063000AFF300802046BDE81040FFF70EBE00007B
:1006400000487047F8B8002001491820ABBEFEE70B
:1006500026000200704700BFFEE7704770B50446F1
:1006600000F0CEF9051900BF00F0CAF9A842FBD38B
:1006700070BD00E0401E0028FCD1704770470000AC
:1006800070B504461D460023B5F5804F13D154F8CC
:1006900022300C480340D1E9000640EA06108E687B
:1006A00040EA06208E8940EA06408E6930430343C3
:1006B00044F8223003E06FF0704044F8220000203C
:1006C00070BD00000000F0CF10B50346002208689E
:1006D00053F8202012480240D1E901042043CC689D
:1006E00020430C6920434C6920438C692043CC692A
:1006F00020430C6A20434C6A20438C6A2043CC6A16
:100700002043CC6B20430C6B2043024388680828AD
:1007100001D142F04002086843F82020002010BDBB
:100720008000F0FF30B503460024501C53F82040F1
:1007300004F04044D1E9000540EA05108D6840EA24
:1007400005208D8940EA0545088A401E45EA005586
:10075000087D801E45EA00608D6928430443501CD3
:1007600043F82040002030BD00B587B0142102A816
:10077000FFF780FE1B48006808B107B000BD0120EC
:100780001849086000BF002001901748006840F039
:100790000100154908600846006800F0010001905A
:1007A00000BF00BF4FF6807002900220039000202F
:1007B0000490032005900C20069002A90B4800F03D
:1007C00019F84EF2B37002900220039000200490BA
:1007D000032005900C20069002A9054800F00AF8B5
:1007E00000BFCAE70800002038380240001002406D
:1007F000000C0240F8B502460B46002500240020FC
:100800000021DCE0012606FA01F51E6806EA05046F
:10081000AC4273D15E68012E08D05E68022E05D00E
:100820005E68112E02D05E68122E13D190684F00C0
:100830000326BE40B0434F00DE68BE4030439060A8
:10084000506801268E40B0431E79C6F300168E40D4
:1008500030435060D0684F000326BE40B0434F0085
:100860009E68BE403043D0605E68022E02D05E6853
:10087000122E13D1CF0802F1200656F827004E079A
:10088000F70E0F26BE40B0434F07FF0E1E69BE4055
:100890003043CF0802F1200646F8270010684F00C9
:1008A0000326BE40B0431E7906F003064F00BE404B
:1008B000304310605E6806F08056B6F1805F7DD1EF
:1008C00000BF00260096404E366846F480463E4FF4
:1008D0003E603E46366806F48046009600BF00BF84
:1008E0003A4E8F0856F827008E07370F0F26BE4066
:1008F000B043374EB24202D1002624E05EE0354ECE
:10090000B24201D101261EE0334EB24201D102268D
:1009100019E0324EB24201D1032614E0304EB24209
:1009200001D104260FE02F4EB24201D105260AE084
:100930002D4EB24201D1062605E02C4EB24201D125
:10094000072600E008268F073F0FBE4030431F4EAA
:100950008F0846F82700264E3068A0435E6806F4EC
:100960008036B6F5803F00D12043214E3060361DE1
:100970003068A0435E6806F40036B6F5003F00D14B
:1009800020431B4E361D3060361D3068A0435E6824
:1009900006F48016B6F5801F00D12043144E0836A9
:1009A0003060361D3068A0435E6806F40016B6F568
:1009B000001F00D120430E4E0C363060491C102918
:1009C000FFF420AFF8BD0000443802400838014071
:1009D000000002400004024000080240000C0240F7
:1009E000001002400014024000180240001C0240A7
:1009F000003C01400AB1816101E00B048361704752
:100A0000014800687047000010000020034800689B
:100A10000349097808440149086070471000002024
:100A20001800002010B50D48006840F400700B4914
:100A300008600846006840F4806008600846006866
:100A400040F480700860032000F092F8002000F06D
:100A500007F800F02BF8002010BD0000003C024019
:100A600070B504460E4800784FF47A71B1FBF0F08F
:100A70000C490968B1FBF0F5284600F0ECFC08B120
:100A8000012070BD102C07D200222146501E00F01C
:100A900031F80548046001E00120F2E70020F0E7AA
:100AA000180000201C0000201400002008B500BF22
:100AB000002000900E48006840F480400C49086017
:100AC0000846006800F48040009000BF00BF00BFEF
:100AD00000200090081F006840F08050091F086047
:100AE0000846006800F08050009000BF00BF08BDBD
:100AF000443802402DE9F05F80460D461646002737
:100B000004F022FE074639462A46334601F0070024
:100B1000C0F1070ABAF1040F02D94FF0040A01E04C
:100B2000C0F1070AD14600F1040ABAF1070F02D258
:100B30004FF0000A01E0A0F1030AD4464FF0010A89
:100B40000AFA09FAAAF1010A0AEA020A0AFA0CFAEE
:100B50004FF0010B0BFA0CFBABF1010B0BEA030B93
:100B60004AEA0B042146404604F0F6FDBDE8F09F3A
:100B700000BF00F00702064B19684FF6FF0319404B
:100B8000044B0B4343EA0221014B196000BF70473D
:100B90000CED00E00000FA05F8B50446002500263B
:100BA000207800F0010020B9207800F0040004282B
:100BB0002FD100205B498866FFF722FF054606E03B
:100BC000FFF71EFF401B022801D90320F8BD56483D
:100BD0000068C0F3C0600028F2D160688101207A0B
:100BE00041EA007050498431086001204D4988660F
:100BF000FFF706FF054606E0FFF702FF401B02284D
:100C000001D90320E2E748480068C0F3C06000282B
:100C1000F2D0207800F0020002287DD100BF002031
:100C2000009041484030006840F080503E494031DB
:100C300008600846006800F08050009000BF00BFC8
:100C40003A48006840F4807038490860FFF7D8FEE1
:100C5000054606E0FFF7D4FE401B022801D9032019
:100C6000B4E73248006800F480700028F2D02E48C3
:100C70007030006800F440764EB3A08900F44070F4
:100C8000B04224D028487030006820F4407601201B
:100C9000274908600020086023487030066000681B
:100CA00000F0010098B1FFF7ABFE054608E0FFF742
:100CB000A7FE401B41F28831884201D9032085E715
:100CC000194870300068C0F340000028EFD000BF22
:100CD000A08900F44070B0F5407F0CD11248083074
:100CE000006820F4F810134AE168114008430E49E7
:100CF0000831086007E00C480830006820F4F8105C
:100D0000094908310860084870300068A189C1F3BA
:100D10000B010843044900E002E07031086000BFA5
:100D2000002053E7000047420038024000700040B6
:100D3000400E4742FFFCFF0F70B504460D460CB94C
:100D4000012070BD5848006800F00F00A84209D289
:100D500055490D700846006800F00F00A84201D008
:100D60000120EEE7207800F0020002281DD1207853
:100D700000F00400042805D14C48006840F4E0501D
:100D80004A490860207800F00800082805D1474843
:100D9000006840F46040454908604448006820F01D
:100DA000F000A168084341490860207800F0010084
:100DB000A8B36068012807D13C4808380068C0F330
:100DC0004040B8B90120BCE76068022802D06068E2
:100DD000032807D1354808380068C0F3406048B997
:100DE0000120AEE7314808380068C0F3400008B978
:100DF0000120A6E72D48006820F003006168084341
:100E00002A490860FFF7FCFD064609E0FFF7F8FDF8
:100E1000801B41F28831884202D9032091E707E024
:100E20002248006800F00C006168B0EB810FEDD142
:100E30001D48006800F00F00A84209D91A490D703A
:100E40000846006800F00F00A84201D0012078E7B2
:100E5000207800F00400042807D11448006820F42A
:100E6000E050E168084311490860207800F008006C
:100E7000082808D10D48006820F46040216940EA44
:100E8000C1000A49086000F019F808490968C1F36F
:100E90000311074A515CC8400649086006480068CB
:100EA000FFF7DEFD00204CE7003C0240083802401E
:100EB000123802081C000020140000202DE9F04721
:100EC000002400250026A1462548006800F00C00FB
:100ED00020B1042805D008283AD105E0DFF8849035
:100EE00039E0DFF8849036E01D48001F006800F00C
:100EF0003F041B48001F006800F4800078B11A48C6
:100F00001749091F0968C1F38811A0FB0170014648
:100F1000224600233846FFF7C7F905460EE0114880
:100F20000F49091F0968C1F38811A0FB0170014630
:100F3000224600233846FFF7B7F905460848001F48
:100F40000068C0F30140401C4600B5FBF6F902E022
:100F5000DFF8109000BF00BF4846BDE8F0870000F2
:100F6000083802400024F40000127A00F8B5044664
:100F70000CB90120F8BD207800F00100002874D0E1
:100F8000F948006800F00C0004280DD0F64800680D
:100F900000F00C00082813D1F348001F006800F48B
:100FA0008000B0F5800F0BD1EF4808380068C0F31F
:100FB0004040002859D06068002856D10120D9E768
:100FC00000BF6068B0F5803F08D1E7480838006886
:100FD00040F48030E449083908601EE06068B0F5EC
:100FE000A02F0DD1E0480838006840F48020DE4989
:100FF000083908600846006840F4803008600CE05A
:10100000D9480838006820F48030D749083908608A
:101010000846006820F48020086000BF606890B136
:10102000FFF7EEFC054606E0FFF7EAFC401B6428EC
:1010300001D903209EE7CC4808380068C0F340403F
:101040000028F1D011E0FFF7DBFC054606E0FFF7D2
:10105000D7FC401B642801D903208BE7C24808381D
:101060000068C0F340400028F1D1207800F0020071
:1010700002285FD1BC48006800F00C0058B1BA48A3
:10108000006800F00C0008281CD1B748001F006859
:1010900000F48000B0B9B44808380068C0F34000DC
:1010A00020B1E068012801D0012063E7AE4808388C
:1010B000006820F0F800216940EAC100AA49083917
:1010C000086037E0E06800B30120A8490860FFF736
:1010D00097FC054606E0FFF793FC401B022801D968
:1010E000032047E7A04808380068C0F34000002804
:1010F000F1D09D480838006820F0F800216940EAE6
:10110000C10099490839086014E000209749086037
:10111000FFF776FC054606E0FFF772FC401B02284D
:1011200001D9032026E7904808380068C0F3400042
:101130000028F1D1207800F0080008282CD160693F
:10114000A8B101208A490860FFF75AFC054606E06D
:10115000FFF756FC401B022801D903200AE782480A
:101160006C300068C0F340000028F1D014E000208B
:101170007F490860FFF744FC054606E0FFF740FCA6
:10118000401B022801D90320F4E677486C30006840
:10119000C0F340000028F1D1207800F004000428BA
:1011A00070D1002770483830006800F0805090B946
:1011B00000BF002000906C483830006840F080503C
:1011C0006949383108600846006800F08050009096
:1011D00000BF00BF01276748006800F48070B0B905
:1011E0006448006840F4807062490860FFF708FCBA
:1011F000054606E0FFF704FC401B022801D9032046
:10120000B8E65C48006800F480700028F2D000BFA7
:10121000A068012808D154486830006840F00100F7
:101220005149683108601DE0A06805280DD14E487D
:101230006830006840F004004B4968310860084697
:10124000006840F0010008600CE047486830006822
:1012500020F001004449683108600846006820F029
:101260000400086000BFA068A8B1FFF7C9FB0546ED
:1012700009E0FFF7C5FB401B41F28831884202D9E3
:10128000032077E626E0384868300068C0F3400065
:101290000028EED013E0FFF7B3FB054608E0FFF7A8
:1012A000AFFB401B41F28831884201D9032061E63F
:1012B0002D4868300068C0F340000028EFD1012FAE
:1012C00007D129483830006820F08050264938314D
:1012D000086000BFA069002845D02348006800F0DE
:1012E0000C0008285DD0A069022845D100201F49C4
:1012F0000866FFF785FB054606E0FFF781FB401B0C
:10130000022801D9032035E6174808380068C0F3E1
:1013100040600028F1D1D4E907010843616A40EA3E
:1013200081110122A06AC2EB500041EA00412C2049
:10133000005D41EA00600C49091F086001200B496B
:101340000866FFF75DFB054606E0FFF759FB401B0B
:10135000022801D903200DE6034808380068C0F3CD
:1013600040600028F1D03FE00838024000004742CA
:10137000800E47420070004000201C490866FFF7BD
:101380003FFB054606E0FFF73BFB401B022801D967
:101390000320EFE516480068C0F340600028F2D152
:1013A00022E0A069012800D1E4E511480830066870
:1013B00006F48001E069814214D106F03F01206A01
:1013C00081420FD147F6C0703040616A884209D12E
:1013D00006F44031A06A814204D106F07061E06AEF
:1013E000814201D00120C5E50020C3E5000047424D
:1013F0000038024070B504460E4615460CB901206F
:1014000070BD94F8490028B9002084F848002046AF
:1014100000F01CF804F108012068FFF755F9314687
:10142000A2682068FFF77EF92946236BD4E9010200
:10143000FFF726F9A168206850F8210040F001006C
:10144000A268216841F822000020D9E710B50446BF
:10145000FFF78AF910BD70B504462546681EB0F145
:10146000807F01D301200FE0681E4FF0E02148612A
:101470000F214FF0FF3004F06FF900204FF0E02112
:10148000886107200861002070BD00BFFEE70000F2
:1014900070B504460026174805884088454315481E
:1014A000808846F60401884216D1124880790128C6
:1014B00012D100200F4988712A2048812B20888171
:1014C0000021084603F014FF01200A4988712B20EF
:1014D00048812A20888103E00021084603F008FFA4
:1014E00003F0E6FF002602E003480480761CAE42CB
:1014F000FAD370BD400100200000086010B504461A
:10150000002C66D16C498871F02008804FF4A070DF
:1015100048800846808849F2413188420BD06648AD
:10152000808846F60401884205D06348808845F2E9
:10153000103188421AD12C205F4908812A20488125
:101540002B2088810846808846F60401884205D011
:101550005948808845F21031884206D14FF4A07076
:10156000554908804FF4F0704880A1E052488088C7
:1015700045F21051884210D14FF430504E49088145
:101580004FF4285048814FF42C5088814FF4F0706C
:1015900008804FF4487048808AE04748808841F6C8
:1015A000631188420DD12C20434908812B204881AA
:1015B0002A2088814FF4F07008804FF448704880EA
:1015C00076E022203C490881202048812120888122
:1015D0006EE00120384988714FF4A0700880F02037
:1015E00048800846808849F24131884205D0324817
:1015F000808845F21031884207D12C202E4908817D
:101600002A2048812B2088813FE02B48808846F69D
:101610000401884207D12C20274908812B204881CA
:101620002A20888131E02448808845F21051884280
:1016300010D14FF43050204908814FF42850488190
:101640004FF42C5088814FF4487008804FF4F070AC
:1016500048801AE01848808841F6631188420DD10D
:101660002C20154908812A2048812B2088814FF49D
:10167000487008804FF4F070488006E022200E4940
:10168000088121204881202088810B48808846F6E7
:101690000401884205D00848808845F2103188420C
:1016A00006D14FF4F070044908804FF4A0704880D0
:1016B000002003F0A7FC10BD4001002030B5034618
:1016C0000C4615465A48808849F24131884205D077
:1016D0005748808845F21031884214D154494889CE
:1016E00003F0E0FE181203F0D7FED8B203F0D4FEE8
:1016F0004F49888903F0D6FE201203F0CDFEE0B2F8
:1017000003F0CAFE8CE04A48808845F210518842B6
:1017100020D14749488903F0C5FE181203F0BCFEEA
:1017200043494989491C88B203F0BCFED8B203F092
:10173000B3FE3F49888903F0B5FE201203F0ACFEEA
:101740003B498989491C88B203F0ACFEE0B203F042
:10175000A3FE65E03648808841F66311884228D1AF
:101760003348807920B932480088401EC01A83B2BD
:101770002F49488903F096FE181203F08DFED8B267
:1017800003F08AFE181203F087FED8B203F084FE3D
:101790002749888903F086FE201203F07DFEE0B21F
:1017A00003F07AFE201203F077FEE0B203F074FE3D
:1017B00036E01F48808846F6040188421DD11C4847
:1017C0008079012804D11A480088401EC01A83B2CB
:1017D0001749488903F066FE181203F05DFED8B27F
:1017E00003F05AFE1249888903F05CFE201203F0D0
:1017F00053FEE0B203F050FE12E00D48807901285C
:1018000004D10B480088401EC01A83B20849488999
:10181000194603F057FE06498889214603F052FE17
:101820000348008903490880881C058030BD0000FA
:1018300040010020FEFF076010B5FE48FFF706FEDE
:1018400003F048FE3220FEF709FF0121002003F0DB
:1018500039FE3220FEF702FF002003F097FBF64925
:10186000888008468088FF280ADB084680884FF673
:10187000FF71884204D0F0488088B0F5134F7CD1C6
:10188000D32003F00FFE03F07BFBEB49888003F0CD
:1018900077FBE949888003F073FBE74988800846B5
:1018A00080884FF6FF7101EA0020E349888003F049
:1018B00067FBE14989880843DF49888008468088BA
:1018C00049F24131884258D0BF2003F0EBFD03F0CC
:1018D00057FBD949888003F053FBD749888003F030
:1018E0004FFBD549888003F04BFBD34988800846DD
:1018F00080884FF6FF7101EA0020CF49888003F00D
:101900003FFBCD4989880843CB49888008468088B9
:1019100046F6040188427AD0D42003F0C3FD03F0D8
:101920002FFBC549888003F02BFBC349888003F057
:1019300027FBC1498880084680884FF6FF7101EA7D
:101940000020BD49888003F01BFBBB498988084300
:10195000B94988800846808845F21031884256D0BF
:101960004FF45A4003F09EFD03F00AFBB249888011
:101970004FF45B4003F096FD00E048E003F000FB0D
:10198000AD498880084680884FF6FF7101EA002043
:10199000A94988804FF45C4003F084FD03F0F0FA1D
:1019A000A54989880843A449888008468088B0F5FD
:1019B000004F02D145F2105088809F48808845F240
:1019C0001051884223D0A12003F06CFD03F0D8FA17
:1019D0009949888003F0D4FA97498880084680881E
:1019E0004FF6FF7101EA00209349888003F0C8FA9E
:1019F000914989880843904988800846808845F243
:101A00006171884203D141F663108B4988808A480E
:101A1000808849F24131884211D08748808845F258
:101A2000103188420BD08448808845F2105188429A
:101A300005D08148808841F6631188421DD17F48D6
:101A4000006820F00F004FF02041C1F81C0108464B
:101A5000D0F81C0120F47060C1F81C010846D0F8D1
:101A60001C0140F00300C1F81C010846D0F81C011D
:101A700040F40070C1F81C0128E06F48808846F6E9
:101A80000401884205D06C4880884CF20551884298
:101A90001CD16A48006820F00F004FF02041C1F8C7
:101AA0001C010846D0F81C0120F47060C1F81C012C
:101AB0000846D0F81C0140F00A00C1F81C01084695
:101AC000D0F81C0140F44060C1F81C015A488088DD
:101AD00049F2413188427CD1CF2003F0E3FC002061
:101AE00003F0DAFCC12003F0D7FC302003F0D4FC73
:101AF000ED2003F0D7FC642003F0CEFC032003F0BC
:101B0000CBFC122003F0C8FC812003F0C5FCE820C8
:101B100003F0C8FC852003F0BFFC102003F0BCFCE0
:101B20007A2003F0B9FCCB2003F0BCFC392003F091
:101B3000B3FC2C2003F0B0FC002003F0ADFC3420FB
:101B400003F0AAFC022003F0A7FCF72003F0AAFC94
:101B5000202003F0A1FCEA2003F0A4FC002003F005
:101B60009BFC002003F098FCC02003F09BFC1B2092
:101B700003F092FCC12003F095FC012003F08CFCE3
:101B8000C52003F08FFC302003F086FC302003F0EA
:101B900083FCC72003F086FCB72003F07DFC3620D1
:101BA00003F080FC482003F077FC3A2003F07AFC35
:101BB000552003F071FCB12003F074FC002003F009
:101BC0006BFC1A2003F068FCB62003F06BFC0A20C3
:101BD00000E0A0E003F060FCA22003F05DFCF22036
:101BE00003F060FC002003F057FC262003F05AFCB1
:101BF000012003F051FCE02003F054FC0F2003F01F
:101C00004BFC2A2003F048FC282003F045FC082068
:101C100003F042FC0E2003F03FFC082003F03CFCE4
:101C2000542003F039FCA92003F036FC432003F0D4
:101C300033FC05E050010020400100201C0100A001
:101C40000A2003F029FC0F2003F026FC002003F0FB
:101C500023FC002003F020FC002003F01DFC0020EA
:101C600003F01AFCE12003F01DFC002003F014FC3B
:101C7000152003F011FC172003F00EFC072003F0E1
:101C80000BFC112003F008FC062003F005FC2B20C0
:101C900003F002FC562003F0FFFB3C2003F0FCFBAA
:101CA000052003F0F9FB102003F0F6FB0F2003F0F2
:101CB000F3FB3F2003F0F0FB3F2003F0EDFB0F2090
:101CC00003F0EAFB2B2003F0EDFB002003F0E4FB24
:101CD000002003F0E1FB012003F0DEFB3F2003F0D6
:101CE000DBFB2A2003F0DEFB002003F0D5FB002005
:101CF00003F0D2FB002003F0CFFBEF2003F0CCFB7E
:101D0000112003F0CFFB7820FEF7A8FC292003F078
:101D1000C9FB03F01DB9FE48808846F604018842DD
:101D20007ED1112003F0BEFB1420FEF797FCD020DB
:101D300003F0B8FB072003F0AFFB422003F0ACFB3D
:101D40001D2003F0A9FBD12003F0ACFB002003F021
:101D5000A3FB1A2003F0A0FB092003F09DFBD22077
:101D600003F0A0FB012003F097FB222003F094FB7B
:101D7000C02003F097FB102003F08EFB3B2003F004
:101D80008BFB002003F088FB022003F085FB112071
:101D900003F082FBC52003F085FB032003F07CFBEE
:101DA000C82003F07FFB002003F076FB252003F022
:101DB00073FB212003F070FB052003F06DFB002076
:101DC00003F06AFB0A2003F067FB652003F064FB65
:101DD000252003F061FB772003F05EFB502003F029
:101DE0005BFB0F2003F058FB002003F055FBF820AD
:101DF00003F058FB012003F04FFBFE2003F052FBE1
:101E0000002003F049FB022003F046FB202003F0F2
:101E100049FB362003F046FB082003F03DFB00E0C1
:101E20002AE03A2003F03EFB552003F035FB2B203F
:101E300003F038FB002003F02FFB002003F02CFB05
:101E4000012003F029FB3F2003F026FB2A2003F0AA
:101E500029FB002003F020FB002003F01DFB0120E4
:101E600003F01AFBDF2003F017FB7820FEF7F6FBE8
:101E7000292003F017FB4CE7A548808845F2103174
:101E8000884240F07C87ED2003F00CFB012003F03A
:101E900003FBFE2003F000FBEE2003F003FBDE203B
:101EA00003F0FAFA212003F0F7FAF12003F0FAFA2E
:101EB000012003F0F1FADF2003F0F4FA102003F020
:101EC000EBFAC42003F0EEFA8F2003F0E5FAC62007
:101ED00003F0E8FA002003F0DFFAE22003F0DCFA76
:101EE000E22003F0D9FAE22003F0D6FABF2003F093
:101EF000D9FAAA2003F0D0FAB02003F0D3FA0D20CB
:101F000003F0CAFA002003F0C7FA0D2003F0C4FA68
:101F1000002003F0C1FA112003F0BEFA002003F004
:101F2000BBFA192003F0B8FA002003F0B5FA21201B
:101F300003F0B2FA002003F0AFFA2D2003F0ACFA60
:101F4000002003F0A9FA3D2003F0A6FA002003F0D8
:101F5000A3FA5D2003F0A0FA002003F09DFA5D20B3
:101F600003F09AFA002003F097FAB12003F09AFAEE
:101F7000802003F091FA002003F08EFA8B2003F00A
:101F80008BFA002003F088FA962003F085FA0020EF
:101F900003F082FAB22003F085FA002003F07CFA05
:101FA000002003F079FA022003F076FA002003F013
:101FB00073FA032003F070FA002003F06DFAB320E7
:101FC00003F070FA002003F067FA002003F064FACF
:101FD000002003F061FA002003F05EFA002003F015
:101FE0005BFA002003F058FA002003F055FA0020B5
:101FF00003F052FA002003F04FFA002003F04CFAED
:10200000002003F049FA002003F046FA002003F014
:1020100043FA002003F040FA002003F03DFA0020CC
:1020200003F03AFA002003F037FA002003F034FA04
:10203000002003F031FA002003F02EFA002003F014
:102040002BFA002003F028FA002003F025FA0020E4
:1020500003F022FAB42003F025FA8B2003F01CFAD7
:10206000002003F019FA962003F016FA002003F07E
:1020700013FAA12003F010FA002003F00DFAB520A6
:1020800003F010FA022003F007FA002003F004FA2C
:10209000032003F001FA002003F0FEF9042003F00E
:1020A000FBF9002003F0F8F9B62003F0FBF900205B
:1020B00003F0F2F9002003F0EFF9B72003F0F2F992
:1020C000002003F0E9F9002003F0E6F93F2003F0D7
:1020D000E3F9002003F0E0F95E2003F0DDF90020D1
:1020E00003F0DAF9642003F0D7F9002003F0D4F903
:1020F0008C2003F0D1F9002003F0CEF9AC2003F0DE
:10210000CBF9002003F0C8F9DC2003F0C5F901E0A9
:1021100040010020002003F0BFF9702003F0BCF95B
:10212000002003F0B9F9902003F0B6F9002003F085
:10213000B3F9EB2003F0B0F9002003F0ADF9DC2097
:1021400003F0AAF9002003F0A7F9B82003F0AAF9D8
:10215000002003F0A1F9002003F09EF9002003F015
:102160009BF9002003F098F9002003F095F9002076
:1021700003F092F9002003F08FF9002003F08CF9AE
:10218000BA2003F08FF9242003F086F9002003F031
:1021900083F9002003F080F9002003F07DF9C120CD
:1021A00003F080F9202003F077F9002003F074F9A0
:1021B000542003F071F9002003F06EF9FF2003F0C2
:1021C0006BF9002003F068F9C22003F06BF90A20D4
:1021D00003F062F9002003F05FF9042003F05CF9DA
:1021E000002003F059F9C32003F05CF93C2003F010
:1021F00053F9002003F050F93A2003F04DF9002084
:1022000003F04AF9392003F047F9002003F044F9BC
:10221000372003F041F9002003F03EF93C2003F0A1
:102220003BF9002003F038F9362003F035F900209F
:1022300003F032F9322003F02FF9002003F02CF9DB
:102240002F2003F029F9002003F026F92C2003F0B9
:1022500023F9002003F020F9292003F01DF90020C4
:1022600003F01AF9262003F017F9002003F014F9FF
:10227000242003F011F9002003F00EF9242003F0CC
:102280000BF9002003F008F9232003F005F90020E2
:1022900003F002F93C2003F0FFF8002003F0FCF803
:1022A000362003F0F9F8002003F0F6F8322003F0AE
:1022B000F3F8002003F0F0F82F2003F0EDF80020F1
:1022C00003F0EAF82C2003F0E7F8002003F0E4F82C
:1022D000292003F0E1F8002003F0DEF8262003F0C7
:1022E000DBF8002003F0D8F8242003F0D5F8002014
:1022F00003F0D2F8242003F0CFF8002003F0CCF84C
:10230000232003F0C9F8002003F0C6F8C42003F02E
:10231000C9F8622003F0C0F8002003F0BDF80520E2
:1023200003F0BAF8002003F0B7F8842003F0B4F803
:10233000002003F0B1F8F02003F0AEF8002003F025
:10234000ABF8182003F0A8F8002003F0A5F8A420AB
:1023500003F0A2F8002003F09FF8182003F09CF887
:10236000002003F099F8502003F096F8002003F0C5
:1023700093F80C2003F090F8002003F08DF817205C
:1023800003F08AF8002003F087F8952003F084F822
:10239000002003F081F8F32003F07EF8002003F022
:1023A0007BF8E62003F078F8002003F075F8C520EC
:1023B00003F078F8322003F06FF8002003F06CF897
:1023C000442003F069F8002003F066F8652003F06C
:1023D00063F8002003F060F8762003F05DF8002039
:1023E00003F05AF8882003F057F8002003F054F85F
:1023F000C62003F057F8202003F04EF8002003F029
:102400004BF8172003F048F8002003F045F80120AE
:1024100003F042F8002003F03FF8C72003F042F831
:10242000002003F039F8002003F036F8002003F014
:1024300033F8002003F030F8C82003F033F8002010
:1024400003F02AF8002003F027F8002003F024F816
:10245000002003F021F8C92003F024F8002003F045
:102460001BF8002003F018F8002003F015F80020F6
:1024700003F012F8002003F00FF8002003F00CF82E
:10248000002003F009F8002003F006F8002003F014
:1024900003F8002003F000F8002002F0FDFF002008
:1024A00002F0FAFF002002F0F7FF002002F0F4FF34
:1024B000002002F0F1FF002002F0EEFFE02002F029
:1024C000F1FF162002F0E8FF002002F0E5FF1C20DB
:1024D00002F0E2FF002002F0DFFF212002F0DCFF2B
:1024E000002002F0D9FF362002F0D6FF002002F0D3
:1024F000D3FF462002F0D0FF002002F0CDFF522093
:1025000002F0CAFF002002F0C7FF642002F0C4FFFF
:10251000002002F0C1FF7A2002F0BEFF002002F08E
:10252000BBFF8B2002F0B8FF002002F0B5FF99201E
:1025300002F0B2FF002002F0AFFFA82002F0ACFFD3
:10254000002002F0A9FFB92002F0A6FF002002F04F
:10255000A3FFC42002F0A0FF002002F09DFFCA20CC
:1025600002F09AFF002002F097FFD22002F094FFC1
:10257000002002F091FFD92002F08EFF002002F02F
:102580008BFFE02002F088FF002002F085FFF3209F
:1025900002F082FF002002F07FFFE12002F082FFC4
:1025A000162002F079FF002002F076FF1C2002F0D6
:1025B00073FF002002F070FF222002F06DFF002068
:1025C00002F06AFF362002F067FF002002F064FF8D
:1025D000452002F061FF002002F05EFF522002F071
:1025E0005BFF002002F058FF642002F055FF00203E
:1025F00002F052FF7A2002F04FFF002002F04CFF61
:102600008B2002F049FF002002F046FF992002F0E3
:1026100043FF002002F040FFA82002F03DFF002011
:1026200002F03AFFB92002F037FF002002F034FF39
:10263000C42002F031FF002002F02EFFCA2002F079
:102640002BFF002002F028FFD22002F025FF0020FF
:1026500002F022FFD82002F01FFF002002F01CFF32
:10266000E02002F019FF002002F016FFF32002F034
:1026700013FF002002F010FFE22002F013FF0520FC
:1026800002F00AFF002002F007FF0B2002F004FF17
:10269000002002F001FF1B2002F0FEFE002002F0ED
:1026A000FBFE342002F0F8FE002002F0F5FE44208C
:1026B00002F0F2FE002002F0EFFE4F2002F0ECFEEE
:1026C000002002F0E9FE612002F0E6FE002002F0A8
:1026D000E3FE792002F0E0FE002002F0DDFE88201B
:1026E00002F0DAFE002002F0D7FE972002F0D4FEBE
:1026F000002002F0D1FEA62002F0CEFE002002F063
:10270000CBFEB72002F0C8FE002002F0C5FEC220BA
:1027100002F0C2FE002002F0BFFEC72002F0BCFEA5
:10272000002002F0B9FED12002F0B6FE002002F037
:10273000B3FED62002F0B0FE002002F0ADFEDD2098
:1027400002F0AAFE002002F0A7FEF32002F0A4FE91
:10275000002002F0A1FEE32002F0A4FE052002F01A
:102760009BFE002002F098FE0A2002F095FE002059
:1027700002F092FE1C2002F08FFE002002F08CFE80
:10278000332002F089FE002002F086FE442002F091
:1027900083FE002002F080FE502002F07DFE00202B
:1027A00002F07AFE622002F077FE002002F074FE52
:1027B000782002F071FE002002F06EFE882002F008
:1027C0006BFE002002F068FE972002F065FE0020FC
:1027D00002F062FEA62002F05FFE002002F05CFE26
:1027E000B72002F059FE002002F056FEC22002F08F
:1027F00053FE002002F050FEC72002F04DFE0020E4
:1028000002F04AFED12002F047FE002002F044FE12
:10281000D52002F041FE002002F03EFEDD2002F055
:102820003BFE002002F038FEF32002F035FE0020CF
:1028300002F032FEE42002F035FE012002F02CFE10
:10284000002002F029FE012002F026FE002002F006
:1028500023FE022002F020FE002002F01DFE2A20AE
:1028600002F01AFE002002F017FE3C2002F014FED7
:10287000002002F011FE4B2002F00EFE002002F0BC
:102880000BFE5D2002F008FE002002F005FE742021
:1028900002F002FE002002F0FFFD842002F0FCFDA9
:1028A000002002F0F9FD932002F0F6FD002002F076
:1028B000F3FDA22002F0F0FD002002F0EDFDB320B8
:1028C00002F0EAFD002002F0E7FDBE2002F0E4FD88
:1028D000002002F0E1FDC42002F0DEFD002002F045
:1028E000DBFDCD2002F0D8FD002002F0D5FDD32085
:1028F00002F0D2FD002002F0CFFDDD2002F0CCFD81
:10290000002002F0C9FDF32002F0C6FD002002F015
:10291000C3FDE52002F0C6FD002002F0BDFD002051
:1029200002F0BAFD002002F0B7FD002002F0B4FD75
:10293000022002F0B1FD002002F0AEFD292002F0DD
:10294000ABFD002002F0A8FD3C2002F0A5FD002018
:1029500002F0A2FD4B2002F09FFD002002F09CFD42
:102960005D2002F099FD002002F096FD742002F037
:1029700093FD002002F090FD842002F08DFD0020E8
:1029800002F08AFD932002F087FD002002F084FD12
:10299000A22002F081FD002002F07EFDB32002F0B3
:1029A0007BFD002002F078FDBE2002F075FD0020C6
:1029B00002F072FDC42002F06FFD002002F06CFDF9
:1029C000CD2002F069FD002002F066FDD32002F068
:1029D00063FD002002F060FDDC2002F05DFD0020C0
:1029E00002F05AFDF32002F057FD002002F054FDE2
:1029F000E62002F057FD112002F04EFD002002F00B
:102A00004BFD342002F048FD002002F045FD562029
:102A100002F042FD002002F03FFD762002F03CFD76
:102A2000002002F039FD772002F036FD002002F090
:102A300033FD662002F030FD002002F02DFD8820DD
:102A400002F02AFD002002F027FD992002F024FD6B
:102A5000002002F021FDBB2002F01EFD002002F04C
:102A60001BFD992002F018FD002002F015FD6620E4
:102A700002F012FD002002F00FFD552002F00CFDC7
:102A8000002002F009FD552002F006FD002002F0B2
:102A900003FD452002F000FD002002F0FDFC432074
:102AA00002F0FAFC002002F0F7FC442002F0F4FCF3
:102AB000002002F0F1FCE72002F0F4FC322002F0EA
:102AC000EBFC002002F0E8FC552002F0E5FC0020C1
:102AD00002F0E2FC762002F0DFFC002002F0DCFCD9
:102AE000662002F0D9FC002002F0D6FC672002F03C
:102AF000D3FC002002F0D0FC672002F0CDFC0020C7
:102B000002F0CAFC872002F0C7FC002002F0C4FCDF
:102B1000992002F0C1FC002002F0BEFCBB2002F0B4
:102B2000BBFC002002F0B8FC992002F0B5FC0020AC
:102B300002F0B2FC772002F0AFFC002002F0ACFC07
:102B4000442002F0A9FC002002F0A6FC562002F06E
:102B5000A3FC002002F0A0FC232002F09DFC00203A
:102B600002F09AFC332002F097FC002002F094FC63
:102B7000452002F091FC002002F08EFCE82002F0DB
:102B800091FC002002F088FC002002F085FC9920D6
:102B900002F082FC002002F07FFC872002F07CFC27
:102BA000002002F079FC882002F076FC002002F080
:102BB00073FC772002F070FC002002F06DFC6620B0
:102BC00002F06AFC002002F067FC882002F064FC3E
:102BD000002002F061FCAA2002F05EFC002002F05E
:102BE0005BFCBB2002F058FC002002F055FC992051
:102BF00002F052FC002002F04FFC662002F04CFC78
:102C0000002002F049FC552002F046FC002002F0B2
:102C100043FC552002F040FC002002F03DFC442023
:102C200002F03AFC002002F037FC442002F034FCB1
:102C3000002002F031FC552002F02EFC002002F0B2
:102C40002BFCE92002F02EFCAA2002F025FC00203B
:102C500002F022FC002002F01FFC002002F01CFC0D
:102C6000002002F01FFCAA2002F016FCCF2002F088
:102C700019FC002002F010FC002002F00DFC0020E6
:102C800002F00AFC002002F007FC002002F004FC25
:102C9000002002F001FC002002F0FEFB002002F008
:102CA000FBFB002002F0F8FB002002F0F5FB002007
:102CB00002F0F2FB002002F0EFFB002002F0ECFB40
:102CC000002002F0E9FB002002F0E6FB002002F009
:102CD000E3FB002002F0E0FBF02002F0E3FB002029
:102CE00002F0DAFB502002F0D7FB002002F0D4FB08
:102CF000002002F0D1FB002002F0CEFBF32002F016
:102D0000D1FB002002F0C8FBF92002F0CBFB06202B
:102D100002F0C2FB102002F0BFFB292002F0BCFB36
:102D2000002002F0B9FB3A2002F0BCFB552002F073
:102D3000B3FB112002F0B6FB6420FDF78FFC2920C5
:102D400002F0B0FB352002F0ADFB002002F0A4FB46
:102D5000512002F0A7FBFF2002F09EFB532002F05F
:102D6000A1FB2C2002F098FB552002F09BFB822057
:102D700002F092FB2C2002F095FB02F0E9B8FE482D
:102D8000808845F2105188427ED155214FF4704021
:102D900002F098FBAA214FF2010002F093FB5221AE
:102DA0004FF2020002F08EFB08214FF2030002F006
:102DB00089FB01214FF2040002F084FB0D214FF446
:102DC000304002F07FFB0D214BF2010002F07AFB54
:102DD0000D214BF2020002F075FB34214FF4364016
:102DE00002F070FB34214BF2016002F06BFB3421E6
:102DF0004BF2026002F066FB0D214FF4314002F00D
:102E000061FB0D214BF2011002F05CFB0D214BF236
:102E1000021002F057FB34214FF4374002F052FB0E
:102E200034214BF2017002F04DFB34214BF2027061
:102E300002F048FB00214FF4324002F043FB002136
:102E40004BF2012002F03EFB00214BF2022002F087
:102E500039FB24214FF4384002F034FB24214BF697
:102E6000010002F02FFB24214BF6020002F02AFBA6
:102E700001214FF43F4002F025FB0F214FF4334076
:102E800002F020FB0F2100E0FEE34BF2013002F0E4
:102E900019FB0F214BF2023002F014FB34214FF4E6
:102EA000394002F00FFB34214BF6011002F00AFB0F
:102EB00034214BF6021002F005FB08214FF4354097
:102EC00002F000FB08214BF2015002F0FBFA08214E
:102ED0004BF2025002F0F6FA03214FF4424002F0A6
:102EE000F1FA24214FF43A4002F0ECFA24214BF697
:102EF000012002F0E7FA24214BF6022002F0E2FA68
:102F000000214FF43C4002F0DDFA78214BF60140FD
:102F100002F0D8FA00214BF6024002F0D3FA002169
:102F20004FF43D4002F0CEFA78214BF6015002F00A
:102F3000C9FA00214BF6025002F0C4FA00214FF406
:102F40003E4002F0BFFA64214BF6016002F0BAFA8B
:102F500000214FF4514002F0B5FA33214DF2011037
:102F600002F0B0FA00214DF2021002F0ABFA342167
:102F70004DF2031002F0A6FA00214DF2041002F007
:102F8000A1FA3A214DF2051002F09CFA00214DF20F
:102F9000061002F097FA4A214DF2071002F092FA59
:102FA00000214DF2081002F08DFA5C214DF209105B
:102FB00002F088FA00214DF20A1002F083FA812112
:102FC0004DF20B1002F07EFA00214DF20C1002F0CF
:102FD00079FAA6214DF20D1002F074FA00214DF29B
:102FE0000E1002F06FFAE5214DF20F1002F06AFAAE
:102FF00001214DF2101002F065FA13214DF211106B
:1030000002F060FA01214DF2121002F05BFA542135
:103010004DF2131002F056FA01214DF2141002F095
:1030200051FA82214DF2151002F04CFA01214DF2B5
:10303000161002F047FACA214DF2171002F042FAB8
:1030400002214DF2181002F03DFA00214DF2191044
:1030500002F038FA02214DF21A1002F033FA01217F
:103060004DF21B1002F02EFA02214DF21C1002F05C
:1030700029FA34214DF21D1002F024FA02214DF2FA
:103080001E1002F01FFA67214DF21F1002F01AFA0B
:1030900002214DF2201002F015FA84214DF2211088
:1030A00002F010FA02214DF2221002F00BFAA421D4
:1030B0004DF2231002F006FA02214DF2241002F024
:1030C00001FAB7214DF2251002F0FCF902214DF270
:1030D000261002F0F7F9CF214DF2271002F0F2F995
:1030E00002214DF2281002F0EDF9DE214DF22910F7
:1030F00002F0E8F902214DF22A1002F0E3F9F22180
:103100004DF22B1002F0DEF902214DF22C1002F0EC
:10311000D9F9FE214DF22D1002F0D4F903214DF220
:103120002E1002F0CFF910214DF22F1002F0CAF943
:1031300003214DF2301002F0C5F933214DF2311068
:1031400002F0C0F903214DF2321002F0BBF96D21FB
:103150004DF2331002F0B6F900214FF4524002F064
:10316000B1F933214DF2012002F0ACF900214DF20A
:10317000022002F0A7F901E04001002034214DF2C5
:10318000032002F09FF900214DF2042002F09AF989
:103190003A214DF2052002F095F900214DF206206A
:1031A00002F090F94A214DF2072002F08BF900213C
:1031B0004DF2082002F086F95C214DF2092002F060
:1031C00081F900214DF20A2002F07CF981214DF2B3
:1031D0000B2002F077F900214DF20C2002F072F979
:1031E000A6214DF20D2002F06DF900214DF20E20C6
:1031F00002F068F9E5214DF20F2002F063F9012198
:103200004DF2102002F05EF913214DF2112002F070
:1032100059F901214DF2122002F054F954214DF2D6
:10322000132002F04FF901214DF2142002F04AF967
:1032300082214DF2152002F045F901214DF21620B0
:1032400002F040F9CA214DF2172002F03BF90221A9
:103250004DF2182002F036F900214DF2192002F04B
:1032600031F902214DF21A2002F02CF901214DF220
:103270001B2002F027F902214DF21C2002F022F956
:1032800034214DF21D2002F01DF902214DF21E20C5
:1032900002F018F967214DF21F2002F013F9022104
:1032A0004DF2202002F00EF984214DF2212002F08F
:1032B00009F902214DF2222002F004F9A4214DF275
:1032C000232002F0FFF802214DF2242002F0FAF848
:1032D000B7214DF2252002F0F5F802214DF226200B
:1032E00002F0F0F8CF214DF2272002F0EBF8022196
:1032F0004DF2282002F0E6F8DE214DF2292002F0FE
:10330000E1F802214DF22A2002F0DCF8F2214DF220
:103310002B2002F0D7F802214DF22C2002F0D2F837
:10332000FE214DF22D2002F0CDF803214DF22E208A
:1033300002F0C8F810214DF22F2002F0C3F803214B
:103340004DF2302002F0BEF833214DF2312002F070
:10335000B9F803214DF2322002F0B4F86D214DF29C
:10336000332002F0AFF800214FF4534002F0AAF8E6
:1033700033214DF2013002F0A5F800214DF2023068
:1033800002F0A0F834214DF2033002F09BF8002146
:103390004DF2043002F096F83A214DF2053002F079
:1033A00091F800214DF2063002F08CF84A214DF2DE
:1033B000073002F087F800214DF2083002F082F861
:1033C0005C214DF2093002F07DF800214DF20A3007
:1033D00002F078F881214DF20B3002F073F80021F1
:1033E0004DF20C3002F06EF8A6214DF20D3002F0D5
:1033F00069F800214DF20E3002F064F8E5214DF23B
:103400000F3002F05FF801214DF2103002F05AF84F
:1034100013214DF2113002F055F801214DF2123016
:1034200002F050F854214DF2133002F04BF8012114
:103430004DF2143002F046F882214DF2153002F0C0
:1034400041F801214DF2163002F03CF8CA214DF24C
:10345000173002F037F802214DF2183002F032F83E
:1034600000214DF2193002F02DF802214DF21A30F0
:1034700002F028F801214DF21B3002F023F802215E
:103480004DF21C3002F01EF834214DF21D3002F0D6
:1034900019F802214DF21E3002F014F867214DF2A6
:1034A0001F3002F00FF802214DF2203002F00AF82E
:1034B00084214DF2213002F005F802214DF2223034
:1034C00002F000F8A4214DF2233001F0FBFF0221AD
:1034D0004DF2243001F0F6FFB7214DF2253001F016
:1034E000F1FF02214DF2263001F0ECFFCF214DF229
:1034F000273001F0E7FF02214DF2283001F0E2FF12
:10350000DE214DF2293001F0DDFF02214DF22A309B
:1035100001F0D8FFF2214DF22B3001F0D3FF022150
:103520004DF22C3001F0CEFFFE214DF22D3001F096
:10353000C9FF03214DF22E3001F0C4FF10214DF2DE
:103540002F3001F0BFFF03214DF2303001F0BAFF00
:1035500033214DF2313001F0B5FF03214DF232300D
:1035600001F0B0FF6D214DF2333001F0ABFF0021CF
:103570004FF4544001F0A6FF33214DF2014001F019
:10358000A1FF00214DF2024001F09CFF34214DF2D9
:10359000034001F097FF00214DF2044001F092FF3B
:1035A0003A214DF2054001F08DFF00214DF2064019
:1035B00001F088FF4A214DF2074001F083FF00210E
:1035C0004DF2084001F07EFF5C214DF2094001F010
:1035D00079FF00214DF20A4001F074FF81214DF284
:1035E0000B4001F06FFF00214DF20C4001F06AFF2B
:1035F000A6214DF20D4001F065FF00214DF20E4075
:1036000001F060FFE5214DF20F4001F05BFF012169
:103610004DF2104001F056FF13214DF2114001F020
:1036200051FF01214DF2124001F04CFF54214DF2A7
:10363000134001F047FF01214DF2144001F042FF19
:1036400082214DF2154001F03DFF01214DF216405F
:1036500001F038FFCA214DF2174001F033FF02217B
:103660004DF2184001F02EFF00214DF2194001F0FB
:1036700029FF02214DF21A4001F024FF01214DF2F1
:103680001B4001F01FFF00E004E302214DF21C404B
:1036900001F018FF34214DF21D4001F013FF02210B
:1036A0004DF21E4001F00EFF67214DF21F4001F068
:1036B00009FF02214DF2204001F004FF84214DF268
:1036C000214001F0FFFE02214DF2224001F0FAFEFE
:1036D000A4214DF2234001F0F5FE02214DF22440D9
:1036E00001F0F0FEB7214DF2254001F0EBFE022182
:1036F0004DF2264001F0E6FECF214DF2274001F0C9
:10370000E1FE02214DF2284001F0DCFEDE214DF207
:10371000294001F0D7FE02214DF22A4001F0D2FEED
:10372000F2214DF22B4001F0CDFE02214DF22C4052
:1037300001F0C8FEFE214DF22D4001F0C3FE032131
:103740004DF22E4001F0BEFE10214DF22F4001F04F
:10375000B9FE03214DF2304001F0B4FE33214DF2A9
:10376000314001F0AFFE03214DF2324001F0AAFEDC
:103770006D214DF2334001F0A5FE00214FF455407C
:1037800001F0A0FE33214DF2015001F09BFE00211B
:103790004DF2025001F096FE34214DF2035001F03B
:1037A00091FE00214DF2045001F08CFE3A214DF2C1
:1037B000055001F087FE00214DF2065001F082FE17
:1037C0004A214DF2075001F07DFE00214DF20850D4
:1037D00001F078FE5C214DF2095001F073FE0021EA
:1037E0004DF20A5001F06EFE81214DF20B5001F0B6
:1037F00069FE00214DF20C5001F064FEA6214DF24D
:103800000D5001F05FFE00214DF20E5001F05AFE06
:10381000E5214DF20F5001F055FE01214DF21050FF
:1038200001F050FE13214DF2115001F04BFE012129
:103830004DF2125001F046FE54214DF2135001F0AA
:1038400041FE01214DF2145001F03CFE82214DF267
:10385000155001F037FE01214DF2165001F032FEF5
:10386000CA214DF2175001F02DFE02214DF21850E1
:1038700001F028FE00214DF2195001F023FE022133
:103880004DF21A5001F01EFE01214DF21B5001F0C5
:1038900019FE02214DF21C5001F014FE34214DF2AC
:1038A0001D5001F00FFE02214DF21E5001F00AFEE4
:1038B00067214DF21F5001F005FE02214DF220500C
:1038C00001F000FE84214DF2215001F0FBFD0221A8
:1038D0004DF2225001F0F6FDA4214DF2235001F0EB
:1038E000F1FD02214DF2245001F0ECFDB7214DF223
:1038F000255001F0E7FD02214DF2265001F0E2FDD6
:10390000CF214DF2275001F0DDFD02214DF228506C
:1039100001F0D8FDDE214DF2295001F0D3FD022146
:103920004DF22A5001F0CEFDF2214DF22B5001F064
:10393000C9FD02214DF22C5001F0C4FDFE214DF2D3
:103940002D5001F0BFFD03214DF22E5001F0BAFDC4
:1039500010214DF22F5001F0B5FD03214DF23050F2
:1039600001F0B0FD33214DF2315001F0ABFD0321E8
:103970004DF2325001F0A6FD6D214DF2335001F0B1
:10398000A1FD00214FF4564001F09CFD33214DF282
:10399000016001F097FD00214DF2026001F092FDFF
:1039A00034214DF2036001F08DFD00214DF20460E1
:1039B00001F088FD3A214DF2056001F083FD002100
:1039C0004DF2066001F07EFD4A214DF2076001F0E4
:1039D00079FD00214DF2086001F074FD5C214DF28B
:1039E000096001F06FFD00214DF20A6001F06AFDEF
:1039F00081214DF20B6001F065FD00214DF20C605C
:103A000001F060FDA6214DF20D6001F05BFD00218B
:103A10004DF20E6001F056FDE5214DF20F6001F010
:103A200051FD01214DF2106001F04CFD13214DF2CA
:103A3000116001F047FD01214DF2126001F042FDDD
:103A400054214DF2136001F03DFD01214DF214604F
:103A500001F038FD82214DF2156001F033FD0121A6
:103A60004DF2166001F02EFDCA214DF2176001F0F3
:103A700029FD02214DF2186001F024FD00214DF2D4
:103A8000196001F01FFD02214DF21A6001F01AFDCC
:103A900001214DF21B6001F015FD02214DF21C6069
:103AA00001F010FD34214DF21D6001F00BFD0221EB
:103AB0004DF21E6001F006FD67214DF21F6001F01E
:103AC00001FD02214DF2206001F0FCFC84214DF249
:103AD000216001F0F7FC02214DF2226001F0F2FCBE
:103AE000A4214DF2236001F0EDFC02214DF224608F
:103AF00001F0E8FCB7214DF2256001F0E3FC022162
:103B00004DF2266001F0DEFCCF214DF2276001F07E
:103B1000D9FC02214DF2286001F0D4FCDE214DF2E7
:103B2000296001F0CFFC02214DF22A6001F0CAFCAD
:103B3000F2214DF22B6001F0C5FC02214DF22C6008
:103B400001F0C0FCFE214DF22D6001F0BBFC032111
:103B50004DF22E6001F0B6FC10214DF22F6001F005
:103B6000B1FC03214DF2306001F0ACFC33214DF289
:103B7000316001F0A7FC03214DF2326001F0A2FC9C
:103B80006D214DF2336001F09DFC55214FF47040E2
:103B900001F098FCAA214FF2010001F093FC5221A0
:103BA0004FF2020001F08EFC08214FF2030001F0F9
:103BB00089FC00214FF2040001F084FCCC214FF479
:103BC000314001F07FFC00214BF2011001F07AFC42
:103BD00005214FF4364001F075FC70214FF4374059
:103BE00001F070FC70214BF2017001F06BFC0121BF
:103BF0004FF4384001F066FC03214BF6010001F060
:103C000061FC03214BF6020001F05CFC03214BF642
:103C1000030001F057FC02214FF43C4001F052FC3C
:103C200000214BF6014001F04DFC00214BF6024013
:103C300001F048FCD0214FF4494001F043FC02213F
:103C40004CF6011001F03EFC50214CF6021001F040
:103C500039FC50214CF6031001F034FC50214CF695
:103C6000041001F02FFC00214FF4545001F02AFC05
:103C700055214FF4685001F025FC4FF4885001F0B5
:103C800011FC7820FCF7F5FC4FF4245001F00AFCFD
:103C900001F05EB9FE48808849F2253188427DD125
:103CA00047F6F001E52001F00DFC4FF48071012092
:103CB00001F008FC4FF4E061022001F003FC41F246
:103CC0003001032001F0FEFB0021042001F0FAFB8B
:103CD00040F20221082001F0F5FB0021092001F04B
:103CE000F1FB00210A2001F0EDFB00210C2001F086
:103CF000E9FB00210D2001F0E5FB00210F2001F080
:103D0000E1FB0021102001F0DDFB0721112001F073
:103D1000D9FB0021122001F0D5FB0021132001F076
:103D2000D1FB0021072001F0CDFB41F29061102072
:103D300001F0C8FB40F22721112001F0C3FB9D21B7
:103D4000122001F0BFFB4FF4C851132001F0BAFB61
:103D50002521292001F0B6FB0D212B2001F0B2FB1B
:103D60000721302001F0AEFB40F20331312001F099
:103D7000A9FB0321322001F0A5FB40F206213520EA
:103D800001F0A0FB0821362001F09CFB40F2064127
:103D9000372001F097FB4FF4417100E058E03820E4
:103DA00001F090FB0721392001F08CFB40F2026109
:103DB0003C2001F087FB08213D2001F083FB00211E
:103DC000502001F07FFBEF21512001F07BFB00210F
:103DD000522001F077FB40F23F11532001F072FBBB
:103DE0004FF42741602001F06DFB0121612001F0BB
:103DF00069FB00216A2001F065FB0021802001F0B1
:103E000061FB0021812001F05DFB0021822001F097
:103E100059FB0021832001F055FB0021842001F093
:103E200051FB0021852001F04DFB1021902001F075
:103E300049FB4FF4C061922001F044FB40F2331182
:103E4000072001F03FFB2221002001F03BFB1FE790
:103E50008F48808849F2283188427DD141F28F0114
:103E6000EC2001F02FFB41F23421EF2001F02AFB7E
:103E70004FF48071012001F025FB4FF4E061022036
:103E800001F020FB41F23001032001F01BFB002177
:103E9000042001F017FB40F20221082001F012FB80
:103EA0000021092001F00EFB00210A2001F00AFB8D
:103EB00001210C2001F006FB00210D2001F002FB86
:103EC00000210F2001F0FEFA0021102001F0FAFA83
:103ED0000721112001F0F6FA0021122001F0F2FA78
:103EE0000021132001F0EEFA0121072001F0EAFA87
:103EF0003220FCF7B3FB41F29041102001F0E2FACE
:103F000040F22721112001F0DDFA3220FCF7A6FB58
:103F10008A21122001F0D6FA3220FCF79FFB4FF4E1
:103F2000D051132001F0CEFA0621292001F0CAFA5F
:103F30000D212B2001F0C6FA3220FCF78FFB002167
:103F4000202001F0BFFA0021212001F0BBFA32202D
:103F5000FCF784FB002100E075E0302001F0B2FAAC
:103F600040F20461312001F0ADFA40F20531322017
:103F700001F0A8FA0021352001F0A4FA40F6094129
:103F8000362001F09FFA4FF40171372001F09AFAC0
:103F900040F20131382001F095FA40F207713920E2
:103FA00001F090FA00213C2001F08CFA40F60A2141
:103FB0003D2001F087FA3220FCF750FB0021502011
:103FC00001F080FAEF21512001F07CFA002152200B
:103FD00001F078FA40F23F11532001F073FA4FF4E8
:103FE0002741602001F06EFA0121612001F06AFA98
:103FF00000216A2001F066FA0021802001F062FAB7
:104000000021812001F05EFA0021822001F05AFA9D
:104010000021832001F056FA0021842001F052FA99
:104020000021852001F04EFA1021902001F04AFA7B
:104030004FF4C061922001F045FA40F2331107209D
:1040400001F040FA24E61248808849F22031884283
:104050007ED10021084601F035FA4FF4807101202D
:1040600001F030FA4FF4E061022001F02BFA41F246
:104070003001032001F026FA0021042001F022FA89
:1040800040F20221082001F01DFA0021092001E080
:104090004001002001F016FA00210A2001F012FA76
:1040A00001210C2001F00EFA00210D2001F00AFA86
:1040B00000210F2001F006FA3220FCF7CFFA40F27F
:1040C0000111072001F0FEF93220FCF7C7FA4FF486
:1040D0008651102001F0F6F90721112001F0F2F9C4
:1040E0004FF48871122001F0EDF94FF43061132084
:1040F00001F0E8F90021292001F0E4F944F210016F
:104100002B2001F0DFF90021502001F0DBF9EF2135
:10411000512001F0D7F90021522001F0D3F940F2EB
:104120003F11532001F0CEF94FF41C51602001F0F3
:10413000C9F90121612001F0C5F900216A2001F0CF
:10414000C1F90021802001F0BDF90021812000E0AB
:1041500030E001F0B7F90021822001F0B3F900212D
:10416000832001F0AFF90021842001F0ABF9002198
:10417000852001F0A7F91021902001F0A3F900217A
:10418000922001F09FF90121932001F09BF94FF457
:104190008871952001F096F90021972001F092F99D
:1041A0000021982001F08EF940F27311072001F0F0
:1041B00089F96DE5FE48808849F2313188427DD128
:1041C00041F21401E72001F07DF94FF480710120E4
:1041D00001F078F94FF40071022001F073F941F217
:1041E0003801032001F06EF940F20221082001F0AD
:1041F00069F90021092001F065F900210A2001F088
:1042000061F900210C2001F05DF900210D2001F081
:1042100059F900210F2001F055F90021102001F07B
:1042200051F90721112001F04DF90021122001F070
:1042300049F90021132001F045F9C820FCF70EFAD6
:1042400041F29061102001F03DF940F22721112048
:1042500001F038F93220FCF701FA0C21122001F0AC
:1042600031F93220FCF7FAF94FF40061132001F024
:1042700029F91121292001F025F90B212B2001F02A
:1042800021F93220FCF7EAF90021202001F01AF987
:1042900040F23F11212001F015F90021302001F0FA
:1042A00011F94FF48371312001F00CF90021322013
:1042B00001F008F94FF40171352000E064E001F0ED
:1042C00001F941F20A61362001F0FCF840F2077171
:1042D000372001F0F7F84FF48371382001F0F2F83D
:1042E00040F20771392001F0EDF840F202413C2024
:1042F00001F0E8F840F60F413D2001F0E3F800211D
:10430000502001F0DFF8EF21512001F0DBF800210F
:10431000522001F0D7F840F23F11532001F0D2F8BB
:104320004FF41C51602001F0CDF80121612001F013
:10433000C9F800216A2001F0C5F80021802001F0B1
:10434000C1F80021812001F0BDF80021822001F098
:10435000B9F80021832001F0B5F80021842001F094
:10436000B1F80021852001F0ADF81021902001F076
:10437000A9F84FF4C061922001F0A4F840F2331183
:10438000072001F09FF883E48948808845F20841BE
:1043900088427DD14FF48071012001F093F84FF4F1
:1043A000E061022001F08EF841F23001032001F0BB
:1043B00089F80021042001F085F840F20721082047
:1043C00001F080F80021092001F07CF800210A208A
:1043D00001F078F800210C2001F074F800210D2084
:1043E00001F070F800210F2001F06CF81420FCF7A8
:1043F00035F941F2B061102001F064F8012111207B
:1044000001F060F80121172001F05CF84FF49C7175
:10441000122001F057F84FF40061132001F052F818
:104420000921292001F04EF809212A2001F04AF83B
:104430000021A42001F046F80021502001F042F8AC
:10444000EF21512001F03EF80021522001F03AF80E
:1044500040F23F11532001F035F84FF41C51602019
:1044600001F030F80121612001F02CF800216A20D0
:1044700001F028F80021802001F024F8002181209B
:1044800001F020F80021822001F01CF8002100E05A
:1044900024E0832001F016F80021842001F012F8B6
:1044A0000021852001F00EF81321902001F00AF878
:1044B0000021922001F006F80321932001F002F878
:1044C0004FF48871952000F0FDFF40F27311072032
:1044D00000F0F8FF3220FCF7C1F8B8E434488088D7
:1044E00041F2055188427DD10021072000F0EAFF0A
:1044F0003220FCF7B3F84FF48E71122000F0E2FF87
:104500000121A42000F0DEFF0F21082000F0DAFFD7
:1045100008210A2000F0D6FF08210D2000F0D2FF6C
:1045200040F20771302000F0CDFF0721312000F06C
:10453000C9FF40F20361322000F0C4FF4FF4E06194
:10454000332000F0BFFF40F20221342000F0BAFF18
:104550000221352000F0B6FF41F60F71362000F041
:10456000B1FF40F20771372000F0ACFF0021382086
:1045700000F0A8FF0021392000F0A4FF40F20771ED
:104580003A2000F09FFF00213B2000F09BFF072115
:104590003C2000F097FF00213D2000F093FF3220E7
:1045A000FCF75CF80121072000F08CFF012101E0FD
:1045B00040010020172000F085FF3220FCF74EF864
:1045C0004FF4BD51102000F07DFF40F21721112063
:1045D00000F078FF4FF48F71122000F073FF4FF45A
:1045E000706100E098E0132000F06CFF00212A20A9
:1045F00000F068FF0A21292000F064FF4FF49F714A
:10460000122000F05FFF0021502000F05BFFEF213F
:10461000512000F057FF0021522000F053FF40F2DC
:104620003F11532000F04EFF4FF41C51602000F06A
:1046300049FF0121612000F045FF00216A2000F0C0
:1046400041FF0021802000F03DFF0021812000F08B
:1046500039FF0021822000F035FF0021832000F087
:1046600031FF0021842000F02DFF0021852000F083
:1046700029FF1321902000F025FF4FF44071922074
:1046800000F020FF0521932000F01CFF0021952061
:1046900000F018FF0021972000F014FF002198205F
:1046A00000F010FF4FF48071012000F00BFF4FF479
:1046B000E061022000F006FF41F23801032000F023
:1046C00001FF0021042000F0FDFE00210C2000F07D
:1046D000F9FE00210F2000F0F5FE0021202000F05F
:1046E000F1FE0021212000F0EDFE2121072000F045
:1046F000E9FE1420FBF7B2FF6121072000F0E2FE83
:104700001420FBF7ABFF40F27311072000F0DAFE34
:104710001420FBF7A3FF95E4FE4880884BF2055177
:1047200088427CD10021084600F0CCFE00210846DA
:1047300000F0C8FE0021084600F0C4FE0021084633
:1047400000F0C0FE0121A42000F0BCFE1420FBF705
:1047500085FF4FF41C51602000F0B4FE40F20221AE
:10476000082000F0AFFE4FF40571302000F0AAFEE3
:1047700043F21571312000F0A5FE40F204613220B1
:1047800000F0A0FE40F61661332000F09BFE42F2DE
:104790001121342000F096FE4FF4A851352000F08E
:1047A00091FE48F20751362000F08CFE41F207419D
:1047B000372000F087FE41F20341382000F082FEEE
:1047C0002021392000F07EFE1A21902000F07AFE90
:1047D0000021102000F076FE0721112000F072FE6B
:1047E0000021122000F06EFE0021132000F06AFE6E
:1047F0001420FBF733FF4FF4E661102000F062FE57
:1048000040F23711112000F05DFE1420FBF726FF67
:104810004FF4DC71122000F055FE142000E085E01A
:10482000FBF71CFF4FF47061132000F04BFE80215A
:104830002A2000F047FE4821292000F043FE1420E2
:10484000FBF70CFF4FF48071012000F03BFE4FF4AA
:10485000E061022000F036FE41F23801032000F052
:1048600031FE40F20221082000F02CFE00210A2037
:1048700000F028FE00210C2000F024FE00210D2075
:1048800000F020FE30210E2000F01CFE0021502000
:1048900000F018FEEF21512000F014FE00215220FC
:1048A00000F010FE40F23F11532000F00BFE4FF4D9
:1048B0001C51602000F006FE0121612000F002FE84
:1048C00000216A2000F0FEFD1121902000F0FAFD89
:1048D0004FF4C061922000F0F5FD40F202419320B8
:1048E00000F0F0FD0221942000F0ECFD1420FBF715
:1048F000B5FE0121072000F0E5FD1420FBF7AEFE18
:104900006121072000F0DEFD40F27311072000F066
:10491000D9FD0021202000F0D5FD0021212000F04C
:10492000D1FD2221002000F0CDFD11E379488088DF
:104930004CF2055188427CD10021084600F0C2FDAE
:104940000021084600F0BEFD1420FBF787FE002181
:10495000084600F0B7FD0021084600F0B3FD002135
:10496000084600F0AFFD0021084600F0ABFD012134
:10497000A42000F0A7FD1420FBF770FE4FF41C519B
:10498000602000F09FFD40F60601082000F09AFD2F
:1049900040F20371302000F095FD0121312000F03C
:1049A00091FD0421322000F08DFD4FF48171332000
:1049B00000F088FD4FF44071342000F083FD40F298
:1049C0000311352000F07EFD1F21362000F07AFD16
:1049D00040F20371372000F075FD0121382000F00E
:1049E00071FD0421392000F06DFD1521902000F0AB
:1049F00069FD4FF48261102000F064FD40F2472110
:104A0000112000F05FFD4FF4DE71122000F05AFD1E
:104A10004FF46061132000F055FD7820FBF71EFE77
:104A20004FF48071012000F04DFD4FF40071022021
:104A300000E052E000F046FD41F23001032000F0BA
:104A400041FD08210A2000F03DFD00210C2000F06E
:104A500039FD20210E2000F035FD00210F2000F04F
:104A600031FD0021202000F02DFD0021212000F04B
:104A700029FD3D212A2000F025FD1420FBF7EEFD45
:104A80002D21292000F01EFD0021502000F01AFDEC
:104A90004DF2EF01512000F015FD0021522000F0F1
:104AA00011FD40F23F11532000F00CFD0021612068
:104AB00000F008FD00216A2000F004FD4FF4407171
:104AC000922000F0FFFC0521932000F0FBFC4FF446
:104AD0008071072000F0F6FC3AE20E48808844F22C
:104AE000315188427ED10121002000F0EBFC0A20E8
:104AF000FBF7B4FD41F22861102000F0E3FC0E2129
:104B0000122000F0DFFC40F63921132000F0DAFC1F
:104B10000A2001E040010020FBF7A0FD4021112008
:104B200000F0D0FC5021152000F0CCFC0A20FBF74F
:104B300095FD1E21122000F0C5FC0A20FBF78EFD1A
:104B40004FF4B151102000F0BDFC42F63921132082
:104B500000F0B8FC0A20FBF781FD4FF480710120C2
:104B600000F0B0FC4FF44071022000F0ABFC41F2C9
:104B70003801032000F0A6FC40F20221082000F0DA
:104B8000A1FC08210A2000F09DFC0021302000F04B
:104B900099FC40F20241312000F094FC4FF4837103
:104BA000322000F08FFC40F20351332000F08AFCE9
:104BB0004FF48271342000F085FC40F20131352041
:104BC00000F080FC40F20771362000F07BFC40F2E0
:104BD0000531372000F076FC4FF40271382000F0E8
:104BE00071FC00E03EE040F60B71392000F06AFCF9
:104BF0000221412000F066FC4FF41C51602000F0BF
:104C000061FC0121612000F05DFC4FF404719020F3
:104C100000F058FC4FF48571922000F053FC042101
:104C2000932000F04FFC4FF48071A02000F04AFC6C
:104C30000121072000F046FC2121072000F042FC62
:104C40002321072000F03EFC3321072000F03AFC2E
:104C500040F23311072000F035FC0021A02000F0C5
:104C600031FC75E1C448808844F2355188427CD1DA
:104C70003021152000F026FC10219A2000F022FCA3
:104C80002021112000F01EFC43F22841102000F0EA
:104C900019FC0221122000F015FC41F2380113200A
:104CA00000F010FC2820FBF7D9FC1221084600F088
:104CB00009FC2820FBF7D2FC43F22041102000F031
:104CC00001FC43F23801132000F0FCFB4620FBF707
:104CD000C5FC0021302000F0F5FB40F202413120FC
:104CE00000F0F0FB40F20731322000F0EBFB4FF414
:104CF0004171332000F0E6FB0421342000F0E2FB98
:104D000040F20141352000F0DDFB40F20771362012
:104D100000F0D8FB40F20531372000F0D3FB4FF410
:104D2000C261382000F0CEFB4FF4C261392000F0A0
:104D3000C9FB4FF48071012000F0C4FB4FF44071B7
:104D4000022000F0BFFB41F23001032000F0BAFB6B
:104D500040F60801082000F0B5FB08210A2000F009
:104D6000B1FB4FF41C51602000E033E000F0AAFBDF
:104D70000121612000F0A6FB4FF49F71902000F00C
:104D8000A1FB4FF48071922000F09CFB4FF48071E6
:104D9000932000F097FB4FF44051A02000F092FBCD
:104DA0001021A32000F08EFB0121072000F08AFBD8
:104DB0002121072000F086FB2321072000F082FB41
:104DC0003321072000F07EFB40F23311072000F072
:104DD00079FBBDE06848808841F663118842F8D1CC
:104DE000E22000F05FFB1D2000F056FB022000F0E7
:104DF00053FB042000F050FB6420FBF73AFCE0205A
:104E000000F050FB012000F047FB0A20FBF726FCD6
:104E1000E02000F047FB032000F03EFB0C20FBF7F6
:104E20001DFC012000F03EFB0A20FBF717FCE620EA
:104E300000F038FB2F2000F02FFBFF2000F02CFBB0
:104E4000FF2000F029FBB02000F02CFB202000F018
:104E500023FB002000F020FB032000F01DFB40F2AC
:104E60001F3000F019FB012000F016FB40F2DF10AC
:104E700000F012FB002000F00FFBB42000F012FB4A
:104E8000042000F009FB40F21F4000F005FB002069
:104E900000F002FB2E2000F0FFFA002000F0FCFAE8
:104EA000002000F0F9FA002000F0F6FA002000F0EF
:104EB000F3FAB62000F0F6FA022000F0EDFA4FF413
:104EC000037000F0E9FA002000F0E6FA172000F085
:104ED000E3FA152000F0E0FA002000F0DDFA0020EF
:104EE00000F0DAFAF02000F0DDFA032000F0D4FA46
:104EF000292000F0D7FAD02000F0D4FA002000F0EA
:104F0000CBFABE2000F0CEFA052000F0C5FAFE2054
:104F100000F0C2FA012000F0BFFA002000F0BCFA55
:104F2000002000F0B9FA002000F0B6FAB82000F036
:104F3000B9FA032000F0B0FA012000F0ADFABA206F
:104F400000F0B0FA012000F0A7FA642000F02AF87F
:104F50000120FCF7D3FA0948006820F00200074955
:104F600008604FF6FF70FCF793FA0021084600F046
:104F7000BFF900F09DFA10BD40010020140402406A
:104F800001490888704700000000086000B502462B
:104F9000104600F087FA0520FBF76BFBFFF7F0FFE8
:104FA00000BD000070B52DED048B0446BE2000F05E
:104FB00079FA052000F070FA20461EF010FB41EC53
:104FC000190B9FED0E0B53EC102B1EF01BFB41EC4D
:104FD000180B1EF0D7FA85B2284600F05DFA0120C2
:104FE00000F05AFAFF2000F057FA002000F054FABF
:104FF000002000F051FABDEC048B70BD6666666659
:105000006666044070B5044600230026B7488079E0
:1050100001280BD1B548808846F60401884205D0A6
:10502000B248808841F66311884208D1AF48807940
:10503000F0B9AE48808841F66311884218D1082C37
:1050400015D2DFE804F00406080A0C0E101206243C
:105050000DE007240BE0042409E0052407E0012407
:1050600005E0002403E0032401E0022400BF00BFA8
:105070009E48808849F24131884217D09B488088F9
:1050800046F60401884211D09848808845F21031D4
:1050900088420BD09548808845F21051884205D04F
:1050A0009248808841F6631188427DD1082C1CD239
:1050B000DFE804F00406090C0F12151800BF14E015
:1050C00043F0800311E043F040030EE043F0C003DF
:1050D0000BE043F0200308E043F0600305E043F0F9
:1050E000A00302E043F0E00300BF00BF7F488088D8
:1050F00045F21051884202D14FF4585600E036264E
:105100007A48808845F2103188420DD077488088EF
:1051100045F21051884207D07448808841F66311E7
:10512000884201D043F008037048808846F60401A5
:10513000884201D143F002031946304600F0C2F91B
:105140006A48808841F6631188421DD003F0200030
:1051500068B16648008865494988884214DA63481E
:105160000588408861490880084645800CE05F4812
:1051700000885E494988884206DD5C480588408889
:105180005A490880084645805848808845F21051A1
:10519000884254D15549488900F084F9002000F034
:1051A0007BF95249498900E078E0491C88B200F057
:1051B00079F9002000F070F94C494989891C88B2BE
:1051C00000F070F949490988491EC1F30F2000F029
:1051D00063F946494989C91C88B200F063F943491B
:1051E0000978491EC8B200F057F94049888900F093
:1051F00059F9002000F050F93C498989491C88B2CE
:1052000000F050F9002000F047F938498989891CDD
:1052100088B200F047F935494988491EC1F30F208B
:1052200000F03AF931498989C91C88B200F03AF98D
:105230002E498978491EC8B200F02EF955E02B4955
:10524000488900F02FF9002000F026F9002000F036
:1052500023F926490988491EC1F30F2000F01CF9E3
:1052600022490978491EC8B200F016F91F498889F9
:1052700000F018F9002000F00FF9002000F00CF900
:105280001A494988491EC1F30F2000F005F9174952
:105290008978491EC8B200F0FFF826E0082C1CD21D
:1052A000DFE804F004070A0D0F12151843F030036D
:1052B00013E043F0100310E043F020030DE000BFC3
:1052C0000BE043F0380308E043F0280305E043F027
:1052D000180302E043F0080300BF00BF032643F4B5
:1052E00080531946304600F0EDF870BD40010020B3
:1052F00010B503460C466748808849F24131884220
:1053000005D06448808845F21031884214D1614943
:10531000488900F0C7F8181200F0BEF8D8B200F0C3
:10532000BBF85C49888900F0BDF8201200F0B4F8A1
:10533000E0B200F0B1F8ABE05648808846F60401D0
:1053400088421DD153488079012804D151480088F2
:10535000401EC01A83B24F49488900F0A3F81812C2
:1053600000F09AF8D8B200F097F84A49888900F01E
:1053700099F8201200F090F8E0B200F08DF887E084
:105380004448808841F66311884247D1414880797A
:10539000A8B940480088401EC01A83B23D494889D8
:1053A00000F080F8002000F077F8002000F074F89A
:1053B000181200F071F8D8B200F06EF816E0354916
:1053C000488900F06FF8181200F066F8D8B200F0C3
:1053D00063F830490988491EC1F30F2000F05CF8DA
:1053E0002C490978491EC8B200F056F82949888925
:1053F00000F058F8201200F04FF8E0B200F04CF83E
:1054000024494988491EC1F30F2000F045F821497D
:105410008978491EC8B200F03FF839E01D488088FD
:1054200045F21051884220D11A49488900F03AF8D3
:10543000181200F031F817494989491C88B200F068
:1054400031F8D8B200F028F81249888900F02AF81B
:10545000201200F021F80F498989491C88B200F018
:1054600021F8E0B200F018F812E00A48807901282B
:1054700004D108480088401EC01A83B205494889F3
:10548000194600F01FF803498889214600F01AF8F0
:1054900010BD00004001002000BF01490880704796
:1054A0000000086000BF014908807047FEFF0760E8
:1054B000024800890249088070470000400100202E
:1054C000FEFF0760024A1080921C118070470000A6
:1054D000FEFF076000B587B01C216846FAF7CAFFD7
:1054E0004FF0204018490860184848600020886044
:1054F00000211548C16001611021416100218161D5
:10550000C161016241624FF4805181620021C16238
:105510000163416381634164092000900F20019081
:10552000092002900F200390102004901120059074
:1055300000200690002269460348FBF75BFF08B194
:10554000FBF79CF807B000BD50010020040100A04B
:1055500000B587B0142102A8FAF78CFF00BF002025
:1055600001903548006840F004003349086008465F
:10557000006800F00400019000BF00BF00BF0020E1
:1055800001900846006840F0800008600846006806
:1055900000F08000019000BF00BF00BF002001901C
:1055A0000846006840F0010008600846006800F006
:1055B0000100019000BF00BF00BF0020019008461D
:1055C000006840F0020008600846006800F0020031
:1055D000019000BF00BF00BF002001900846006896
:1055E00040F0100008600846006800F010000190CC
:1055F00000BF00BF00BF002001900846006840F0D7
:10560000080008600846006800F00800019000BF2C
:1056100000BF002202210948FBF7ECF902200290AA
:105620000120039000200490059002A90348FBF795
:10563000E1F807B000BD000030380240000402402D
:1056400000BFFEE770477047704710B5FBF7DEF903
:1056500010BD000000B597B030210BA8FAF70AFF83
:10566000142106A8FAF706FF002002900390049088
:10567000059000BF01902A48006840F080502849FA
:1056800008600846006800F08050019000BF00BF2D
:1056900000BF002001902348006840F48040214969
:1056A00008600846006800F48040019000BF00BF19
:1056B00005200B904FF480300C9001200D900220BB
:1056C00011904105129104211391A82114910221F6
:1056D0001591042116910BA8FBF748FC08B1FAF7C5
:1056E000CDFF0F20069002200790002008904FF475
:1056F000A05009904FF480500A90052106A8FBF7AE
:105700001BFB08B1FAF7BAFF02200290C001059016
:1057100002A8FBF741FA08B1FAF7B0FF17B000BDD5
:1057200040380240007000400548006840F47000B6
:10573000034908604FF000600149803908607047F4
:1057400088ED00E000BFFEE702480068C0F30220D9
:10575000704700000CED00E010B5002804DB0A07DC
:10576000130E054A135406E00A07140E034A00F00C
:105770000F031B1FD45410BD00E400E018ED00E03F
:1057800070B50446002508E02168481C20600878B0
:10579000303805EB850100EB41052168087800F001
:1057A00004F80028F0D1284670BD0146302903DBFB
:1057B000392901DC012070470020FCE710B54021A9
:1057C000084801F062FC002304221E21064819F05B
:1057D00061FD0649086003F09FFE0020044908703F
:1057E00010BD0000DC020020059600089800002093
:1057F000940000202DE9F04705460F4616461C464A
:10580000152E30D2DFE806F00B3034495765839A05
:10581000AFCDD6F9F7F6F5F4F3F2F1F0EF00284644
:105820000DF0D2FD814600EBD9704FEA600A384690
:105830000DF0CAFD804600EBD870AAEB600000B204
:10584000208028460DF05BFD814600EBD9704FEAC1
:10585000600A38460DF053FD804600EBD870AAEB85
:10586000600000B260806AE100202080608066E114
:1058700028460DF0A9FD814600EBD9704FEA600A79
:1058800038460DF0A1FD804600EBD870AAEB600011
:1058900000B220800020608051E128460DF094FD88
:1058A000804638460DF090FDA8EB000000B2208045
:1058B0000020608043E10020208028460DF01FFD7D
:1058C000804638460DF01BFDA8EB000000B260805A
:1058D00035E128460DF078FD814600EBD9704FEA9E
:1058E000600A38460DF070FD804600EBD870AAEBD8
:1058F000600000B2208028460DF001FD8046384649
:105900000DF0FDFCA8EB000000B2608017E1284616
:105910000DF05AFD804638460DF056FDA8EB00000C
:1059200000B2208028460DF0EAFC804638460DF093
:10593000E6FCA8EB000000B2608000E100202080BF
:1059400028460DF0DCFC814600EBD9704FEA600A76
:1059500038460DF0D4FC804600EBD870AAEB60000E
:1059600000B26080EBE028460DF02EFD8046384600
:105970000DF02AFDA8EB000000B2208028460DF0B3
:10598000BEFC814600EBD9704FEA600A38460DF044
:10599000B6FC804600EBD870AAEB600000B26080D5
:1059A000CDE00020208038460DF0A9FC404200B236
:1059B0006080C4E028460DF007FD814600EBD970F9
:1059C0004FEA600A38460DF0FFFC804600EBD870C5
:1059D000AAEB600000B2208038460DF090FC4042F7
:1059E00000B26080ABE09AE082E07AE067E04DE0F0
:1059F00043E032E01AE012E0FFE728460DF0E4FC55
:105A0000804638460DF0E0FCA8EB000000B2208094
:105A100038460DF074FC404200B260808FE00020F8
:105A2000208028460DF06BFC608088E028460DF051
:105A3000CBFC814600EBD9704FEA600A38460DF086
:105A4000C3FC804600EBD870AAEB600000B2208057
:105A500028460DF054FC608071E028460DF0B4FC3F
:105A6000804638460DF0B0FCA8EB000000B2208064
:105A700028460DF044FC608061E038460DF0A4FC3F
:105A8000404200B220800020608058E038460DF08F
:105A90009BFC404200B2208028460DF030FC81463D
:105AA00000EBD9704FEA600A38460DF028FC8046BA
:105AB00000EBD870AAEB600000B260803FE038468F
:105AC0000DF082FC404200B2208028460DF017FC09
:105AD000804638460DF013FCA8EB000000B2608051
