:020000040800F2
:1000000000000220991700089D070008A1070008BA
:10001000A5070008A9070008AD07000800000000B8
:10002000000000000000000000000000B107000810
:10003000B507000800000000B9070008BD07000868
:10004000E9170008E9170008E9170008E917000890
:10005000E9170008E9170008E9170008E917000880
:10006000E9170008E9170008E9170008E917000870
:10007000E9170008E9170008E9170008E917000860
:10008000E9170008E9170008E9170008E917000850
:10009000E9170008E9170008E9170008E917000840
:1000A000E9170008E9170008E9170008E917000830
:1000B000E9170008E9170008E9170008E917000820
:1000C000E9170008E9170008E9170008E917000810
:1000D000E9170008E9170008E9170008E917000800
:1000E000E9170008E9170008E9170008E9170008F0
:1000F000E9170008E9170008E9170008E9170008E0
:10010000E9170008E9170008E9170008E9170008CF
:10011000E9170008E9170008E9170008E9170008BF
:10012000E9170008E9170008E9170008E9170008AF
:10013000E9170008E9170008E9170008E91700089F
:10014000E9170008E9170008E9170008E91700088F
:10015000E9170008E9170008E9170008E91700087F
:10016000E9170008E9170008E9170008E91700086F
:10017000E9170008E9170008E91700080000000067
:08018000E9170008E917000867
:1001880010B5054C237833B9044B13B10448AFF3C9
:1001980000800123237010BD0C0000200000000027
:1001A80048180008084B10B51BB108490848AFF3B8
:1001B80000800848036803B910BD074B002BFBD02B
:1001C800BDE81040184700BF0000000010000020E4
:1001D800481800080C0000200000000053B94AB974
:1001E800002908BF00281CBF4FF0FF314FF0FF3037
:1001F80000F07EB9ADF1080C6DE904CE00F006F808
:10020800DDF804E0DDE9022304B070472DE9F0478A
:100218008C460E460446089D002B50D18A4217464C
:100228006CD9B2FA82FEBEF1000F0BD0CEF12004D9
:1002380020FA04F401FA0EF644EA060C02FA0EF764
:1002480000FA0EF44FEA1749220CBCFBF9F01FFA2A
:1002580087F809FB10C642EA064600FB08F3B342DA
:1002680009D9F61900F1FF3280F02281B34240F239
:100278001F8102383E44F61AA2B2B6FBF9F309FB15
:10028800136642EA064403FB08F8A04509D9E419B5
:1002980003F1FF3280F00A81A04540F20781023B5A
:1002A8003C44C8EB040443EA00400021002D62D01E
:1002B80024FA0EF400232C606B60BDE8F0878B42B3
:1002C80007D9002D55D0002185E841000846BDE832
:1002D800F087B3FA83F1002940F09080B34202D34B
:1002E800824200F2F880841A66EB03060120B446C5
:1002F800002D40D085E81010BDE8F08712B901271D
:10030800B7FBF2F7B7FA87FEBEF1000F35D1F31B42
:100318004FEA17481FFA87FC0121B3FBF8F0220CBB
:1003280008FB103642EA06460CFB00F3B34207D935
:10033800F61900F1FF3202D2B34200F2CE80104625
:10034800F61AA2B2B6FBF8F308FB136642EA0644B3
:100358000CFB03FCA44507D9E41903F1FF3202D2D0
:10036800A44500F2B5801346CCEB040443EA0040F0
:100378009CE729462846BDE8F087CEF1200106FA19
:100388000EF307FA0EF720FA01F94FEA1748CE40A4
:1003980049EA0309B6FBF8FA4FEA194408FB1A665A
:1003A8001FFA87FC44EA06430AFB0CF29A4200FA59
:1003B8000EF40AD9DB190AF1FF3180F087809A42DE
:1003C80040F28480AAF1020A3B449B1A1FFA89F979
:1003D800B3FBF8F108FB113349EA034301FB0CF6C0
:1003E8009E4207D9DB1901F1FF326BD29E4269D9CF
:1003F80002393B449B1B41EA0A418EE7C1F1200EBA
:1004080022FA0EF48B40234320FA0EF706FA01F481
:100418004FEA134C26FA0EF63C43B6FBFCF9270CC0
:100428000CFB19661FFA83F847EA064609FB08F72A
:10043800B74202FA01F200FA01FA08D9F61809F1EE
:10044800FF3041D2B7423FD9A9F102091E44F61B39
:10045800A0B2B6FBFCF40CFB146640EA064704FBAA
:1004680008F8B84507D9FF1804F1FF3028D2B84575
:1004780026D9023C1F4444EA0940C8EB0707A0FB01
:1004880002894F4544464E4614D329D065B3BAEB8A
:10049800040367EB060707FA0EFECB40CF404EEA8F
:1004A800030385E888000021BDE8F0871346F8E6D5
:1004B8001046E0E6B8EB020469EB03060138E5E70D
:1004C8000446D8E7114695E78146C0E78A467CE7A7
:1004D800023B3C4448E708460AE702383E442FE717
:1004E800C245E7D33E46D1E72946BDE8F08700BFBD
:1004F800704700BF30B595B03022002108A801F040
:1005080097F900240394049405940694079401949D
:100518001B4B1A6C42F080521A641B6C03F0805318
:100528000193019B0294174B1A6842F480421A60A7
:100538001B6803F480430293029B012308934FF442
:100548008033099302250E954FF480030F930423FB
:100558001093A82211921295139308A800F050FC4A
:100568000F230393049505944FF4A05306934FF477
:1005780080530793052103A800F0B4FE15B030BDE1
:10058800003802400070004008B501F0C7F8FFF7D6
:10059800B1FF00F015F800F08FF8074C0021204655
:1005A80000F0C2FB2368FA225A634FF496729A63EA
:1005B800DA631A64FEE700BF28000020704700BF16
:1005C80084B000220192104B196B41F0800119632D
:1005D800196B01F08001019101990292196B41F0A8
:1005E80001011963196B01F001010291029903924B
:1005F8001A6B42F002021A631B6B03F002030393A7
:10060800039B04B0704700BF003802400268094BE2
:100618009A420DD182B000230193074B1A6C42F025
:1006280002021A641B6C03F002030193019B02B0DF
:10063800704700BF000400400038024030B589B060
:100648000023039304930593069307930268174BBB
:100658009A4229D10025019503F50D331A6B42F012
:1006680001021A631A6B02F001020192019A0295C3
:100678001A6B42F002021A631B6B03F00203029327
:10068800029BC023039302240494079403A90848F7
:1006980000F0DCFE03230393049405950695079464
:1006A80003A9044800F0D2FE09B030BD00040040A0
:1006B800000002400004024000B58FB000230A93F6
:1006C8000B930C930D93089309930193029303934F
:1006D80004930593069307932C482D4A02605322EE
:1006E8004260836040F2F312C2600361836100F0EC
:1006F800ABF908B1FFF762FF0EA94FF4805341F838
:10070800103D224800F08CFA08B1FFF757FF1F4848
:1007180000F0B6F908B1FFF751FF002308930993D9
:1007280008A91A4800F026FB08B1FFF747FF602325
:100738000193FA23029300220392059201A9134818
:1007480000F0F2F908B1FFF739FF00230293042201
:100758000DEB02010D4800F0E7F908B1FFF72EFF95
:10076800082201A9094800F0DFF908B1FFF726FFC0
:100778000C2201A9054800F0D7F908B1FFF71EFFC0
:100788000248FFF75BFF0FB05DF804FB280000206C
:1007980000040040704700BFFEE700BFFEE700BF4F
:1007A800FEE700BFFEE700BF704700BF704700BF0D
:1007B800704700BF08B500F0CBFF08BD82B000212C
:1007C80000910B4B5A6C42F480425A645A6C02F402
:1007D80080420092009A01911A6C42F080521A6489
:1007E8001B6C03F080530193019B02B0704700BF5C
:1007F8000038024070B4036A23F001030362036AFD
:100808004668826922F073020C6842EA040523F004
:1008180002028B6813430F4CA04202D00E4A90424A
:1008280005D123F00803CA68134323F00403094CD5
:10083800A04202D0084A904205D126F440764A697F
:1008480032438E691643466085614A684263036293
:1008580070BC7047000001400004014030B4036AD6
:1008680023F480730362036A4568C26922F0730245
:100878000C68224323F400738C6843EA0423124C67
:10088800A04203D004F58064A04206D123F400639B
:10089800CC6843EA042323F480630B4CA04203D0C2
:1008A80004F58064A04207D125F440554C6945EA17
:1008B80004158C6945EA04154560C2614A68C2633B
:1008C800036230BC704700BF0000014030B4036AC7
:1008D80023F480530362036A4468C26922F4E6423F
:1008E8000D6842EA052223F400538D6843EA053374
:1008F800094DA84203D005F58065A84204D124F427
:1009080080444D6944EA85144460C2614A680264BF
:10091800036230BC704700BF0000014010B4036A96
:10092800046A24F001040462846924F0F00444EAAF
:10093800021223F00A031943826101625DF8044B35
:10094800704700BF10B4036A23F010030362846980
:10095800036A24F4704444EA023223F0A00343EA11
:100968000111826101625DF8044B7047836823F0CE
:100978007003194341F0070181607047704700BF59
:100988000368304A904212D0B0F1804F0FD0A2F5E0
:100998007C4290420BD002F58062904207D002F56B
:1009A8008062904203D002F57842904203D123F04E
:1009B80070034A681343234A90422AD0B0F1804F0B
:1009C80027D0A2F57C42904223D002F58062904263
:1009D8001FD002F5806290421BD002F57842904207
:1009E80017D002F57052904213D002F580629042FF
:1009F8000FD002F5806290420BD0A2F59832904257
:100A080007D002F58062904203D002F580629042DE
:100A180003D123F44073CA68134323F080034A695F
:100A2800134303608B68C3620B688362054B98426B
:100A380003D003F58063984201D10B690363012356
:100A48004361704700000140B8B110B5044690F802
:100A58003D3013F0FF0F04D1002380F83C30FFF73E
:100A6800D5FD022384F83D30211D2068FFF788FF5B
:100A7800012384F83D30002010BD0120704700BFDD
:100A8800B8B110B5044690F83D3013F0FF0F04D10B
:100A9800002380F83C30FFF771FF022384F83D30D3
:100AA800211D2068FFF76CFF012384F83D300020EA
:100AB80010BD0120704700BF30B4036A23F0100353
:100AC8000362036A4468826922F4E6420D6842EAD6
:100AD800052223F020038D6843EA0513114DA8422F
:100AE80003D005F58065A84206D123F08003CD68C0
:100AF80043EA051323F040030A4DA84203D005F545
:100B08008065A84207D124F440644D6944EA85040D
:100B18008D6944EA8504446082614A68826303629D
:100B280030BC70470000014038B590F83C30012BCC
:100B380066D00D460446012380F83C30022380F835
:100B48003D300C2A55D8DFE802F0075454541A54A3
:100B580054542E54545441000068FFF74BFE226849
:100B6800936943F0080393612268936923F00403AF
:100B78009361226891692B690B43936139E000689E
:100B8800FFF79AFF2268936943F400639361226830
:100B9800936923F48063936122689369296943EA1E
:100BA8000123936125E00068FFF758FE2268D369A6
:100BB80043F00803D3612268D36923F00403D361A7
:100BC8002268D1692B690B43D36112E00068FFF7F3
:100BD8007DFE2268D36943F40063D3612268D36938
:100BE80023F48063D3612268D369296943EA012326
:100BF800D361012384F83D30002084F83C0038BDDF
:100C0800022038BD10B4846824F47F4442EA0323E8
:100C1800194344EA010383605DF8044B704700BF41
:100C280090F83C30012B6AD010B50446012380F8B7
:100C38003C30022380F83D300268936823F47F43F8
:100C480023F0770393600B68402B43D00AD8102B0E
:100C58004AD002D8002B47D04AE0202B44D0302B72
:100C680042D045E0602B2BD002D8502B1ED03FE05D
:100C7800702B03D0B3F5005F0CD039E0CB684A681D
:100C880089680068FFF7BEFF2268936843F077031E
:100C980093602DE0CB684A6889680068FFF7B2FF67
:100CA8002268936843F48043936021E0CA684968E6
:100CB8000068FFF733FE50212068FFF757FE17E062
:100CC800CA6849680068FFF73DFE60212068FFF7A1
:100CD8004DFE0DE0CA6849680068FFF71FFE402115
:100CE8002068FFF743FE03E019462068FFF73EFE41
:100CF800012384F83D30002084F83C0010BD022018
:100D0800704700BF10B401F01F01012303FA01F47A
:100D1800036A23EA04030362036A8A401A430262ED
:100D28005DF8044B704700BF10B504460122006807
:100D3800FFF7E8FF23680E4A934205D002F5806268
:100D4800934203D1012202E0012200E000221AB1FD
:100D58005A6C42F400425A642268936803F007030D
:100D6800062B03D0136843F001031360002010BD65
:100D78000000014090F83C30012B3AD030B40123F8
:100D880080F83C30022380F83D3003685A689D683B
:100D980022F070040A6822435A600368174A934293
:100DA8001AD0B3F1804F17D0A2F57C42934213D0EA
:100DB80002F5806293420FD002F5806293420BD015
:100DC80002F57842934207D002F57052934203D05D
:100DD800A2F59432934204D125F080054A68154360
:100DE8009D60012380F83D30002380F83C30184690
:100DF80001E00220704730BC704700BF000001408E
:100E0800002800F0D78170B582B00446036813F05B
:100E1800010F5AD0A04B9B6803F00C03042B0AD097
:100E28009D4B9B6803F00C03082B0DD19A4B5B6814
:100E380013F4800F08D0984B1B6813F4003F44D07C
:100E48006368002B41D1B7E16368B3F5803F05D1F2
:100E5800914A136843F48033136015E0B3F5A02F6B
:100E680009D18D4B1A6842F480221A601A6842F43C
:100E780080321A6008E0884B1A6822F480321A60BF
:100E88001A6822F480221A6063687BB100F06CFC57
:100E9800054605E000F068FC401B642800F28E81DE
:100EA8007D4B1B6813F4003FF4D00EE000F05CFCAF
:100EB800054605E000F058FC401B642800F28081DC
:100EC800754B1B6813F4003FF4D1236813F0020F2D
:100ED80050D0714B9B6813F00C0F0AD06E4B9B6877
:100EE80003F00C03082B16D16B4B5B6813F4800FCF
:100EF80011D1694B1B6813F0020F03D0E368012B73
:100F080040F06081644A136823F0F803216943EADA
:100F1800C10313602EE0E368D3B101225F4B1A606E
:100F280000F022FC054605E000F01EFC401B0228EC
:100F380000F24A81584B1B6813F0020FF4D0564A4E
:100F4800136823F0F803216943EAC103136011E031
:100F58000022524B1A6000F007FC054605E000F03D
:100F680003FC401B022800F231814B4B1B6813F035
:100F7800020FF4D1236813F0080F26D0636993B1E8
:100F88000122474B1A6000F0EFFB054605E000F030
:100F9800EBFB401B022800F21B813F4B5B6F13F0F9
:100FA800020FF4D011E000223D4B1A6000F0DCFB88
:100FB800054605E000F0D8FB401B022800F20A8134
:100FC800354B5B6F13F0020FF4D1236813F0040F55
:100FD8007DD0314B1B6C13F0805F0DD10023019342
:100FE8002D4B1A6C42F080521A641B6C03F080532C
:100FF8000193019B012500E000252A4B1B6813F48F
:10100800807F13D1274A136843F48073136000F07C
:10101800ABFB064605E000F0A7FB801B022800F2A8
:10102800DB80204B1B6813F4807FF4D0A368012B6E
:1010380005D1194A136F43F00103136714E0052B18
:1010480009D1154B1A6F42F004021A671A6F42F061
:1010580001021A6708E0104B1A6F22F001021A67A2
:101068001A6F22F004021A67A3688BB100F07CFBA8
:10107800064607E000F078FB801B41F2883398426F
:1010880000F2AC80044B1B6F13F0020FF2D018E093
:1010980000F06AFB06460FE00038024000004742B5
:1010A800800E47420070004000F05EFB801B41F25A
:1010B8008833984200F29480554B1B6F13F0020F4F
:1010C800F2D125B1524A136C23F080531364A369FB
:1010D800002B00F087804E4A926802F00C02082A22
:1010E80048D0022B33D100224A4B1A6000F03CFB57
:1010F800054604E000F038FB401B022874D8444B36
:101108001B6813F0007FF5D1E269236A1343626A12
:1011180043EA8213A26A5208013A43EA0243E26AA6
:1011280043EA02633A4A536001223A4B1A6000F0DC
:101138001BFB044604E000F017FB001B022855D8EF
:10114800334B1B6813F0007FF5D000205DE00022D0
:10115800304B1A6000F008FB044604E000F004FB82
:10116800001B022844D82A4B1B6813F0007FF5D1D6
:1011780000204AE0012B3DD0254B9B6803F48001F9
:10118800E269914238D103F03F02216A8A4235D19F
:10119800616A47F6C0721A408A4231D103F440327C
:1011A800A16A8A422ED103F07063E26A93422BD07F
:1011B80001202AE001207047012026E0032024E0D6
:1011C800032022E0012020E003201EE003201CE091
:1011D80003201AE0032018E0032016E0032014E09F
:1011E800032012E0002010E003200EE003200CE0B2
:1011F80003200AE0012008E0012006E0012004E0C5
:10120800012002E0012000E0002002B070BD00BF14
:10121800003802406000474238B52F4B9B6803F006
:101228000C03042B55D0082B01D02C4838BD2A4B71
:101238005A6802F03F025B6813F4800F20D0264BF7
:101248005B68C3F38813DC000025690141EAD461B7
:101258006001041B61EB0505A90141EA9461A00145
:10126800001B61EB0501C01841F100014B0243EA84
:10127800D0534402204619460023FEF7AFFF1FE073
:10128800154B5B68C3F38813DC000025690141EA4C
:10129800D4616001041B61EB0505A90141EA946171
:1012A800A001001B61EB0501C01841F100018B0290
:1012B80043EA90538402204619460023FEF78EFF26
:1012C800054B5B68C3F3014301335B00B0FBF3F0EC
:1012D80038BD034838BD00BF003802400024F40080
:1012E80000127A00002800F0988070B50446524B2E
:1012F8001B6803F00F038B4208D2CBB24E4A13701F
:10130800136803F00F03994240F08980236813F0B3
:10131800020F17D013F0040F04D0484A936843F41F
:10132800E0539360236813F0080F04D0434A93688E
:1013380043F4604393604148836823F0F002A36854
:10134800134383600D46236813F0010F2FD06268A2
:10135800012A05D1394B1B6813F4003F0ED160E018
:10136800931E012B05D8354B1B6813F0007F05D160
:1013780059E0324B1B6813F0020F56D02F498B6887
:1013880023F0030313438B6000F0EEF9064606E0F2
:1013980000F0EAF9801B41F28833984247D8274B7E
:1013A8009B6803F00C036268B3EB820FF0D1224B09
:1013B8001B6803F00F039D4207D2EAB21E4B1A7056
:1013C8001B6803F00F039D4233D1236813F0040F09
:1013D80006D01A498B6823F4E052E36813438B6004
:1013E800236813F0080F07D0144A936823F4604366
:1013F800216943EAC1039360FFF70EFF0F4B9B6817
:10140800C3F303130E4AD35CD8400E4B18600E4B3F
:10141800186800F05DF9002070BD012070470120B8
:1014280070BD012070BD012070BD012070BD03207A
:1014380070BD012070BD00BF003C02400038024072
:101448006018000808000020000000202DE9F04185
:1014580082B00023D3E001229A400C6802EA040516
:10146800AA4240F0CB804C68661E012E03D9112C8D
:1014780001D0122C15D187684FEA430E032606FACD
:101488000EF627EA0606CC6804FA0EF434438460A4
:10149800446824EA02024C68C4F300149C402243C6
:1014A8004260C6685F000324BC40E44306EA0402C5
:1014B8008E68BE401643C6604A68022A01D0122AC6
:1014C80013D1DE08083650F8268003F007024FEAE9
:1014D800820E0F2202FA0EF228EA020C0A6902FAB8
:1014E8000EF24CEA020240F82620066826404A68B6
:1014F80002F0030404FA07F2324302604A6812F069
:10150800805F7BD000220192404A546C44F48044AE
:101518005464526C02F480420192019A9E08B41CF1
:101528003B4A52F8247003F0030292000F249440BF
:1015380027EA0407374CA0421DD004F58064A04276
:101548001BD004F58064A04219D004F58064A04241
:1015580017D004F58064A04215D004F58064A04239
:1015680013D004F58064A04211D004F58064A04231
:101578000FD107240EE000240CE001240AE0022425
:1015880008E0032406E0042404E0052402E006241D
:1015980000E0082404FA02F23A4302361C4C44F8EC
:1015A80026201D4A1468EA4304EA02064F6817F425
:1015B800803F01D045EA0406174C2660646802EAB9
:1015C80004064F6817F4003F01D045EA0406124CA0
:1015D8006660A46802EA04064F6817F4801F01D009
:1015E80045EA04060C4CA660E46822404E6816F4EE
:1015F800001F01D045EA0402074CE26001330F2BBB
:101608007FF629AF02B0BDE8F08100BF0038024084
:101618000038014000000240003C0140074AD368FE
:1016280023F4E0631B041B0C000200F4E060184381
:1016380040F0BF6040F40030D060704700ED00E03B
:1016480030B4164BDB68C3F30223C3F10704042C40
:1016580028BF04241D1D062D01D9DD1E00E000252C
:10166800012303FA04F4013C2140A940AB40013BAB
:101678001A400A43002808DB1201D2B200F1604088
:1016880000F5614080F8002305E000F00F0012012A
:10169800D2B2034B1A5430BC704700BF00ED00E0D3
:1016A80014ED00E00138B0F1807F0AD2064B586093
:1016B800F021064A82F823100020986007221A6059
:1016C80070470120704700BF10E000E000ED00E027
:1016D80010B504460E4B18784FF47A73B3FBF0F349
:1016E8000C4A1068B0FBF3F0FFF7DCFF58B90F2C79
:1016F8000BD8002221464FF0FF30FFF7A1FF064B21
:101708001C60002010BD012010BD012010BD00BFCD
:1017180004000020080000200000002008B50B4B42
:101728001A6842F400721A601A6842F480621A60F9
:101738001A6842F480721A600320FFF76FFF0020D6
:10174800FFF7C6FFFFF73AF8002008BD003C02404B
:10175800034A1368034909780B441360704700BFB4
:101768006800002004000020014B1868704700BF83
:1017780068000020054BD3F8882042F47002C3F8B3
:1017880088204FF000629A60704700BF00ED00E0CB
:10179800DFF834D0002103E00C4B5B584350043190
:1017A8000B480C4B42189A42F6D30B4A02E000232E
:1017B80042F8043B094B9A42F9D3FFF7DBFF00F0EC
:1017C80011F8FEF7E1FE70470000022080180008BB
:1017D800000000200C0000200C0000206C000020FD
:1017E800FEE7000070B50E4B0E4CE41AA41000255D
:1017F8001E46A54204D056F8253098470135F8E72B
:1018080000F01EF8084C094BE41AA41000251E46E7
:10181800A54204D056F8253098470135F8E770BD41
:1018280078180008781800087C180008781800084C
:1018380002440346934202D003F8011BFAE77047BB
:10184800F8B500BFF8BC08BC9E467047F8B500BFA5
:08185800F8BC08BC9E46704775
:101860000000000000000000010203040607080950
:08187000A4E9FF7F0100000064
:04187800AD010008B6
:04187C0089010008D6
:0C18800010000000010000000024F40033
:04000005080017993F
:00000001FF
