:020000040800F2
:10000000000002204D1000080D060008110600082F
:1000100015060008190600081D060008000000006B
:1000200000000000000000000000000021060008A1
:100030002506000800000000290600082D0600081B
:100040009D1000089D1000089D1000089D100008DC
:100050009D1000089D1000089D1000089D100008CC
:100060009D1000089D1000089D1000089D100008BC
:100070009D1000089D1000089D1000089D100008AC
:100080009D1000089D1000089D1000089D1000089C
:100090009D1000089D1000089D10000835060008FE
:1000A0009D1000089D1000089D1000089D1000087C
:1000B0009D1000089D1000089D1000089D1000086C
:1000C0009D1000089D1000089D1000089D1000085C
:1000D0009D1000089D1000089D1000089D1000084C
:1000E0009D1000089D1000089D1000089D1000083C
:1000F0009D1000089D1000089D1000089D1000082C
:100100009D1000089D1000089D1000089D1000081B
:100110009D1000089D1000089D1000089D1000080B
:100120009D1000089D1000089D1000089D100008FB
:100130009D1000089D1000089D1000089D100008EB
:100140009D1000089D1000089D1000089D100008DB
:100150009D1000089D1000089D1000089D100008CB
:100160009D1000089D1000089D1000089D100008BB
:100170009D1000089D1000089D1000080000000060
:080180009D1000089D1000080D
:1001880010B5054C237833B9044B13B10448AFF3C9
:1001980000800123237010BD0C0000200000000027
:1001A800FC100008084B10B51BB108490848AFF30C
:1001B80000800848036803B910BD074B002BFBD02B
:1001C800BDE81040184700BF0000000010000020E4
:1001D800FC1000080C0000200000000053B94AB9C8
:1001E800002908BF00281CBF4FF0FF314FF0FF3037
:1001F80000F07EB9ADF1080C6DE904CE00F006F808
:10020800DDF804E0DDE9022304B070472DE9F0478A
:100218008C460E460446089D002B50D18A4217464C
:100228006CD9B2FA82FEBEF1000F0BD0CEF12004D9
:1002380020FA04F401FA0EF644EA060C02FA0EF764
:1002480000FA0EF44FEA1749220CBCFBF9F01FFA2A
:1002580087F809FB10C642EA064600FB08F3B342DA
:1002680009D9F61900F1FF3280F02281B34240F239
:100278001F8102383E44F61AA2B2B6FBF9F309FB15
:10028800136642EA064403FB08F8A04509D9E419B5
:1002980003F1FF3280F00A81A04540F20781023B5A
:1002A8003C44C8EB040443EA00400021002D62D01E
:1002B80024FA0EF400232C606B60BDE8F0878B42B3
:1002C80007D9002D55D0002185E841000846BDE832
:1002D800F087B3FA83F1002940F09080B34202D34B
:1002E800824200F2F880841A66EB03060120B446C5
:1002F800002D40D085E81010BDE8F08712B901271D
:10030800B7FBF2F7B7FA87FEBEF1000F35D1F31B42
:100318004FEA17481FFA87FC0121B3FBF8F0220CBB
:1003280008FB103642EA06460CFB00F3B34207D935
:10033800F61900F1FF3202D2B34200F2CE80104625
:10034800F61AA2B2B6FBF8F308FB136642EA0644B3
:100358000CFB03FCA44507D9E41903F1FF3202D2D0
:10036800A44500F2B5801346CCEB040443EA0040F0
:100378009CE729462846BDE8F087CEF1200106FA19
:100388000EF307FA0EF720FA01F94FEA1748CE40A4
:1003980049EA0309B6FBF8FA4FEA194408FB1A665A
:1003A8001FFA87FC44EA06430AFB0CF29A4200FA59
:1003B8000EF40AD9DB190AF1FF3180F087809A42DE
:1003C80040F28480AAF1020A3B449B1A1FFA89F979
:1003D800B3FBF8F108FB113349EA034301FB0CF6C0
:1003E8009E4207D9DB1901F1FF326BD29E4269D9CF
:1003F80002393B449B1B41EA0A418EE7C1F1200EBA
:1004080022FA0EF48B40234320FA0EF706FA01F481
:100418004FEA134C26FA0EF63C43B6FBFCF9270CC0
:100428000CFB19661FFA83F847EA064609FB08F72A
:10043800B74202FA01F200FA01FA08D9F61809F1EE
:10044800FF3041D2B7423FD9A9F102091E44F61B39
:10045800A0B2B6FBFCF40CFB146640EA064704FBAA
:1004680008F8B84507D9FF1804F1FF3028D2B84575
:1004780026D9023C1F4444EA0940C8EB0707A0FB01
:1004880002894F4544464E4614D329D065B3BAEB8A
:10049800040367EB060707FA0EFECB40CF404EEA8F
:1004A800030385E888000021BDE8F0871346F8E6D5
:1004B8001046E0E6B8EB020469EB03060138E5E70D
:1004C8000446D8E7114695E78146C0E78A467CE7A7
:1004D800023B3C4448E708460AE702383E442FE717
:1004E800C245E7D33E46D1E72946BDE8F08700BFBD
:1004F800704700BF30B595B03022002108A800F041
:10050800F1FD00240394049405940694079401943F
:100518001B4B1A6C42F080521A641B6C03F0805318
:100528000193019B0294174B1A6842F480421A60A7
:100538001B6803F480430293029B012308934FF442
:100548008033099302250E954FF480030F930423FB
:100558001093A82211921295139308A800F08EF810
:100568000F230393049505944FF4A05306934FF477
:1005780080530793052103A800F0F2FA15B030BDA7
:10058800003802400070004008B500F021FDFFF778
:10059800B1FF00F001F8FEE700B589B0002303932E
:1005A80004930593069307930193134A116B41F043
:1005B80080011163116B01F080010191019902938F
:1005C800136B43F001031363136B03F001030293EE
:1005D800029BC0230393094B049303A9084800F026
:1005E80073FB01221146172000F076FC172000F05B
:1005F800A5FC09B05DF804FB0038024000001110AA
:1006080000000240704700BFFEE700BFFEE700BFE2
:10061800FEE700BFFEE700BF704700BF704700BF9E
:10062800704700BF08B500F0EDFC08BD08B54020D4
:1006380000F034FC802000F031FC08BD00B583B028
:10064800002100910C4B5A6C42F480425A645A6C57
:1006580002F480420092009A01911A6C42F0805292
:100668001A641B6C03F080530193019B052000F072
:1006780021FC03B05DF804FB00380240002800F0BC
:10068800D78170B582B00446036813F0010F5AD0C1
:10069800A04B9B6803F00C03042B0AD09D4B9B686E
:1006A80003F00C03082B0DD19A4B5B6813F4800FF1
:1006B80008D0984B1B6813F4003F44D06368002BA4
:1006C80041D1B7E16368B3F5803F05D1914A13681A
:1006D80043F48033136015E0B3F5A02F09D18D4B97
:1006E8001A6842F480221A601A6842F480321A604A
:1006F80008E0884B1A6822F480321A601A6822F4DB
:1007080080221A6063687BB100F088FC054605E02A
:1007180000F084FC401B642800F28E817D4B1B682E
:1007280013F4003FF4D00EE000F078FC054605E035
:1007380000F074FC401B642800F28081754B1B6834
:1007480013F4003FF4D1236813F0020F50D0714B1B
:100758009B6813F00C0F0AD06E4B9B6803F00C03D8
:10076800082B16D16B4B5B6813F4800F11D1694BC2
:100778001B6813F0020F03D0E368012B40F060817F
:10078800644A136823F0F803216943EAC10313603C
:100798002EE0E368D3B101225F4B1A6000F03EFC03
:1007A800054605E000F03AFC401B022800F24A81A9
:1007B800584B1B6813F0020FF4D0564A136823F005
:1007C800F803216943EAC103136011E00022524B88
:1007D8001A6000F023FC054605E000F01FFC401BF2
:1007E800022800F231814B4B1B6813F0020FF4D141
:1007F800236813F0080F26D0636993B10122474B91
:100808001A6000F00BFC054605E000F007FC401BF1
:10081800022800F21B813F4B5B6F13F0020FF4D0EC
:1008280011E000223D4B1A6000F0F8FB054605E098
:1008380000F0F4FB401B022800F20A81354B5B6F85
:1008480013F0020FF4D1236813F0040F7DD0314B5D
:100858001B6C13F0805F0DD1002301932D4B1A6C94
:1008680042F080521A641B6C03F080530193019B81
:10087800012500E000252A4B1B6813F4807F13D163
:10088800274A136843F48073136000F0C7FB0646D9
:1008980005E000F0C3FB801B022800F2DB80204B40
:1008A8001B6813F4807FF4D0A368012B05D1194A83
:1008B800136F43F00103136714E0052B09D1154B9F
:1008C8001A6F42F004021A671A6F42F001021A679F
:1008D80008E0104B1A6F22F001021A671A6F22F013
:1008E80004021A67A3688BB100F098FB064607E07C
:1008F80000F094FB801B41F28833984200F2AC80F0
:10090800044B1B6F13F0020FF2D018E000F086FBC7
:1009180006460FE00038024000004742800E47427A
:100928000070004000F07AFB801B41F28833984247
:1009380000F29480554B1B6F13F0020FF2D125B1D2
:10094800524A136C23F080531364A369002B00F000
:1009580087804E4A926802F00C02082A48D0022B7F
:1009680033D100224A4B1A6000F058FB054604E0D8
:1009780000F054FB401B022874D8444B1B6813F04A
:10098800007FF5D1E269236A1343626A43EA82135E
:10099800A26A5208013A43EA0243E26A43EA02635E
:1009A8003A4A536001223A4B1A6000F037FB04467A
:1009B80004E000F033FB001B022855D8334B1B68BA
:1009C80013F0007FF5D000205DE00022304B1A6064
:1009D80000F024FB044604E000F020FB001B022882
:1009E80044D82A4B1B6813F0007FF5D100204AE059
:1009F800012B3DD0254B9B6803F48001E2699142AD
:100A080038D103F03F02216A8A4235D1616A47F63C
:100A1800C0721A408A4231D103F44032A16A8A4234
:100A28002ED103F07063E26A93422BD001202AE0B2
:100A380001207047012026E0032024E0032022E063
:100A4800012020E003201EE003201CE003201AE020
:100A5800032018E0032016E0032014E0032012E02E
:100A6800002010E003200EE003200CE003200AE041
:100A7800012008E0012006E0012004E0012002E056
:100A8800012000E0002002B070BD00BF0038024025
:100A98006000474238B52F4B9B6803F00C03042BCA
:100AA80055D0082B01D02C4838BD2A4B5A6802F083
:100AB8003F025B6813F4800F20D0264B5B68C3F3BA
:100AC8008813DC000025690141EAD4616001041B38
:100AD80061EB0505A90141EA9461A001001B61EBE6
:100AE8000501C01841F100014B0243EAD05344020A
:100AF800204619460023FFF771FB1FE0154B5B6882
:100B0800C3F38813DC000025690141EAD461600160
:100B1800041B61EB0505A90141EA9461A001001BD2
:100B280061EB0501C01841F100018B0243EA9053C3
:100B38008402204619460023FFF750FB054B5B68EB
:100B4800C3F3014301335B00B0FBF3F038BD034846
:100B580038BD00BF003802400024F40000127A00BB
:100B6800002800F0988070B50446524B1B6803F0CB
:100B78000F038B4208D2CBB24E4A1370136803F0AE
:100B88000F03994240F08980236813F0020F17D0B1
:100B980013F0040F04D0484A936843F4E053936079
:100BA800236813F0080F04D0434A936843F4604362
:100BB80093604148836823F0F002A368134383607D
:100BC8000D46236813F0010F2FD06268012A05D162
:100BD800394B1B6813F4003F0ED160E0931E012BC4
:100BE80005D8354B1B6813F0007F05D159E0324B0F
:100BF8001B6813F0020F56D02F498B6823F00303AC
:100C080013438B6000F00AFA064606E000F006FA85
:100C1800801B41F28833984247D8274B9B6803F0E2
:100C28000C036268B3EB820FF0D1224B1B6803F010
:100C38000F039D4207D2EAB21E4B1A701B6803F0DD
:100C48000F039D4233D1236813F0040F06D01A49CD
:100C58008B6823F4E052E36813438B60236813F036
:100C6800080F07D0144A936823F46043216943EAC4
:100C7800C1039360FFF70EFF0F4B9B68C3F3031389
:100C88000E4AD35CD8400E4B18600E4B186800F023
:100C980079F9002070BD01207047012070BD012046
:100CA80070BD012070BD012070BD032070BD012002
:100CB80070BD00BF003C024000380240141100081B
:100CC80008000020000000202DE9F04182B0002338
:100CD800D3E001229A400C6802EA0405AA4240F0D7
:100CE800CB804C68661E012E03D9112C01D0122C22
:100CF80015D187684FEA430E032606FA0EF627EA4F
:100D08000606CC6804FA0EF434438460446824EA86
:100D180002024C68C4F300149C4022434260C66837
:100D28005F000324BC40E44306EA04028E68BE4028
:100D38001643C6604A68022A01D0122A13D1DE0877
:100D4800083650F8268003F007024FEA820E0F2279
:100D580002FA0EF228EA020C0A6902FA0EF24CEACA
:100D6800020240F82620066826404A6802F003047A
:100D780004FA07F2324302604A6812F0805F7BD0BF
:100D880000220192404A546C44F480445464526CEA
:100D980002F480420192019A9E08B41C3B4A52F820
:100DA800247003F0030292000F24944027EA0407FA
:100DB800374CA0421DD004F58064A0421BD004F536
:100DC8008064A04219D004F58064A04217D004F5CD
:100DD8008064A04215D004F58064A04213D004F5C5
:100DE8008064A04211D004F58064A0420FD107248A
:100DF8000EE000240CE001240AE0022408E00324A9
:100E080006E0042404E0052402E0062400E00824A7
:100E180004FA02F23A4302361C4C44F826201D4AD2
:100E28001468EA4304EA02064F6817F4803F01D0C9
:100E380045EA0406174C2660646802EA04064F680F
:100E480017F4003F01D045EA0406124C6660A46816
:100E580002EA04064F6817F4801F01D045EA040629
:100E68000C4CA660E46822404E6816F4001F01D0BE
:100E780045EA0402074CE26001330F2B7FF629AFE5
:100E880002B0BDE8F08100BF0038024000380140E0
:100E980000000240003C0140704700BF08B5044B09
:100EA8005B69034203D0024B5861FFF7F5FF08BDA9
:100EB800003C0140074AD36823F4E0631B041B0C81
:100EC800000200F4E060184340F0BF6040F40030D6
:100ED800D060704700ED00E030B4164BDB68C3F318
:100EE8000223C3F10704042C28BF04241D1D062D6A
:100EF80001D9DD1E00E00025012303FA04F4013CBA
:100F08002140A940AB40013B1A400A43002808DBB6
:100F18001201D2B200F1604000F5614080F8002370
:100F280005E000F00F001201D2B2034B1A5430BC96
:100F3800704700BF00ED00E014ED00E0002808DB7A
:100F4800420900F01F00012303FA00F0014B43F8A7
:100F58002200704700E100E00138B0F1807F0AD23A
:100F6800064B5860F021064A82F82310002098604A
:100F780007221A6070470120704700BF10E000E0A8
:100F880000ED00E010B504460E4B18784FF47A7364
:100F9800B3FBF0F30C4A1068B0FBF3F0FFF7DCFF8B
:100FA80058B90F2C0BD8002221464FF0FF30FFF71D
:100FB80093FF064B1C60002010BD012010BD0120CE
:100FC80010BD00BF04000020080000200000002021
:100FD80008B50B4B1A6842F400721A601A6842F49A
:100FE80080621A601A6842F480721A600320FFF760
:100FF80061FF0020FFF7C6FFFFF720FB002008BDB8
:10100800003C0240034A1368034909780B44136003
:10101800704700BF2800002004000020014B18681A
:10102800704700BF28000020054BD3F8882042F401
:101038007002C3F888204FF000629A60704700BFC2
:1010480000ED00E0DFF834D0002103E00C4B5B58E2
:10105800435004310B480C4B42189A42F6D30B4AC2
:1010680002E0002342F8043B094B9A42F9D3FFF708
:10107800DBFF00F011F8FFF787FA70470000022045
:1010880034110008000000200C0000200C00002093
:101098002C000020FEE7000070B50E4B0E4CE41A41
:1010A800A41000251E46A54204D056F825309847BE
:1010B8000135F8E700F01EF8084C094BE41AA410B3
:1010C80000251E46A54204D056F82530984701351C
:1010D800F8E770BD2C1100082C1100083011000829
:1010E8002C11000802440346934202D003F8011B66
:1010F800FAE77047F8B500BFF8BC08BC9E467047D1
:0C110800F8B500BFF8BC08BC9E4670475C
:1011140000000000000000000102030406070809A3
:08112400F0F0FF7F0100000064
:04112C00AD01000809
:041130008901000829
:0C11340010000000010000000024F40086
:040000050800104D92
:00000001FF
