:020000040800F2
:10000000E8D90120590200088BCF0008D1CA0008A6
:1000100089CF0008EDC300082DE4000800000000AF
:10002000000000000000000000000000A101000826
:10003000A1C7000800000000F5010008D1E0000899
:1000400073020008730200087302000873020008BC
:1000500073020008730200087302000873020008AC
:10006000730200087302000873020008730200089C
:10007000730200087302000873020008730200088C
:10008000730200087302000873020008730200087C
:10009000730200087302000873020008730200086C
:1000A000730200087302000873020008730200085C
:1000B000730200087302000873020008730200084C
:1000C000730200087302000873020008730200083C
:1000D000730200087302000873020008730200082C
:1000E000730200087302000873020008730200081C
:1000F000730200087302000873020008730200080C
:1001000073020008F1D100087302000873020008AE
:1001100073020008730200087302000873020008EB
:10012000730200087302000873020008A5C50008E6
:1001300073020008730200087302000873020008CB
:1001400073020008730200087302000873020008BB
:1001500073020008730200087302000873020008AB
:10016000730200087302000873020008730200089B
:10017000730200087302000873020008730200088B
:100180007302000873020008DFF810D000F010F9C5
:100190000048004739030108AFF30080E8D9012087
:1001A0002A4B19680868B0E8F04F80F30988BFF35C
:1001B0006F8F4FF0000080F311887047000000003F
:1001C00006480068006880F3088862B661B6BFF32D
:1001D0004F8FBFF36F8F00DF00BF00BF08ED00E05F
:1001E000DFF80C00016841F470010160704700BF46
:1001F00088ED00E0EFF30980BFF36F8F134B1A68AF
:100200001EF0100F08BF20ED108A20E9F04F10609B
:1002100008B44FF0500080F31188BFF34F8FBFF345
:100220006F8F10F0F1FF4FF0000080F3118808BCD1
:1002300019680868B0E8F04F1EF0100F08BFB0EC66
:10024000108A80F30988BFF36F8F70476800002021
:10025000EFF30580704700000648804706480047D6
:10026000FEE7FEE7FEE7FEE7FEE7FEE7FEE7FEE766
:10027000FEE7FEE7E5E00008890100082DE9F05FF0
:100280000546002092469B46884606468146402405
:100290001BE0284641464746224600F078F8534680
:1002A0005A46C01A914110D311461846224600F012
:1002B0005FF82D1A67EB01084F4622460120002106
:1002C00000F056F817EB00094E41201EA4F101047E
:1002D000DFDC484631462A464346BDE8F09F10B56C
:1002E000441A0346944209D28418114403E011F8D9
:1002F000013D04F8013D521EF9D210BD40EA01044F
:10030000A40703D009E010C9121F10C3042AFAD2AF
:1003100003E011F8014B03F8014B521EF9D210BD56
:10032000D2B201E000F8012B491EFBD27047002237
:10033000F6E710B513460A4604461946FFF7F0FFE4
:10034000204610BD30B50B46014600202022012476
:1003500009E021FA02F59D4205D303FA02F5491B93
:1003600004FA02F52844151EA2F10102F1DC30BDA9
:10037000202A04DB203A00FA02F100207047914065
:10038000C2F1200320FA03F3194390407047202A5A
:1003900004DB203A21FA02F00021704721FA02F32F
:1003A000D040C2F120029140084319467047000036
:1003B000064C074D06E0E06840F0010394E80700B2
:1003C00098471034AC42F6D3FFF7E2FE38DB03085F
:1003D00058DB030870B58C1810F8015B15F00703A3
:1003E00001D110F8013B2A1106D110F8012B03E0CE
:1003F00010F8016B01F8016B5B1EF9D12B0705D4D6
:100400000023521E0DD401F8013BFAE710F8013B1E
:10041000CB1A921C03E013F8015B01F8015B521E3A
:10042000F9D5A142D8D3002070BD000038B5204BCB
:10043000204C1D6801F096FA284605F09BF903F060
:1004400047FC1D4B1D6801F08DFA284605F0CCF9DC
:1004500003F03EFC01F086FA236801221A7603F0CD
:1004600037FC01F07FFA236800259D8503F030FCFE
:1004700001F078FA23685D8503F02AFC01F072FA36
:10048000284605F0C9F903F023FC0C4B1D6801F068
:1004900069FA236805B1DD6103F01AFC01F062FA24
:1004A000236800229A76BDE8384003F011BC00BFF3
:1004B000080100200C0100200401002000010020A0
:1004C0002DE9F04F4F4E3368DA69B3F92250D46901
:1004D000B4F80CB083458BB07DD8E18981427AD3E2
:1004E000216808914FF0FF31CBEB000B0791BBF176
:1004F000FF3F6AD0177EB3F92A80A27CB3F924901B
:1005000094F810A017FB02F34046069305F084F917
:100510003368069A0899099002FB0B109A6BDB6905
:1005200004900592A27C03924FF0010BCDF808B025
:10053000DA7E01929B7E009328463B46524649460E
:1005400004F0D8FB079801301CD048F0020005F0F9
:1005500063F92C4A079812680899069B03FB00135D
:10056000916BD26905910493A37C0393CDF808B0F5
:10057000D37E0193937E009352463B4649462846DC
:1005800004F0B8FB33681F4FDB695A7E1B7E9A422A
:1005900014D9B8F1020F11D088F0040005F03CF92D
:1005A0003B68DB69187ED97E9A7E5B7E00FB0191F9
:1005B0000AFB02524B44284604F082FD9DF82400B9
:1005C00005F02AF93368B3F92250627C15445D8442
:1005D0000BB0BDE8F08FA1680029F6D00F88B842B3
:1005E000F3D3B1F802E08645EFD34968C01B80B26F
:1005F0006768089701EB800731F920B0B7F902105E
:10060000079174E70C010020044B1B68DB69DB6970
:1006100009B11A7C0A60587C704700BF0C010020A9
:1006200002230B80704700BFC3699A898A4202D8AF
:10063000DA898A4211D2986818B10388994201D2A6
:100640000020704742888A42FAD3C91A436833F8B7
:100650002100C043C0F3C03070470120704700BF85
:100660002DE9F0473A4E336884B0DB6904AF93F864
:100670001990DB7E47F80C0D00250C4619FB03F999
:10068000B046AA46013C384622D403F0DDF933686F
:10069000DB6982460146D86900F088F80028F1D06D
:1006A00003884168D8F80020C3EB0A0303EB430337
:1006B00001EB8303D26993F902101B79927E0B44FC
:1006C00002FB03F3002BC8BFED18013C3846DCD514
:1006D000BAF1000F03D0504604F034F905443268F3
:1006E0001C49B2F92230B2F92420ADF80830501E6E
:1006F000013B0968ADF80A201D448144ADF80C5057
:10070000ADF80E9019B18B680BB102A8984701F0B3
:100710000DF833685B8D5B07044616D400F0D4FFF8
:1007200003F06CF8BDF90E30BDF90C20BDF90A10CC
:10073000BDF9080004F0C4FC204603F05FF8064B46
:1007400001221A7004B0BDE8F08700F0EFFFE7E780
:100750000C010020C8B90120B0B9012070B5104DBE
:100760002B68B3F92A6082B0B20701900C4612D010
:10077000013C09D401A803F067F92B68DB69013C4F
:100780001B689847631CF5D12A68064B56850022E2
:100790001A7002B070BD044B1B689847E8E700BFB1
:1007A0000C010020B0B901202001002040B10388D5
:1007B0008B4202D843888B4202D280680028F6D14F
:1007C000704700BF014B1860704700BF2001002038
:1007D0002DE9F047234E3368002B3FDD224D234F98
:1007E0002C68D7F80090C3EB431804EB880808F195
:1007F0000C080C344FF0000AA4F1080374221846C8
:100800004946FFF76CFD221F2063A06344F80CAC3F
:100810006263E4607C34A045EED10024A04603E08E
:1008200092B13268904514DA0CF0F2F82B681A593C
:10083000904203EB040108F1010804F17C04EFD1BC
:1008400004313960BDE8F087086004313960BDE8E3
:10085000F087194604313960BDE8F087024B034F39
:100860001968EDE72C01002098B701200C01002049
:10087000F8B5194F194B1A4E384640F80C3F04F0A2
:10088000B7F93468C4EB4414A400204600F0AEF875
:10089000144B386022461B68002198474FF0FF3305
:1008A00073600CF0BBF83368002B11DD0024254683
:1008B00003E072B133689D420ADA0CF0A9F83B6894
:1008C0001A599042234405F1010504F17C04F0D14A
:1008D000F8BD1860F8BD00BF98B701200DB300083F
:1008E0002C0100203801002000B9704710B50446E3
:1008F00001F038F8204607F019FF044603F0E8F944
:10090000204610BD70B5054601F02CF825B900242D
:1009100003F0DEF9204670BD01F024F8284607F008
:1009200005FF044603F0D4F9002CF0D0144E15490D
:10093000F269736B0132F26113F83420013203F86B
:10094000342003EBC4032A465D680B6805F10800F8
:10095000002198472968726B12F83130012B01D9B8
:10096000F06930B9013B02F8313003F0B1F92046AB
:1009700070BD0138013BF06102F83130F5E700BF8E
:10098000E0B8012038010020024B21F0030183E888
:100990000300704724B6012000B9704770B50D4CB4
:1009A000054600F0DFFF636BEE003344596848688A
:1009B00007F00EFD626B6368616A16440133002024
:1009C0006360716002F835006562BDE8704003F055
:1009D0007FB900BFE0B8012028B1034AD36B0360A0
:1009E00003B15860D0637047E0B80120F8B5894E74
:1009F00096F828300446002B2FD00334356CF26B68
:100A000024F003040434A54238BF254662B152F8ED
:100A1000043C9D42144604D114E054F8043C9D4229
:100A200010D02468002CF8D1F368B46B1C4454F83F
:100A3000041C611A0B68002B65D14B689D426CDD6C
:100A4000002408E023680BB161685960616801B156
:100A50000B60A24253D02046F8BD6F4B9A6858688D
:100A6000012186F828100AB982089A605A25356251
:100A700010272022402519683764B2643565802725
:100A80004FF480724FF40075B7653266B5664FF467
:100A900080674FF400624FF48055A1F1140337676B
:100AA000B267C6F880504FF400574FF480424FF4BD
:100AB00000450344C6F88870C6F89020C6F89850E0
:100AC0004FF480374FF400324FF48025C6F8A07001
:100AD000C6F8A820C6F8B050022201254FF400271E
:100AE000B16373633261F060C6F8B8705D607562BF
:100AF000756007F06DFC09F049FD35637DE72368FB
:100B0000F3632046F8BD00200AF090FD54F8041C61
:100B1000611A0B68002B93D18FE7D6F8B8703D4A65
:100B2000581B041DBB420C4472D2D2F8B070BB42B9
:100B30006CD2D2F8A870BB4266D2D2F8A070BB4289
:100B400060D2D2F898709F425AD9D2F89070BB42C6
:100B500054D2D2F88870BB424ED2D2F88070BB42D9
:100B600048D2926F934243D2376F2A4ABB423DD25A
:100B7000976EBB4238D2176EBB4233D2976DBB42E1
:100B80002ED2176DBB4229D2976CBB4224D2126C75
:100B900093420CD2F2687369521B2B44F26073616A
:100BA00010B944F8045C56E707F012FCF9E700229C
:100BB0003768D1F808E0FB1A3360CB68BEF1000F4C
:100BC00001D0CEF8043013B1C3F800E0E2E706EB41
:100BD000C202C2F844E0DDE70122E9E70222E7E7CA
:100BE0000322E5E70422E3E70522E1E70622DFE747
:100BF0000722DDE70822DBE70922D9E70A22D7E747
:100C00000B22D5E70C22D3E70D22D1E70E22CFE746
:100C10000F22CDE7E0B8012024B60120F8B54A4CF8
:100C200094F82830002B3DD0D4F8BC30464A3BBB6A
:100C3000D2F8B43023BBD2F8AC300BBBD2F8A4301E
:100C4000F3B9D2F89C30DBB9D2F89430C3B9D2F8FA
:100C50008C30ABB9D2F8843093B9D36F83B9536F6A
:100C600073B9E36E63B9536E53B9D36D43B9536D22
:100C700033B9D36C23B9536C13B96FF00B00F8BDC3
:100C80009B68002BF9D0002201E09B6843B15968B2
:100C90009B689142104684BF0A461046002BF4D14F
:100CA0000C38F8BD294B9A685868012184F828103F
:100CB0000AB982089A601968A1635A261022202571
:100CC00026622264A564402780264FF480724FF488
:100CD0000075A1F114032765A6652266A5664FF489
:100CE00080674FF400664FF480524FF40055034480
:100CF0002767A667C4F88020C4F888504FF480475F
:100D00004FF400464FF480324FF40035C4F8907031
:100D1000C4F89860C4F8A020C4F8A85002220125A5
:100D20004FF480274FF4002663632261E060C4F82B
:100D3000B070C4F8B8605D606562656007F048FB3C
:100D400009F024FC25636FE7E0B8012024B60120F8
:100D5000024A936901339361704700BFE0B80120F4
:100D6000074AD169536B0131D16113F83020013248
:100D700003F8302003EBC00358680830704700BF09
:100D8000E0B80120F8B5584C00F0ECFD94F828309C
:100D9000002B57D0D4F8BC30534A9BBBD2F8B430A8
:100DA00083BBD2F8AC306BBBD2F8A43053BBD2F8C3
:100DB0009C303BBBD2F8943023BBD2F88C300BBBB9
:100DC000D2F88430F3B9D36FE3B9536FD3B9E36E7C
:100DD000C3B9536EB3B9D36DA3B9536D93B9D36C83
:100DE00083B9536C73B96FF00B034049DA1781FB79
:100DF0000313C2EB6313246A04FB03F402F068FFDD
:100E00002046F8BD9B68002BF5D0002201E09B68CE
:100E100043B159689B689142104684BF0A46104608
:100E2000002BF4D10C38B0F5800F0346DDD8226AD0
:100E30002E4B02FB00F0A3FB00235C0902F048FFED
:100E40002046F8BD2A4B9A685868012184F828107A
:100E50000AB982089A601968A1635A2610222025CF
:100E600026622264A564402780264FF480724FF4E6
:100E70000075A1F114032765A6652266A5664FF4E7
:100E800080674FF400664FF480524FF400550344DE
:100E90002767A667C4F88020C4F888504FF48047BD
:100EA0004FF400464FF480324FF40035C4F8907090
:100EB000C4F89860C4F8A020C4F8A8500222012504
:100EC0004FF480274FF4002663632261E060C4F88A
:100ED000B070C4F8B8605D606562656007F078FA6C
:100EE00009F054FB256355E7E0B801201F85EB515D
:100EF00024B60120024A9369013B9361704700BF09
:100F0000E0B8012030B403680A4A53F8085C04468C
:100F1000506B10F83530012B03D9D16909B1013973
:100F2000D161013B00F8353000221046226030BC10
:100F3000704700BFE0B80120034B5B6B03EBC000C0
:100F400040680830704700BFE0B801202DE9F0414B
:100F500014460646884600F005FD204600F0F2FBE8
:100F6000E8B9A7001B4D3B1905EB8303DA68B242D1
:100F700006D11B69434503D1BDE8F04102F0A8BE8C
:100F80003B1905EB83035869D0B93C4405EB840455
:100F9000E660C4F81080BDE8F04102F099BE0D4B48
:100FA00004EB840403EB840463689A685968C2EB19
:100FB0000802711A02F04AFCBDE8F04102F088BE56
:100FC0005B689A685968C2EB0802711A02F07CF8F3
:100FD000DBE700BF18B80120C3B2CAB29A1A92B2B6
:100FE00030B415B2002DBCBF524215B2C0F3072376
:100FF000C1F307229B1A9BB2090C1AB2C1EB104134
:10100000002A89B20CB2BCBF5B421AB2002CBCBF32
:1010100049420CB202FB02F205FB0520A1B201FB22
:10102000010030BC704700BF2DE9F041002182B0C3
:10103000084600F009FC00F095FC042004F0ECFBED
:10104000174B1B69DD6C1C6DA5F57F57A4F57F560A
:1010500005F57F5504F57F5480463F3F3F353F3EC1
:101060003F346846ADF80070ADF80450ADF802604A
:10107000ADF8064006F0BAFB48B123462A46314691
:10108000384604F01DF806F06FFA0028F5D1404606
:1010900004F0C2FB02F01CFE02B0BDE8F08100BF0C
:1010A000FC000020012B12DCF8B506461C20174678
:1010B0000C461D46FFF79AFCB8B154B104610023F9
:1010C000836085618782C66003604360F8BD00204D
:1010D0007047074B53F825200AB9F0E71A46136802
:1010E000002BFBD113690361E9E70020F8BD00BFC5
:1010F000B8B90120012B3BDC2DE9F84381461C20C7
:1011000090460F461E46FFF771FC054600287FD02B
:10111000414A002F31D00023DFF804E152F8264085
:1011200003609EF8001007618E428661A0F814806B
:10113000C0F80C904360836002DB731C8EF80030B3
:10114000002C5DD021464C68002CFBD1D9F8000062
:10115000CB681B6883422CDD09680029F8D148B9A7
:101160002E4B16361A68284642F82650BDE8F883FA
:10117000002070472846BDE8F88352F82610002961
:1011800030D0084600E018460368002BFBD1DFF89A
:1011900090E000692B6028619EF80000AE618642F5
:1011A000A5F81480C5F80C906B60AB60CBDB0C46E7
:1011B000C3E70AD04B6843B31D606B608D4214BF18
:1011C0000B4600234D602B60C9E7B8F1010FF1D148
:1011D00004E0D9680C6884421946EBDB0B68002BED
:1011E000F7D1E7E7DFF838E001609EF8003086616C
:1011F0009E42A0F81480C0F80C9041608160D6DA5D
:1012000042F82650D9F80000A9E742F82650D5E761
:101210000020BDE8F88300BFB8B901200C01002010
:10122000B2B90120FFF7D8BB00283CD070B4846964
:10123000012C03DD0123184670BC70471E4B1F4D67
:101240001A789442A4BF621C1A7055F824300BB966
:101250002FE013465A68002AFBD1C268116802E0E9
:101260001B68002BE6D0DA6812689142F8DB0DD0DB
:101270005A68DAB110604260984214BF1A460022E0
:1012800058600023026070BC18467047828A012AA9
:10129000EED104E0D3681E68B1421346E8DC1A6858
:1012A000002AF7D1E4E701231846704745F82400E7
:1012B000E2E745F82400BEE7B2B90120B8B9012041
:1012C00000284DD02DE9F041DFF89CE0254F9EF835
:1012D0000060BC4602E02846002D27D084690568DE
:1012E000012CF8DCB44257F82430A4BF661CF6B2D7
:1012F0000BB932E013465A68002AFBD1C268116864
:1013000002E01B68002BE6D0DA6812688A42F8DC3B
:1013100010D05A68A2B110604260984214BF1A46B9
:101320000022586002602846002DD7D18EF8006058
:10133000BDE8F081828A012A0BD05A68002AEAD1DE
:1013400047F82400E9E7D368D3F8008088451346BE
:10135000DFDB1A68002AF6D1DBE74CF82400BAE795
:10136000704700BFB8B90120B2B901200F4A8169A6
:1013700052F8213098420AD042680AB103681360DB
:10138000036803B15A600023036043607047036839
:1013900042F821302BB100225A604268002AEED177
:1013A000F0E74268002AEAD1EDE700BFB8B90120B2
:1013B0000020704701280EDC084B53F8200058B17C
:1013C000C3681B681BB908E0C3681B6823B10068C9
:1013D0000028F9D17047002070477047B8B9012044
:1013E0002DE9F84307460BF015FB07440BF012FB01
:1013F0003E1A002EDFF86090DFF8608022DD00F0FA
:10140000D7F8D9F800309E42A8BF1E4600F0AAFACD
:10141000D8F80040FFF79CFCB4B1254602F058FC18
:10142000013DFBD130460BF0F1FA00F09BFA013C94
:10143000FBD1FFF75FFD02F04BFC0BF0EBFA3E1A1D
:10144000002EDCDCBDE8F88330460BF0DFFAFFF756
:1014500051FD02F03DFCF0E7180100209CB701208F
:101460002DE9F04F474E83B0044600F07BFA00F0C0
:1014700073F933680746B3F9229000F0B1F9326886
:10148000938C1FFA80FACAEB03031BB29384217872
:1014900000294DD0BFB2B04647F6FF71204603F099
:1014A00027FA01468346204603F0E0F931688B8D28
:1014B00003F00303012B5AD0022B5CD085B24FF00E
:1014C000000E4A8CB1F92430ADF80230CEEB0202A6
:1014D00092B210B2013B05F1FF3E964448843B4472
:1014E0006A465946ADF800002046ADF80630ADF822
:1014F00004E002F055FF3368BDF802209A84594693
:10150000204602F0B5FA225C0A2A04EB00031BD045
:101510000D2A19D0BDF80000D8F8002005445584E4
:10152000197819B159785C1C0029B5D1B2F9243069
:10153000918D9A4421F00303A2F824A0938502F030
:10154000C7FB03B0BDE8F08F3268918D01F0030155
:10155000013901298ABF118CA2F82290518419788F
:101560000A29DED1918C394491841978D9E71FFA80
:1015700080FE7546A5E700EBD072C2F34F0E85B230
:101580009FE700BF0C01002070B50E4615460446CB
:1015900000F0E8F9054B1B685E849D8414B1204679
:1015A000FFF75EFFBDE8704002F092BB0C01002027
:1015B0002DE9F041124F134EDFF84C8000253C68B6
:1015C0001CB1A047041C18BF012404F0CBFD3368F4
:1015D000002818BF01244BB1984738B1D8F8003023
:1015E00013B1012498473CB10125E8E7D8F8003051
:1015F000002BF7D1002CF7D12846BDE8F08100BFC1
:10160000DCB90120E0B90120D8B90120002850D070
:10161000C388013B10B5848880681F2B47D8DFE85A
:1016200003F0162346314646463C46464646464665
:101630004640464646464646464646464646464650
:101640004610A31002FB031150F8210010BD02FB4D
:1016500004F200EBD104C843A35C00F0070023FAB6
:1016600000F000F0010010BD02FB04F200EB910459
:101670006FEA4100A35C00F0060023FA00F000F0DE
:10168000030010BD02FB04F200EB5104CB07A05C89
:101690004CBF00F00F00000910BD02FB0404605CA9
:1016A00010BD631002FB031130F8110010BD0020C3
:1016B00010BD7047034B53F82000C36808219B6A94
:1016C000184700BFB8B9012010B500F04BF903F07E
:1016D00037FD03F0A5FE044602F0FAFA204610BDDD
:1016E00010B5044600F03EF9054B1B68DB6900218C
:1016F0005B6820469847044602F0EAFA204610BD8F
:101700000C01002038B504460D4600F02BF9064BBD
:101710001B68DB6929465B6820469847044602F04F
:10172000D7FA204638BD00BF0C01002010B500F0EC
:1017300019F903F00DFD03F073FE044602F0C8FA38
:10174000204610BD01289ABF024B53F8200000200C
:10175000704700BF64B8012010B500F003F9044BD6
:101760001B68DB695C7E02F0B3FA204610BD00BF47
:101770000C01002070B504460E46154600F0F2F844
:1017800020462A46314603F031FD044610B10023BD
:1017900033602B6002F09CFA204670BD38B50546D8
:1017A0000C4600F0DFF8064A064BB2F90020B3F908
:1017B00000302A602360BDE8384002F089BA00BFDB
:1017C000A6B90120A8B9012004483423352161229B
:1017D000017002718370C370704700BFF400002075
:1017E00010B500F0BFF80F4B1A68938D03F00C038F
:1017F000082B08D00C2B06D0042B0BD0002402F0B1
:1018000067FA204610BDD3691C7E640802F060FAB6
:10181000204610BDD3691C7E013C02F059FA2046D7
:1018200010BD00BF0C010020024B53F820301B6993
:1018300018687047B8B90120024B53F820301B6973
:1018400058687047B8B9012038B505460C4600F015
:1018500089F8044B1B685D849C8402F039FA0020EF
:1018600038BD00BF0C01002090B583B000AF344AF2
:10187000334B1B6823F001031360324B01221A60C3
:1018800000BF304B1B68002BFBD12F4B2F4A1A6037
:101890002D4B1B682E4A934200D0FEE702F040FD1C
:1018A0002C4B2E221A700BF0B7F82B4809F022FBB4
:1018B0000AF0DAFC786003F003FD0346002B0CBF4E
:1018C00001230023DCB203F041FD0346002B0CBFD3
:1018D00001230023DBB22343DBB2002B09D003F04A
:1018E00005FD044603F048FD03461946204603F073
:1018F0008DFF0021002001F0B9FF05F05BF8FEF735
:1019000067FF164B1B68002B12D00DE0134B1B68B2
:101910001B68002B03D0114B1B681B6898470F4BAB
:101920001B685B680D4A13600C4B1B68002BEDD1E4
:101930000B4B01221A707B6818460C37BD4690BDD0
:10194000002000E00830024000300240C2A507F449
:10195000CDB5E8B5A4B9012038B60120B0B6012054
:10196000B1B901202DE9F041234D6B6823B10BF093
:101970004FF8AB68984204D00BF090F80BF048F8A1
:10198000A8606B680133012B6B6001D0BDE8F0816A
:101990001A4F3B68002B29DD0024264606E042B39F
:1019A0003B6801369E4204F17C041FDA0BF030F8EC
:1019B0002B681A5990422344F1D17B68B342E5D099
:1019C000002B10DB2A68C3EB431302EB8308FFF7FD
:1019D000EFFC2B68C8F878001C44094BA06F043456
:1019E0001C60FFF76DFC7E60BDE8F0810024264698
:1019F000E3E71860E1E700BF98B701202C01002061
:101A00000C01002010B582B028B9134B1B681C6E66
:101A100014B902B010BD0446FFF7A4FF2046FFF73B
:101A20009FF902AB446943F8080D1846FFF76AFABC
:101A30001CB902F04DF902B010BD2046FFF790F935
:101A400002AC826844F8040D936898472046FFF77B
:101A500059FA02F03DF9EEE70C01002000B9704799
:101A6000014A114600F002B801F0FFFF2DE9F047EE
:101A700084B00C4615460646FFF774FF002001F0BF
:101A8000C9FEDFF8E480D8F80030814630461F6E8A
:101A9000FFF766F903680090986901F083FE314B07
:101AA0009C42009B04BFB3F90440B3F906501A8965
:101AB0005B89ADF80840013A013B22442B44824641
:101AC000ADF80C20ADF80E30ADF80A5004F0A4F8D3
:101AD0006846FFF717FA02A805F088FE48BB504693
:101AE00001F060FEFFF73EFF002F38D0D8F800303D
:101AF0001B6E8BBB04F0DAF93846FFF731F904AC02
:101B0000D8F8003044F80C0D1F660068FFF78CFB16
:101B10002046FFF7F7F903F0EDFE03F057FE02F061
:101B2000D7F8484601F076FE02F0D2F804B0BDE8DE
:101B3000F0872A462146304600F0A0FC05F014FD4F
:101B40000028CCD02A462146304600F097FC05F00C
:101B50000BFD0028EDD1C2E701F016FECAE701F047
:101B600013FEDCE701F0FFFF0C0100202DE9F0433C
:101B700085B00646904699460F46FFF7F3FE1C4A8D
:101B80001C4B1268507C53F8204001E02468FCB1E3
:101B9000E3681A68042AF9D1DB6A012120469847D4
:101BA0000546D8B12469A3689847013018D00C9B2A
:101BB0000294009301954B4642463946304600F068
:101BC000E3FA044602F084F8204605B0BDE8F0834D
:101BD000FFF7F0FB044648B1C368DDE70446F1E7D0
:101BE0000C9B054C43F001030C93E0E72046ECE727
:101BF0000C010020B8B9012094DA030800B970473D
:101C000010B582B00446FFF7ADFE104B1B681B6E8B
:101C10009C4217D02046FFF7A3F84369019063B9AF
:101C20000068FFF7FFFA01A8FFF76CF92046FEF7FE
:101C3000B3FE02F04DF802B010BD184602F02EF8C7
:101C40000198EDE701F0A0FDE4E700BF0C010020E2
:101C50002DE9F04F87B0064692461C468946FFF7AD
:101C600081FE564B1A68564B577CDB57012B384682
:101C700040F3978003F02AFB0546384603F06CFBDF
:101C80000746002E00F08A8005A904A8FFF786FD0C
:101C9000049A059BB6F900C0B6F90200B6F904E053
:101CA000B6F9061015441F44013D2CEAEC73013FC0
:101CB00020EAE072029303927545D4BFC3EB05039B
:101CC000C3EB0E038F42D4BFC2EB0702C2EB01028B
:101CD0001D4617460135013704B97C42002D4FDD02
:101CE000002F4DDD109B00932A462346039902984E
:101CF000FFF73CFF8046002848D000F099F8874263
:101D0000064604D02D4B1B68986C002851D14046E4
:101D100000F09CF9DFF8ACB03D4600240EE0AD1BAE
:101D2000ACB95046C847DBF800303444FF2003B15B
:101D300098474046FFF792FEA74212DDAE42EEDD25
:101D40002946404600F062F9AD1B002CE9D0039B08
:101D5000029940461A1900F0A9F94046FFF752FED1
:101D6000DFE74046FFF74AFF002000F06FF9B74277
:101D700006D0124B1B68986C10B1332106F04AFA5A
:101D800001F0A6FF002007B0BDE8F08F5046C8471D
:101D900001F09EFF012007B0BDE8F08F0396029688
:101DA0009AE703F03DFA0546384603F063FA074622
:101DB00067E7322106F02EFAA9E700BF0C010020E8
:101DC000B4B90120B8B8012030B5044683B098B149
:101DD000FFF7C8FD2046FEF7C3FF036802AD1B698D
:101DE00045F8040D9B68984703F0E4FE0446284636
:101DF000FFF788F801F06CFF204603B030BD00BF4C
:101E0000A0B110B5044682B0FFF7ACFD2046FEF746
:101E1000A7FF02AB00F1180443F8040D1846FFF7C2
:101E200071F801F055FF204602B010BD704700BFA9
:101E300010B5044682B0FFF795FD7CB12046FEF751
:101E40008FFF02ABB0F90A4043F8040D1846FFF7C4
:101E500059F801F03DFF204602B010BD044B1B684D
:101E60001C6E002CEAD101F033FF204602B010BDF9
:101E70000C0100202DE9F04FDFF888B189B006464B
:101E800005273046FEF76CFF034607A8B3F900802C
:101E9000B3F90440B3F90290B3F906500793C8EBC5
:101EA00004040134D3F824A0C9EB0505FFF72AF890
:101EB000002C05F1010555DD002D53DDBAF1000FB1
:101EC00055D104F09DFA86427FD04A4B01934FF0E2
:101ED000010A494640462B462246CDF808B0CDF8C7
:101EE00000A000F051F980463046FEF739FF079018
:101EF000C0F82480B8F1000F60D0836ADFF8089141
:101F000043F48033836207A8FEF7FCFF404600F0ED
:101F10009DF80590504602F05FF84046FFF770FFCD
:101F2000354A364B1978136805FB04F29200344C9D
:101F3000984730462568C9F8006004F093FA20609D
:101F4000304606F059F8002210462560C9F80020F6
:101F500002F042F8059800F079F83046FEF7ECFF01
:101F6000406AF0B9013F8CD109B0BDE8F08F50460E
:101F7000FEF7F6FE034608A8B3F9045040F8083D02
:101F8000B3F90640FEF7BEFFA8450FD04A464146CA
:101F9000504600F08BF83046FEF7CEFF406A00282E
:101FA000E0D000F0BFF809B0BDE8F08FA145D4D073
:101FB0004A464146504600F079F8ECE707A8FEF79C
:101FC000A1FF304606F018F8CCE703F063F982462B
:101FD00003F0A6F9544503DC85427FF776AFA246AD
:101FE0008542A8BF05462A465146304605F08EF97F
:101FF00054466AE7ACDA030838010020BCB8012077
:10200000DCB8012094DA030860DA012030B50D460F
:1020100083B028B90C4B1B681C6E14B903B030BDDB
:102020000446FFF79FFC2046FEF79AFEB0F90A30FF
:102030000190AB42C8BF458101A8FEF763FF01F0E4
:1020400047FE03B030BD00BF0C010020F0B5164FB5
:1020500083B00446FFF786FC3B681E6EE4B1C6B948
:1020600003F024FF2046FEF77BFE02AD3B6845F8F7
:10207000040D1C660068FFF7D7F82846FEF742FFFC
:1020800003F038FC03F0A2FB01F022FE304603B05F
:10209000F0BD01F079FBE3E701F076FB01F018FEFB
:1020A000304603B0F0BD00BF0C01002070B50D46F6
:1020B00082B0164628B91A4B1B681C6E14B902B0C0
:1020C00070BD0446FFF74EFC2046FEF749FE36B2CF
:1020D0002DB2C6808580009003F078FB009B586984
:1020E00030B96846FEF70EFF01F0F2FD02B070BD98
:1020F000FEF736FE009A0190B2F90830B2F90A20D4
:10210000C280838013B10AB10580468001A8FEF722
:10211000F9FE6846FEF7F6FE01F0DAFDE6E700BFDD
:102120000C01002000B9704770B5044684B0FFF779
:1021300019FC2046FEF714FE014601A8B1F904601F
:10214000B1F906500A894B89019132442B44013A76
:10215000013BADF80860ADF80C20ADF80E30ADF8DD
:102160000A50FEF7CFFE02A805F040FB40B12A4618
:102170003146204600F064F905F0F6F90028F6D162
:1021800001F0A6FD04B070BD2DE9F04FDFF82C8101
:1021900087B0D8F8004081468A4617461E461299F5
:1021A000637C11980022FEF77DFF00284DD0036963
:1021B0009B680546984703F0FDFC00FB07F4834647
:1021C000FEF7E0FD109B073413F001034FEAD4043F
:1021D0003FD0002E2CDD002B42D004FB06F018303F
:1021E000FEF782FB034668B300220292184603936F
:1021F000FEF7B6FD024606A8029BA2F8049040F83E
:10220000042DA2F806A017815681D460C2F810B040
:1022100053611560FEF776FE129B2B61D8F8002003
:10222000039BAB60527CAA61184607B0BDE8F08FF3
:10223000002C34D1204676428642A8BF064693B38E
:10224000002ECADC2846FEF7EDFF002007B0BDE8EF
:10225000F08F0028B8BF0330801000EB4000B8E7D3
:1022600000933A4633465146484601F083FC0290BB
:1022700004FB06F01830FEF745FB03460028B5D1F5
:1022800028460393FEF7CEFF029B002BDDD01846B5
:10229000FEF782FB039B184607B0BDE8F08F1838A5
:1022A000B0FBF4F0C7E700933A4633465146484640
:1022B00001F060FC002E0290DADCC3E70C01002084
:1022C0002DE9F04F594C5A4BD4F800C0DFF8689113
:1022D0009CF81150D9F8006053F825408BB0236961
:1022E000002E00F088801746DCF8602080460D46FE
:1022F000002A00F08580E2681268072A78D04D4AEB
:102300009A1AB2FA82F25209002A71D04046FEF7B8
:1023100027FD03460AA8B3F908B040F8083DB3F911
:102320000AA0DB680593FEF7EDFD404B18680BEB48
:102330000504B0F90C30013CE41AB0F90830002C67
:10234000CCBFC4EB0B045C469D42BDBF591B641A55
:102350001D460021002C50DD0AEB0703B0F90EE00A
:10236000B0F90A000791013BCEEB0303002BC8BF75
:10237000C3EB0A0AB842C5BFC31BC3EB0A0A00235A
:102380000746BAF1000F069337DD4046FFF738FDE8
:10239000264B07991A68069BD2F860C003FB0B1105
:1023A00000EB8106BCF1000F30D06046FEF7D8FC90
:1023B000B0F90430D0F80C800AAAED1AB0F9063052
:1023C00042F8040DAD001835FF1A08FB0757074403
:1023D0001046FEF797FD87B1059B0193CDF800806D
:1023E000D9F800505346224631463846A84704E003
:1023F0003A462946404609F05FFD0BB0BDE8F08F34
:10240000E2681268B2FA82F252097DE7507CDFF886
:102410002CE0CDF804A04FEA8B02029200943346E0
:102420003A462946DEF80040A047E6E70C010020C6
:10243000B8B9012094DA0308C4B90120C0B9012059
:102440002DE9F04182B00F4690460646FEF788FC23
:10245000036802ACDB6844F8040D16215B6A0020B7
:10246000984705462046FEF74DFD1DB142463946C8
:102470003046A84702B0BDE8F08100BF2DE9F04F1B
:10248000A1B00D9110B921B0BDE8F08F924607467A
:10249000FEF766FC20AB446943F81C0D1846FEF7B6
:1024A00031FD3846FFF790FC0828054602DD002C78
:1024B00000F0D98001234FF0000B38461F930A9398
:1024C000CDF878B0FEF74CFC0168DFF86884096944
:1024D0000446D8F80000E3684D68B4F908100F937B
:1024E00020AE23691491407CB4F90A10099346F890
:1024F000144DD4F814901691FFF7DCF8D8F80010BA
:102500000890487CFFF798F904463046FEF7FAFC3D
:10251000099A0A9B082A40F2A080102A13468CBF11
:1025200004230223CDF828B00E93A54200F0AC811D
:10253000D8F80030587CFFF777F9149B06469800CE
:10254000FEF7D2F9129000289DD03846FFF758FCCC
:102550000746B9F1000F00F0F5804846FEF700FC91
:10256000169B1C90002B40F38B8100230C930F9B38
:10257000CDF840A0FB1815931DAB11934FF0010847
:102580001946836800221D925B690C9A9847159B37
:102590000F9A9B1A0B93149B8342044600F03181DF
:1025A000099B012B00F0F280002845D01AAB139351
:1025B0001298FEF7D5FB099B1A90082B07461D9A27
:1025C00040F2D4800E9B0B99A34602FB031A81466E
:1025D0003AF8020BA847B047BBF1010B49F8040BCE
:1025E000F6D1089B1F2B04D838461A46214601F025
:1025F00009FD0A9A059200220392089A1D980292F8
:102600000D9A1A9B10990493104401232246CDF889
:102610000480CDF8008002F06DFB1398FEF772FC89
:102620001C981D9B8268119957690C9A1C441D9433
:10263000B84704460028BBD1159A0F990C9B0A4451
:102640001592109A01321092169A01339A420C9305
:1026500000F016811C98119993E7012A6ED11EABE8
:102660000E920A9361E73846FEF77AFB20ABB0F989
:10267000088043F8100D02460168B0F90A0008907E
:1026800018460E69D2F80CB009920E93FEF73AFC88
:10269000A848A94900687368407C0C9351F8201041
:1026A0000C6923680A93FFF705F80828099A40D9AE
:1026B00010288CBF2023102309938CBF4FF00409EE
:1026C0004FF00209A64200F02D82202D00F09E81DD
:1026D000102D7FF4D8AE08FB09F0FEF705F9109035
:1026E00000283FF4D0AEFEF73BFB1E903846FEF7C5
:1026F00037FB1C90236900F118020B92002B00F0AD
:1027000022827369002B00F01E82B0F9080080005D
:10271000FEF7EAF80F90002840F069821D900E98AD
:10272000FEF7F0FB1EA8FEF7EDFB1098FEF734F95C
:10273000A9E6082309934FF00109C3E70E93CDF8EA
:1027400028B0F2E60A9B05930F9B03930124099B93
:1027500004900293149A169B0D980194514600948C
:1027600002F0C8FA1298FEF717F98CE60E9B0B9947
:10277000A14602FB031B82461BF8010BA847B0478A
:10278000B9F101094AF8040BF6D12AE700283FF411
:1027900053AF17960C9F0A9EDDF84090DDF834A0E9
:1027A000DDF844B01395DDF874E00B9D05960EF04E
:1027B000070006900AEB0E00BEF1000FB8BF0EF145
:1027C000070E05EBEE0E0F9DCDF810E0224601231B
:1027D00049460395CDF80880CDF80480CDF80080F7
:1027E00003F09AF81C981D9B82681C445946536953
:1027F0001D943A46984704460028D4D1139D179E4D
:102800001AE71298FEF7ACFA099B1A90082B81463A
:10281000149FDDF82CA0044629D93AF8020BA847EA
:10282000B047013F44F8040BF7D1089B1F2B04D895
:1028300048461A46149901F0E5FB0A9A059220AB26
:102840001A460D9852F8183D04931446002203923C
:10285000089A0292CDF80480CDF800800123149AE2
:10286000109902F047FA2046FEF74CFBE4E61AF80E
:10287000010BA847B047013F44F8040BF7D1D4E758
:102880001CA8FEF73FFB6DE73846FFF7B9FA07468D
:10289000B9F1000F00F0A9804846FEF761FA169BD7
:1028A0001C90002B40F39D8000261DABCDF82CA082
:1028B000DDF834A0B146012598468368CDF87490C0
:1028C0005B69324641469847149B834204462DD0AB
:1028D000099B012B55D008B30B9B03EB060B0A9BFE
:1028E0001D9805930E9B0F9A039203FB0073099AA0
:1028F00002920493224650440123594601950095C3
:1029000002F0F8F91C981D9B82681C4441465369EB
:102910001D943246984704460028E0D10F9B0136AB
:102920001F44169BB3425CDD1C98C6E70897B3466C
:102930001F4604E00C010020B8B90120A3461C98F2
:1029400083680BF101045B69224641469847874240
:10295000F4D0099902910B990A9A089F0592C6EB47
:102960000B030F9A049731440F9E03920133019594
:102970000095149A504606FB0377264602F0BAF9F2
:10298000CFE70028CAD00B9B089603EB060BDDF8B7
:1029900074E00A9805900EF0070006900AEB0E000E
:1029A000BEF1000FB8BF0EF1070E07EBEE0E0F9E43
:1029B000CDF810E022460123594603960295019571
:1029C000009502F0A9FF1C981D9B82681C4441469B
:1029D00053691D94089A984704460028D7D1089E49
:1029E0009CE71CA8FEF78EFA4DE50A9B05930F9B0A
:1029F00003930124099B04900293149A169B0D984B
:102A000001945146009402F075F93CE509FB08F089
:102A1000FDF76AFF0B9000283FF435ADFEF7A0F9F3
:102A20001E903846FEF79CF91C90256900F11807A6
:102A300045B34FEA880B012619E0B9F1040F19D00C
:102A4000B9F1010F16D000221E99099802900123B6
:102A500005920392049101965146009642460D98C4
:102A60009A4402F047F9089B013B089350D0B9F112
:102A7000020FE2D138461E9925694B464246A847C7
:102A80005F44E0E70C950126089C14E0B9F1040FBF
:102A900000F08D81994500F035810C9D05950395D9
:102AA000099D02951E9D01960096049502F022F95B
:102AB000013C2DD0DA460123B9F1020F51464246BE
:102AC0000D980AEB030BE1D108944FEA8805012425
:102AD000DDF87890BB4646465BF8040B0A9B9847A6
:102AE000013E29F8020BF7D11E9B099A029204932A
:102AF00051460123059603960194009442460D9891
:102B00009A4402F0F7F8089B013B2F440893DFD169
:102B10000E98FEF7F7F91EA8FEF7F4F90B98FDF7EB
:102B20003BFFB0E40124183200260492CDF80CB02B
:102B30000295089B0D9805964246514601940094D3
:102B400002F0D8F89FE400250126089C16E0B9F1B0
:102B5000040F00F0FC80994500F0A4801E9F0897A8
:102B6000099F0297089F0595039501960096049783
:102B700002F0C0F8013C3FF4D2ADDA460123B9F1CE
:102B8000020F514642460D980AEB030BDFD14FEA84
:102B900048060C9D08940A9F0A9601241E9EDDF8A3
:102BA0002CB0C1463BF8020BA847B847B9F1010960
:102BB00026F8020BF6D10B9E1E9A099B0293B6468D
:102BC0000A9E049201235146B644CDF81490CDF8E4
:102BD0000C900194009442460D98CDF82CE09A4454
:102BE00002F088F8089B013B0893D7D197E5FEF7E0
:102BF000B7F81D9000283FF492AD4FEA48033746DE
:102C00000A9301250C940B9E19E0B9F1040F30D002
:102C1000B9F1010F28D000221E99099802900123D2
:102C200005920392049101955146009542460D98F4
:102C30009A4402F05FF8089B013B08932BD0B9F14E
:102C4000020FE2D1DDF878B01D994B46424630467E
:102C50007C69A0470A9C1D9826440C9C59464B460B
:102C600042462469A047D6E7DDF878B01D990223D3
:102C7000ECE730461D997C69DDF878B002234246C6
:102C8000A0470C9C1D9824694B4659464246A047D4
:102C90000A9B1E44BFE71DA8FEF734F90F98FDF705
:102CA0007BFE3CE508FA03F60C9D08940A9F0A9601
:102CB0004C461E9EDDF82CB0C1463BF8020BA847DF
:102CC000B847B9F1010906F8010BF6D10B9E1E9A1F
:102CD000099B0293B6460A9E049201235146B644CC
:102CE000CDF81490CDF80C900194009442460D98C4
:102CF000CDF82CE09A4401F0FDFF089B013B0893BE
:102D0000D7D10CE508944FEA88054C46DDF8789059
:102D1000BB4646465BF8040B0A9B9847013E09F800
:102D2000010BF7D11E9B099A02920493514601238D
:102D3000059603960194009442460D989A4401F03A
:102D4000D9FF089B013B2F440893DFD1E0E64FEA0F
:102D500048060C9D08940A9F0A9601241E9EDDF8E1
:102D60002CB0C1463BF8020BA847B847B9F101099E
:102D700046F8040BF6D10B9E1E9A099B0293B646A9
:102D80000A9E049201235146B644CDF81490CDF822
:102D90000C900194009442460D98CDF82CE09A4492
:102DA00001F0A8FF089B013B0893D7D1B7E4089432
:102DB0004FEA88050124DDF87890BB4646465BF86B
:102DC000040B0A9B9847013E49F8040BF7D11E9B60
:102DD000099A0292049351460123059603960194A1
:102DE000009442460D989A4401F084FF089B013BF1
:102DF0002F440893DFD18BE620B321B322B3B2F97D
:102E000000C0B1F90630F0B5B1F90050B2F902E0F6
:102E1000B1F90240B2F90470B2F90660B1F90420C8
:102E20006545A8BF6546A6457146A8BF2146BA427A
:102E3000B8BF3A46B342B8BF33460580418082806E
:102E4000C380F0BD704711460B684A68426003605A
:102E5000704700BF78B170B4068844888588C388FD
:102E600089B292B20E44144429440680448070BC56
:102E70001A448180C280704770B4104D2B686A6814
:102E8000934204460FD093E807000D4E84E80700F4
:102E9000B34214BF0C333C3B2B60207A003018BF88
:102EA000012070BC7047074A934206BF3C3393E849
:102EB000070013E9070084E80700EEE7100100208F
:102EC00010B70120D4B60120034B09CBC01AB0FAC9
:102ED00080F04009704700BF10010020F0B5374E68
:102EE000336D85B00446002B55D094E80700344C70
:102EF000344DF36C256001AD85E807000BB1284621
:102F00009847314FD7F800E07B689E4538D0B342F0
:102F10002A4C9DF80C2035D013F8041C914212D095
:102F20003C3495E80700A34283E807001BD00C332C
:102F30009E457B601BD0B36C0BB12846984700F0D0
:102F4000B5FC05B0F0BDA3F10C018E45E8D0A1425F
:102F50002ED03C340C39097A9142E2D1B34214BFED
:102F60000C3B2346DDE7154B7B609E45E3D1174BB9
:102F70009E4514BF0EF10C03AEF13C033B60DAE753
:102F8000124CCEE796F8441091420BD095E807001A
:102F900086E80700CBE730460D4B40F8503F01F084
:102FA00027FEA2E706F13C04A645EFD02146D1E773
:102FB00001F13C0403F13001CDE700BFD4B601209C
:102FC0006CDA0120816400081001002010B7012094
:102FD000F5B2000810B5FEF7C5FC0D4A136851683C
:102FE0008B420FD00B4CA34293E803004FF0010437
:102FF00014BF0833503B136004F030F800F068FE53
:10300000204610BD002400F063FE204610BD00BF26
:10301000240100208CB70120F0B5164C059E2568D0
:10302000069CB5F908E0B5F90C707045B8BF70465C
:10303000BA42A8BF3A4690421ADCB5F90A70B5F90F
:103040000E50B942B8BF3946AB42A8BF2B468B429F
:1030500003DAF0BD25682DB12C46E5682D6835F002
:103060000405F7D106940596BDE8F04002F066BA73
:10307000F0BD00BF0C010020B0F90220B1F906300C
:103080009A4214DCB1F90220B0F906309A420EDC03
:10309000B0F90020B1F904309A4208DCB0F904001C
:1030A000B1F900308342CCBF0020012070470020DE
:1030B000704700BF08B5034B014674221868FDF73E
:1030C0000EF908BD0C01002000B970472DE9F04F42
:1030D000ABB004460D4616461D921C91FEF742FC0D
:1030E0002046FDF73DFEB0F90430046827909D426C
:1030F000129400F083810020FEF7A8FF9F4B129AE4
:103100001B689269597C20900846279D2191824234
:1031100018BF5A74B5F9043007931846B5F908106A
:10312000B5F906301992B5F90A2013931C46091A0D
:10313000121B0E460B911A9221461446324601325A
:103140002B8A1B92224601329B071E9240F1378147
:103150001C9B6A6903921B1A1D9A1493002BA2EB05
:10316000010440F3BD810993DDF86C9000234FF01A
:10317000010A1193002C40F3BE811E9B169301237C
:10318000179415934FF0000B129E7D4BB0691B56A0
:10319000012B40F39F810023ADF8A230ADF8A030A1
:1031A00002F094F8431EB069ADF8A43002F0D4F8F0
:1031B0000138ADF8A6002798524600F1140105F039
:1031C00035FD2290002800F0F9802798524600F142
:1031D000140105F02BFD2490002800F0EA80279BC5
:1031E000D868002840F09781169A5A4500F0DD8093
:1031F0001B9B119923909A000BFB031305EB830390
:103200000E93C4EB0B030C93139B15992344189353
:103210004FEA8A0301FB02F204935B461F92D346F6
:10322000C8469A46179B534500F309811A9B53459C
:10323000B4BF002301231093139B119C53440F939D
:10324000189BA0455344089300F0A0801498079B56
:103250000E9D0344C0EB04090A935FE00B9BA3425D
:103260006CDB109B002B69D0BDF9A020BA4240F363
:10327000778200230593B9F1000FC0F2CC800C9B3C
:10328000002BC0F2C8801A4649460398FEF7BEF9E3
:10329000030E40F0C080BDF9A030069A9A420FDBC1
:1032A000BDF9A2200F998A420ADCBDF9A420069933
:1032B0008A4205DBBDF9A6200F998A4280F2A480DC
:1032C0009F4223DBBDF9A230089883421EDCBDF982
:1032D000A430BB421ADBBDF9A630834216DB304670
:1032E000284B239E1B6846F07F41FF229847199A7E
:1032F000254B53F822301B691B689847229B00938B
:103300000246129B0899384608F0BCFC059B2B62CC
:103310005C44049BA0451D44D94437D05246214605
:103320000398FEF773F9030E0646F1D0079BE318E6
:1033300006930A9B1F19099BA3428FDDBDF9A0309C
:10334000BB421A466ADCBDF9A23008998B424FF0A5
:10335000000371DC0D93BDF9A430BB4204DBBDF961
:10336000A630089A93426DDA002305930D9B002B3B
:1033700081D1BDF9A02013468FE700BF0C010020CA
:10338000B4B9012048010020B8B901200E9B1F9953
:10339000159A0B440E930C9B1946169B92441144AC
:1033A00053450C917FF43EAF279B1868249908F091
:1033B000F7F8279B2299186808F0F2F8279D1C9BC4
:1033C0001B9A1D99AB801E98E9801344013B4A1E4D
:1033D00002442B81199B6A81219A1946914202D09D
:1033E000A64B1B685A742098FEF730FE27A8FDF7FD
:1033F00089FD00F06DFC2BB0BDE8F08FB0F9063010
:103400009E427FF478AEF1E7249B2A6A06980093E7
:10341000129B08F037FCBDF9A03051E7069A9342A1
:1034200007DCBDF9A2200F99914202DB0022059230
:103430003BE70023059369E7059313462DE7002337
:103440001093F9E6279BB3F90420BA422DDCB3F9B7
:103450000810B94229DBB3F906E00898864524DC58
:10346000B3F90A10814220DB58692593E8B1BB1AF1
:1034700019460593089BCEEB03031A462393FEF7E8
:10348000C5F8030E259B10D0B3F90410B3F908203A
:10349000521A239902FB011205990A4403EB820395
:1034A0001B6A059343F07F400BE0129B18680028CD
:1034B0002DD0C368089A5B6939469847059040F05B
:1034C0007F40199A6E4B53F822301B695B6898470E
:1034D00023904BE7F368304628A91B6B98476AE6B0
:1034E00000220992149A119633464FF0FF39134483
:1034F000CA460B933EE64FF0FF331A9A1693159384
:10350000002317931346234493461A933CE60590F1
:103510004FF07F40D5E7FDF723FC169B26905B45D7
:1035200000F0A6801B9B11999A000BFB031305EB7F
:1035300083030D93C4EB0B030C93139B1599234446
:1035400001FB02F218934FEA8A0310920493079A40
:10355000149B1344C8460A93D946179B4B4500F366
:10356000AF801A9B4B45B4BF002301230F93139BDD
:103570004B440E93189B4B440893119B984569D07C
:10358000149A0D9D1C46C2EB030B4A462146039834
:10359000FEF73CF80646002856D0079BE318069332
:1035A0000A9B1F19099BA3426CDC0B9BA34269DB9E
:1035B0000F9B002B66D0BDF9A030BB42D8BF0123C2
:1035C00000F3CB80BDF9A22008998A4207DCBDF93F
:1035D000A420BA4203DBBDF9A6208A427DDA00228C
:1035E000059263B1BBF1000F62DB0C9B002B5FDB2C
:1035F0001A4659460398FEF709F8002858D1BDF934
:10360000A030069A9A420EDBBDF9A2200E998A429A
:1036100009DCBDF9A42006998A4204DBBDF9A62085
:103620000E998A423DDA9F420CDBBDF9A23008991F
:103630008B4207DCBDF9A430BB4203DBBDF9A630E9
:103640008B4240DA059B2B625444049B44451D4445
:10365000D3449AD10D9B1099159A0B440D930C9B52
:103660001946169B9144114499450C917FF475AF0E
:1036700026A8FDF747FC279B97E600BF0C0100201A
:10368000B8B90120BDF9A030BB4217DD069A9342BC
:1036900011DCBDF9A2200E9991420CDB00220592AB
:1036A000B7E7249B2A6A06980093129B08F0EAFA6F
:1036B000BDF9A030B7E700230593C3E7002381E7F6
:1036C00000230F9353E7269B53F82620229B009359
:1036D0003846129B08F0D6FAB4E7279A0592B2F959
:1036E0000420BA420DDC0598B0F90810B94208DB95
:1036F000B0F906E008998E4503DCB0F90A0088426B
:103700000DDA129A106800283FF469AFC2681F935F
:1037100039465369089A98471F9B059061E725939E
:10372000BB1A1F93CEEB01021946059B23925869E1
:10373000FDF76CFF259B0028E3D00598B0F9041035
:10374000B0F90820521A239902FB01121F990A446A
:1037500000EB8202126A059243E70023059341E7DA
:10376000BDF9A230089A93423FF783AD01230D9330
:10377000F1E500BF08B5034B74221968FCF7AFFDF3
:1037800008BD00BF0C01002008B5FEF7EBF801F002
:10379000CFFF02F0AFF802F03FFABDE8084000F0BA
:1037A00097BA00BF70B50D4D2B6804465E7CFEF7DE
:1037B000D9F8012C03D900F08BFA304670BD2046B1
:1037C000FDF7F8FD0028F6D02B685C74FFF7DCFFEE
:1037D000034B1C6000F07CFA304670BD0C010020E9
:1037E00004DA012010B50446FEF7BCF8204601F0CB
:1037F000C1FFBDE8104000F06BBA00BF10B5044631
:10380000FEF7B0F8204601F0EFFFBDE8104000F0F1
:103810005FBA00BF10B50446FEF7A4F8204601F0D9
:10382000FBFF044600F054FA204610BD38B50446AC
:10383000FEF798F8044B1B68DD6904B1DC6100F009
:1038400047FA284638BD00BF0C01002070B5044679
:103850000D461646FEF786F832462946204601F008
:10386000FBFF044600F034FA204670BD38B505462B
:103870000C46FEF777F8094A094B12680949507C53
:10388000094A53F820000D80C36814802946224657
:103890001C6AA047BDE8384000F01ABA0C010020AD
:1038A000B8B90120A6B90120A8B90120024B1B68B4
:1038B00003B11847704700BFACB70120024B1A682C
:1038C00002B91860FFF7F2BF38B7012000B970479E
:1038D0002DE9F041DFF8C08082B00546FEF742F8DE
:1038E000D8F80040A54242D06E461CB917E0FDF75B
:1038F00009FBA4B12046FDF733FA84680090A54285
:103900003046F4D12846FDF72BFA009B82680190DF
:1039100001A89A60FDF7F6FA3046FDF7F3FA28465B
:10392000FDF71EFAD8F804400090A5421A4B2CD09F
:1039300001AF1CB910E0FDF7E5FA6CB12046FDF7C8
:103940000FFA44680190A54203463846F3D1009A25
:1039500052685A60FDF7D6FA3046FDF7D3FA28468A
:10396000FDF71AF800F0B4F902B0BDE8F08128467E
:10397000FDF7F6F902AF836847F8040D3846C8F83A
:1039800000306E46FDF7BEFAC9E742685A6030461D
:10399000FDF7B8FAE3E700BF6CB8012030B583B09B
:1039A00018B90124204603B030BD04460D46FDF78A
:1039B000D9FF2046FDF7D4F902AB828943F8040D04
:1039C0002A42184614BF01240024FDF79BFA00F098
:1039D0007FF9204603B030BD30B50A4B1C68002388
:1039E00083B003605CB105462046FDF7B9F902AB30
:1039F000026943F8040D2A601846FDF783FA204651
:103A000003B030BD6CB8012070B5002382B00B60EC
:103A100018B90446204602B070BD0D46FDF7A0F966
:103A20008468019001AE2CB93046FDF76BFA204650
:103A300002B070BD3046FDF765FA2046FDF790F9FB
:103A4000036901902B60EFE7F8B5084E046833680E
:103A500005461B6820469847336807465B68204642
:103A60009847204428603846F8BD00BFCCB90120F3
:103A7000F8B569B1074F05460C4600263B68284655
:103A80005B689847013C05440644F7D13046F8BDD1
:103A90000E46FBE7CCB901202DE9F843089C05460A
:103AA00089469846AB6849465F6828464346561C97
:103AB000B847013C3246F5D1BDE8F883F8B5B0F916
:103AC0000040B0F904500C1BAC422BDAB0F90210E4
:103AD00005692344013B521AE61005FB0265DF43EA
:103AE00007F00707FF21143504F0070401FA07F275
:103AF00041FA04F4D6EBE306D7B2E4B200EB0502D8
:103B0000435D10D0013E1C43002E02F101034455D9
:103B100005DD18463246FCF70CFC034633441C789E
:103B20003C431C70F8BD3C401C434455F8BD00BFED
:103B300070B4B0F902600369B0F90040921B03FB56
:103B400002F2091B143202EBE1028025835C01F0D2
:103B5000070145FA01F11943815470BC704700BF59
:103B600003460021B3F906201B69143003FB02F25F
:103B7000FCF7DFBB2DE9F04302F10F0424116400D0
:103B80001E4603FB04F383B0804603F1140017467E
:103B90008946FCF7B7FE0546B8B1FDF7E3FE2846B7
:103BA000FDF7DEF8014602A80A4A40F8041D012389
:103BB0008F80CE800C61A1F80080A1F802908A600D
:103BC0008B81FDF79FF900F083F8284603B0BDE82C
:103BD000F08300BF20DB0308B0F9063093423CDDE0
:103BE000F0B50D68B0F90470BD4234DA06694FEAE9
:103BF000E50E06FB02E6143605F00703845D04FAC1
:103C000003F3013F013613F0FF03CEEBE70230442C
:103C100008D122B310F8013B083525F00705013A19
:103C2000002BF6D01E0634D45B00DBB21C0605F177
:103C30000105F9D55F062C4605D55B00DBB25E06B3
:103C400004F10104F9D404F00703072B09D0621B27
:103C5000501C0D60F0BD0020F0BD002070471046E4
:103C6000F0BD002AF3DD0678FF2E00F101070DD12B
:103C7000831803E017F8016BFF2E07D1BB4204F154
:103C80000804F7D1E3E77600F6B201343306FAD43C
:103C9000DDE7FF2B08BFEC1DD5D0CBE730B50546DF
:103CA00083B0FDF75FFE2846FDF75AF802AB848922
:103CB00043F8040D013C24B284811846FDF722F933
:103CC00014B92846FCF768FE00F002F803B030BDD6
:103CD000034A5368013B536003B1704708F0EEBEDE
:103CE00098B701202DE9F04186B001AD009563B190
:103CF0001E460C9B4B6090462B460C4607460C9A82
:103D000012210020B047054620B10125284606B003
:103D1000BDE8F081684600F065FF1C4B9842F4D185
:103D2000684600F059FF3876684600F055FF78760F
:103D3000684600F051FF87F82000684600F04CFF0D
:103D400087F82100684600F047FF0123BB76FB7629
:103D500087F82200684600F03FFF2080684600F0A8
:103D60003BFFA6606080FC6108F104000FC8D8F832
:103D70000040D8F814607E6178603C60B960FA60F9
:103D80003B613846FFF752FDC0E700BF4755495831
:103D9000214B70B51B68DB69DC692388834282B0E4
:103DA00002D86288824202D2002002B070BDC01ADE
:103DB000830003EB4000CDF804D00D461230A66816
:103DC00062686B460421B0470028EDD101A800F0DD
:103DD00009FF0028E8D0CDF804D06B4685B1A6686D
:103DE00062680421B04708B10120DEE701A800F0B5
:103DF000F3FE044601A800F0EFFE28602046D4E759
:103E0000A56862680221A8470028EDD101A800F04A
:103E1000E3FE04462046C8E70C0100201B4B70B5AA
:103E20001B68DB69DC692388834282B002D8628820
:103E3000824203D20124204602B070BDC01A830022
:103E400003EB4000CDF804D00D461230A66862683E
:103E50006B460421B0470028ECD101A800F0C2FE57
:103E60000028E7D0CDF804D0A66862686B4604212C
:103E7000B04704460028DDD101A800F0ADFE28714E
:103E800001A800F0A9FE2870D5E700BF0C010020B2
:103E900090F820308B7090F82130CB7090F8223061
:103EA0000B7101230B8070472DE9F0410446008817
:103EB000A668091A84B0880002AD00EB4100904664
:103EC0001F460195123062682B460621B04720B18B
:103ED0000124204604B0BDE8F081044601A800F0AA
:103EE00081FEC8F8000001A800F076FE3880204668
:103EF00004B0BDE8F08100BFC2691088884202D8D2
:103F000053888B4201D20020704710B5091A82B045
:103F1000880000EB41009468CDF804D012306B4665
:103F200052680421A04710B1002002B010BD01A8C2
:103F300000F058FE003018BF0120F6E7F0B583B05E
:103F4000C0B9224C23690546CBB1E0681F4E18B9B1
:103F50001F4B1868F060D8B123681C4F002623B3AC
:103F600063681A4FC3B115B1A368184C2BB3304620
:103F700003B0F0BD154C236901AD002BE5D12046FF
:103F8000144B40F8143F0123236100F031FEDCE7BD
:103F900001F056F9F060DFE7F8688000FCF726FDD5
:103FA000002808BF01267860DDE78000FCF71EFDD1
:103FB000B0FA80F638607609D2E7E0688000FCF756
:103FC00015FD002808BF0126A060D0E780B80120B9
:103FD000ACB90120E5B3000810B5094B1C7838B91D
:103FE00002464FF07F401A7000F06EFE204610BD72
:103FF000012200201A7000F067FE204610BD00BFAD
:10400000B3B90120082A10B40EDD102A1CDC00EB25
:104010004101034650F8042B23F8022B9942F9D1B1
:1040200001205DF8044B7047022A11D0042A00F0E9
:104030009080012A3CD00144034650F8042B03F839
:10404000012B9942F9D1EBE700205DF8044B704752
:1040500000F1100252F8103C01294FEA8313DBB241
:1040600023D052F80C4C240104F03004022943EA16
:1040700004031AD052F8084CA40004F00C040329DD
:1040800043EA040311D052F8044C04F00304234320
:10409000043900F8013B02F11002C1D052F8103C83
:1040A00001294FEA8313DBB2DBD103700120B8E7AB
:1040B00000F1200252F8203C01294FEAC313DBB281
:1040C000F3D052F81C4CA40104F04004022943EA46
:1040D0000403EAD052F8184C640104F020040329C8
:1040E00043EA0403E1D052F8144C240104F0100414
:1040F000042943EA0403D8D052F8104CE40004F039
:104100000804052943EA0403CFD052F80C4CA4005C
:1041100004F00404062943EA0403C6D052F8084C0C
:10412000640004F00204073943EA040302F12002A8
:10413000BBD052F8244C04F00104234300F8013BA7
:1041400052F8203C01294FEAC313DBB2B9D1037006
:10415000ACE700F1080454F8083C01294FEA0313C6
:10416000DBB212D054F8042C02F00F0213430239D0
:1041700000F8013B04F108043FF452AF54F8083C46
:1041800001294FEA0313DBB2ECD103705DF8044B55
:1041900008467047082A2DE9F0410C461F6805467D
:1041A0000CDD102A21DC1E69002E00F091802246D1
:1041B00029460223B0470120BDE8F081013A072AD1
:1041C00010D8DFE802F004510F770F0F0F9A00F1BB
:1041D000200858F8200CB847012C4FEAC010C6B28E
:1041E00006D12E700120BDE8F0810020BDE8F081ED
:1041F00058F81C0CB847022C46EA8010C6B2F0D022
:1042000058F8180CB847032C46EA4010C6B2E8D05C
:1042100058F8140CB847042C46EA0010C6B2E0D097
:1042200058F8100CB847052C46EAC000C6B2D8D0E2
:1042300058F80C0CB847062C46EA8000C6B2D0D01D
:1042400058F8080CB847072C46EA4000C6B2C8D058
:1042500058F8040CB847083C40EA060005F8010B82
:1042600008F12008B5D1BDE700F1100858F8100C8E
:10427000B847012C4FEA8010C6B2B2D058F80C0CE7
:10428000B847022C46EA0010C6B2AAD058F8080C6B
:10429000B847032C46EA8000C6B2A2D058F8040CF6
:1042A000B847043C40EA060005F8010B08F1100885
:1042B000DCD197E700F1080858F8080CB847012C42
:1042C0004FEA0010C6B20CD12E702046BDE8F08136
:1042D000861E55F8040BB847013C26F8020FF8D1AA
:1042E00080E758F8040CB847023C40EA060005F89D
:1042F000010B08F10808DFD174E71E693EB12846BA
:10430000224601232946B0470120BDE8F0816E1EF8
:1043100055F8040BB847013C06F8010FF8D161E7E6
:1043200030B51B4DEB6F85B00BB105B030BD194BEF
:104330000FCB6C4607C404A924F8023B1B0C237066
:1043400011F8102D0123EB6705F1800404F8012B0F
:1043500011F8012F002AF9D1FDF736FA234610F89B
:10436000012B194603F8012B0278002AF7D14A7075
:1043700008F044FBFCF77CFA08F0C2FD064B074846
:10438000C5F8943005B0BDE8304000F031BC00BF46
:1043900038B6012000CE0308B1B20008CCB6012027
:1043A000F0B52A4B1B6883B004460D467BB1002054
:1043B00003F01CFA48B16E4632462946204604F006
:1043C0009DFD03F0D1F80028F6D103B0F0BD1068D0
:1043D00051681F4F6B4603C33B68BDF80000B3F83C
:1043E0004CE0B3F85060BDF80410BDF80220BDF8F1
:1043F00006307044324433447144ADF800006846DE
:104400006E46ADF80410ADF80220ADF8063003F0AA
:10441000EDF950B93B68598C9A8CDC6C186D091B0E
:10442000121A59849A8403B0F0BD3B68BDF800109D
:10443000BDF8022059849A8429463246204604F069
:104440005DFD03F091F80028EFD1E3E7C8B9012042
:104450000C0100202DE9F04F964C8FB01D462469C9
:10446000199B05900026079193461E60002C00F0D2
:10447000F080904BDF681C462FB98F4B1F68E760B8
:10448000002F00F0F0808B4B8A4E1B680293002BAC
:1044900000F0FF80874B874C5B680393002B00F094
:1044A000EA80864A864B1268507C53F82030089385
:1044B0001B690D93FDF7FEF8804B04901B68587C38
:1044C000FDF7BAF97F4B0B90AF42A8BF2F46984239
:1044D00000F0CE807C4BC31A18BF01230A93059BC2
:1044E0003B440C930026013B09933446BA465F4691
:1044F000189B57F8040B98474FEA1068B8F1FF0F64
:10450000814647D0002C2BD16C4B059A1B68B3F920
:1045100008309519AB4259DD5A1B069214461D46C8
:10452000029B0799099A344403EB8404089B019386
:1045300000940B462846FEF76FFD049B172B7EDD8B
:104540000A9B002B44D00C9B06965D1B2E460B9DB0
:104550002068A847013E44F8040BF9D1069E0124C7
:10456000544BDD69002D38D15FFA88F2B8F1000FA5
:104570001AD1029B039A53F8263042F82630BAF13A
:10458000010A06F10106BB46B1D1039C20460FB0DB
:10459000BDE8F08F199B039A1B6842F82600199A10
:1045A00043F001031360EAE70299484B51F82610E3
:1045B0001B6849F07F409847199B039A1B6842F893
:1045C0002600199A43F001031360D8E70694A7E781
:1045D000384BDD690124002DC6D0029BB600334460
:1045E0001C46039B1E443246214653465846A84764
:1045F0005746ABF1040207E023683360013F04F142
:10460000040406F104060FD052F8043F13F07F4F64
:10461000F2D0216811F07F4F08BF3360013F04F1F1
:10462000040406F10406EFD1199B039C1B68199A38
:1046300043F00103204613600FB0BDE8F08F1A4627
:10464000069B2046C3EB0A010D9B00F043F80124B2
:1046500086E718481E4B174A40F8143F01231361A0
:1046600000F0C6FA05E700F0EBFD0746E0600AE758
:1046700000230A9333E7E0688000FCF7B7F9039062
:10468000606000287FF40DAF002420460FB0BDE825
:10469000F08FB800FCF7AAF9306008B10290F9E693
:1046A0007468002CF0D1F0688000FCF79FF970600E
:1046B0006CE700BF80B80120ACB901200C010020DC
:1046C000B8B901207954000871540008480100204D
:1046D000E5B3000800292ADD082A2DE9F047044641
:1046E0005E6803DD102A0CDDBDE8F087531E072B42
:1046F00005D8DFE803F02A53047C0404041DBDE858
:10470000F0875D6935B10A46AC4621460223BDE813
:10471000F047604749000C446518671A34F8020DE9
:10472000B047BC4245F8040DF8D1BDE8F0877047AA
:1047300065186F1A04EB810415F8010DB047BD42EE
:1047400044F8040DF8D1BDE8F0874F1EFB1001F1CD
:10475000804107F0070A4FF0800801395A1E48FAD5
:104760000AF814F8039004EB81055FFA88F8144402
:10477000CAF1070308EA09001841B04745F80409DF
:10478000BAF1000F5FD194F800904FF00108013C9E
:104790004FF0070A002FB2D0013FE9E74F1E07F0A4
:1047A0000309BB1001F180414FEA4900C0250139DE
:1047B00005415A1E14F8038004EB810AEDB214443B
:1047C00005EA0803C0F1060043FA00F0B0474AF8D2
:1047D0000409B9F1000F44D1032594F80080A946DB
:1047E000013C002F8BD0013F4FEA4900E8E74F1E04
:1047F00007F001087A1001F180414FEA8800F023A8
:104800000139034102F1FF3EA55C04EB81095FFA27
:1048100083FA74440AEA0503C0F1040043FA00F085
:10482000B04749F80409B8F1000F13D125784FF0CB
:104830000F0A013C4FF00108002F3FF460AF013F29
:104840004FEA8800E6E74FEA48085FFA88F80AF17D
:10485000FF3A9FE74FEA0A135FFA83FA4FF0000826
:10486000EAE7AD00EDB209F1FF39BAE770B584B0FF
:1048700004AB1D4A43F8101D019019461368984770
:10488000019058B3194B1B68DB695B692BB11B683E
:104890001BB10099984704B070BD009B013B002BF1
:1048A0000093A8BF00241BDB01A8FFF7CDF8054645
:1048B000FCF716FF009B013B002B04440093F3DA46
:1048C00004A9002641F8046D2846FCF71BFF039B52
:1048D0009842B8BF1E1A301904B070BD04B070BD44
:1048E00000252C46ECE700BF1C0100200C01002035
:1048F00030B583B0019000B3114B1B68DB695B6975
:104900000D4623B15B6813B1984703B030BD002D4D
:10491000D8BF0020F9DD002404E00A2807D00134C4
:10492000A54207D001A8FFF78FF80028F5D120464F
:1049300003B030BD284603B030BD03B030BD00BF6A
:104940000C01002010B582B002A9002441F8044DEA
:10495000FCF7D8FE019B9842B4BF181A204602B05B
:1049600010BD00BFB1F90030B0F900209A42B8BFC5
:104970000380B0F90220B1F902309A42B8BF4380F7
:10498000B0F90420B1F904309A42C8BF8380B0F96D
:104990000620B1F906309A42C8BFC380704700BFF5
:1049A000F0B5B2F900C0B1F90050B1F90240B2F966
:1049B0000230B2F904E0B2F90670B1F90420B1F99D
:1049C0000660AC456146B8BF2946A342B8BF23463E
:1049D0007245A8BF7246B7423C46A8BF34469142D2
:1049E000018043808280C48004DCA342CCBF0020CD
:1049F0000120F0BD0020F0BD2DE9F041394B1B68CE
:104A00005D7C012D82B003DD012002B0BDE8F081A4
:104A1000354E7368044613B1014628469847012C69
:104A200027D0022C0FD0002CEED1AC003719DFF8C4
:104A3000B880BB68012B3AD001202644002B18BF58
:104A4000013BB360E1E72846FCF7B4FC0190002885
:104A5000DAD0C3680D215B6A01A898470446002894
:104A6000D2D0336803B1984702210198A0470020B3
:104A7000CBE706EB8506B7681FB1781CB06020460F
:104A8000C3E72846FCF796FC01900028BCD0C36819
:104A90000D215B6A01A8984703460028B4D021463F
:104AA00001989847B36801333846B360ADE72846AC
:104AB000FCF780FC019088B1C3680D215B6A01A8F6
:104AC0009847054650B1D8F8003003B19847002107
:104AD0000198A847331900209B68AEE7BB68012006
:104AE000ABE700BF0C010020A0B80120F0B40B0E12
:104AF0004FEA1064124B02FB04F208BF20F07F4122
:104B0000A3FB0232D20900F0FF160D0AC2F1FF0723
:104B100005F0FF1501F0FF13C0F3072402FB06F1B7
:104B200007FB05F044F0807407FB031102FB04004F
:104B3000090A00F0FF2001F0FF110843F0BC7047A4
:104B4000818080802DE9F04F87B09246139A109BA8
:104B50009DF8509001900291002A35D0129ADFF80A
:104B600070B0DFF87080920002EB8303049300239F
:104B700005920393129C029E019D574655F8040B23
:104B8000DBF8003056F8041B020E09FB02F2A8FB0A
:104B900002E2C2F3C71240F07F409847013C40F068
:104BA0007F4047F8040BE9D1019A0599039B104611
:104BB0000844029A01908A4404990A440292139A82
:104BC00001339A420393D5D107B0BDE8F08F00BFFF
:104BD00048010020818080800368024633F8020B80
:104BE000136070470368024653F8040B1360704764
:104BF00080B483B000AF7860064B1A687B685A6057
:104C0000044A7B68136000BF0C37BD465DF8047B27
:104C1000704700BFACB6012070B4840702D5018094
:104C2000013A023056080DD0032E334601EB014401
:104C30000DD8012B046003D0022B446018BF8460A0
:104C400000EB8300D30748BF018070BC704700F1C0
:104C500010033546043D032D43F8104C43F80C4C2B
:104C600043F8084C43F8044C03F11003F2DC043E13
:104C7000B3085D1CB6EB830300EB0510D9D1E1E767
:104C800008B50B0E03D1030EFF2B0FD04BB10C4B0D
:104C900002EB0212D2B21B6898470A4B5A681043C3
:104CA00008BD084B5A6841EA020008BD054B5B6825
:104CB00020F07F4002EB0212184340EA026008BD78
:104CC0004801002050010020024B5A6858601046ED
:104CD000704700BF50010020044A054B1268527C07
:104CE00053F822301B691B68184700BF0C010020D5
:104CF000B8B901202DE9F04FB64C91B0D4F800E0DE
:104D00001B9D1D9E1E9F1F9CDDF868A00D95DDF864
:104D100070C00E96079708940F9005920C93BEF101
:104D2000000F06D0DEF80040A44611B0BDE8F04FF9
:104D300060474AEA0503012B894600F09280CCF1D6
:104D4000080302930C9B002B40F38880A24BCDF804
:104D500028E018680491F046E1460D9A049953182A
:104D60001A460B93B0F90A30013A9342099268DC73
:104D7000B0F90E308B4264DB059B002B61DD0F9B8D
:104D8000079F06970026354603EB0A044CE0029B7A
:104D9000C9EB060648FA03F313F0FF0308FA09F813
:104DA0005FFA88F802D1027C920738D4D0F83CE050
:104DB000DEF800200392089A0AB152F82330B0F9C5
:104DC00008B0B0F90CC0CEF80030621E5945B8BF2B
:104DD000594662451346A8BF63468B421CDBB0F9B7
:104DE0000A20049FB0F90EC0BA42B8BF3A46099FE4
:104DF000BC45A8BFBC4662450EDC407C774F57F8E7
:104E00002000D0F80CE0CDF800C0DEF810B0D84794
:104E1000714B1868D0F83CE0039BCEF80030059B3E
:104E20000135AB4254440CD0CAEB0401002EAED184
:104E3000069A029E92F80080134601330693334689
:104E4000A8E7079A0E990A9B0A4407920B9A0492C4
:104E50000C9A01339A420A937FF47FAF11B0BDE8F8
:104E6000F08F5D4B1968B1F90A20C9EB0203002BE2
:104E700040F3C2800C98C41A002CEFDD06FB0373CC
:104E800007930C9BB1F90E004B44013B1B1A002BFE
:104E900002DDE41A002CE1DD0F98059D4319B1F9FC
:104EA0000C00013B1B1A002B01DDEB1A0593B1F935
:104EB00008000F9D854216DB0023059E002ECDDDE8
:104EC000487C464951F820000899C5681E93079B05
:104ED0001D930E9B1F911C93CDF86CC01A94334602
:104EE0000F996C6820E7059E431BF61A0CF1FF35FD
:104EF00005961F2DE1D801A656F825F0E14F0008D0
:104F0000BD4F0008BB4E0008A54F0008BB4E00086F
:104F1000BB4E0008BB4E0008994F0008BB4E00086E
:104F2000BB4E0008BB4E0008BB4E0008BB4E00083D
:104F3000BB4E0008BB4E00088B4F0008BB4E00085C
:104F4000BB4E0008BB4E0008BB4E0008BB4E00081D
:104F5000BB4E0008BB4E00087D4F0008BB4E00084A
:104F6000BB4E0008BB4E0008BB4E0008BB4E0008FD
:104F7000BB4E0008BB4E00087D4F0008079D0F90F8
:104F800005EB83030793002397E7079D0F9005EB3D
:104F900043030793002390E7079D0F901D44079557
:104FA00000238AE7079D05EB630507950F9D23F016
:104FB000010005440F9503F001037EE7079D05EB13
:104FC000A30507950F9D23F0030005440F9503F0FB
:104FD000030372E7C8B901200C010020B8B9012011
:104FE000079D05EBE30507950F9D23F0070005449A
:104FF0000F9503F0070360E70C9C4A46234641E700
:10500000124B30B41C68B4F90A308B420FDCB4F98F
:105010000E3099420BDCB4F90850B4F90C30A842B8
:10502000B8BF28469A42A8BF1A46904201DD30BC5C
:105030007047074B647C53F82440E568AD6813461D
:10504000AC460A460146204630BC60470C010020B1
:10505000B8B90120184B1B68B3F90A208A421DDC3D
:10506000B3F90E20914219DCB3F90820824215DC15
:10507000B3F90C20904211DC30B41A7CD2070ED464
:105080000E4A5C7CDB6B52F824401B68E568AD6916
:105090000A46AC460146204630BC604770475A7C01
:1050A000064B53F82230DC68E4690A46014618468C
:1050B000234630BC184700BF0C010020B8B90120BE
:1050C00070B5154C2468B4F90860B4F90C50B042BE
:1050D000B8BF3046AA42A8BF2A46824282B00BDB44
:1050E000B4F90A60B4F90E50B142B8BF3146AB42D0
:1050F000A8BF2B46994201DD02B070BD657C074C0C
:1051000054F82540E568009313460A4601462046B8
:105110002C69A04702B070BD0C010020B8B9012075
:10512000012801DD0020704710B5FCF743F928B1D4
:10513000C36808219B6ABDE810401847002010BDD5
:10514000024B1B689B6B1868704700BF0C01002066
:10515000024B1B68DB6B1868704700BF0C01002016
:10516000094B1B68587C012801DD0020704710B5F1
:10517000FCF720F928B1C36809219B6ABDE81040FB
:105180001847002010BD00BF0C010020012801DDE0
:105190000020704710B5FCF70DF928B1C36809214C
:1051A0009B6ABDE810401847002010BD10B50020D4
:1051B000FCF700F9041C4FF0010018BF0124FCF7B4
:1051C000F9F800B10134204610BD00BF10B5064B00
:1051D0001B68587CFCF7EEF828B1C3680221DB6A33
:1051E000BDE81040184710BD0C01002030B583B059
:1051F0000C461546FCF7DEF8019070B1C368042137
:105200005B6A0DEB01009847034630B101982A46CE
:1052100021469847002003B030BD012003B030BDC7
:10522000012801DD0020704710B5FCF7C3F828B154
:10523000C36803219B6ABDE810401847002010BDD9
:1052400038B501252846FCF7B5F80024032178B1CC
:10525000C3689B6A98478442B8BF04460DB920468C
:1052600038BD00252846FCF7A5F803210028EFD11A
:10527000F1E700BF012801DD0020704710B5FCF701
:1052800099F828B1C36804219B6ABDE8104018470B
:10529000002010BD094B1B68587C012801DD00204F
:1052A000704710B5FCF786F828B1C36801219B6AE6
:1052B000BDE810401847002010BD00BF0C010020C1
:1052C000014B1868704700BF2CB70120012801DD91
:1052D0000020704710B5FCF76DF828B1C3680121B4
:1052E0009B6ABDE810401847002010BD38B5012565
:1052F0002846FCF75FF80024012178B1C3689B6A57
:1053000098478442B8BF04460DB9204638BD0025F1
:105310002846FCF74FF801210028EFD1F1E700BF44
:10532000094B1B68587C012801DD0020704710B52F
:10533000FCF740F828B1C36802219B6ABDE8104021
:105340001847002010BD00BF0C010020014B586819
:10535000704700BF2CB70120012801DD00207047F5
:1053600010B5FCF727F828B1C36802219B6ABDE895
:1053700010401847002010BD38B501252846FCF71D
:1053800019F80024022178B1C3689B6A98478442C7
:10539000B8BF04460DB9204638BD00252846FCF7A5
:1053A00009F802210028EFD1F1E700BF2DE9F84309
:1053B00060B3856865B3DFF86480D8F8006006B331
:1053C0000768B7F5807F1FDC124B1B689F42A8BFA0
:1053D0001F46002F81460DDD043D002401E0D8F872
:1053E000006055F8040FFFF777FC46F824000134FD
:1053F000BC42F4D1084B1B680BB148469847D8F81B
:1054000000603046BDE8F8830026FAE70646F8E774
:105410002E46F6E740010020B4B70120E4B9012090
:10542000044A054B1268527C53F822301B695B68B2
:10543000184700BF0C010020B8B90120C0F3C423F5
:10544000094910B4CA5C094CC0F3451300F01F00B1
:10545000E35C085C5DF8044B120402EB0323184480
:1054600040F07F40704700BF04D20308C4D1030856
:1054700040F07F40704700BF704700BF38B50B4D0C
:105480002C680CB1002038BD094B18688000FBF770
:10549000ADFA286038B10748074B40F8043FFFF7E2
:1054A000A7FB204638BD012038BD00BFE4B901206C
:1054B00040010020B4B7012021B300082DE9F84FC6
:1054C000FFF774FEB0F100092FDD194FDFF868B067
:1054D00000252846FBF76EFF20B33B68284693F86B
:1054E00011805D74FFF71CFE082818DC5BF825307E
:1054F000104A1B69934212D02846FFF747FE061E4A
:105500000DDD00245FFA84FA5046FFF789FF01346D
:1055100002465146284600F085F9A642F2D13B6882
:1055200083F811800135A945D3D1BDE8F88F00BFBC
:105530000C0100207CDA0308B8B901202DE9F04FF6
:1055400085B081460F9D0E9CED68D5F824806F696B
:1055500016460D469A46B8F1000F0FD001210FA84C
:10556000C047804650B10F980194CDF800A0334653
:105570002A464946C04705B0BDE8F08F6B4B1B6813
:10558000587CFCF797F8082834DC01235545F2DCF9
:10559000022B0AD0042B1DD0012B30D00135AA4597
:1055A000F6DAE8E701355545E5DCB145D8BFC84630
:1055B000F8DC41462A460F98B84708F101084645ED
:1055C00024F8020BF5DA0135AA45EEDAD3E7013506
:1055D000AA45D0DBB145D8BFC84600F3A1804146FB
:1055E0002A460F98B84708F10108464544F8040BCD
:1055F000F5DAECE71128B4BF02230423C6E7431E03
:1056000003934FF00008CDF808A0039B072B00F28E
:105610008180DFE803F03358171704040404B14510
:10562000D8BFCB4609DC59462A460F98B8470BF13C
:10563000010B5E4504F8010BF5DA029B0135AB4224
:10564000E3DA98E7B145F8DCCA464FF00F0B514654
:105650002A460F98B8474FEA88032178C3F104021D
:105660000BFA03F390400B400AF1010A034356453D
:105670002370444488F00108E9DADEE7DDF808B079
:10568000B145DADCCA4651462A460F98B847217818
:105690004FF67F72C8F1070342FA08F298400AF108
:1056A000010A01EA020308F10102184322F0070887
:1056B0005645207042FA08F804EBE204E3DA0135BB
:1056C000AB45DDDA57E74FF63F7BB145B5DCCA465F
:1056D00051462A460F98B8474FEA480394F800E02D
:1056E000C3F106024BFA03F308F1010190400EEA00
:1056F00003030AF1010A034321F00308564523700E
:1057000041FA08F804EBA104E2DA029B0135AB424E
:10571000DBDA30E7029B01359D427FF776AF2AE75F
:10572000013555457FF756AF25E700BF0C01002036
:1057300010B50E4C0E4B2268517C53F8210038B145
:10574000C36813B11B68042B0BD000680028F7D185
:10575000002102F1080311665361BDE8104000F01A
:1057600035B8FBF703FE2268F2E700BF0C0100200A
:10577000B8B90120014B1B685B6818473C01002049
:10578000044B1B681A7C52074CBFDB6B9B6B186089
:10579000704700BF0C01002030B50A4C0A4B22684C
:1057A000527C53F82230DA6883B0054669461846C1
:1057B000126B904720686A4629460830FFF7F0F8D8
:1057C00003B030BD0C010020B8B90120044A054BDC
:1057D00011684A7C53F82200C36808311B6B1847D4
:1057E0000C010020B8B90120014B1B681B68184749
:1057F0003C010020044B1B681A7C52074CBF9B6B7A
:10580000DB6B1860704700BF0C010020014B83E880
:10581000030070472CB70120014B1B689B68184799
:105820003C01002030B583B00C461546FBF7C2FDA5
:10583000019068B1C36810215B6A01A898470346CC
:1058400030B101982A4621469847002003B030BD68
:10585000012003B030BD00BF30B583B00C46154603
:10586000FBF7A8FD019068B1C36803215B6A01A83A
:105870009847034630B101982A46214698470020B0
:1058800003B030BD012003B030BD00BF30B583B0E0
:105890000C461546FBF78EFD019068B1C3680B21DD
:1058A0005B6A01A89847034630B101982A46214611
:1058B0009847002003B030BD012003B030BD00BFC9
:1058C00030B583B00C461546FBF774FD019068B106
:1058D000C3680A215B6A01A89847034630B1019862
:1058E0002A4621469847002003B030BD012003B06E
:1058F00030BD00BF10B5074C2368186BFFF7ECF9FB
:10590000FFF778FF2368586BFFF7E6F9BDE8104012
:10591000FFF736BF0C0100202DE9F04F91B0824C0B
:105920001B9D0E952E461D9D0C9524681E9D06956B
:105930001F9D0895DDF868A0DDF870E0209D0F90B0
:1059400005920D932CB12468A44611B0BDE8F04F28
:1059500060474AEA0603012B894600F09180CEF1A8
:10596000080302930D9B002B40F387806F4B0A9432
:1059700018680491A046F1460E9A049953181A46E5
:105980000B93B0F90A30013A9342099268DCB0F9FE
:105990000E308B4264DB059B002B61DD0F9B069F65
:1059A00007970026354603EB0A044CE0029BC9EB3F
:1059B000060648FA03F313F0FF0308FA09F85FFA42
:1059C00088F802D1027C920738D4D0F83CE0DEF8A7
:1059D00000200392089A0AB152F82330B0F908B0B7
:1059E000B0F90CC0CEF80030621E5945B8BF594618
:1059F00062451346A8BF63468B421CDBB0F90A2000
:105A0000049FB0F90EC0BA42B8BF3A46099FBC45E0
:105A1000A8BFBC4662450EDC407C454F57F82000CD
:105A2000D0F80CE0CDF800C0DEF810B0D8473F4BFE
:105A30001868D0F83CE0039BCEF80030059B013598
:105A4000AB4254440CD0CAEB0401002EAED1079AED
:105A5000029E92F800801346013307933346A8E76D
:105A6000069A0C990A9B0A4406920B9A04920D9A84
:105A700001339A420A937FF47FAF11B0BDE8F08FF3
:105A80002A4B1868B0F90A20531A002B47DD0D99EC
:105A9000CC1A002CF1DD069E0C9901FB03630693E2
:105AA0000D9BB0F90E104B44013B5B1A002B02DD3D
:105AB000E41A002CE1DD0F99059E8B19B0F90C104A
:105AC000013B5B1A002B01DDF31A05930F99B0F926
:105AD0000830491B99420DDA5B1A069F1D4407EBFB
