:020000040800F2
:10000000A0380120590200084DF00008C1EB00089B
:100010004BF0000821EA0008FDF200080000000093
:10002000000000000000000000000000A101000826
:1000300049EA000800000000F50100088DF2000800
:1000400073020008730200087302000873020008BC
:1000500073020008730200087302000873020008AC
:10006000730200087302000873020008730200089C
:10007000730200087302000873020008730200088C
:10008000730200087302000873020008730200087C
:10009000730200087302000873020008730200086C
:1000A000730200087302000873020008730200085C
:1000B000730200087302000873020008730200084C
:1000C000730200087302000873020008730200083C
:1000D000730200087302000873020008730200082C
:1000E000730200087302000873020008730200081C
:1000F000730200087302000873020008730200080C
:1001000073020008730200087302000873020008FB
:1001100073020008730200087302000873020008EB
:1001200073020008730200087302000873020008DB
:1001300073020008730200087302000873020008CB
:1001400073020008730200087302000873020008BB
:1001500073020008730200087302000873020008AB
:10016000730200087302000873020008730200089B
:10017000730200087302000873020008730200088B
:100180007302000873020008DFF810D000F0C0F816
:10019000004800471DFD0008AFF30080A038012093
:1001A0002A4B19680868B0E8F04F80F30988BFF35C
:1001B0006F8F4FF0000080F311887047000000003F
:1001C00006480068006880F3088862B661B6BFF32D
:1001D0004F8FBFF36F8F00DF00BF00BF08ED00E05F
:1001E000DFF80C00016841F470010160704700BF46
:1001F00088ED00E0EFF30980BFF36F8F134B1A68AF
:100200001EF0100F08BF20ED108A20E9F04F10609B
:1002100008B44FF0500080F31188BFF34F8FBFF345
:100220006F8F10F003F94FF0000080F3118808BCC5
:1002300019680868B0E8F04F1EF0100F08BFB0EC66
:10024000108A80F30988BFF36F8F70470000002089
:10025000EFF30580704700000648804706480047D6
:10026000FEE7FEE7FEE7FEE7FEE7FEE7FEE7FEE766
:10027000FEE7FEE7A1F200088901000810B5441A64
:100280000346944209D28418114403E011F8013D59
:1002900004F8013D521EF9D210BD40EA0104A40742
:1002A00003D009E010C9121F10C3042AFAD203E0D8
:1002B00011F8014B03F8014B521EF9D210BD10B5D5
:1002C0000346C9B201E003F8011B521EFBD210BD68
:1002D000034611F8012B00F8012B002AF9D118462A
:1002E000704730B50B46014600202022012409E06A
:1002F00021FA02F59D4205D303FA02F5491B04FADF
:1003000002F52844151EA2F10102F1DC30BD000007
:10031000064C074D06E0E06840F0010394E8070052
:1003200098471034AC42F6D3FFF732FF2439010866
:100330004439010870B58C1810F8015B15F00703FB
:1003400001D110F8013B2A1106D110F8012B03E06E
:1003500010F8016B01F8016B5B1EF9D12B0705D476
:100360000023521E0DD401F8013BFAE710F8013BBF
:10037000CB1A921C03E013F8015B01F8015B521EDB
:10038000F9D5A142D8D3002070BD000070B54568F2
:1003900082B004460146284607F0F8FB68B123689E
:1003A0000F2B59D00BDD282B45D0B3F5107F3CD057
:1003B000112B49D0204607F09BFE02B070BD0B2BDD
:1003C00020D00E2BF6D1E3681A6859680D2A53D055
:1003D000202A31D1002928464FF480717DDD07F0B5
:1003E000C1FC284602F02EFB02AB846A43F8040DE0
:1003F000184602F0F9FBA207DFD52846012108F0D4
:1004000089FFDAE7284602F01DFB02AD034668309B
:10041000019302F093F955F8040D03216C3002F0BA
:10042000B3F9284602F0E0FBC4E7324B21462846E8
:100430001B689847C1E7E368002BBBD128464FF4FF
:10044000807107F087FBB5E72B4B1B68002BB4D0FE
:10045000214628469847B0E7284602F0F3FA02AB57
:1004600043F8040D426E1468184602F0BDFB002CE0
:10047000A3D02846A047A0E70029DDDD4FF4807116
:10048000284607F06FFC284602F0DCFA02AC866AC8
:1004900044F8040D204602F0A7FBB10703D5012163
:1004A000284608F037FF4FF48071284607F052FBCA
:1004B000284602F0C7FA034620461E8E9C6A019326
:1004C00002F092FB304604F075FEA3077FF575AF8E
:1004D0002846022108F01EFF6FE707F03BFB284685
:1004E00002F0B0FA02AB846A43F8040D068E184697
:1004F000E6E700BF80000020A01601202DE9F04FA4
:10050000B0F90A60B0F90C708569B0F90E80B0F9E5
:100510001090B0F908A087B08B4616441F440446DB
:100520004C3503F09FFADFF8CCC0CDF800B04FF0A7
:10053000000E42463946304603954B46CDF808C07A
:10054000CDF804E007F0D6FC804628B905F03CF869
:10055000404607B0BDE8F08F02F074FA244F0590D2
:10056000514610223E1D07F019FC0DF118090FCE5F
:1005700059F804ED0EF134050FC50FCE0FC596E8FE
:100580000F0085E80F007B6BCEF86430484602F020
:100590002BFB7B6B40465B68984705F015F8656858
:1005A00003F060FA404602F04DFA846E049004A80D
:1005B000059402F019FB2946484606F0C1F90028C7
:1005C000C4D0059B9C4209D0404602F03BFA059AF4
:1005D0008266034604A8049302F006FB404608F036
:1005E000D5FA04F0F1FF404607B0BDE8F08F00BF38
:1005F000800000208D030008F0B5954A81684368AB
:1006000052F8216089B00446122B3FD8DFE803F08E
:10061000AE3E3E3E3E0A963E3E3E3E3E3E3E3E3E66
:100620003E3E4100F569002D40F0B280371F57F87B
:10063000040F04F05FFD04F110000FC85B1B521B98
:1006400029442844013502F0E7FF022DEFD1326939
:100650006169E3690192A2692069F76800970B4418
:100660005B100231521B284402F0ACFEE369616961
:10067000B2690192A2692069746900941944491011
:100680000131023B521B284402F09CFE002009B0BD
:10069000F0BD006802F0D6F9856E0490002D00F0E0
:1006A000CF80A368B0F95C70002B00F0C780032BEB
:1006B00014BF0023022300EB8303406D1C6C04F085
:1006C00031FD204604F016FD08AC06A803F0DCF866
:1006D000B6F81CE0BDF81810BDF81C20BDF81A00D3
:1006E00054F8106DBDF81E307144CEEB020202309A
:1006F000023BADF81810ADF81C20B6F95E10B6F943
:100700006020ADF81A0006A8ADF81E3004F022FCF7
:10071000204602F069FA022004F034FD284602F077
:1007200091F908AC06A944F80C0D3A4602F044FDD4
:10073000204602F059FA002009B0F0BD006802F02E
:1007400081F9049020680AF05DF8A8B9049B5D6FF8
:1007500005B9DD6E04A802F047FA00232846216897
:100760001A4602F0CDFC002009B0F0BD006809F087
:100770005BF8002009B0F0BDA368002B64D1049A97
:10078000136F002B14BF6C23682313445D68E1E7EB
:10079000B368039373680293374600F1140157F866
:1007A00004090EC901902069009505F0B5FC0025EB
:1007B00057F8040F04F09EFCF369A269216960698F
:1007C000D21A1944284402F0D1FEF369A2692169C2
:1007D000E069D21A1944401B02F0C8FEF369E269CD
:1007E00061692069D21A1944284402F05DFFF36957
:1007F000E2696169A069D21A401B1944013502F00F
:1008000053FF022DD4D1B06804F074FCF169206963
:100810006569E36942185B1A013A2944023002F023
:100820009BFFF169A2696569E369501A5B1A01309F
:100830002944023A02F090FFF56908E701233AE7FC
:1008400004A802F0D1F921E7049BDD6E82E700BF26
:100850008C2E010800B9704730B5044683B00D46B0
:1008600003F000F9204602F0EDF802AB456543F8CD
:10087000040D184602F0B8F9204608F087F904F094
:10088000A3FE03B030BD00BF70B582B018B901251A
:10089000284602B070BD04460D4603F0E3F820463A
:1008A00002F0D0F8866E00906846019602F09CF93E
:1008B000294601A806F044F800280CBF01250025B0
:1008C0000FD0019B9E4209D0204602F0BBF8019A4E
:1008D000826603466846009302F086F9204608F0D7
:1008E00055F904F071FE284602B070BD2DE9F043C1
:1008F000456883B004460146284607F047F960B3CF
:1009000023680E2B3CD074DD0F2B29D0B3F5107F5C
:1009100020D1284602F096F8034602A8B3F93070B9
:1009200040F8083D93F8749093F8758002F05CF9F4
:10093000E668002E75D0284607F0F0FF00286BD13E
:10094000337A002B6FD12846022108F0E3FC3846A9
:1009500004F030FC204607F0CBFB03B0BDE8F08389
:10096000284602F06FF802AB43F8040D026F1468DA
:10097000184602F039F9002CEFD02846A047ECE7E2
:10098000284602F05FF8034602A840F8083D93F8B5
:10099000747093F8756002F027F9284609F032FF69
:1009A0000028D7D0E3685A68002AD3DD1B68202BC3
:1009B000D0D1002DCED0013696FBF7F307FB13669E
:1009C00003F050F8284602F03DF8019090F874309A
:1009D0009E422FD280F8756001A802F005F92846E2
:1009E00008F0D4F82846052108F094FC04F0ECFD4A
:1009F000B0E70B2BAED1284602F024F802AD034637
:100A000045F8043D783001F099FE284602F0ECF8F4
:100A1000204607F06DFBA0E70021284608F07AFC8D
:100A200098E70321F9E70121284608F085FD2DB953
:100A30000121F2E701A802F0D7F8D7E708F1010891
:100A400098FBF9F309FB138803F00CF8284601F032
:100A5000F9FF019090F8743098450FD280F87580B6
:100A600001A802F0C1F8284608F090F805212846B0
:100A700008F050FC04F0A8FD0121CEE701A802F027
:100A8000B3F8F7E72DE9F04FB0F90A50B0F90C6070
:100A9000B0F90E70B0F91080B0F90890D0F818A035
:100AA000DFF8C0B087B00C4615441E4402F0DAFFF0
:100AB0002FB9DBF800309B681B6898470746B8F1F0
:100AC000000F47D0DBF8103000946FF070441C1B0F
:100AD000B4FA84F4DFF890E0CDF808E00AF15402AB
:100AE0006409039231463A4643462846019407F08A
:100AF00001FA1C4F064638B301F0A4FF3D1D4946DC
:100B00001022059007F04AF90FCD0DF1180C5CF892
:100B100004ED0EF134040FC40FCD0FC40FCD0FC47C
:100B200095E807000F2384E8070002253A68CEF80D
:100B300070206046CEF87C308EF8745002F054F885
:100B40003B6830465B68984704F03EFD304607B08E
:100B5000BDE8F08FDBF800309B681B689847804643
:100B6000B0E700BFB8000020ED0800082DE9F04F05
:100B70000546006895B010BBDFF8BC9280466C68F3
:100B8000192C00F25281DFE814F02A0050015001C4
:100B900050015001500141007A0050015001B7004E
:100BA00050015001500150015001500150011201FB
:100BB000500150015001500150015001240009F032
:100BC00021FEB0FA80F84FEA5818994B53F8289054
:100BD000D5E7D9F81840204615B0BDE8F08F286851
:100BE00008F022FE286801F02DFF024614A8B2F991
:100BF0000630B2F9021040F8082D5B1A0133D367B2
:100C000001F0F2FF204615B0BDE8F08FAB682C680C
:100C100003931F4602F026FF204601F013FF14AB9A
:100C2000C56F43F8080D834E184601F0DDFF04F050
:100C3000CBFC56F8284007F1FF3B002C00F0FE806B
:100C40004FEA8B0101EB0B02920003E0E46C002CF5
:100C500000F0F480B4F84830AB42F7D1A31808464E
:100C60009B68002BF2D00322584404EB800011460D
:100C700002F0CAFA0024204615B0BDE8F08F2C68B7
:100C800002F0F0FE204601F0DDFE14ABC66F43F823
:100C9000080D184601F0A8FF04F096FC286807F03C
:100CA000A3FD002800F0FC81A9F10407002457F8F7
:100CB000040F04F01FFA286969698319013B1B1BA3
:100CC000204421441A46013402F0A6FC032CEED144
:100CD0002869D9F81030696901938319D9F80C2073
:100CE0000092043B033003311A4602F06BFB0024F0
:100CF000204615B0BDE8F08F286801F0A3FE03463A
:100D000014A8B3F9547040F80C3D9E6CD3F834909D
:100D100093F8568001F068FF2C6802F0A3FE20468D
:100D200001F090FE14ACD0F87CA044F8080D2046E9
:100D300001F05AFF04F048FC204607F0A1FCBDF882
:100D40004830286A53449844ADF8488002F0D0FDFA
:100D50000546484602F0E2FD27F00303042B00F0AD
:100D600097810C2B00F06E81BDF94A3080B227F0DC
:100D70000C01012900F08481022900F07281BDF983
:100D80004820ADB2013D013803442A443046ADF855
:100D90004C20ADF84E3004F0ADF920464FF0FF3155
:100DA00002F0B4FA0024204615B0BDE8F08F2868A0
:100DB00001F048FE034614A8B3F9547040F80C3D06
:100DC000D3F84480D3F8349093F8566001F00CFFC8
:100DD0002C6802F047FE204601F034FE14ACD0F837
:100DE0007CA044F8080D204601F0FEFE04F0ECFB68
:100DF000204607F045FCBDF848302D6A53441E4498
:100E00004846ADF8486004F08DF9022004F0BAF9C4
:100E1000404604F06FF9214628463A4602F0CCF9E4
:100E20000024204615B0BDE8F08F0024D3E600BFB3
:100E3000042F010854170120E4010020502001F084
:100E4000D5FC044600283FF4C6AEC14F50223B6893
:100E5000002198474FEA4B0318460B935844BD4B6B
:100E6000D9F814206264A5F1060904EB800083FB25
:100E700009232830B9F1000F09EBD9724FEA620259
:100E80004FEAE97E0A904846B8BFE81ECEEB6303FE
:100E9000A2EBA00056F8281046F8284000EB030A01
:100EA000D61A6B1C48BF05F10803DB1003FB09F8D9
:100EB000E164A4F8485004F14001404609910893C8
:100EC00001F094FC0490002800F0C8803B68424682
:100ED00000219847012E40F38E81BBF1010F0AF1EA
:100EE000020240F039810899CDF818B04B005B42FE
:100EF00018465B46DDF810B0CDF830A057460AF131
:100F0000010E01FB02F24FF0800807940D958C460C
:100F10000596824603F0070402EB0A01B94548FA38
:100F200004F402EBE30501EBE301774603F101036F
:100F30000EF1010E6244204604DD1BF801603443CB
:100F40000BF80140F14504DD1BF8051001430BF8D7
:100F5000051005999942DDD1DDF830A0DDF818B013
:100F6000079C0D9D4B1E0E469A44A5F10708B045FF
:100F70003EDDBBF1010F0AF1020340F09980089DAC
:100F8000CDF814B06A00524205FB03F04FF0800E1A
:100F90000694AC46934601E00AF1020306F007010D
:100FA000D1454EFA01F100EB0B050AF1FF3A374645
:100FB00034460A4609DD002EB8BFF71D05EBE705EC
:100FC000049F7F5D3943049F7955994508DD002EC4
:100FD000B8BFF41D00EBE40404990B5D1A430A55F5
:100FE00001364645CCEB0000D6D1DDF814B0069CA6
:100FF0000B9B099E5B441946039B04EB810103EBA9
:1010000083030E6304EB830302264FEA8B008E6298
:1010100000EB0B02012681F82C6004EB820223F81E
:101020000E6CBDF8206023F8106C049E96601FFAC9
:1010300089F500210A9ED660116123F8145C23F81B
:10104000125C10E6BDF94E301B1A013303EBD3736B
:1010500043F34F03ADF84A3080B288E64FEA8B0085
:1010600001E6BDF94820BDF94C10891A491B01EB76
:10107000D17102EB610212B2ADF84820ADB281E647
:10108000BDF84C10ADB2491B0AB2ADF8482079E664
:10109000BDF84E3080B21B1A1BB2ADF84A3066E67E
:1010A000286800F0ABF804F019F801F0E9FDFBE561
:1010B0000899CDF814B00A464FEA410C02FB03F23E
:1010C000CCF1000C4FF0800E06948B46049826E07D
:1010D000002E3446CBEB0201B8BFF41D01EBE40453
:1010E00006F00707055D4EFA07F73D43055599459C
:1010F0000CDD002E3346B8BFF31D02EBE30206F011
:101100000704835C4EFA04F42343835401364645B6
:101110000AF1FF3A0A463FF468AF0AF10203D145EB
:101120000EDD002E314602EB0C04B8BFF11D04EBBE
:10113000E10106F00705445C4EFA05F52C434454E2
:101140000AF101018945C3DCCBEB0201CFE700BF07
:1011500040010020676666660898CDF830B043000D
:101160005B420793DDF810B00D94012300FB02F2FF
:10117000D0460AEB03014FF0800CCDF838A00F9554
:1011800086460696079803F0070714184CFA07F7E7
:10119000CEEB0200C14502EBE30A04EBE30400EBF3
:1011A000E300724403F1010388463E46059704DDDF
:1011B0001BF804502F430BF80470894501F101011D
:1011C00004DD1BF8004034430BF80040894505DD81
:1011D0001BF80A00059C20430BF80A000698984269
:1011E000D0D1DDF838A0DDF830B00D9C0F9D431E46
:1011F00006469A44B9E60126B7E600BF30B583B08B
:1012000018B90446204603B030BD054602F02AFC5A
:10121000284601F017FC0446019018B12846246CBA
:1012200007F0B4FC01A801F0DFFC04F0CDF9204682
:1012300003B030BD00B9704730B5044683B00D46E9
:1012400002F010FC204601F0FDFB436B0190AB4225
:1012500003D04563204607F099FC01A801F0C4FCC7
:1012600004F0B2F903B030BD40B339B370B50446F1
:1012700082B00D4602F0F6FB204601F0E3FB866FDC
:1012800000906846019601F0AFFC294601A805F0E0
:1012900057FB78B1019B9E4209D0204601F0D2FB5A
:1012A000019A826703466846009301F09DFC204640
:1012B00007F06CFC04F088F902B070BD704700BF05
:1012C00000B58BB0002101A82422FEF7F8FF054BE2
:1012D0001B689B6819225B68029201A898470BB0B3
:1012E0005DF804FBB80000202DE9F047466886B0A1
:1012F0000546304601F0A6FBC36D0090D0F888404B
:10130000D0F88070D0F86880B0F87C90002B63D063
:10131000D3F800A0684601F067FC14B909E024681E
:101320003CB16368284698470028F8D006B0BDE86D
:10133000F0872B68172B00F0A4801DDC0F2B00F02A
:101340008C807CDC0B2B00F0BE800D2B0AD119F0B9
:10135000080F07D1EB68DB6823B11B7A13B1304665
:1013600008F076F93046294606F010FC0028DDD05A
:10137000284606F0BDFED9E7262B74D02EDC1E2BA6
:1013800000F0AD80202BEDD1EC68002CEAD0314686
:10139000606809F021FA002800F0BE80304601F0B4
:1013A00051FBB0F87C300190190740F12A8101A867
:1013B00001F01AFC3146606809F0FCF90028D1D030
:1013C000304601F03FFB03466268019001A8C3F874
:1013D000802001F009FCC5E79A469BE72A2B65D0DF
:1013E000B3F5107FBED13046D5F80C8001F02AFB52
:1013F00006ACB0F87C7044F8140D204601F0F4FB04
:10140000EB68002B92D098F80830002B00F0A980F0
:10141000390740F1B580304606F024FD07F48873A3
:10142000B3F5887F82D107F080039BB2002B7FF455
:101430007DAF41463046052208F0A6F876E7112B2D
:1014400022D0142B8ED1304601A900F04BFC02AB08
:1014500003CBEB681860596068E7BAF1000F81D0E0
:101460003046D0477EE7EB68022B7FF45FAF06A9DA
:10147000272241F8142DA8680396049309F006FB6F
:1014800054E7C5F80C8051E73046EC6801F0DAFA11
:1014900001902389012B05D1B0F87C3043F480738F
:1014A000A0F87C3001A801F09FFB5BE7304601F01B
:1014B000C9FAEB680090002B66D0C0F8843068460B
:1014C00001F092FB32E7304601F0BCFA034670307F
:1014D000009301F033F9684601F086FB42E7EC68BF
:1014E000012C55D0002E3FF421AF02F0BBFA30465C
:1014F00001F0A8FAB0F87C3001901C0706D523F063
:101500000803A0F87C30304607F040FB01A801F04A
:101510006BFB04F059F809E7304601F093FAB0F894
:101520007C3001901A0706D523F00803A0F87C3020
:10153000304607F02BFB01A801F056FB314620682E
:1015400009F038F900283FF40DAF304601F07AFA7F
:1015500003462268019001A8C3F8802001F044FBF3
:1015600000E7304601F06EFAB0F87C2001900346A7
:1015700022F480722046A3F87C2001F035FBD5E6EA
:10158000304608F065F846E7D0F88430EB6096E71F
:10159000384607F01BFE18B3384608F059F83846AD
:1015A00007F0CAF9A8B926B9002F7FF4BFAEEF60E3
:1015B000BCE602F057FA304601F044FAB0F87C304D
:1015C00001901A0725D501A801F00EFB03F0FCFFDE
:1015D000EAE72146384606F0C5FB002EE4D0E8E7EE
:1015E000404608F0A1F80746304601F02BFA0346C2
:1015F0006846C3F88070009301F0F6FA002ED3D04D
:10160000D7E743F00803A0F87C30304607F0BEFA75
:10161000CDE643F00803A0F87C30304607F0B6FA78
:10162000D1E700BF2DE9F04F0F46B0F90C10B0F92B
:101630000AB08569B0F90E60B0F910A0B0F8128058
:101640004D4C8FB001EB0309B0F9083004934368A7
:1016500005939344603502F005FA4FF4805E3246FC
:10166000009749465846039553460294CDF804E046
:1016700006F040FC064628B903F0A6FF30460FB03E
:10168000BDE8F08F01F0DEF9DFF8F4A004990690D0
:101690003022554606F082FB0DF1380B0FCD5BF87A
:1016A000207D07F134040FC40FCD0FC495E803006B
:1016B000189B84E8030000257B66DAF82830FB6578
:1016C000C7F88050FD66C7F88850A7F87C80584658
:1016D00001F08AFA09A9304600F004FBBDF92A108E
:1016E000BDF92800BDF92C20BDF92E30234C0395FF
:1016F0005B1A121A41F2827501320133029400968C
:10170000019506F0F7FBDAF8283004465B683046AE
:101710009847304601F096F9034658469C66069372
:1017200001F062FA304606F033FE02F09BF93046D3
:1017300001F088F9036F079007A8089301F054FAA5
:10174000059908A805F0FCF838B903F03DFF03F04F
:101750003BFF30460FB0BDE8F08F304601F072F924
:10176000089A0267034607A8079301F03DFA30463E
:1017700007F00CFAE9E700BFE91200087D20000835
:10178000F80000202DE9F041044690B0006800F018
:10179000CDF9B04B6668A3F12C05002808BF1D46A3
:1017A0001C2E00F2F880DFE816F02200F600F600AA
:1017B000F600F6003500F600F600F600F600F6003A
:1017C0005100F600F600FB00F600F600F6000F01EF
:1017D000F600F60049014B014D014F01F600F600FD
:1017E000F6001D006E69304610B0BDE8F08120683B
:1017F00001F028F910ABB0F85A2043F82C0D42F054
:101800000C02A0F85A20184601F0EEF9206808F002
:101810000BF8E8E72B690193B4F910E0B4F9147000
:10182000B4F91860B4F91C40EB6800933246704676
:1018300039462346ADF82060ADF81CE0ADF81E70C7
:10184000ADF82240002601F0BDFDCCE71C23206846
:101850000893079001F0F6F8036D059007A89847E4
:10186000064605A801F0C0F9012E40F32681AB68B9
:1018700002936B6801932B686269A16920690093E8
:10188000334604F03FFB2769A3693744C6EB0308DE
:10189000286803F02FFC42463946606901F066FE75
:1018A000686803F027FC606942460130394601F060
:1018B0005DFE6B6A022B00F3F3802A6A964218DA07
:1018C00063692069012E03F1020740F32481024479
:1018D00006EB0308013A30444346394601F03CFF29
:1018E000A069821BEB69C01A39464346013001F0FA
:1018F00033FF012ED4BF66696369E7692868CCBFEE
:10190000F6180236013F03F0F5FB3A4631462069EE
:1019100001F0CAFE3A463146A06901F0C5FEE7690A
:10192000686803F0E7FB2069023F3A460130314620
:1019300001F0BAFEA0693A460138314601F0B4FE22
:10194000EB69022B40F38280AB6AE769A868022B3F
:10195000CCBFFF1A023F03F0CDFBEA69022A00F375
:1019600096802B6A022B00F38880286803F0C2FB64
:10197000A2692169E06901F0F9FD686803F0BAFB2A
:10198000A2692169E069013A0131013801F0EEFDF7
:10199000AE6A022E60DC0026304610B0BDE8F08151
:1019A00004F114010EC9A8682569ADF81E10ADF840
:1019B0002020ADF82230ADF81C5003F09BFB07A8A7
:1019C00001F0F6FE00260EE7298B2269A3696669FD
:1019D000E5692068ADF81E605B1A0A44ADF8203056
:1019E000ADF81C20ADF8225001F02CF8036F0590E3
:1019F000FBB1022003F0C6FB059AB2F87C30C3F3BA
:101A0000C0030E3302EB8303986803F073FB059B5E
:101A1000586B03F087FB059B186F01F013F8059BCB
:101A20000690B3F95A2007A901F0C6FB06A801F0F9
:101A3000DBF805A801F0D8F80026D4E6AE6AD2E6B5
:101A4000EE69D0E62E6ACEE66E6ACCE62B6A022BF1
:101A50008BDD79E75C020020A269E7692169A8684B
:101A60008C1C951E03F046FBB91B2A46204601310B
:101A7000BB1E01F071FE0026B5E6A269E869101AE6
:101A80003B4631460130023A01F066FE6DE72069BF
:101A90000244013A02303B46314601F05DFE60E708
:101AA000A86803F027FB61696B6A0B44424638461D
:101AB000013B023101F050FE1BE7286803F01AFBDE
:101AC0002169EA6960690A44013A01F04FFDA2699F
:101AD000E9696069511A013101F048FD67692069BF
:101AE0000137394601F06EFD3946A06901F06AFD03
:101AF000686803F0FFFA20693946013001F062FDA1
:101B0000A0693946013801F05DFD2769A3690237F4
:101B1000A3F10208BCE60244013A02303B463946D2
:101B200001F01AFEA069B846821EDBE610B5044635
:101B300082B080B101F096FF204600F083FF02AB37
:101B4000B0F87C4043F8040D1846C4F3C00401F01B
:101B50004BF803F039FD204602B010BD2DE9F041ED
:101B6000044684B00E4601F07DFF24B903F02CFD3D
:101B700004B0BDE8F081204600F064FF458EC36DDF
:101B8000039005F02005ADB29F6845B1B0F95450FF
:101B90002DB9406B01F0C2FE039B851C00E003469B
:101BA0005E6303A801F020F83B68012120469847B6
:101BB0003B6806460321204698473B688046002143
:101BC000204698470746204600F01AFA4346324618
:101BD00029462046009700F099F9204606F0D6FFE6
:101BE00003F0F2FC04B0BDE8F08100BF00B970471B
:101BF00030B5044683B00D4601F034FF204600F0B6
:101C000021FF036F00906846019300F0EDFF294625
:101C100001A804F095FE18B903F0D6FC03B030BD5E
:101C2000204600F00FFF019A0267034668460093C2
:101C300000F0DAFF204606F0A9FF03F0C5FC03B070
:101C400030BD00BF2DE9F04385B020B905462846D8
:101C500005B0BDE8F08304460E4601F003FF2046C0
:101C600000F0F0FEB0F954500390B5422AD0418EF6
:101C700001F0200189B219B16DB303462F4601E08E
:101C800003460F46DA6DA3F8546096680121336865
:101C9000204698473368804603212046984733689A
:101CA00000218146204698470646204600F0A8F9C4
:101CB000204600964B464246394600F027F920461A
:101CC00006F064FF03A800F08FFF03F07DFC2846B8
:101CD00005B0BDE8F083406B01F020FE039B871C3C
:101CE000D0E700BF2DE9F04F89B007460D4600F060
:101CF000A9FEC36D05909C6801212368384698476A
:101D0000236803218046384698472368022183468A
:101D100038469847236800218246384698478146CE
:101D2000059808F065F90646059808F069F9034634
:101D30000598448E04F02004A4B2B4B1B0F9542044
:101D4000B0F95840002A4ED091B2C06E0C44A4B2F3
:101D500080B103910292019306F0C2FD019B029AA9
:101D600003990FFA80FE80B205E021462246C06E3C
:101D70000028EED186461FFA89FC013ECBEB060B0C
:101D80006444013B0CF1FF3C8C44CAEB03030FFAA3
:101D90008BFB0FFA88F804446B812A80A5F802E0D7
:101DA000A5F812C0A5F808B0A5F810B0A5F80480F1
:101DB000A5F80C80A5F80E90EC8005A800F014FFA3
:101DC00008AAB5F9103042F8043D3846B5F90C3090
:101DD000069306A900F04CF8069A079BAA812B826D
:101DE00009B0BDE8F08F406B019301F097FD023020
:101DF00081B20C4402B2A4B20598019BB7E700BFC0
:101E000008B5438E03F020039BB24BB10246B0F9F4
:101E1000540000B108BD506B01F080FD023008BDD8
:101E2000184608BD70B58AB00C46064600F00AFE9A
:101E30000AABC26D43F8280D1846956800F0D4FE31
:101E40000196032C05D8DFE804F00F0C09021723D4
:101E500002936B6801A898470AB070BD15230293DE
:101E6000F7E716230293F4E718230293F1E700BF84
:101E70002DE9F04383B088460446914600F0E2FD28
:101E8000034602A8DA6D40F8083D9568B3F9007082
:101E9000B3F9026000F0A8FE2B68204600219847A5
:101EA0000546204606F082FC60B3044607E001A820
:101EB00000F09AFE204606F0B7FC044610B3204618
:101EC00000F0C0FDB0F9023001909B1B9D42EED1A5
:101ED000836A1B060BD5B0F90030D9F80020DB1B54
:101EE000934203F1FF33E2DCC9F80030DFE7B0F9D9
:101EF0000430D8F80020DB1B9342A4BF0133C8F89C
:101F00000030D4E703B0BDE8F08300BF2DE9F04F07
:101F100083B00E469B460546144600F093FD0DF136
:101F20000808C26D48F8080DD2F80890FFF768FF5E
:101F30000746404600F058FED9F8003001212846F7
:101F40009847D9F800300321824628469847D9F8A7
:101F500000308046002128469847B742814644D049
:101F6000284606F023FCBE1B0546002844D00C9BE7
:101F70000027C8EB0B0BC3EB0909C4EB0A0AB846F0
:101F80000AE0B4F5007F10D001A800F02DFE28462D
:101F900006F04AFC054678B3284600F053FD846AF3
:101FA000019004F42074802CEBD1BEB9836A1A0628
:101FB00009D49B05E8D507FB06A14A46284607F049
:101FC0004FF90137E0E708FB16B14A46284607F00B
:101FD00047F9019B08F101089B6AEAE72846324667
:101FE000314607F0DDF90198E0E7A245B8D1D845C0
:101FF000B6D10C9B9842B3D103B0BDE8F08F00BFBF
:1020000070B586B0064600F01DFD034606A89C6E1E
:1020100040F8183DDD6E00F0E7FD84B96DB1304643
:1020200001A9FFF75FFEBDF90A20BDF90630BDF931
:1020300008102846D21A07F0D5F806B070BD304611
:1020400001A9FFF74FFEBDF90A20BDF9081020468F
:1020500007F0C8F8BDF90A00BDF90E20BDF90C3033
:10206000BDF90810121A591A20460132013107F041
:1020700005FC002DD7D106B070BD00BF2DE9F0439F
:10208000456887B00446284606F0DCFB074600F0AA
:10209000D9FC034606A85E6E40F8143DD3F848808C
:1020A000D3F8809000F0A0FD23680E3B232B3FD88F
:1020B000DFE803F035463E3E3E3E12123E123E3E03
:1020C0003E3E3E3E18243E3E2B3E3E3E3E3E3E3E83
:1020D0003E3E3E3E3E3E3E30204606F009F807B00A
:1020E000BDE8F083E368002BF9D0B9F1000F3BD0D5
:1020F0004D4539D0484607F0ABFAF0E7214638465F
:1021000005F044FD07B0BDE8F083C4F80C8007B0CB
:10211000BDE8F0830023E36007B0BDE8F083E36827
:102120005A68002A04DD1B68092B1DD00A2B1FD01A
:10213000002ED1D067602046B04707B0BDE8F083DD
:102140006FF07043984504D0404605F0CBFA00F09C
:1021500097FD002EC3D094E80F0002AC84E80F0076
:1021600020460395B047BAE7284607F0DDFAB6E700
:10217000284607F021FBB2E738B5204B204C1D68FC
:1021800001F070FC284605F0ADFA03F01DFA1D4B76
:102190001D6801F067FC284605F0DEFA03F014FA2A
:1021A00001F060FC236801221A7603F00DFA01F0B9
:1021B00059FC236800259D8503F006FA01F052FCC6
:1021C00023685D8503F000FA01F04CFC284605F019
:1021D000DBFA03F0F9F90C4B1D6801F043FC2368AE
:1021E00005B1DD6103F0F0F901F03CFC2368002249
:1021F0009A76BDE8384003F0E7B900BF74000020CC
:1022000078000020700000206C0000202DE9F04FC5
:102210004F4E3368DA69B3F92250D469B4F80CB080
:1022200083458BB07DD8E18981427AD321680891BA
:102230004FF0FF31CBEB000B0791BBF1FF3F6AD0B2
:10224000177EB3F92A80A27CB3F9249094F810A0E9
:1022500017FB02F34046069305F096FA3368069A98
:102260000899099002FB0B109A6BDB6904900592A8
:10227000A27C03924FF0010BCDF808B0DA7E0192F8
:102280009B7E009328463B465246494604F0DAFCC2
:10229000079801301CD048F0020005F075FA2C4A6E
:1022A000079812680899069B03FB0013916BD2698B
:1022B00005910493A37C0393CDF808B0D37E0193DA
:1022C000937E009352463B464946284604F0BAFCAA
:1022D00033681F4FDB695A7E1B7E9A4214D9B8F1CE
:1022E000020F11D088F0040005F04EFA3B68DB695C
:1022F000187ED97E9A7E5B7E00FB01910AFB02521A
:102300004B44284604F0AEFE9DF8240005F03CFA4C
:102310003368B3F92250627C15445D840BB0BDE88C
:10232000F08FA1680029F6D00F88B842F3D3B1F836
:1023300002E08645EFD34968C01B80B26768089702
:1023400001EB800731F920B0B7F90210079174E76B
:1023500078000020044B1B68DB69DB6909B11A7C3B
:102360000A60587C704700BF7800002002230B8071
:10237000704700BFC3699A898A4202D8DA898A42C3
:1023800011D2986818B10388994201D20020704791
:1023900042888A42FAD3C91A436833F82100C043FD
:1023A000C0F3C03070470120704700BF2DE9F04FE7
:1023B0003E4D2B68DA69B3F92A60D36989B043B11D
:1023C0001A88904202D35988814205D29B68002B1B
:1023D000F6D109B0BDE8F08FD3F80480DFF8CC90D7
:1023E000841A08EBC407304697F802B005F0CCF920
:1023F0008246286818F83420D0F81CE0D0F838C09D
:102400009EF81830B0F92410B0F92200CDF814C0AD
:1024100006934FF0010C7B680493CDF80CB0CDF817
:1024200008C09EF81BC0CDF804C09EF81AE0069BB9
:10243000CDF800E004F006FC2B68DA69537E92F8D0
:1024400018B05B4523D9022E069320D0D17E079188
:1024500001F01EFA064601F0E5F902F04BFED9F84C
:10246000002018F834C0D469B2F9220094F81BE0B7
:102470000799B2F92440069B0CFB0E0201FB0343B3
:1024800001FB0B4104F0EEFD304602F033FE5046F6
:1024900005F07AF92B687978D8695A8C807E00FB30
:1024A00001225A8409B0BDE8F08F00BF78000020F7
:1024B000114B70B41B68DD69EB6943B11A88904217
:1024C00002D35C88844205D29B68002BF6D1184663
:1024D00070BC70475E68AC7E821A06EBC2035B7804
:1024E00013FB04F00029F3D016F8323014FB03F389
:1024F0000B6070BC704700BF7800002001230B8088
:10250000704700BFC06950B103888B4202D843882E
:102510008B4203D280680028F6D1704701207047B3
:102520002DE9F047234E3368002B3FDD224D234F2A
:102530002C68D7F80090C3EB431804EB880808F127
:102540000C080C344FF0000AA4F10803742218465A
:102550004946FDF793FE221F2063A06344F80CACAC
:102560006263E4607C34A045EED10024A04603E021
:1025700092B13268904514DA0CF0C0FA2B681A59FF
:10258000904203EB040108F1010804F17C04EFD14F
:1025900004313960BDE8F087086004313960BDE876
:1025A000F087194604313960BDE8F087024B034FCC
:1025B0001968EDE73401002004170120780000209D
:1025C000F8B5194F194B1A4E384640F80C3F04F035
:1025D000A3F93468C4EB4414A400204600F006F9C3
:1025E000144B386022461B68002198474FF0FF3398
:1025F00073600CF089FA3368002B11DD0024254646
:1026000003E072B133689D420ADA0CF077FA3B6856
:102610001A599042234405F1010504F17C04F0D1DC
:10262000F8BD1860F8BD00BF0417012085DC000864
:10263000340100204001002000B9704710B5044665
:1026400001F010FA204608F08DFC044602F0BCFFB1
:10265000204610BD70B5054601F004FA25B90024E6
:1026600002F0B2FF204670BD01F0FCF9284608F0E8
:1026700079FC044602F0A8FF002CF0D0144E154956
:10268000F269736B0132F26113F83420013203F8FE
:10269000342003EBC4032A465D680B6805F108008B
:1026A000002198472968726B12F83130012B01D94B
:1026B000F06930B9013B02F8313002F085FF204665
:1026C00070BD0138013BF06102F83130F5E700BF21
:1026D0009417012040010020024B21F0030183E800
:1026E00003007047B415012000B9704770B50D4C58
:1026F000054601F0B7F9636BEE003344596848684A
:1027000008F082FA626B6368616A16440133002044
:102710006360716002F835006562BDE8704002F0E8
:1027200053BF00BF9417012028B1034AD36B036045
:1027300003B15860D063704794170120F8B505467F
:1027400001F090F92C68B4B10E4E01F08BF9736B67
:10275000E7003B445968486808F056FA716B7368A3
:10276000726A0F440133002073607A6001F834000C
:10277000746202F029FF00232B60BDE8F84002F0EC
:1027800023BF00BF9417012000292BDD2DE9F0475E
:102790000025154F8A46041FA94601F063F954F835
:1027A000046F0135B6B101F05DF97B6B4FEAC608E5
:1027B00043445968486808F027FA796B7B687A6A5D
:1027C000884401337B60C8F8042001F836907E62AB
:1027D00002F0FAFEC4F8009002F0F6FEAA45DCD141
:1027E000BDE8F087704700BF94170120F8B5894E07
:1027F00096F828300446002B2FD00334356CF26B4A
:1028000024F003040434A54238BF254662B152F8CF
:10281000043C9D42144604D114E054F8043C9D420B
:1028200010D02468002CF8D1F368B46B1C4454F821
:10283000041C611A0B68002B65D14B689D426CDD4E
:10284000002408E023680BB161685960616801B138
:102850000B60A24253D02046F8BD6F4B9A6858686F
:10286000012186F828100AB982089A605A25356233
:1028700010272022402519683764B2643565802707
:102880004FF480724FF40075B7653266B5664FF449
:1028900080674FF400624FF48055A1F1140337674D
:1028A000B267C6F880504FF400574FF480424FF49F
:1028B00000450344C6F88870C6F89020C6F89850C2
:1028C0004FF480374FF400324FF48025C6F8A070E3
:1028D000C6F8A820C6F8B050022201254FF4002700
:1028E000B16373633261F060C6F8B8705D607562A1
:1028F000756008F089F90AF06FF935637DE72368A0
:10290000F3632046F8BD00200BF070FC54F8041C63
:10291000611A0B68002B93D18FE7D6F8B8703D4A47
:10292000581B041DBB420C4472D2D2F8B070BB429B
:102930006CD2D2F8A870BB4266D2D2F8A070BB426B
:1029400060D2D2F898709F425AD9D2F89070BB42A8
:1029500054D2D2F88870BB424ED2D2F88070BB42BB
:1029600048D2926F934243D2376F2A4ABB423DD23C
:10297000976EBB4238D2176EBB4233D2976DBB42C3
:102980002ED2176DBB4229D2976CBB4224D2126C57
:1029900093420CD2F2687369521B2B44F26073614C
:1029A00010B944F8045C56E708F02EF9F9E7002264
:1029B0003768D1F808E0FB1A3360CB68BEF1000F2E
:1029C00001D0CEF8043013B1C3F800E0E2E706EB23
:1029D000C202C2F844E0DDE70122E9E70222E7E7AC
:1029E0000322E5E70422E3E70522E1E70622DFE729
:1029F0000722DDE70822DBE70922D9E70A22D7E729
:102A00000B22D5E70C22D3E70D22D1E70E22CFE728
:102A10000F22CDE794170120B415012030B1044BEB
:102A20005B6B03EBC000436858680C38704700BF0D
:102A300094170120024A936901339361704700BFE4
:102A400094170120074AD169536B0131D16113F802
:102A50003020013203F8302003EBC00358680830FF
:102A6000704700BF94170120F8B5584C00F0FAFFEA
:102A700094F82830002B57D0D4F8BC30534A9BBB75
:102A8000D2F8B43083BBD2F8AC306BBBD2F8A430F0
:102A900053BBD2F89C303BBBD2F8943023BBD2F866
:102AA0008C300BBBD2F88430F3B9D36FE3B9536FDA
:102AB000D3B9E36EC3B9536EB3B9D36DA3B9536D34
:102AC00093B9D36C83B9536C73B96FF00B0340495E
:102AD000DA1781FB0313C2EB6313246A04FB03F4CC
:102AE00002F072FD2046F8BD9B68002BF5D0002255
:102AF00001E09B6843B159689B689142104684BFCE
:102B00000A461046002BF4D10C38B0F5800F03466E
:102B1000DDD8226A2E4B02FB00F0A3FB00235C09E8
:102B200002F052FD2046F8BD2A4B9A6858680121F0
:102B300084F828100AB982089A601968A1635A2695
:102B40001022202526622264A564402780264FF4A7
:102B500080724FF40075A1F114032765A665226603
:102B6000A5664FF480674FF400664FF480524FF42F
:102B7000005503442767A667C4F88020C4F888502E
:102B80004FF480474FF400464FF480324FF4003545
:102B9000C4F89070C4F89860C4F8A020C4F8A85095
:102BA000022201254FF480274FF40026636322613F
:102BB000E060C4F8B070C4F8B8605D6065626560DC
:102BC00008F022F80AF008F8256355E79417012069
:102BD0001F85EB51B4150120024A9369013B9361B3
:102BE000704700BF9417012030B403680A4A53F8B5
:102BF000085C0446506B10F83530012B03D9D169BD
:102C000009B10139D161013B00F83530002210468D
:102C1000226030BC704700BF94170120034B5B6BF0
:102C200003EBC00040680830704700BF94170120D4
:102C3000C3B2CAB29A1A92B230B415B2002DBCBF58
:102C4000524215B2C0F30723C1F307229B1A9BB26D
:102C5000090C1AB2C1EB1041002A89B20CB2BCBFF8
:102C60005B421AB2002CBCBF49420CB202FB02F21A
:102C700005FB0520A1B201FB010030BC704700BF7D
:102C80002DE9F041002182B0084600F05DFE00F021
:102C9000E9FE042004F078FD174B1B69DD6C1C6D08
:102CA000A5F57F57A4F57F5605F57F5504F57F54AC
:102CB00080463F3F3F353F3E3F346846ADF80070A9
:102CC000ADF80450ADF80260ADF8064007F0A0F989
:102CD00048B123462A463146384604F0C3F907F086
:102CE0002BF80028F5D1404604F04EFD02F06CFCB4
:102CF00002B0BDE8F08100BF680000202DE9F04778
:102D0000044682B00D461646002B38D09A460096EF
:102D100026680B9B0A9A51462046B047074618B9C9
:102D2000384602B0BDE8F08705F0C4FC618A8046F1
:102D3000384605F017F8384606F0E2FD013D4046FA
:102D400006F0DEFD002DC8BF4FF0000904DC1AE0DC
:102D500006F0D6FD013D16D054F81C6FCDF800905A
:102D6000002320461A464146B04706460028EFD1C8
:102D7000384605F0EDF9304602B0BDE8F08705F0C1
:102D8000A7FC8246C3E740461D2106F0A7FBBAF127
:102D9000FF3FC5D000F066FE05F016FD60B9BA45EC
:102DA00002D0384606F0C0FC02F00EFC384602B0F5
:102DB000BDE8F0870028F4D0FFF730FF8069874234
:102DC000F8D1F1E7012B12DCF8B506461C201746B6
:102DD0000C461D46FFF70AFDB8B154B1046100234B
:102DE000836085618782C66003604360F8BD002010
:102DF0007047074B53F825200AB9F0E71A461368C5
:102E0000002BFBD113690361E9E70020F8BD00BF87
:102E10006C180120012B3BDC2DE9F84381461C2076
:102E200090460F461E46FFF7E1FC054600287FD07E
:102E3000414A002F31D00023DFF804E152F8264048
:102E400003609EF8001007618E428661A0F814802E
:102E5000C0F80C904360836002DB731C8EF8003076
:102E6000002C5DD021464C68002CFBD1D9F8000025
:102E7000CB681B6883422CDD09680029F8D148B96A
:102E80002E4B16361A68284642F82650BDE8F883BD
:102E9000002070472846BDE8F88352F82610002924
:102EA00030D0084600E018460368002BFBD1DFF85D
:102EB00090E000692B6028619EF80000AE618642B8
:102EC000A5F81480C5F80C906B60AB60CBDB0C46AA
:102ED000C3E70AD04B6843B31D606B608D4214BFDB
:102EE0000B4600234D602B60C9E7B8F1010FF1D10B
:102EF00004E0D9680C6884421946EBDB0B68002BB0
:102F0000F7D1E7E7DFF838E001609EF8003086612E
:102F10009E42A0F81480C0F80C9041608160D6DA1F
:102F200042F82650D9F80000A9E742F82650D5E724
:102F30000020BDE8F88300BF6C1801207800002055
:102F400065180120FFF7F0BB00283CD070B48469FD
:102F5000012C03DD0123184670BC70471E4B1F4D2A
:102F60001A789442A4BF621C1A7055F824300BB929
:102F70002FE013465A68002AFBD1C268116802E0AC
:102F80001B68002BE6D0DA6812689142F8DB0DD09E
:102F90005A68DAB110604260984214BF1A460022A3
:102FA00058600023026070BC18467047828A012A6C
:102FB000EED104E0D3681E68B1421346E8DC1A681B
:102FC000002AF7D1E4E701231846704745F82400AA
:102FD000E2E745F82400BEE7651801206C180120DF
:102FE00000284DD02DE9F041DFF89CE0254F9EF8F8
:102FF0000060BC4602E02846002D27D084690568A1
:10300000012CF8DCB44257F82430A4BF661CF6B299
:103010000BB932E013465A68002AFBD1C268116826
:1030200002E01B68002BE6D0DA6812688A42F8DCFE
:1030300010D05A68A2B110604260984214BF1A467C
:103040000022586002602846002DD7D18EF800601B
:10305000BDE8F081828A012A0BD05A68002AEAD1A1
:1030600047F82400E9E7D368D3F800808845134681
:10307000DFDB1A68002AF6D1DBE74CF82400BAE758
:10308000704700BF6C180120651801200F4A816944
:1030900052F8213098420AD042680AB1036813609E
:1030A000036803B15A6000230360436070470368FC
:1030B00042F821302BB100225A604268002AEED13A
:1030C000F0E74268002AEAD1EDE700BF6C18012062
:1030D0000020704701280EDC084B53F8200058B13F
:1030E000C3681B681BB908E0C3681B6823B100688C
:1030F0000028F9D170470020704770476C180120F4
:1031000000B970472DE9F04182B01E4615460C46C5
:103110000746FFF797FC02AB026843F8040D184618
:10312000D2F80080FFF760FD33462A462146384634
:10313000C04702B0BDE8F0812DE9F84307460BF027
:10314000DFFC07440BF0DCFC3E1A002EDFF8609039
:10315000DFF8608022DD00F0D1FAD9F800309E421D
:10316000A8BF1E4600F07EFCD8F80040FFF762FCC6
:10317000B4B1254602F028FA013DFBD130460BF0F0
:10318000BBFC00F06FFC013CFBD1FFF725FD02F01A
:103190001BFA0BF0B5FC3E1A002EDCDCBDE8F88310
:1031A00030460BF0A9FCFFF717FD02F00DFAF0E72F
:1031B0007C0000200817012020B3F0B50C4683B036
:1031C0000546164600F04EFCD4B1204606F088FBBA
:1031D000074638B168463A46214603F071FA684618
:1031E00006F07EFB3246214647F6FF73284602F082
:1031F00081FC384606F074FB02F0E6F903B0F0BD3E
:103200002746EFE7704700BF2DE9F04FDFF8F49055
:1032100089B0044690460F4600F024FCD9F80030EF
:103220002088DA6C1D6D63881744A844421E013B58
:103230003A44434406A8ADF81870ADF81A80ADF8CA
:103240001C20ADF81E3006F0E3FE00284ED0DFF85B
:10325000B8A0CB461AE040F0020001F057FF216908
:1032600021B3D4F80CE0A668638822888DE840403A
:103270000120039002900E6838464146B047284628
:1032800001F044FF06F058FD00282FD00020E6682A
:1032900001F03CFF054616B13379002BDBD125F058
:1032A000020001F033FF21690029DAD1D9F80020AA
:1032B000DAF80030527CE06821469847E188D0B1C6
:1032C00063882288A6680590A08802910121039056
:1032D0000191009138464146049603F0B3FC28461C
:1032E00001F014FF06F028FD0028CFD102F06CF9A0
:1032F00009B0BDE8F08F012904BFDBF80030986BFE
:10330000DEE700BF780000206800002070B582B0C2
:103310000A460146684603F0EFFA00F0A3FB284B8B
:10332000BDF800401B68BDF80410B3F84C60B3F85A
:103330005050BDF80220BDF80630344431442A44D0
:103340002B446846ADF80040ADF80410ADF80220FB
:10335000ADF8063006F05CFE68B3BDF90040BDF97B
:1033600004309C420EDC2046BDF9021003F01AFE28
:103370002046BDF9061003F015FEBDF904300234F5
:103380009C42F0DDBDF90240BDF906309C420EDCE6
:103390002146BDF9000003F005FE2146BDF90400F9
:1033A00003F000FEBDF9063002349C42F0DD06F069
:1033B000C3FC0028D1D102F007F902B070BD00BFF4
:1033C000780000202DE9F04F91B081461E460F464F
:1033D000904600F047FB644B1C68E56C246DA01917
:1033E000E11905EB090305EB0802044601900EA85C
:1033F000079308920291ADF83830ADF83C20ADF853
:103400003A10ADF83E4006F003FE002800F091802F
:10341000019B029A9DF868409DF86C70C2EB030B0B
:103420001A9AC2F307201B9AC2F307261A9AC2F30C
:1034300007411B9A0BEBDB735B10C2F3074E1A9A22
:103440000BFB04353C1B120E06940BFB0034301AA8
:1034500003900BFB01300BFB02330D931B9B0A9572
:10346000C1EB0E01C2EB13630B940C900491059316
:103470005E4600F00DFA1A9B1B9A0990934269D0A0
:10348000002E52D0029D019A95425BDC0AAF0246A3
:1034900097E880074FF0010B06E00BF1010B019B51
:1034A0000135AB4222462FDB9AFBF6F399FBF6F48B
:1034B0001B0697FBF6F143EA044398FBF6F441EA56
:1034C000042405991C43039B8A4404999844029B55
:1034D00089440699AB4210460F44E0DA9442DCD0AE
:1034E00004F03AF9BBF1010FCBEB050105F1FF3315
:1034F000089A079822D003F0B5FD019B0135AB4235
:103500004FF0010B2246CFDA204604F025F9BBF13B
:10351000010F19D0019B089A0798CBEB03010131E9
:1035200003F0A0FD099804F017F906F005FC002847
:103530009FD102F049F811B0BDE8F08F691E03F089
:1035400007FDACE704F008F9089A0199079803F021
:10355000FFFCE7E7184604F0FFF8019B089A029980
:10356000079803F07FFDDDE778000020F0B5144FE9
:1035700083B006460D46144600F074FA3B68196D98
:10358000DA6C0E4433B2154414446846ADF800506A
:10359000ADF80440ADF80230ADF8063006F038FD65
:1035A00050B13B685B6E22461B68314628469847FF
:1035B00006F0C2FB0028F4D102F006F803B0F0BD1B
:1035C0007800002070B5134E82B005460C4600F01E
:1035D00049FA3368DA6C1B6D15441C442AB223B2D5
:1035E0006846ADF80420ADF80020ADF80630ADF81F
:1035F000023006F00DFD48B133685B6E21465B6812
:103600002846984706F098FB0028F5D101F0DCFF2A
:1036100002B070BD780000202DE9F04782B004466A
:1036200089469246984600F01DFA1E4B1F683E7E62
:10363000FD6C3F6D013EB6B22C44B9445544B844CC
:10364000A11B7219C6EB090368464644ADF8001089
:10365000ADF80420ADF80230ADF8066006F0D8FCF5
:10366000D8B109F1010708F1FF362A46494620463C
:1036700003F06EFC2A464146204603F069FC3246C0
:103680003946204603F0C4FC32463946284603F04A
:10369000BFFC06F051FB0028E7D101F095FF02B016
:1036A000BDE8F0877800002070B582B00646144669
:1036B0000D4600F0D7F9104B1A68D36C126D1E44FA
:1036C00033B2154414446846ADF80250ADF80640D4
:1036D000ADF80030ADF8043006F09AFC40B1224657
:1036E0002946304603F094FC06F026FB0028F6D16C
:1036F00001F06AFF02B070BD780000202DE9F041B2
:10370000124F134EDFF84C8000253C681CB1A047D7
:10371000041C18BF012404F04FFE3368002818BFB2
:1037200001244BB1984738B1D8F8003013B10124C7
:1037300098473CB10125E8E7D8F80030002BF7D1D5
:10374000002CF7D12846BDE8F08100BF9018012079
:10375000941801208C180120F0B583B00746164656
:103760001C460D4600F07EF9104B1B68DA6C1B6D91
:10377000174416441D441C446846ADF80070ADF86B
:103780000460ADF80250ADF8064006F041FC48B1C7
:10379000234632462946384603F064FC06F0CCFA4C
:1037A0000028F5D101F010FF03B0F0BD7800002033
:1037B000F0B583B0B0F90070B0F90260B0F9045010
:1037C000B0F9064000F04EF9104B1B68DA6C1B6D27
:1037D000174415441E441C446846ADF80070ADF80B
:1037E0000450ADF80260ADF8064006F011FC48B197
:1037F00023462A463146384603F034FC06F09CFA4C
:103800000028F5D101F0E0FE03B0F0BD7800002003
:10381000034B53F82000C36808219B6A184700BF78
:103820006C18012010B500F01DF903F05BFC03F0EB
:10383000AFFD044601F0C8FE204610BD10B5044699
:1038400000F010F9054B1B68DB6900215B6820461E
:103850009847044601F0B8FE204610BD78000020CD
:1038600038B504460D4600F0FDF8064B1B68DB69D1
:1038700029465B6820469847044601F0A5FE20468D
:1038800038BD00BF7800002008B104F0F9BE7047D1
:1038900010B500F0E7F803F02DFC03F079FD0446C5
:1038A00001F092FE204610BD10B500F0DBF8044B8D
:1038B0001B68DB695C7E01F087FE204610BD00BFFF
:1038C0007800002038B505460C4600F0CBF8064AD3
:1038D000064BB2F90020B3F900302A602360BDE83E
:1038E000384001F071BE00BF5A1801205C18012059
:1038F00010B5044602F094FE01462046BDE8104093
:1039000002F022BE04483423352161220170027185
:103910008370C370704700BF24010020027EC07E08
:1039200002FB00F0704700BF024B53F820301B69C8
:10393000186870476C180120024B53F820301B693F
:10394000586870476C18012038B505460C4600F0E1
:1039500089F8044B1B685D849C8401F035FE0020CF
:1039600038BD00BF7800002090B583B000AF344A66
:10397000334B1B6823F001031360324B01221A60A2
:1039800000BF304B1B68002BFBD12F4B2F4A1A6016
:103990002D4B1B682E4A934200D0FEE702F010F830
:1039A0002C4B2E221A700BF0ADF82B4809F016FFA5
:1039B0000AF0A0FF786003F03BFC0346002B0CBF2D
:1039C00001230023DCB203F079FC0346002B0CBF7B
:1039D00001230023DBB22343DBB2002B09D003F029
:1039E0003DFC044603F080FC03461946204603F0E4
:1039F000C5FE0021002001F0A5FB04F0ABFFFEF79F
:103A00008FFD164B1B68002B12D00DE0134B1B686B
:103A10001B68002B03D0114B1B681B6898470F4B8A
:103A20001B685B680D4A13600C4B1B68002BEDD1C3
:103A30000B4B01221A707B6818460C37BD4690BDAF
:103A4000002000E00830024000300240C2A507F428
:103A5000CDB5E8B558180120C81501204016012041
:103A6000641801202DE9F041234D6B6823B10BF060
:103A700045F8AB68984204D00BF086F80BF03EF89E
:103A8000A8606B680133012B6B6001D0BDE8F08149
:103A90001A4F3B68002B29DD0024264606E042B37E
:103AA0003B6801369E4204F17C041FDA0BF026F8D5
:103AB0002B681A5990422344F1D17B68B342E5D078
:103AC000002B10DB2A68C3EB431302EB8308FFF7DC
:103AD000FFFA2B68C8F878001C44094BA06F043427
:103AE0001C60FFF77DFA7E60BDE8F0810024264669
:103AF000E3E71860E1E700BF04170120340100206C
:103B00007800002010B582B028B9134B1B681C6EDA
:103B100014B902B010BD0446FFF7A4FF2046FEF71B
:103B200091FF02AB446943F8080D1846FFF75CF8B3
:103B30001CB901F049FD02B010BD2046FEF782FF1E
:103B400002AC826844F8040D936898472046FFF75A
:103B50004BF801F039FDEEE77800002000B970471E
:103B6000014A114600F002B801F0FFFF2DE9F047CD
:103B700084B00C4615460646FFF774FF002001F09E
:103B8000C5FADFF8E480D8F80030814630461F6E71
:103B9000FEF758FF03680090986901F07FFA314BF7
:103BA0009C42009B04BFB3F90440B3F906501A8944
:103BB0005B89ADF80840013A013B22442B44824620
:103BC000ADF80C20ADF80E30ADF80A5004F0EEF868
:103BD0006846FFF709F802A806F01AFA48BB5046F3
:103BE00001F05CFAFFF73EFF002F38D0D8F8003024
:103BF0001B6E8BBB04F06CFA3846FEF723FF04AC57
:103C0000D8F8003044F80C0D1F660068FFF79CF9E7
:103C10002046FEF7E9FF03F00BFE03F08FFD01F0F5
:103C2000D3FC484601F072FA01F0CEFC04B0BDE8C6
:103C3000F0872A462146304600F0A0FC06F07CF8CA
:103C40000028CCD02A462146304600F097FC06F0EA
:103C500073F80028EDD1C2E701F012FACAE701F0CB
:103C60000FFADCE701F0FFFF780000202DE9F043B8
:103C700085B00646904699460F46FFF7F3FE1C4A6C
:103C80001C4B1268507C53F8204001E02468FCB1C2
:103C9000E3681A68042AF9D1DB6A012120469847B3
:103CA0000546D8B12469A3689847013018D00C9B09
:103CB0000294009301954B4642463946304600F047
:103CC000E3FA044601F080FC204605B0BDE8F0832D
:103CD000FFF700FA044648B1C368DDE70446F1E7A0
:103CE0000C9B054C43F001030C93E0E72046ECE706
:103CF000780000206C1801200C2F010800B97047D3
:103D000010B582B00446FFF7ADFE104B1B681B6E6A
:103D10009C4217D02046FEF795FE4369019063B997
:103D20000068FFF70FF901A8FEF75EFF2046FEF7D7
:103D3000DBFC01F049FC02B010BD184601F02AFC82
:103D40000198EDE701F09CF9E4E700BF780000205E
:103D50002DE9F04F87B0064692461C468946FFF78C
:103D600081FE564B1A68564B577CDB57012B384661
:103D700040F3978003F062FA0546384603F0A4FA50
:103D80000746002E00F08A8005A904A8FFF79AFDD7
:103D9000049A059BB6F900C0B6F90200B6F904E032
:103DA000B6F9061015441F44013D2CEAEC73013F9F
:103DB00020EAE072029303927545D4BFC3EB05037A
:103DC000C3EB0E038F42D4BFC2EB0702C2EB01026A
:103DD0001D4617460135013704B97C42002D4FDDE1
:103DE000002F4DDD109B00932A462346039902982D
:103DF000FFF73CFF8046002848D000F099F8874242
:103E0000064604D02D4B1B68986C002851D14046C3
:103E100000F09CF9DFF8ACB03D4600240EE0AD1B8D
:103E2000ACB95046C847DBF800303444FF2003B13A
:103E300098474046FFF792FEA74212DDAE42EEDD04
:103E40002946404600F062F9AD1B002CE9D0039BE7
:103E5000029940461A1900F0A9F94046FFF752FEB0
:103E6000DFE74046FFF74AFF002000F06FF9B74256
:103E700006D0124B1B68986C10B1332106F024FE5B
:103E800001F0A2FB002007B0BDE8F08F5046C84704
:103E900001F09AFB012007B0BDE8F08F039602966F
:103EA0009AE703F075F90546384603F09BF9074693
:103EB00067E7322106F008FEA9E700BF780000207E
:103EC000681801204417012030B5044683B098B12A
:103ED000FFF7C8FD2046FEF7B5FD036802AD1B697C
:103EE00045F8040D9B68984703F002FE04462846F7
:103EF000FEF77AFE01F068FB204603B030BD00BF3C
:103F0000A0B110B5044682B0FFF7ACFD2046FEF725
:103F100099FD02AB00F1180443F8040D1846FEF7B2
:103F200063FE01F051FB204602B010BD704700BF98
:103F300010B5044682B0FFF795FD7CB12046FEF730
:103F400081FD02ABB0F90A4043F8040D1846FEF7B4
:103F50004BFE01F039FB204602B010BD044B1B683C
:103F60001C6E002CEAD101F02FFB204602B010BDE0
:103F7000780000202DE9F04FDFF888B189B00646BF
:103F800005273046FEF75EFD034607A8B3F900801B
:103F9000B3F90440B3F90290B3F906500793C8EBA4
:103FA00004040134D3F824A0C9EB0505FEF71CFE78
:103FB000002C05F1010555DD002D53DDBAF1000F90
:103FC00055D104F085FB86427FD04A4B01934FF0D8
:103FD000010A494640462B462246CDF808B0CDF8A6
:103FE00000A000F051F980463046FEF72BFD079007
:103FF000C0F82480B8F1000F60D0836ADFF8089120
:1040000043F48033836207A8FEF7EEFD404600F0DC
:104010009DF80590504601F02FFB4046FFF770FFDA
:10402000354A364B1978136805FB04F29200344C7C
:10403000984730462568C9F8006004F011FC2060FC
:10404000304606F055FC002210462560C9F80020D5
:1040500001F012FB059800F079F83046FEF7DEFD1E
:10406000406AF0B9013F8CD109B0BDE8F08F5046ED
:10407000FEF7E8FC034608A8B3F9045040F8083DF1
:10408000B3F90640FEF7B0FDA8450FD04A464146B9
:10409000504600F08BF83046FEF7C0FD406A00281D
:1040A000E0D000F0BFF809B0BDE8F08FA145D4D052
:1040B0004A464146504600F079F8ECE707A8FEF77B
:1040C00093FD304606F014FCCCE703F09BF88246E3
:1040D00003F0DEF8544503DC85427FF776AFA24655
:1040E0008542A8BF05462A465146304605F0C6FB24
:1040F00054466AE77838010840010020481701203B
:10410000901701200C2F01081839012030B50D46F9
:1041100083B028B90C4B1B681C6E14B903B030BDBA
:104120000446FFF79FFC2046FEF78CFCB0F90A30EE
:104130000190AB42C8BF458101A8FEF755FD01F0D3
:1041400043FA03B030BD00BF78000020F0B5164F31
:1041500083B00446FFF786FC3B681E6EE4B1C6B927
:1041600003F0B6FF2046FEF76DFC02AD3B6845F854
:10417000040D1C660068FEF7E7FE2846FEF734FDD6
:1041800003F056FB03F0DAFA01F01EFA304603B0F2
:10419000F0BD00F075FFE3E700F072FF01F014FAE4
:1041A000304603B0F0BD00BF7800002070B50D466A
:1041B00082B0164628B91A4B1B681C6E14B902B09F
:1041C00070BD0446FFF74EFC2046FEF73BFC36B2BE
:1041D0002DB2C6808580009003F0B0FA009B58692C
:1041E00030B96846FEF700FD01F0EEF902B070BD8F
:1041F000FEF728FC009A0190B2F90830B2F90A20C3
:10420000C280838013B10AB10580468001A8FEF701
:10421000EBFC6846FEF7E8FC01F0D6F9E6E700BFE4
:104220007800002000B9704770B5044684B0FFF7ED
:1042300019FC2046FEF706FC014601A8B1F904600E
:10424000B1F906500A894B89019132442B44013A55
:10425000013BADF80860ADF80C20ADF80E30ADF8BC
:104260000A50FEF7C1FC02A805F0D2FE40B12A4672
:104270003146204600F064F905F05EFD0028F6D1D5
:1042800001F0A2F904B070BD2DE9F04FDFF82C81E8
:1042900087B0D8F8004081468A4617461E461299D4
:1042A000637C11980022FEF78DFD00284DD0036934
:1042B0009B680546984703F01BFC00FB07F4834608
:1042C000FEF7D2FB109B073413F001034FEAD4042E
:1042D0003FD0002E2CDD002B42D004FB06F018301E
:1042E000FEF7AAF9034668B3002202921846039328
:1042F000FEF7A8FB024606A8029BA2F8049040F82D
:10430000042DA2F806A017815681D460C2F810B01F
:1043100053611560FEF768FC129B2B61D8F80020F2
:10432000039BAB60527CAA61184607B0BDE8F08FD2
:10433000002C34D1204676428642A8BF064693B36D
:10434000002ECADC2846FEF7FDFD002007B0BDE8C0
:10435000F08F0028B8BF0330801000EB4000B8E7B2
:1043600000933A4633465146484601F07FF80290A2
:1043700004FB06F01830FEF76DF903460028B5D1AE
:1043800028460393FEF7DEFD029B002BDDD0184686
:10439000FEF7AAF9039B184607B0BDE8F08F18385E
:1043A000B0FBF4F0C7E700933A463346514648461F
:1043B00001F05CF8002E0290DADCC3E77800002000
:1043C0002DE9F04F594C5A4BD4F800C0DFF86891F2
:1043D0009CF81150D9F8006053F825408BB0236940
:1043E000002E00F088801746DCF8602080460D46DD
:1043F000002A00F08580E2681268072A78D04D4ACA
:104400009A1AB2FA82F25209002A71D04046FEF797
:1044100019FB03460AA8B3F908B040F8083DB3F900
:104420000AA0DB680593FEF7DFFB404B18680BEB37
:104430000504B0F90C30013CE41AB0F90830002C46
:10444000CCBFC4EB0B045C469D42BDBF591B641A34
:104450001D460021002C50DD0AEB0703B0F90EE0E9
:10446000B0F90A000791013BCEEB0303002BC8BF54
:10447000C3EB0A0AB842C5BFC31BC3EB0A0A002339
:104480000746BAF1000F069337DD4046FFF738FDC7
:10449000264B07991A68069BD2F860C003FB0B11E4
:1044A00000EB8106BCF1000F30D06046FEF7CAFA7F
:1044B000B0F90430D0F80C800AAAED1AB0F9063031
:1044C00042F8040DAD001835FF1A08FB07570744E2
:1044D0001046FEF789FB87B1059B0193CDF800805C
:1044E000D9F800505346224631463846A84704E0E2
:1044F0003A46294640460AF023F80BB0BDE8F08F53
:10450000E2681268B2FA82F252097DE7507CDFF865
:104510002CE0CDF804A04FEA8B02029200943346BF
:104520003A462946DEF80040A047E6E7780000203A
:104530006C1801200C2F0108781801207418012034
:104540002DE9F04182B00F4690460646FEF77AFA12
:10455000036802ACDB6844F8040D16215B6A002096
:10456000984705462046FEF73FFB1DB142463946B7
:104570003046A84702B0BDE8F08100BF2DE9F04FFA
:10458000A1B00D9110B921B0BDE8F08F9246074659
:10459000FEF758FA20AB446943F81C0D1846FEF7A5
:1045A00023FB3846FFF790FC0828054602DD002C67
:1045B00000F0D98001234FF0000B38461F930A9377
:1045C000CDF878B0FEF73EFA0168DFF86884096933
:1045D0000446D8F80000E3684D68B4F908100F935A
:1045E00020AE23691491407CB4F90A10099346F86F
:1045F000144DD4F814901691FFF70AF9D8F800106A
:104600000890487CFFF798F904463046FEF7ECFA2C
:10461000099A0A9B082A40F2A080102A13468CBFF0
:1046200004230223CDF828B00E93A54200F0AC81FC
:10463000D8F80030587CFFF777F9149B06469800AD
:10464000FDF7FAFF129000289DD03846FFF758FC7E
:104650000746B9F1000F00F0F5804846FEF7F2F981
:10466000169B1C90002B40F38B8100230C930F9B17
:10467000CDF840A0FB1815931DAB11934FF0010826
:104680001946836800221D925B690C9A9847159B16
:104690000F9A9B1A0B93149B8342044600F03181BE
:1046A000099B012B00F0F280002845D01AAB139330
:1046B0001298FEF7C7F9099B1A90082B07461D9A16
:1046C00040F2D4800E9B0B99A34602FB031A81464D
:1046D0003AF8020BA847B047BBF1010B49F8040BAD
:1046E000F6D1089B1F2B04D838461A46214600F005
:1046F000D9FF0A9A059200220392089A1D98029205
:104700000D9A1A9B10990493104401232246CDF868
:104710000480CDF8008002F095FA1398FEF764FA51
:104720001C981D9B8268119957690C9A1C441D9412
:10473000B84704460028BBD1159A0F990C9B0A4430
:104740001592109A01321092169A01339A420C93E4
:1047500000F016811C98119993E7012A6ED11EABC7
:104760000E920A9361E73846FEF76CF920ABB0F978
:10477000088043F8100D02460168B0F90A0008905D
:1047800018460E69D2F80CB009920E93FEF72CFA77
:10479000A848A94900687368407C0C9351F8201020
:1047A0000C6923680A93FFF733F80828099A40D95F
:1047B00010288CBF2023102309938CBF4FF00409CD
:1047C0004FF00209A64200F02D82202D00F09E81BC
:1047D000102D7FF4D8AE08FB09F0FDF72DFF1090E7
:1047E00000283FF4D0AEFEF72DF91E903846FEF7B4
:1047F00029F91C90236900F118020B92002B00F09C
:1048000022827369002B00F01E82B0F9080080003C
:10481000FDF712FF0F90002840F069821D900E985E
:10482000FEF7E2F91EA8FEF7DFF91098FDF75CFF2E
:10483000A9E6082309934FF00109C3E70E93CDF8C9
:1048400028B0F2E60A9B05930F9B03930124099B72
:1048500004900293149A169B0D980194514600946B
:1048600002F0F0F91298FDF73FFF8CE60E9B0B99D2
:10487000A14602FB031B82461BF8010BA847B04769
:10488000B9F101094AF8040BF6D12AE700283FF4F0
:1048900053AF17960C9F0A9EDDF84090DDF834A0C8
:1048A000DDF844B01395DDF874E00B9D05960EF02D
:1048B000070006900AEB0E00BEF1000FB8BF0EF124
:1048C000070E05EBEE0E0F9DCDF810E022460123FA
:1048D00049460395CDF80880CDF80480CDF80080D6
:1048E00002F0B8FF1C981D9B82681C44594653690E
:1048F0001D943A46984704460028D4D1139D179E2C
:104900001AE71298FEF79EF8099B1A90082B814629
:10491000149FDDF82CA0044629D93AF8020BA847C9
:10492000B047013F44F8040BF7D1089B1F2B04D874
:1049300048461A46149900F0B5FE0A9A059220AB33
:104940001A460D9852F8183D04931446002203921B
:10495000089A0292CDF80480CDF800800123149AC1
:10496000109902F06FF92046FEF73EF9E4E61AF8D6
:10497000010BA847B047013F44F8040BF7D1D4E737
:104980001CA8FEF731F96DE73846FFF7B9FA07467C
:10499000B9F1000F00F0A9804846FEF753F8169BC6
:1049A0001C90002B40F39D8000261DABCDF82CA061
:1049B000DDF834A0B146012598468368CDF874909F
:1049C0005B69324641469847149B834204462DD08A
:1049D000099B012B55D008B30B9B03EB060B0A9BDD
:1049E0001D9805930E9B0F9A039203FB0073099A7F
:1049F00002920493224650440123594601950095A2
:104A000002F020F91C981D9B82681C4441465369A2
:104A10001D943246984704460028E0D10F9B01368A
:104A20001F44169BB3425CDD1C98C6E70897B3464B
:104A30001F4604E0780000206C180120A3461C9853
:104A400083680BF101045B6922464146984787421F
:104A5000F4D0099902910B990A9A089F0592C6EB26
:104A60000B030F9A049731440F9E03920133019573
:104A70000095149A504606FB0377264602F0E2F8AA
:104A8000CFE70028CAD00B9B089603EB060BDDF896
:104A900074E00A9805900EF0070006900AEB0E00ED
:104AA000BEF1000FB8BF0EF1070E07EBEE0E0F9E22
:104AB000CDF810E022460123594603960295019550
:104AC000009502F0C7FE1C981D9B82681C4441465D
:104AD00053691D94089A984704460028D7D1089E28
:104AE0009CE71CA8FEF780F84DE50A9B05930F9BF9
:104AF00003930124099B04900293149A169B0D982A
:104B000001945146009402F09DF83CE509FB08F041
:104B1000FDF792FD0B9000283FF435ADFDF792FFB5
:104B20001E903846FDF78EFF1C90256900F118078E
:104B300045B34FEA880B012619E0B9F1040F19D0EB
:104B4000B9F1010F16D000221E9909980290012395
:104B500005920392049101965146009642460D98A3
:104B60009A4402F06FF8089B013B089350D0B9F1CA
:104B7000020FE2D138461E9925694B464246A847A6
:104B80005F44E0E70C950126089C14E0B9F1040F9E
:104B900000F08D81994500F035810C9D05950395B8
:104BA000099D02951E9D01960096049502F04AF813
:104BB000013C2DD0DA460123B9F1020F514642469D
:104BC0000D980AEB030BE1D108944FEA8805012404
:104BD000DDF87890BB4646465BF8040B0A9B984785
:104BE000013E29F8020BF7D11E9B099A0292049309
:104BF00051460123059603960194009442460D9870
:104C00009A4402F01FF8089B013B2F440893DFD120
:104C10000E98FDF7E9FF1EA8FDF7E6FF0B98FDF7DC
:104C200063FDB0E40124183200260492CDF80CB0E4
:104C30000295089B0D9805964246514601940094B2
:104C400002F000F89FE400250126089C16E0B9F167
:104C5000040F00F0FC80994500F0A4801E9F089787
:104C6000099F0297089F0595039501960096049762
:104C700001F0E8FF013C3FF4D2ADDA460123B9F17F
:104C8000020F514642460D980AEB030BDFD14FEA63
:104C900048060C9D08940A9F0A9601241E9EDDF882
:104CA0002CB0C1463BF8020BA847B847B9F101093F
:104CB00026F8020BF6D10B9E1E9A099B0293B6466C
:104CC0000A9E049201235146B644CDF81490CDF8C3
:104CD0000C900194009442460D98CDF82CE09A4433
:104CE00001F0B0FF089B013B0893D7D197E5FDF792
:104CF000A9FE1D9000283FF492AD4FEA48033746C5
:104D00000A9301250C940B9E19E0B9F1040F30D0E1
:104D1000B9F1010F28D000221E99099802900123B1
:104D200005920392049101955146009542460D98D3
:104D30009A4401F087FF089B013B08932BD0B9F1FF
:104D4000020FE2D1DDF878B01D994B46424630465D
:104D50007C69A0470A9C1D9826440C9C59464B46EA
:104D600042462469A047D6E7DDF878B01D990223B2
:104D7000ECE730461D997C69DDF878B002234246A5
:104D8000A0470C9C1D9824694B4659464246A047B3
:104D90000A9B1E44BFE71DA8FDF726FF0F98FDF7ED
:104DA000A3FC3CE508FA03F60C9D08940A9F0A96BA
:104DB0004C461E9EDDF82CB0C1463BF8020BA847BE
:104DC000B847B9F1010906F8010BF6D10B9E1E9AFE
:104DD000099B0293B6460A9E049201235146B644AB
:104DE000CDF81490CDF80C900194009442460D98A3
:104DF000CDF82CE09A4401F025FF089B013B089375
:104E0000D7D10CE508944FEA88054C46DDF8789038
:104E1000BB4646465BF8040B0A9B9847013E09F8DF
:104E2000010BF7D11E9B099A02920493514601236C
:104E3000059603960194009442460D989A4401F019
:104E400001FF089B013B2F440893DFD1E0E64FEAC6
:104E500048060C9D08940A9F0A9601241E9EDDF8C0
:104E60002CB0C1463BF8020BA847B847B9F101097D
:104E700046F8040BF6D10B9E1E9A099B0293B64688
:104E80000A9E049201235146B644CDF81490CDF801
:104E90000C900194009442460D98CDF82CE09A4471
:104EA00001F0D0FE089B013B0893D7D1B7E40894EA
:104EB0004FEA88050124DDF87890BB4646465BF84A
:104EC000040B0A9B9847013E49F8040BF7D11E9B3F
:104ED000099A029204935146012305960396019480
:104EE000009442460D989A4401F0ACFE089B013BA9
:104EF0002F440893DFD18BE620B321B322B3B2F95C
:104F000000C0B1F90630F0B5B1F90050B2F902E0D5
:104F1000B1F90240B2F90470B2F90660B1F90420A7
:104F20006545A8BF6546A6457146A8BF2146BA4259
:104F3000B8BF3A46B342B8BF33460580418082804D
:104F4000C380F0BD704711460B684A684260036039
:104F5000704700BF78B170B4068844888588C388DC
:104F600089B292B20E44144429440680448070BC35
:104F70001A448180C280704710B5FEF773FD0D4A58
:104F8000136851688B420FD00B4CA34293E8030087
:104F90004FF0010414BF0833503B136004F0DAF9FA
:104FA00000F012FB204610BD002400F00DFB20464F
:104FB00010BD00BF2C010020F8160120F0B5164CE2
:104FC000059E2568069CB5F908E0B5F90C7070459A
:104FD000B8BF7046BA42A8BF3A4690421ADCB5F94B
:104FE0000A70B5F90E50B942B8BF3946AB42A8BFF6
:104FF0002B468B4203DAF0BD25682DB12C46E568BF
:105000002D6835F00405F7D106940596BDE8F0400B
:1050100002F04CBAF0BD00BF78000020B0F90220C9
:10502000B1F906309A4214DCB1F90220B0F9063029
:105030009A420EDCB0F90020B1F904309A4208DC43
:10504000B0F90400B1F900308342CCBF0020012048
:1050500070470020704700BF08B5034B014674221B
:105060001868FBF70BF908BD7800002008B5034B62
:1050700074221968FBF702F908BD00BF7800002010
:1050800008B5FEF7EFFC02F00BFB02F0D1FB02F0DB
:105090008DFEBDE8084000F097BA00BF70B50D4D19
:1050A0002B6804465E7CFEF7DDFC012C03D900F082
:1050B0008BFA304670BD2046FEF70CF80028F6D07B
:1050C0002B685C74FFF7DCFF034B1C6000F07CFA7C
:1050D000304670BD78000020BC38012010B5044671
:1050E000FEF7C0FC204602F0FDFABDE8104000F0DB
:1050F0006BBA00BF10B50446FEF7B4FC204602F0C0
:105100002BFBBDE8104000F05FBA00BF10B50446AD
:10511000FEF7A8FC204602F037FB044600F054FAE4
:10512000204610BD38B50446FEF79CFC044B1B68B6
:10513000DD6904B1DC6100F047FA284638BD00BFE4
:105140007800002038B505460C46FEF78BFC094A6E
:10515000094B12680949507C094A53F820000D8018
:10516000C3681480294622461C6AA047BDE838401F
:1051700000F02ABA780000206C1801205A1801208B
:105180005C18012038B50546FEF76CFC044B1B6823
:10519000B3F92A405D8500F017FA204638BD00BFFC
:1051A00078000020024B1B6803B11847704700BF0E
:1051B00018170120024B1A6802B91860FFF7F2BFF6
:1051C000A416012000B970472DE9F041DFF8C08036
:1051D00082B00546FEF746FCD8F80040A54242D012
:1051E0006E461CB917E0FDF7FFFCA4B12046FDF7A1
:1051F00029FC84680090A5423046F4D12846FDF78A
:1052000021FC009B8268019001A89A60FDF7ECFCEC
:105210003046FDF7E9FC2846FDF714FCD8F80440B9
:105220000090A5421A4B2CD001AF1CB910E0FDF73D
:10523000DBFC6CB12046FDF705FC44680190A542FB
:1052400003463846F3D1009A52685A60FDF7CCFC09
:105250003046FDF7C9FC2846FDF746FA00F0B4F9E0
:1052600002B0BDE8F0812846FDF7ECFB02AF836891
:1052700047F8040D3846C8F800306E46FDF7B4FC18
:10528000C9E742685A603046FDF7AEFCE3E700BF6D
:105290005C17012030B583B018B90124204603B053
:1052A00030BD04460D46FEF7DDFB2046FDF7CAFB88
:1052B00002AB828943F8040D2A42184614BF012428
:1052C0000024FDF791FC00F07FF9204603B030BDCB
:1052D00030B50A4B1C68002383B003605CB10546FF
:1052E0002046FDF7AFFB02AB026943F8040D2A60CC
:1052F0001846FDF779FC204603B030BD5C1701204D
:1053000070B5002382B00B6018B90446204602B085
:1053100070BD0D46FDF796FB8468019001AE2CB977
:105320003046FDF761FC204602B070BD3046FDF707
:105330005BFC2046FDF786FB036901902B60EFE7DD
:10534000F8B5084E0468336805461B682046984740
:10535000336807465B6820469847204428603846F3
:10536000F8BD00BF80180120F8B569B1074F0546A8
:105370000C4600263B6828465B689847013C05447C
:105380000644F7D13046F8BD0E46FBE780180120F1
:105390002DE9F843089C054689469846AB6849467E
:1053A0005F6828464346561CB847013C3246F5D153
:1053B000BDE8F883F8B5B0F90040B0F904500C1B13
:1053C000AC422BDAB0F9021005692344013B521AB2
:1053D000E61005FB0265DF4307F00707FF211435E0
:1053E00004F0070401FA07F241FA04F4D6EBE306ED
:1053F000D7B2E4B200EB0502435D10D0013E1C437E
:10540000002E02F10103445505DD18463246FAF735
:1054100056FF034633441C783C431C70F8BD3C40A7
:105420001C434455F8BD00BF70B4B0F90260036975
:10543000B0F90040921B03FB02F2091B143202EB8D
:10544000E1028025835C01F0070145FA01F119436F
:10545000815470BC704700BF03460021B3F9062099
:105460001B69143003FB02F2FAF729BF2DE9F04360
:1054700002F10F04241164001E4603FB04F383B001
:10548000804603F1140017468946FDF7E3F8054608
:10549000B8B1FEF7E7FA2846FDF7D4FA014602A8AC
:1054A0000A4A40F8041D01238F80CE800C61A1F8C8
:1054B0000080A1F802908A608B81FDF795FB00F0D7
:1054C00083F8284603B0BDE8F08300BFEC3801083C
:1054D000B0F9063093423CDDF0B50D68B0F90470C8
:1054E000BD4234DA06694FEAE50E06FB02E61436E1
:1054F00005F00703845D04FA03F3013F013613F05E
:10550000FF03CEEBE702304408D122B310F8013B91
:10551000083525F00705013A002BF6D01E0634D4D5
:105520005B00DBB21C0605F10105F9D55F062C46D0
:1055300005D55B00DBB25E0604F10104F9D404F08A
:105540000703072B09D0621B501C0D60F0BD002023
:10555000F0BD002070471046F0BD002AF3DD06784C
:10556000FF2E00F101070DD1831803E017F8016B3E
:10557000FF2E07D1BB4204F10804F7D1E3E7760020
:10558000F6B201343306FAD4DDE7FF2B08BFEC1D79
:10559000D5D0CBE730B5054683B0FEF763FA284691
:1055A000FDF750FA02AB848943F8040D013C24B2A4
:1055B00084811846FDF718FB14B92846FDF794F8C6
:1055C00000F002F803B030BD034A5368013B53605A
:1055D00003B1704709F0EABA04170120F0B583B0AF
:1055E000C0B9224C23690546CBB1E0681F4E18B9FB
:1055F0001F4B1868F060D8B123681C4F002623B3F6
:1056000063681A4FC3B115B1A368184C2BB3304669
:1056100003B0F0BD154C236901AD002BE5D1204648
:10562000144B40F8143F0123236101F075F9DCE7C6
:1056300001F0BEFDF060DFE7F8688000FDF7D6F806
:10564000002808BF01267860DDE78000FDF7CEF86E
:10565000B0FA80F638607609D2E7E0688000FDF79E
:10566000C5F8002808BF0126A060D0E77017012008
:1056700060180120B5DC000810B5094B1C7838B95A
:1056800002464FF07F401A7001F0C6FA204610BD66
:10569000012200201A7001F0BFFA204610BD00BFA1
:1056A00066180120082A10B40EDD102A1CDC00EB5D
:1056B0004101034650F8042B23F8022B9942F9D1FB
:1056C00001205DF8044B7047022A11D0042A00F033
:1056D0009080012A3CD00144034650F8042B03F883
:1056E000012B9942F9D1EBE700205DF8044B70479C
:1056F00000F1100252F8103C01294FEA8313DBB28B
:1057000023D052F80C4C240104F03004022943EA5F
:1057100004031AD052F8084CA40004F00C04032926
:1057200043EA040311D052F8044C04F00304234369
:10573000043900F8013B02F11002C1D052F8103CCC
:1057400001294FEA8313DBB2DBD103700120B8E7F4
:1057500000F1200252F8203C01294FEAC313DBB2CA
:10576000F3D052F81C4CA40104F04004022943EA8F
:105770000403EAD052F8184C640104F02004032911
:1057800043EA0403E1D052F8144C240104F010045D
:10579000042943EA0403D8D052F8104CE40004F082
:1057A0000804052943EA0403CFD052F80C4CA400A6
:1057B00004F00404062943EA0403C6D052F8084C56
:1057C000640004F00204073943EA040302F12002F2
:1057D000BBD052F8244C04F00104234300F8013BF1
:1057E00052F8203C01294FEAC313DBB2B9D1037050
:1057F000ACE700F1080454F8083C01294FEA031310
:10580000DBB212D054F8042C02F00F021343023919
:1058100000F8013B04F108043FF452AF54F8083C8F
:1058200001294FEA0313DBB2ECD103705DF8044B9E
:1058300008467047082A2DE9F0410C461F680546C6
:105840000CDD102A21DC1E69002E00F0918022461A
:1058500029460223B0470120BDE8F081013A072A1A
:1058600010D8DFE802F004510F770F0F0F9A00F104
:10587000200858F8200CB847012C4FEAC010C6B2D7
:1058800006D12E700120BDE8F0810020BDE8F08136
:1058900058F81C0CB847022C46EA8010C6B2F0D06B
:1058A00058F8180CB847032C46EA4010C6B2E8D0A6
:1058B00058F8140CB847042C46EA0010C6B2E0D0E1
:1058C00058F8100CB847052C46EAC000C6B2D8D02C
:1058D00058F80C0CB847062C46EA8000C6B2D0D067
:1058E00058F8080CB847072C46EA4000C6B2C8D0A2
:1058F00058F8040CB847083C40EA060005F8010BCC
:1059000008F12008B5D1BDE700F1100858F8100CD7
:10591000B847012C4FEA8010C6B2B2D058F80C0C30
:10592000B847022C46EA0010C6B2AAD058F8080CB4
:10593000B847032C46EA8000C6B2A2D058F8040C3F
:10594000B847043C40EA060005F8010B08F11008CE
:10595000DCD197E700F1080858F8080CB847012C8B
:105960004FEA0010C6B20CD12E702046BDE8F0817F
:10597000861E55F8040BB847013C26F8020FF8D1F3
:1059800080E758F8040CB847023C40EA060005F8E6
:10599000010B08F10808DFD174E71E693EB1284603
:1059A000224601232946B0470120BDE8F0816E1E42
:1059B00055F8040BB847013C06F8010FF8D161E730
:1059C00030B51B4DEB6F85B00BB105B030BD194B39
:1059D0000FCB6C4607C404A924F8023B1B0C2370B0
:1059E00011F8102D0123EB6705F1800404F8012B59
:1059F00011F8012F002AF9D1FDF784FF234610F892
:105A0000012B194603F8012B0278002AF7D14A70BE
:105A100009F06AF8FCF7D4FD09F0ECFA064B0748E8
:105A2000C5F8943005B0BDE8304000F075BF00BF48
:105A3000C81501201C0E010899DB00085C16012026
:105A4000F0B52A4B1B6883B004460D467BB100209D
:105A500004F0DEFA48B16E4632462946204605F08B
:105A6000FFFC04F069F90028F6D103B0F0BD10681E
:105A700051681F4F6B4603C33B68BDF80000B3F885
:105A80004CE0B3F85060BDF80410BDF80220BDF83A
:105A900006307044324433447144ADF80000684627
:105AA0006E46ADF80410ADF80220ADF8063004F0F3
:105AB000AFFA50B93B68598C9A8CDC6C186D091B95
:105AC000121A59849A8403B0F0BD3B68BDF80010E7
:105AD000BDF8022059849A8429463246204605F0B2
