:020000040800F2
:10000000201A012059020008A7030108C9FE0008B0
:10001000A50301080DF800084918010800000000B8
:10002000000000000000000000000000A101000826
:1000300099FB000800000000F5010008ED1401081C
:1000400073020008730200087302000873020008BC
:1000500073020008730200087302000873020008AC
:10006000730200087302000873020008730200089C
:10007000730200087302000873020008730200088C
:10008000730200087302000873020008730200087C
:10009000730200087302000873020008730200086C
:1000A000730200087302000873020008730200085C
:1000B000730200087302000873020008730200084C
:1000C000730200087302000873020008730200083C
:1000D000730200087302000873020008730200082C
:1000E000730200087302000873020008730200081C
:1000F000730200087302000873020008730200080C
:10010000730200080D06010873020008730200085C
:1001100073020008730200087302000873020008EB
:100120007302000873020008730200089DF90008BA
:1001300073020008730200087302000873020008CB
:1001400073020008730200087302000873020008BB
:1001500073020008730200087302000873020008AB
:10016000730200087302000873020008730200089B
:10017000730200087302000873020008730200088B
:100180007302000873020008DFF810D000F010F9C5
:10019000004800472D280108AFF30080201A0120F5
:1001A0002A4B19680868B0E8F04F80F30988BFF35C
:1001B0006F8F4FF0000080F311887047000000003F
:1001C00006480068006880F3088862B661B6BFF32D
:1001D0004F8FBFF36F8F00DF00BF00BF08ED00E05F
:1001E000DFF80C00016841F470010160704700BF46
:1001F00088ED00E0EFF30980BFF36F8F134B1A68AF
:100200001EF0100F08BF20ED108A20E9F04F10609B
:1002100008B44FF0500080F31188BFF34F8FBFF345
:100220006F8F13F031F94FF0000080F3118808BC94
:1002300019680868B0E8F04F1EF0100F08BFB0EC66
:10024000108A80F30988BFF36F8F70476800002021
:10025000EFF30580704700000648804706480047D6
:10026000FEE7FEE7FEE7FEE7FEE7FEE7FEE7FEE766
:10027000FEE7FEE701150108890100082DE9F05F9E
:100280000546002092469B46884606468146402405
:100290001BE0284641464746224600F078F8534680
:1002A0005A46C01A914110D311461846224600F012
:1002B0005FF82D1A67EB01084F4622460120002106
:1002C00000F056F817EB00094E41201EA4F101047E
:1002D000DFDC484631462A464346BDE8F09F10B56C
:1002E000441A0346944209D28418114403E011F8D9
:1002F000013D04F8013D521EF9D210BD40EA01044F
:10030000A40703D009E010C9121F10C3042AFAD2AF
:1003100003E011F8014B03F8014B521EF9D210BD56
:10032000D2B201E000F8012B491EFBD27047002237
:10033000F6E710B513460A4604461946FFF7F0FFE4
:10034000204610BD30B50B46014600202022012476
:1003500009E021FA02F59D4205D303FA02F5491B93
:1003600004FA02F52844151EA2F10102F1DC30BDA9
:10037000202A04DB203A00FA02F100207047914065
:10038000C2F1200320FA03F3194390407047202A5A
:1003900004DB203A21FA02F00021704721FA02F32F
:1003A000D040C2F120029140084319467047000036
:1003B000064C074D06E0E06840F0010394E80700B2
:1003C00098471034AC42F6D3FFF7E2FE0459010817
:1003D0002459010870B58C1810F8015B15F007035B
:1003E00001D110F8013B2A1106D110F8012B03E0CE
:1003F00010F8016B01F8016B5B1EF9D12B0705D4D6
:100400000023521E0DD401F8013BFAE710F8013B1E
:10041000CB1A921C03E013F8015B01F8015B521E3A
:10042000F9D5A142D8D3002070BD000038B5204BCB
:10043000204C1D6801F04CF9284606F037FE05F007
:1004400001FB1D4B1D6801F043F9284606F068FECC
:1004500005F0F8FA01F03CF9236801221A7605F05C
:10046000F1FA01F035F9236800259D8505F0EAFAD7
:1004700001F02EF923685D8505F0E4FA01F028F912
:10048000284606F065FE05F0DDFA0C4B1D6801F00C
:100490001FF9236805B1DD6105F0D4FA01F018F900
:1004A000236800229A76BDE8384005F0CBBA00BF39
:1004B000F8000020FC000020F4000020F0000020E4
:1004C0002DE9F04F4F4E3368DA69B3F92250D46901
:1004D000B4F80CB083458BB07DD8E18981427AD3E2
:1004E000216808914FF0FF31CBEB000B0791BBF176
:1004F000FF3F6AD0177EB3F92A80A27CB3F924901B
:1005000094F810A017FB02F34046069306F020FE75
:100510003368069A0899099002FB0B109A6BDB6905
:1005200004900592A27C03924FF0010BCDF808B025
:10053000DA7E01929B7E009328463B46524649460E
:1005400006F084F8079801301CD048F0020006F04D
:10055000FFFD2C4A079812680899069B03FB0013BD
:10056000916BD26905910493A37C0393CDF808B0F5
:10057000D37E0193937E009352463B4649462846DC
:1005800006F064F833681F4FDB695A7E1B7E9A427F
:1005900014D9B8F1020F11D088F0040006F0D8FD8C
:1005A0003B68DB69187ED97E9A7E5B7E00FB0191F9
:1005B0000AFB02524B44284606F02EFA9DF824000E
:1005C00006F0C6FD3368B3F92250627C15445D84A1
:1005D0000BB0BDE8F08FA1680029F6D00F88B842B3
:1005E000F3D3B1F802E08645EFD34968C01B80B26F
:1005F0006768089701EB800731F920B0B7F902105E
:10060000079174E7FC000020044B1B68DB69DB6981
:1006100009B11A7C0A60587C704700BFFC000020BA
:1006200002230B80704700BFC3699A898A4202D8AF
:10063000DA898A4211D2986818B10388994201D2A6
:100640000020704742888A42FAD3C91A436833F8B7
:100650002100C043C0F3C03070470120704700BF85
:100660002DE9F047234E3368002B3FDD224D234F09
:100670002C68D7F80090C3EB431804EB880808F106
:100680000C080C344FF0000AA4F108037422184639
:100690004946FFF724FE221F2063A06344F80CACF8
:1006A0006263E4607C34A045EED10024A04603E000
:1006B00092B13268904514DA0FF0A6FB2B681A59F4
:1006C000904203EB040108F1010804F17C04EFD12E
:1006D00004313960BDE8F087086004313960BDE855
:1006E000F087194604313960BDE8F087024B034FAB
:1006F0001968EDE714010020D4F70020FC00002069
:10070000F8B5194F194B1A4E384640F80C3F05F012
:100710001BFF3468C4EB4414A400204600F0AEF87C
:10072000144B386022461B68002198474FF0FF3376
:1007300073600FF06FFB3368002B11DD002425463A
:1007400003E072B133689D420ADA0FF05DFB3B684B
:100750001A599042234405F1010504F17C04F0D1BB
:10076000F8BD1860F8BD00BFD4F700201DD3000805
:10077000140100202001002000B9704710B5044684
:1007800000F0A6FF204609F075FC044605F05AF972
:10079000204610BD70B5054600F09AFF25B900242B
:1007A00005F050F9204670BD00F092FF284609F090
:1007B00061FC044605F046F9002CF0D0144E1549B2
:1007C000F269736B0132F26113F83420013203F8DD
:1007D000342003EBC4032A465D680B6805F108006A
:1007E000002198472968726B12F83130012B01D92A
:1007F000F06930B9013B02F8313005F023F92046A9
:1008000070BD0138013BF06102F83130F5E700BFFF
:100810001CF9002020010020024B21F0030183E895
:1008200003007047B8F5002000B9704770B50D4C53
:10083000054600F04DFF636BEE003344596848688D
:1008400009F06AFA626B6368616A1644013300203A
:100850006360716002F835006562BDE8704005F0C4
:10086000F1B800BF1CF9002028B1034AD36B036024
:1008700003B15860D06370471CF90020F8B5894E69
:1008800096F828300446002B2FD00334356CF26BD9
:1008900024F003040434A54238BF254662B152F85F
:1008A000043C9D42144604D114E054F8043C9D429B
:1008B00010D02468002CF8D1F368B46B1C4454F8B1
:1008C000041C611A0B68002B65D14B689D426CDDDE
:1008D000002408E023680BB161685960616801B1C8
:1008E0000B60A24253D02046F8BD6F4B9A685868FF
:1008F000012186F828100AB982089A605A253562C3
:1009000010272022402519683764B2643565802796
:100910004FF480724FF40075B7653266B5664FF4D8
:1009200080674FF400624FF48055A1F114033767DC
:10093000B267C6F880504FF400574FF480424FF42E
:1009400000450344C6F88870C6F89020C6F8985051
:100950004FF480374FF400324FF48025C6F8A07072
:10096000C6F8A820C6F8B050022201254FF400278F
:10097000B16373633261F060C6F8B8705D60756230
:10098000756009F0C9F90BF089FC35637DE72368D0
:10099000F3632046F8BD00200EF058F854F8041C0C
:1009A000611A0B68002B93D18FE7D6F8B8703D4AD7
:1009B000581B041DBB420C4472D2D2F8B070BB422B
:1009C0006CD2D2F8A870BB4266D2D2F8A070BB42FB
:1009D00060D2D2F898709F425AD9D2F89070BB4238
:1009E00054D2D2F88870BB424ED2D2F88070BB424B
:1009F00048D2926F934243D2376F2A4ABB423DD2CC
:100A0000976EBB4238D2176EBB4233D2976DBB4252
:100A10002ED2176DBB4229D2976CBB4224D2126CE6
:100A200093420CD2F2687369521B2B44F2607361DB
:100A300010B944F8045C56E709F06EF9F9E70022B2
:100A40003768D1F808E0FB1A3360CB68BEF1000FBD
:100A500001D0CEF8043013B1C3F800E0E2E706EBB2
:100A6000C202C2F844E0DDE70122E9E70222E7E73B
:100A70000322E5E70422E3E70522E1E70622DFE7B8
:100A80000722DDE70822DBE70922D9E70A22D7E7B8
:100A90000B22D5E70C22D3E70D22D1E70E22CFE7B8
:100AA0000F22CDE71CF90020B8F50020F8B54A4C1C
:100AB00094F82830002B3DD0D4F8BC30464A3BBBDC
:100AC000D2F8B43023BBD2F8AC300BBBD2F8A43090
:100AD000F3B9D2F89C30DBB9D2F89430C3B9D2F86C
:100AE0008C30ABB9D2F8843093B9D36F83B9536FDC
:100AF00073B9E36E63B9536E53B9D36D43B9536D94
:100B000033B9D36C23B9536C13B96FF00B00F8BD34
:100B10009B68002BF9D0002201E09B6843B1596823
:100B20009B689142104684BF0A461046002BF4D1C0
:100B30000C38F8BD294B9A685868012184F82810B0
:100B40000AB982089A601968A1635A2610222025E2
:100B500026622264A564402780264FF480724FF4F9
:100B60000075A1F114032765A6652266A5664FF4FA
:100B700080674FF400664FF480524FF400550344F1
:100B80002767A667C4F88020C4F888504FF48047D0
:100B90004FF400464FF480324FF40035C4F89070A3
:100BA000C4F89860C4F8A020C4F8A8500222012517
:100BB0004FF480274FF4002663632261E060C4F89D
:100BC000B070C4F8B8605D606562656009F0A4F853
:100BD0000BF064FB25636FE71CF90020B8F50020DB
:100BE000024A936901339361704700BF1CF90020EA
:100BF000074AD169536B0131D16113F830200132BA
:100C000003F8302003EBC00358680830704700BF7A
:100C10001CF90020F8B5584C00F05AFD94F8283023
:100C2000002B57D0D4F8BC30534A9BBBD2F8B43019
:100C300083BBD2F8AC306BBBD2F8A43053BBD2F834
:100C40009C303BBBD2F8943023BBD2F88C300BBB2A
:100C5000D2F88430F3B9D36FE3B9536FD3B9E36EED
:100C6000C3B9536EB3B9D36DA3B9536D93B9D36CF4
:100C700083B9536C73B96FF00B034049DA1781FBEA
:100C80000313C2EB6313246A04FB03F404F0DAFEDB
:100C90002046F8BD9B68002BF5D0002201E09B6840
:100CA00043B159689B689142104684BF0A4610467A
:100CB000002BF4D10C38B0F5800F0346DDD8226A42
:100CC0002E4B02FB00F0A3FB00235C0904F0BAFEEC
:100CD0002046F8BD2A4B9A685868012184F82810EC
:100CE0000AB982089A601968A1635A261022202541
:100CF00026622264A564402780264FF480724FF458
:100D00000075A1F114032765A6652266A5664FF458
:100D100080674FF400664FF480524FF4005503444F
:100D20002767A667C4F88020C4F888504FF480472E
:100D30004FF400464FF480324FF40035C4F8907001
:100D4000C4F89860C4F8A020C4F8A8500222012575
:100D50004FF480274FF4002663632261E060C4F8FB
:100D6000B070C4F8B8605D606562656008F0D4FF7B
:100D70000BF094FA256355E71CF900201F85EB5111
:100D8000B8F50020024A9369013B9361704700BFA8
:100D90001CF9002030B403680A4A53F8085C044682
:100DA000506B10F83530012B03D9D16909B10139E5
:100DB000D161013B00F8353000221046226030BC82
:100DC000704700BF1CF90020034B5B6B03EBC000B6
:100DD00040680830704700BF1CF9002050F8080C2C
:100DE000704700BF2DE9F04114460646884600F0E2
:100DF0006FFC204600F08EFBE8B9A7001B4D3B19A5
:100E000005EB8303DA68B24206D11B69434503D17F
:100E1000BDE8F04104F016BE3B1905EB83035869A9
:100E2000D0B93C4405EB8404E660C4F81080BDE80A
:100E3000F04104F007BE0D4B04EB840403EB840483
:100E400063689A685968C2EB0802711A04F0E0FB03
:100E5000BDE8F04104F0F6BD5B689A685968C2EBE2
:100E60000802711A04F022F8DBE700BF58F80020EE
:100E7000C3B2CAB29A1A92B230B415B2002DBCBF36
:100E8000524215B2C0F30723C1F307229B1A9BB24B
:100E9000090C1AB2C1EB1041002A89B20CB2BCBFD6
:100EA0005B421AB2002CBCBF49420CB202FB02F2F8
:100EB00005FB0520A1B201FB010030BC704700BF5B
:100EC0002DE9F041002182B0084600F073FB00F0EC
:100ED000FFFB042006F03CF9174B1B69DD6C1C6D11
:100EE000A5F57F57A4F57F5605F57F5504F57F548A
:100EF00080463F3F3F353F3E3F346846ADF8007087
:100F0000ADF80450ADF80260ADF8064008F012F9F3
:100F100048B123462A463146384605F07DFD07F0A4
:100F2000C7FF0028F5D1404606F012F904F08AFD0B
:100F300002B0BDE8F08100BFEC000020012B12DC04
:100F4000F8B506461C2017460C461D46FFF796FCD2
:100F5000B8B154B104610023836085618782C660A3
:100F600003604360F8BD00207047074B53F825200D
:100F70000AB9F0E71A461368002BFBD11369036125
:100F8000E9E70020F8BD00BFF4F90020012B3BDCAD
:100F90002DE9F84381461C2090460F461E46FFF778
:100FA0006DFC054600287FD0414A002F31D0002338
:100FB000DFF804E152F8264003609EF80010076154
:100FC0008E428661A0F81480C0F80C904360836064
:100FD00002DB731C8EF80030002C5DD021464C687B
:100FE000002CFBD1D9F80000CB681B6883422CDDB4
:100FF00009680029F8D148B92E4B16361A682846D8
:1010000042F82650BDE8F883002070472846BDE826
:10101000F88352F82610002930D0084600E0184620
:101020000368002BFBD1DFF890E000692B6028619A
:101030009EF80000AE618642A5F81480C5F80C90B9
:101040006B60AB60CBDB0C46C3E70AD04B6843B3A5
:101050001D606B608D4214BF0B4600234D602B60FA
:10106000C9E7B8F1010FF1D104E0D9680C688442F6
:101070001946EBDB0B68002BF7D1E7E7DFF838E028
:1010800001609EF8003086619E42A0F81480C0F88E
:101090000C9041608160D6DA42F82650D9F8000001
:1010A000A9E742F82650D5E70020BDE8F88300BF45
:1010B000F4F90020FC000020EDF90020FFF7D4BB7C
:1010C00000283CD070B48469012C03DD012318464C
:1010D00070BC70471E4B1F4D1A789442A4BF621C0F
:1010E0001A7055F824300BB92FE013465A68002ABD
:1010F000FBD1C268116802E01B68002BE6D0DA68F9
:1011000012689142F8DB0DD05A68DAB11060426083
:10111000984214BF1A46002258600023026070BC37
:1011200018467047828A012AEED104E0D3681E680F
:10113000B1421346E8DC1A68002AF7D1E4E701233C
:101140001846704745F82400E2E745F82400BEE75A
:10115000EDF90020F4F9002000284DD02DE9F041F0
:10116000DFF89CE0254F9EF80060BC4602E0284670
:10117000002D27D084690568012CF8DCB44257F8AB
:101180002430A4BF661CF6B20BB932E013465A688D
:10119000002AFBD1C268116802E01B68002BE6D070
:1011A000DA6812688A42F8DC10D05A68A2B110607E
:1011B0004260984214BF1A460022586002602846D6
:1011C000002DD7D18EF80060BDE8F081828A012A17
:1011D0000BD05A68002AEAD147F82400E9E7D3681F
:1011E000D3F8008088451346DFDB1A68002AF6D161
:1011F000DBE74CF82400BAE7704700BFF4F90020A1
:10120000EDF900200F4A816952F8213098420AD046
:1012100042680AB103681360036803B15A6000238F
:10122000036043607047036842F821302BB100220D
:101230005A604268002AEED1F0E74268002AEAD1FB
:10124000EDE700BFF4F900200020704701280EDC14
:10125000084B53F8200058B1C3681B681BB908E05D
:10126000C3681B6823B100680028F9D170470020CB
:1012700070477047F4F900202DE9F84307460EF057
:10128000C5FD07440EF0C2FD3E1A002EDFF8609047
:10129000DFF8608022DD00F0B1F8D9F800309E421E
:1012A000A8BF1E4600F014FAD8F80040FFF798FCDB
:1012B000B4B1254604F0C6FB013DFBD130460EF02B
:1012C000A1FD00F005FA013CFBD1FFF75BFD04F046
:1012D000B9FB0EF09BFD3E1A002EDCDCBDE8F88366
:1012E00030460EF08FFDFFF74DFD04F0ABFBF0E74D
:1012F00008010020D8F700202DE9F04FDFF8F49026
:1013000089B0044690460F4600F0E2F9D9F8003063
:101310002088DA6C1D6D63881744A844421E013B87
:101320003A44434406A8ADF81870ADF81A80ADF8F9
:101330001C20ADF81E3007F0FDFE00284ED0DFF86F
:10134000B8A0CB461AE040F0020004F055F921693C
:1013500021B3D4F80CE0A668638822888DE8404069
:101360000120039002900E6838464146B047284657
:1013700004F042F907F09CFD00282FD00020E66819
:1013800004F03AF9054616B13379002BDBD125F08C
:10139000020004F031F921690029DAD1D9F80020DE
:1013A000DAF80030527CE06821469847E188D0B1F5
:1013B00063882288A6680590A08802910121039085
:1013C0000191009138464146049605F03FF92846C0
:1013D00004F012F907F06CFD0028CFD104F032FBC5
:1013E00009B0BDE8F08F012904BFDBF80030986B2D
:1013F000DEE700BFFC000020EC0000202DE9F041FA
:10140000124F134EDFF84C8000253C681CB1A047FA
:10141000041C18BF012406F041FB3368002818BFE4
:1014200001244BB1984738B1D8F8003013B10124EA
:1014300098473CB10125E8E7D8F80030002BF7D1F8
:10144000002CF7D12846BDE8F08100BF10FA00203B
:1014500014FA00200CFA0020002850D0C388013B69
:1014600010B5848880681F2B47D8DFE803F0162367
:1014700046314646463C4646464646464640464631
:101480004646464646464646464646464610A3100B
:1014900002FB031150F8210010BD02FB04F200EB27
:1014A000D104C843A35C00F0070023FA00F000F069
:1014B000010010BD02FB04F200EB91046FEA410051
:1014C000A35C00F0060023FA00F000F0030010BD5A
:1014D00002FB04F200EB5104CB07A05C4CBF00F010
:1014E0000F00000910BD02FB0404605C10BD631016
:1014F00002FB031130F8110010BD002010BD704731
:10150000034B53F82000C36808219B6A184700BFAB
:10151000F4F9002001289ABF024B53F82000002064
:10152000704700BFA4F8002070B504460E4615466B
:1015300000F0CEF820462A46314605F0F3FA04467C
:1015400010B1002333602B6004F07CFA204670BD9C
:1015500038B505460C4600F0BBF8064A064BB2F912
:101560000020B3F900302A602360BDE8384004F061
:1015700069BA00BFE2F90020E4F9002004483423EE
:1015800035216122017002718370C370704700BF02
:10159000E4000020024B53F820301B6918687047A4
:1015A000F4F90020024B53F820301B69586870474B
:1015B000F4F9002038B505460C4600F089F8044BD4
:1015C0001B685D849C8404F03DFA002038BD00BF98
:1015D000FC00002090B583B000AF344A334B1B6849
:1015E00023F001031360324B01221A6000BF304B1D
:1015F0001B68002BFBD12F4B2F4A1A602D4B1B6809
:101600002E4A934200D0FEE704F018FC2C4B2E2209
:101610001A700EF0FDFB2B480BF054FB0EF034F863
:10162000786005F0E9FA0346002B0CBF0123002384
:10163000DCB205F027FB0346002B0CBF012300237F
:10164000DBB22343DBB2002B09D005F0EBFA0446F2
:1016500005F02EFB03461946204605F073FD0021D8
:10166000002003F0E5FF06F041FEFEF7F9FF164B00
:101670001B68002B12D00DE0134B1B681B68002B5E
:1016800003D0114B1B681B6898470F4B1B685B68A6
:101690000D4A13600C4B1B68002BEDD10B4B012244
:1016A0001A707B6818460C37BD4690BD002000E0DC
:1016B0000830024000300240C2A507F4CDB5E8B5BD
:1016C000E0F90020CCF5002044F60020ECF90020E1
:1016D0002DE9F041234D6B6823B10EF095FBAB680B
:1016E000984204D00EF0D6FB0EF08EFBA8606B681B
:1016F0000133012B6B6001D0BDE8F0811A4F3B68CC
:10170000002B29DD0024264606E042B33B68013663
:101710009E4204F17C041FDA0EF076FB2B681A5906
:1017200090422344F1D17B68B342E5D0002B10DB1B
:101730002A68C3EB431302EB8308FFF785FD2B6890
:10174000C8F878001C44094BA06F04341C60FFF7F4
:1017500003FD7E60BDE8F08100242646E3E71860C3
:10176000E1E700BFD4F7002014010020FC000020B6
:1017700010B582B028B9134B1B681C6E14B902B0A7
:1017800010BD0446FFF7A4FF2046FFF731FA02AB75
:10179000446943F8080D1846FFF7FCFA1CB904F039
:1017A00051F902B010BD2046FFF722FA02AC826860
:1017B00044F8040D936898472046FFF7EBFA04F0CD
:1017C00041F9EEE7FC00002000B97047014A1146DC
:1017D00000F002B801F0FFFF2DE9F04784B00C469D
:1017E00015460646FFF774FF002003F005FFDFF8FB
:1017F000E480D8F80030814630461F6EFFF7F8F9D4
:1018000003680090986903F0BFFE314B9C42009B37
:1018100004BFB3F90440B3F906501A895B89ADF8E7
:101820000840013A013B22442B448246ADF80C208B
:10183000ADF80E30ADF80A5005F08AFE6846FFF7A5
:10184000A9FA02A807F076FC48BB504603F09CFEBC
:10185000FFF73EFF002F38D0D8F800301B6E8BBB4F
:1018600005F0C0FF3846FFF7C3F904ACD8F80030E4
:1018700044F80C0D1F660068FFF722FC2046FFF7B6
:1018800089FA05F0D3FC05F03DFC04F0DBF848468E
:1018900003F0B2FE04F0D6F804B0BDE8F0872A46A3
:1018A0002146304600F0A0FC07F002FB0028CCD017
:1018B0002A462146304600F097FC07F0F9FA002846
:1018C000EDD1C2E703F052FECAE703F04FFEDCE7BA
:1018D00001F0FFFFFC0000202DE9F04385B0064633
:1018E000904699460F46FFF7F3FE1C4A1C4B1268C0
:1018F000507C53F8204001E02468FCB1E3681A688A
:10190000042AF9D1DB6A0121204698470546D8B15F
:101910002469A3689847013018D00C9B0294009367
:1019200001954B4642463946304600F0E3FA0446FC
:1019300004F088F8204605B0BDE8F083FFF786FC88
:10194000044648B1C368DDE70446F1E70C9B054C4B
:1019500043F001030C93E0E72046ECE7FC00002095
:10196000F4F900206058010800B9704710B582B042
:101970000446FFF7ADFE104B1B681B6E9C4217D050
:101980002046FFF735F94369019063B90068FFF716
:1019900095FB01A8FFF7FEF92046FEF745FF04F08E
:1019A00051F802B010BD184604F032F80198EDE786
:1019B00003F0DCFDE4E700BFFC0000202DE9F04F60
:1019C00087B0064692461C468946FFF781FE564B75
:1019D0001A68564B577CDB57012B384640F39780EB
:1019E00005F010F90546384605F052F90746002E75
:1019F00000F08A8005A904A8FFF7AAFD049A059BB8
:101A0000B6F900C0B6F90200B6F904E0B6F906105E
:101A100015441F44013D2CEAEC73013F20EAE072BB
:101A2000029303927545D4BFC3EB0503C3EB0E03CA
:101A30008F42D4BFC2EB0702C2EB01021D4617461C
:101A40000135013704B97C42002D4FDD002F4DDDFB
:101A5000109B00932A46234603990298FFF73CFF08
:101A60008046002848D000F099F88742064604D006
:101A70002D4B1B68986C002851D1404600F09CF912
:101A8000DFF8ACB03D4600240EE0AD1BACB95046CB
:101A9000C847DBF800303444FF2003B19847404684
:101AA000FFF792FEA74212DDAE42EEDD2946404628
:101AB00000F062F9AD1B002CE9D0039B029940466F
:101AC0001A1900F0A9F94046FFF752FEDFE7404639
:101AD000FFF74AFF002000F06FF9B74206D0124B23
:101AE0001B68986C10B1332108F038F803F0AAFF96
:101AF000002007B0BDE8F08F5046C84703F0A2FFB2
:101B0000012007B0BDE8F08F039602969AE705F032
:101B100023F80546384605F049F8074667E73221BD
:101B200008F01CF8A9E700BFFC000020F0F9002035
:101B3000F8F8002030B5044683B098B1FFF7C8FD2F
:101B40002046FFF755F8036802AD1B6945F8040D00
:101B50009B68984705F0CAFC04462846FFF71AF927
:101B600003F070FF204603B030BD00BFA0B110B538
:101B7000044682B0FFF7ACFD2046FFF739F802AB10
:101B800000F1180443F8040D1846FFF703F903F0B9
:101B900059FF204602B010BD704700BF10B5044683
:101BA00082B0FFF795FD7CB12046FFF721F802AB2C
:101BB000B0F90A4043F8040D1846FFF7EBF803F0BC
:101BC00041FF204602B010BD044B1B681C6E002C68
:101BD000EAD103F037FF204602B010BDFC00002020
:101BE0002DE9F04FDFF888B189B006460527304669
:101BF000FEF7FEFF034607A8B3F90080B3F90440DF
:101C0000B3F90290B3F906500793C8EB040401340A
:101C1000D3F824A0C9EB0505FFF7BCF8002C05F1AB
:101C2000010555DD002D53DDBAF1000F55D106F049
:101C300083F886427FD04A4B01934FF0010A494610
:101C400040462B462246CDF808B0CDF800A000F063
:101C500051F980463046FEF7CBFF0790C0F824804C
:101C6000B8F1000F60D0836ADFF8089143F4803345
:101C7000836207A8FFF78EF8404600F09DF80590B4
:101C8000504603F037FF4046FFF770FF354A364BAA
:101C90001978136805FB04F29200344C98473046DB
:101CA0002568C9F8006006F079F82060304607F032
:101CB00047FE002210462560C9F8002003F01AFFF5
:101CC000059800F079F83046FFF77EF8406AF0B9E1
:101CD000013F8CD109B0BDE8F08F5046FEF788FF78
:101CE000034608A8B3F9045040F8083DB3F906408C
:101CF000FFF750F8A8450FD04A464146504600F03D
:101D00008BF83046FFF760F8406A0028E0D000F01A
:101D1000BFF809B0BDE8F08FA145D4D04A4641468E
:101D2000504600F079F8ECE707A8FFF733F83046A3
:101D300007F006FECCE704F049FF824604F08CFF72
:101D4000544503DC85427FF776AFA2468542A8BFA3
:101D500005462A465146304606F07CFF54466AE75F
:101D60007858010820010020FCF8002018F9002014
:101D700060580108981A012030B50D4683B028B983
:101D80000C4B1B681C6E14B903B030BD0446FFF742
:101D90009FFC2046FEF72CFFB0F90A300190AB42C1
:101DA000C8BF458101A8FEF7F5FF03F04BFE03B065
:101DB00030BD00BFFC000020F0B5164F83B00446D4
:101DC000FFF786FC3B681E6EE4B1C6B905F00AFD5C
:101DD0002046FEF70DFF02AD3B6845F8040D1C667A
:101DE0000068FFF76DF92846FEF7D4FF05F01EFAEC
:101DF00005F088F903F026FE304603B0F0BD03F08D
:101E0000B5FBE3E703F0B2FB03F01CFE304603B082
:101E1000F0BD00BFFC00002070B50D4682B0164634
:101E200028B91A4B1B681C6E14B902B070BD044669
:101E3000FFF74EFC2046FEF7DBFE36B22DB2C68021
:101E40008580009005F05EF9009B586930B96846BE
:101E5000FEF7A0FF03F0F6FD02B070BDFEF7C8FE6E
:101E6000009A0190B2F90830B2F90A20C28083804A
:101E700013B10AB10580468001A8FEF78BFF6846C2
:101E8000FEF788FF03F0DEFDE6E700BFFC00002060
:101E900000B9704770B5044684B0FFF719FC2046BE
:101EA000FEF7A6FE014601A8B1F90460B1F906509B
:101EB0000A894B89019132442B44013A013BADF828
:101EC0000860ADF80C20ADF80E30ADF80A50FEF702
:101ED00061FF02A807F02EF940B12A46314620469C
:101EE00000F064F906F0E4FF0028F6D103F0AAFD43
:101EF00004B070BD2DE9F04FDFF82C8187B0D8F821
:101F0000004081468A4617461E461299637C119806
:101F10000022FFF713F800284DD003699B6805469F
:101F2000984705F0E3FA00FB07F48346FEF772FEDC
:101F3000109B073413F001034FEAD4043FD0002E66
:101F40002CDD002B42D004FB06F01830FEF714FC09
:101F5000034668B30022029218460393FEF748FE38
:101F6000024606A8029BA2F8049040F8042DA2F8AD
:101F700006A017815681D460C2F810B05361156075
:101F8000FEF708FF129B2B61D8F80020039BAB6083
:101F9000527CAA61184607B0BDE8F08F002C34D1FE
:101FA000204676428642A8BF064693B3002ECADC7E
:101FB0002846FFF783F8002007B0BDE8F08F00281F
:101FC000B8BF0330801000EB4000B8E700933A46FA
:101FD00033465146484603F087FC029004FB06F066
:101FE0001830FEF7D7FB03460028B5D128460393E7
:101FF000FFF764F8029B002BDDD01846FEF714FCB7
:10200000039B184607B0BDE8F08F1838B0FBF4F01A
:10201000C7E700933A4633465146484603F064FC0E
:10202000002E0290DADCC3E7FC0000202DE9F04F1F
:10203000594C5A4BD4F800C0DFF868919CF8115005
:10204000D9F8006053F825408BB02369002E00F0CA
:1020500088801746DCF8602080460D46002A00F094
:102060008580E2681268072A78D04D4A9A1AB2FA37
:1020700082F25209002A71D04046FEF7B9FD0346AC
:102080000AA8B3F908B040F8083DB3F90AA0DB6824
:102090000593FEF77FFE404B18680BEB0504B0F983
:1020A0000C30013CE41AB0F90830002CCCBFC4EB72
:1020B0000B045C469D42BDBF591B641A1D4600219E
:1020C000002C50DD0AEB0703B0F90EE0B0F90A006E
:1020D0000791013BCEEB0303002BC8BFC3EB0A0AF9
:1020E000B842C5BFC31BC3EB0A0A00230746BAF1B7
:1020F000000F069337DD4046FFF738FD264B079962
:102100001A68069BD2F860C003FB0B1100EB810636
:10211000BCF1000F30D06046FEF76AFDB0F9043024
:10212000D0F80C800AAAED1AB0F9063042F8040D76
:10213000AD001835FF1A08FB075707441046FEF795
:1021400029FE87B1059B0193CDF80080D9F8005096
:102150005346224631463846A84704E03A462946C7
:1021600040460DF0B9F80BB0BDE8F08FE268126898
:10217000B2FA82F252097DE7507CDFF82CE0CDF80C
:1021800004A04FEA8B020292009433463A46294655
:10219000DEF80040A047E6E7FC000020F4F900204C
:1021A0006058010800FA0020FCF900202DE9F041F8
:1021B00082B00F4690460646FEF71AFD036802AC51
:1021C000DB6844F8040D16215B6A00209847054639
:1021D0002046FEF7DFFD1DB1424639463046A8478E
:1021E00002B0BDE8F08100BF2DE9F04FA1B00D9124
:1021F00010B921B0BDE8F08F92460746FEF7F8FC13
:1022000020AB446943F81C0D1846FEF7C3FD384661
:10221000FFF790FC0828054602DD002C00F0D9806D
:1022200001234FF0000B38461F930A93CDF878B086
:10223000FEF7DEFC0168DFF8688409690446D8F817
:102240000000E3684D68B4F908100F9320AE2369CD
:102250001491407CB4F90A10099346F8144DD4F84F
:1022600014901691FFF74CF9D8F800100890487CAC
:10227000FFF798F904463046FEF78CFD099A0A9B51
:10228000082A40F2A080102A13468CBF04230223A0
:10229000CDF828B00E93A54200F0AC81D8F80030FC
:1022A000587CFFF777F9149B06469800FEF764FA0E
:1022B000129000289DD03846FFF758FC0746B9F128
:1022C000000F00F0F5804846FEF792FC169B1C902C
:1022D000002B40F38B8100230C930F9BCDF840A083
:1022E000FB1815931DAB11934FF001081946836835
:1022F00000221D925B690C9A9847159B0F9A9B1AB6
:102300000B93149B8342044600F03181099B012BFF
:1023100000F0F280002845D01AAB13931298FEF714
:1023200067FC099B1A90082B07461D9A40F2D4803F
:102330000E9B0B99A34602FB031A81463AF8020B47
:10234000A847B047BBF1010B49F8040BF6D1089B35
:102350001F2B04D838461A46214603F0E1FB0A9A9F
:10236000059200220392089A1D9802920D9A1A9BD8
:1023700010990493104401232246CDF80480CDF82F
:10238000008004F063F91398FEF704FD1C981D9B70
:102390008268119957690C9A1C441D94B8470446E9
:1023A0000028BBD1159A0F990C9B0A441592109ADC
:1023B00001321092169A01339A420C9300F0168162
:1023C0001C98119993E7012A6ED11EAB0E920A93C5
:1023D00061E73846FEF70CFC20ABB0F9088043F803
:1023E000100D02460168B0F90A00089018460E69FF
:1023F000D2F80CB009920E93FEF7CCFCA848A9497C
:1024000000687368407C0C9351F820100C692368B5
:102410000A93FFF775F80828099A40D910288CBF4D
:102420002023102309938CBF4FF004094FF00209B9
:10243000A64200F02D82202D00F09E81102D7FF409
:10244000D8AE08FB09F0FEF797F9109000283FF48A
:10245000D0AEFEF7CDFB1E903846FEF7C9FB1C90B0
:10246000236900F118020B92002B00F0228273699D
:10247000002B00F01E82B0F908008000FEF77CF906
:102480000F90002840F069821D900E98FEF782FCA4
:102490001EA8FEF77FFC1098FEF7C6F9A9E60823F0
:1024A00009934FF00109C3E70E93CDF828B0F2E687
:1024B0000A9B05930F9B03930124099B04900293AD
:1024C000149A169B0D9801945146009404F0BEF89E
:1024D0001298FEF7A9F98CE60E9B0B99A14602FB18
:1024E000031B82461BF8010BA847B047B9F101094D
:1024F0004AF8040BF6D12AE700283FF453AF1796A9
:102500000C9F0A9EDDF84090DDF834A0DDF844B061
:102510001395DDF874E00B9D05960EF0070006900C
:102520000AEB0E00BEF1000FB8BF0EF1070E05EB6F
:10253000EE0E0F9DCDF810E022460123494603958B
:10254000CDF80880CDF80480CDF8008004F080FE3E
:102550001C981D9B82681C44594653691D943A4639
:10256000984704460028D4D1139D179E1AE7129865
:10257000FEF73EFB099B1A90082B8146149FDDF85D
:102580002CA0044629D93AF8020BA847B047013FCE
:1025900044F8040BF7D1089B1F2B04D848461A4671
:1025A000149903F0BDFA0A9A059220AB1A460D98C9
:1025B00052F8183D0493144600220392089A02929E
:1025C000CDF80480CDF800800123149A109904F00E
:1025D0003DF82046FEF7DEFBE4E61AF8010BA847BB
:1025E000B047013F44F8040BF7D1D4E71CA8FEF72D
:1025F000D1FB6DE73846FFF7B9FA0746B9F1000F8E
:1026000000F0A9804846FEF7F3FA169B1C90002BB9
:1026100040F39D8000261DABCDF82CA0DDF834A042
:10262000B146012598468368CDF874905B693246BF
:1026300041469847149B834204462DD0099B012BA9
:1026400055D008B30B9B03EB060B0A9B1D98059313
:102650000E9B0F9A039203FB0073099A0292049354
:1026600022465044012359460195009503F0EEFFA0
:102670001C981D9B82681C44414653691D94324638
:10268000984704460028E0D10F9B01361F44169B53
:10269000B3425CDD1C98C6E70897B3461F4604E0CA
:1026A000FC000020F4F90020A3461C9883680BF17D
:1026B00001045B692246414698478742F4D0099954
:1026C00002910B990A9A089F0592C6EB0B030F9A89
:1026D000049731440F9E0392013301950095149A9B
:1026E000504606FB0377264603F0B0FFCFE70028ED
:1026F000CAD00B9B089603EB060BDDF874E00A9832
:1027000005900EF0070006900AEB0E00BEF1000FD8
:10271000B8BF0EF1070E07EBEE0E0F9ECDF810E0DE
:10272000224601235946039602950195009504F02F
:102730008FFD1C981D9B82681C44414653691D9463
:10274000089A984704460028D7D1089E9CE71CA801
:10275000FEF720FB4DE50A9B05930F9B0393012495
:10276000099B04900293149A169B0D98019451466C
:10277000009403F06BFF3CE509FB08F0FDF7FCFF5C
:102780000B9000283FF435ADFEF732FA1E90384624
:10279000FEF72EFA1C90256900F1180745B34FEAA1
:1027A000880B012619E0B9F1040F19D0B9F1010F16
:1027B00016D000221E9909980290012305920392D7
:1027C000049101965146009642460D989A4403F0B2
:1027D0003DFF089B013B089350D0B9F1020FE2D1B5
:1027E00038461E9925694B464246A8475F44E0E7B4
:1027F0000C950126089C14E0B9F1040F00F08D81BE
:10280000994500F035810C9D05950395099D02952C
:102810001E9D01960096049503F018FF013C2DD0F3
:10282000DA460123B9F1020F514642460D980AEBF0
:10283000030BE1D108944FEA88050124DDF8789074
:10284000BB4646465BF8040B0A9B9847013E29F8B5
:10285000020BF7D11E9B099A029204935146012361
:10286000059603960194009442460D989A4403F00D
:10287000EDFE089B013B2F440893DFD10E98FEF735
:1028800089FA1EA8FEF786FA0B98FDF7CDFFB0E493
:102890000124183200260492CDF80CB00295089B52
:1028A0000D980596424651460194009403F0CEFEE1
:1028B0009FE400250126089C16E0B9F1040F00F002
:1028C000FC80994500F0A4801E9F0897099F0297FD
:1028D000089F0595039501960096049703F0B6FEB0
:1028E000013C3FF4D2ADDA460123B9F1020F514663
:1028F00042460D980AEB030BDFD14FEA48060C9DC8
:1029000008940A9F0A9601241E9EDDF82CB0C14649
:102910003BF8020BA847B847B9F1010926F8020BAA
:10292000F6D10B9E1E9A099B0293B6460A9E04920C
:1029300001235146B644CDF81490CDF80C90019483
:10294000009442460D98CDF82CE09A4403F07EFEA8
:10295000089B013B0893D7D197E5FEF749F91D90F5
:1029600000283FF492AD4FEA480337460A93012509
:102970000C940B9E19E0B9F1040F30D0B9F1010F9E
:1029800028D000221E9909980290012305920392F3
:10299000049101955146009542460D989A4403F0E2
:1029A00055FE089B013B08932BD0B9F1020FE2D1F1
:1029B000DDF878B01D994B46424630467C69A04709
:1029C0000A9C1D9826440C9C59464B464246246955
:1029D000A047D6E7DDF878B01D990223ECE7304632
:1029E0001D997C69DDF878B002234246A0470C9C13
:1029F0001D9824694B4659464246A0470A9B1E44EF
:102A0000BFE71DA8FEF7C6F90F98FDF70DFF3CE5DF
:102A100008FA03F60C9D08940A9F0A964C461E9EDF
:102A2000DDF82CB0C1463BF8020BA847B847B9F116
:102A3000010906F8010BF6D10B9E1E9A099B029321
:102A4000B6460A9E049201235146B644CDF814902E
:102A5000CDF80C900194009442460D98CDF82CE0EE
:102A60009A4403F0F3FD089B013B0893D7D10CE592
:102A700008944FEA88054C46DDF87890BB464646F8
:102A80005BF8040B0A9B9847013E09F8010BF7D14C
:102A90001E9B099A029204935146012305960396C0
:102AA0000194009442460D989A4403F0CFFD089B90
:102AB000013B2F440893DFD1E0E64FEA48060C9D26
:102AC00008940A9F0A9601241E9EDDF82CB0C14688
:102AD0003BF8020BA847B847B9F1010946F8040BC7
:102AE000F6D10B9E1E9A099B0293B6460A9E04924B
:102AF00001235146B644CDF81490CDF80C900194C2
:102B0000009442460D98CDF82CE09A4403F09EFDC7
:102B1000089B013B0893D7D1B7E408944FEA880596
:102B20000124DDF87890BB4646465BF8040B0A9B0F
:102B30009847013E49F8040BF7D11E9B099A02926F
:102B4000049351460123059603960194009442464E
:102B50000D989A4403F07AFD089B013B2F4408939B
:102B6000DFD18BE620B321B322B3B2F900C0B1F9B3
:102B70000630F0B5B1F90050B2F902E0B1F9024007
:102B8000B2F90470B2F90660B1F904206545A8BF36
:102B90006546A6457146A8BF2146BA42B8BF3A4627
:102BA000B342B8BF3346058041808280C380F0BD08
:102BB000704711460B684A6842600360704700BF67
:102BC00078B170B4068844888588C38889B292B287
:102BD0000E44144429440680448070BC1A44818009
:102BE000C280704770B4104D2B686A6893420446E7
:102BF0000FD093E807000D4E84E80700B34214BFDE
:102C00000C333C3B2B60207A003018BF012070BC95
:102C10007047074A934206BF3C3393E8070013E925
:102C2000070084E80700EEE700010020A4F600207A
:102C300068F60020034B09CBC01AB0FA80F04009B7
:102C4000704700BF00010020F0B5374E336D85B0EE
:102C50000446002B55D094E80700344C344DF36CF7
:102C6000256001AD85E807000BB128469847314F34
:102C7000D7F800E07B689E4538D0B3422A4C9DF8D7
:102C80000C2035D013F8041C914212D03C3495E846
:102C90000700A34283E807001BD00C339E457B60EE
:102CA0001BD0B36C0BB12846984702F0E1FC05B08D
:102CB000F0BDA3F10C018E45E8D0A1422ED03C34EA
:102CC0000C39097A9142E2D1B34214BF0C3B23463E
:102CD000DDE7154B7B609E45E3D1174B9E4514BF46
:102CE0000EF10C03AEF13C033B60DAE7124CCEE789
:102CF00096F8441091420BD095E8070086E807004B
:102D0000CBE730460D4B40F8503F03F01DFCA2E7E7
:102D100006F13C04A645EFD02146D1E701F13C0481
:102D200003F13001CDE700BF68F60020A41A0120AE
:102D3000B97D000800010020A4F6002005D300089A
:102D400010B5FEF7C5FC0D4A136851688B420FD0D1
:102D50000B4CA34293E803004FF0010414BF083367
:102D6000503B136005F016FE02F06CFE204610BDCD
:102D7000002402F067FE204610BD00BF0C010020B9
:102D8000C8F700202DE9F04F0446EDB089461546FE
:102D90001E46FEF79DFCFDF723FF002C00F07A8114
:102DA000282E00F27781032D00F374811820FDF79F
:102DB000E3FCFDF71DFF8246002800F06B81002137
:102DC000066045608160C16001612378002B00F0DE
:102DD0005581DFF8E0B2B44FA3F13002092A40F286
:102DE0008A811A0600F18081FB56002BC0F27C819B
:102DF00002225146204609F001F9054635B1002D61
:102E0000C0F202812C442378002BE5D1DAF800309F
:102E1000282B20D8DAF80430032B1CDC2420FDF703
:102E2000ABFCFDF7E5FE0190A8B1DAF81030002BFD
:102E300000F04082022B00F03686019A3C9200237B
:102E4000D3601046FDF7CAFF04463CA8FDF7A2FF79
:102E50002046FDF7E9FCDAF808400027002C01F0D5
:102E60006286A36861931846266943B1FDF7B6FFF1
:102E7000054661A8FDF78EFF2846FDF7D5FCE568FD
:102E8000BDB16B686393184643B1FDF7A7FF804659
:102E900063A8FDF77FFF4046FDF7C6FC2846629514
:102EA000FDF79CFF054662A8FDF774FF2846FDF775
:102EB000BBFC20466094FDF791FF044660A8FDF737
:102EC00069FF2046FDF7B0FC3446002EC9D16CAC3A
:102ED000504644F820ADFDF781FF05462046FDF73A
:102EE00059FF2846FDF7A0FC002F00F0D380D7F84B
:102EF00008A03C6809FB0AF515F1070B48BF05F16E
:102F00000E0B4FEAEB0B0BFB05F03030FDF742FCEC
:102F10000190002840F060813868669040B1FDF76C
:102F20005DFF044666A8FDF735FF2046FDF77CFCF3
:102F30006CAC384644F81C7DFDF750FF0546204632
:102F4000FDF728FF2846594CFDF76EFC04F1A00759
:102F5000002654F8043F6793184643B1FDF73EFF3F
:102F6000054667A8FDF716FF2846FDF75DFCBC4245
:102F70002660EED14E4B04931C68002C35D0A3681C
:102F80006B931846E56A43B1FDF728FF06466BA828
:102F9000FDF700FF3046FDF747FCE3686A931846EB
:102FA00043B1FDF71BFF06466AA8FDF7F3FE304666
:102FB000FDF73AFC23696993184643B1FDF70EFF0C
:102FC000064669A8FDF7E6FE3046FDF72DFC2046D3
:102FD0006894FDF703FF044668A8FDF7DBFE204672
:102FE000FDF722FC2C46002DC9D1049A0023136062
:102FF00052E030462696FDF7F1FE044626A8FDF77E
:10300000C9FE2046FDF710FCDAF80840002C35D048
:10301000A36828931846266943B1FDF7DFFE0546ED
:1030200028A8FDF7B7FE2846FDF7FEFBE568BDB111
:103030006B682A93184643B1FDF7D0FE07462AA8CD
:10304000FDF7A8FE3846FDF7EFFB28462995FDF76A
:10305000C5FE054629A8FDF79DFE2846FDF7E4FBC1
:1030600020462794FDF7BAFE044627A8FDF792FEF6
:103070002046FDF7D9FB3446002EC9D15046CDF885
:10308000ACA0FDF7ABFE04462BA8FDF783FE20465F
:10309000FDF7CAFB0023019302F0D4FCFDF772FE9A
:1030A00001986DB0BDE8F08F503F0108C4F60020D4
:1030B000C0F600201C010020B04B83FB0513A3EBDE
:1030C000E5739E00991B2944334401294FEA4303C9
:1030D00000F01C85022900D1073303440C33691C1E
:1030E000A3EBC103002B3EDD02225146204608F02F
:1030F000B5FE054682E6DAF80030092B6ADD1B2BA7
:10310000B4BF0C200E20224612F8013FA3F130017B
:103110000929F9D9151B33B31E06CDD4FB56002B54
:10312000CADB964B83FB0513A3EBE5739E00991B4B
:103130002944334401294FEA430300F0B9800229AE
:1031400000D107336E1C06EBD6714910034401EB26
:10315000810001EB4001F00748BF06310A335B1ADA
:10316000002B3FF745AE002D7FF74EAF214611F8FB
:10317000013B303B092B3FF647AF9142F7D114207A
:10318000FDF7FAFAFDF734FD064600283FF43CAFA0
:103190004FF000087560C6F800802846FDF7ECFA8D
:1031A000FDF726FDB06000283FF423AFDBF80030C8
:1031B0002A4621469847C6F80C80C6F81080DAF8EF
:1031C0000C30002B00F0A5841E61CAF80C600023AF
:1031D000336114E60A2096E7FDF70AFD7A68BB68BA
:1031E0008361426100F11C0301224FF00008C2809C
:1031F000C360022200F12803ADB2C26143624FF006
:103200007F424FF0FF3300F13006C2452590A0F811
:1032100004B08262C362866080F8208045800580A9
:1032200042DD4B440BFB03F302971F4604EB0A05F8
:1032300031468023B9F1000FC8BF00220EDC19E02F
:1032400010F0010F087811D0184308705B0802F1E4
:10325000010204BF0131802391450BD0207810F08A
:10326000020FEDD110F0010F0878EDD020EA030035
:103270000870EBE70134AC42DCD1B9F1010F0CDD91
:103280003146012401EB0B0318465A46FDF727F897
:103290000134A1450146F5D13E4408F10108C2457B
:1032A0005E442C46C2D1029F25A8FDF773FD33E68C
:1032B000043347E7DAF808300393DAF80430CDF83E
:1032C00008A0DDF80CA004932D489F004FF00008E3
:1032D0004FF0010BBAF1000F31D0B8F1000F14BF5D
:1032E000C6464FF0010E554600262A68072A00F20E
:1032F0009180DFE802F0497971864126046F04234A
:103300002D691E44002DF0D1F51D48BF06F10E05B4
:10331000ED101C49012403E00134292C00F08080C9
:10332000CA190B6A926A9B1AAB4201F11C01F3DBCA
:10333000A04580F2DF83A046BAF1000FCDD15546FB
:10334000E7E7AA6851885378127843EA012342EAF2
:1033500003237F2B60D9B3F5804F2CBF1C21142190
:103360006B6804244FF0010C0CEB0302013A92FB52
:10337000FCF204FB0213C3E71423C1E7565555556D
:10338000503F0108004001086B68564981FB03412A
:10339000A1EBE3714FEA810CCCEB01041C446144C6
:1033A000012C4FEA410139D0022C00D10731BEF186
:1033B000090F17DDBEF11A0FCCBF0224012402EB66
:1033C0004202224400EB8202D2F880400BFA04FC55
:1033D0000434C9E70C2393E76B68BEF1090F4FEA89
:1033E000C301E7DC0024EAE76B6803EBD371491003
:1033F00001EB810413F0010F01EB4401D7D006313A
:10340000D5E76B6803EBD371491001EB410401EB85
:103410008401CCE7002373E70C21A1E70431C6E760
:10342000DDF808A0039C049E84B1002502E0246915
:1034300005443CB1DAF8001020460AF0FBF80028F9
:10344000F5DAFAE4EC1DDAF80460E410B500264B76
:10345000012103E0013129293FF4EFAC58191A6A20
:10346000806A121AA24203F11C03F3DBDAF800307F
:103470008B4206DA282998BFCAF80010DAF808400B
:10348000D2E70820FDF778F9FDF7B2FB04460028E3
:103490003FF4D3ACDAF808700023036043601FB92F
:1034A00001F024BB3F690FB3F968204606F09CFF8A
:1034B0000028F7DA60682D9040B1FDF78FFC0546D3
:1034C0002DA8FDF767FC2846FDF7AEF920462C94A1
:1034D000FDF784FC04462CA8FDF75CFC2046FDF7B4
:1034E000A3F9AAE45655555500400108DAF8003012
:1034F000DAF80420C94927680691C3EBC3031A44CC
:1035000001EB820201EB8303D2F8BC20D3F8B45064
:10351000C2EB05084FEAC803BB42C1F2F180BB42CF
:1035200006D0D91B042900F36683002940F08C8261
:10353000002F00F09482FD1D002D2846B8BF07F132
:103540000E00C010FDF718F9FDF752FB06460028E3
:1035500000F0858215EA270538BF3D464FEAE50EA3
:10356000BEF1000FD4F804C030DD0CF10800354680
:1035700006EB0E0810F8081C10F8072C10F8063C93
:103580004900C9B211434900C9B2194310F8052CCA
:1035900010F8043C4900C9B211434900C9B21943AB
:1035A000490010F8033C10F8022CC9B20B435B0031
:1035B00010F8011CDBB2134341EA430305F8013B59
:1035C000454500F10800D5D10CEBCE0C17F00707EC
:1035D00032D0012F9CF800302CD05B009CF80120E9
:1035E000DBB2022F43EA020324D05B009CF80220E6
:1035F000DBB2032F43EA02031CD05B009CF80320DC
:10360000DBB2042F43EA020314D05B009CF80420D1
:10361000DBB2052F43EA02030CD05B009CF80520C7
:10362000DBB2072F43EA020304D15B009CF80620BB
:10363000DBB2134306F80E3060683B9040B1FDF7F3
:10364000CDFB05463BA8FDF7A5FB2846FDF7ECF8AA
:103650006CAD204645F8C84DFDF7C0FB0446284632
:10366000FDF798FB2046FDF7DFF8019B069DDE6025
:103670009AE80C00C2EBC201C81803EB820305EB09
:10368000800005EBC30305EB8101D0F8BC70D1F8D5
:10369000B410D3F83005D3F82C3504901C460293AF
:1036A000C7EB0108002800F066810444034698FB3C
:1036B000F4F8029E97FBF4F708F10101059101FB74
:1036C00003F3019D08FB06F12A600B442A46099189
:1036D000294607FB04F056614B6088600D46FDF7F4
:1036E0004BF8FDF785FA2861002801F06082019D02
:1036F0002001AC61FDF74EF8FDF77AFA2B460390F6
:10370000D861002801F06782019AD3680893C8F154
:10371000FF011D4613690793C91B38461E4609F071
:1037200011FB002801F00E82029A002A34DD039971
:10373000CDF828A0CDF82C9001F11004B9464FF037
:10374000000B47468246904644F80C5C44F8046CF3
:1037500044F8107C44F8089C324629460BF1010BD2
:10376000504608F02BFDD84504F110044E443D446A
:10377000EAD1089B099A0799DDF828A01344029A18
:1037800008934F4602FB07130793039BDDF82C9029
:10379000194601EB02130393049B002B40F0BF81F9
:1037A000019803680793DA00114615921A46CB1A5E
:1037B0000699013A01EB8303272A4FF00001D3F861
:1037C000B060016200F2E281079A154B0493920007
:1037D0009C181492656806FB06F3002D00F0EC823D
:1037E00008931C462046FCF7C7FFFDF701FA834605
:1037F000002800F0CB811499049B0A4A0B445968B5
:103800001368224698471820FCF7B6FFFDF7F0F939
:103810000446002801F0148206E000BF503F010872
:10382000C0F600201C01002001994A6889680660E2
:103830001144701E4FF0FF330029C4F804B0A0609B
:10384000E0602361636138DD0023019F03969846A1
:10385000CDF808903B6A934280F29580F869BA6986
:10386000016893FBF2F58D42A8BF796902FB15321E
:10387000A8BF521800EB02125268555D01333B623B
:103880004FF008098026204608F0C0FD002800F00F
:1038900088802E4214BF03230223B9F101094FEAA5
:1038A00056060370EFD17A68B96808F1010811442F
:1038B0008845CFDB039EDDF80890019BD8685990BE
:1038C00048B1FDF78BFA054659A8FDF763FA28467B
:1038D000FCF7AAFF019B1869589048B1FDF77EFAE2
:1038E000054658A8FDF756FA2846FCF79DFF019BB0
:1038F000D869579048B1FDF771FA054657A8FDF70A
:1039000049FA2846FCF790FF019B56931846FDF7AD
:1039100065FA054656A8FDF73DFA2846FCF784FFF0
:10392000079A159B9B1A069A02EB8303D3F8B8807B
:10393000B8F1000F40F3FF860027022503E0B845E9
:10394000057000F0F886204608F060FD0137002879
:10395000F5D16CAD204645F8444DFDF73FFA0446DD
:103960002846FDF717FA20466CACFCF75DFF584679
:1039700044F848BD5BE098FBF3F897FBF3F705903C
:10398000034626469DE68B425CDAB869F9699A1AC5
:1039900092FBF0F500FB152201EB0212D268555D97
:1039A0006CE7019BDDF80890D868559048B1FDF7A9
:1039B00015FA054655A8FDF7EDF92846FCF734FF42
:1039C000019B1869549048B1FDF708FA054654A8C0
:1039D000FDF7E0F92846FCF727FF019BD8695390D3
:1039E00048B1FDF7FBF9054653A8FDF7D3F9284682
:1039F000FCF71AFF019B52931846FDF7EFF90546B5
:103A000052A8FDF7C7F928466CADFCF70DFF20461C
:103A100045F86C4DFDF7E2F904462846FDF7BAF982
:103A200020466CACFCF700FF44F870BD5846FDF72B
:103A3000D5F905462046FDF7ADF92846FCF7F4FE1A
:103A4000FFF709BA00251BE70022204606F02AFDF1
:103A50000028C0F255862768002F7FF46CAD65689A
:103A60003B95002D01F062812846FDF7B7F9054628
:103A70003BA8FDF78FF928466CADFCF7D5FE204634
:103A800045F8C84DFDF7AAF904462846FDF782F926
:103A90002046FCF7C9FE019A0023D36013463C93ED
:103AA0001846FFF7CFB91420FCF766FEFDF7A0F823
:103AB0000AF11406044600283FF4BFA90723012594
:103AC00080E828002846FCF757FEFDF791F8A06033
:103AD000002801F06181B74B2A461B6831469847A0
:103AE000DAF8083023610022E2600394CAF8084043
:103AF000FFF7E3BBDDF808A0DAF80030A342BFF619
:103B000091AC282C98BFCAF800408BE40433FFF72F
:103B1000E4BACAF80860CAF80C60FFF758BB059B06
:103B2000C3F1FF01C91B384609F00CF9002801F068
:103B30000980049A002A7FF733AE039C079DCDF8D5
:103B40000C900026B046B946089E059FCDF808A007
:103B500010349246834644F80C6C44F8045C44F8F4
:103B6000107C44F8089C2A46314608F10108584662
:103B700008F024FBD04504F110044D443E44EAD142
:103B8000DDF808A0DDF80C900AE66060019BD868BB
:103B90004A9048B1FDF722F904464AA8FDF7FAF821
:103BA0002046FCF741FE019B1869499048B1FDF79A
:103BB00015F9044649A8FDF7EDF82046FCF734FE58
:103BC000019BD869489048B1FDF708F9044648A818
:103BD000FDF7E0F82046FCF727FE019B47931846C7
:103BE000FDF7FCF8044647A8FDF7D4F82046FCF79B
:103BF0001BFEFFF730B917F10B054FF0080048BF67
:103C000007F11205FCF7B8FDFCF7F2FFED100646D0
:103C1000002800F075850022D7EBC50102604260E4
:103C200040F05085C5EB0805002D40F3A3802846E1
:103C3000FCF7A2FDFCF7DCFF8046002801F0A8801D
:103C4000411E0023EC2204E013F0010F0CBFEC2214
:103C5000112201339D4201F8012FF5D10820FCF714
:103C60008BFDFCF7C5FF8346002801F0738000231D
:103C7000EA000360436010460292FCF77DFDFCF70A
:103C8000B7FF0746002801F06280DBF804307BB103
:103C90006CAA184642F8F03D0492FDF79FF8049A8A
:103CA00003901046FDF776F8039B1846FCF7BCFD21
:103CB000029B00228BE88800083743461978C9091F
:103CC00007F8081C1978C1F3801107F8071C197848
:103CD000C1F3401107F8061C1978C1F3001107F869
:103CE000051C1978C1F3C00107F8041C1978C1F349
:103CF000800107F8031C1978C1F3400107F8021C82
:103D000013F8011B013201F00101954207F8011C73
:103D100007F10807D2D15946304606F065FB054643
:103D2000DBF80400329040B1FDF758F8074632A89E
:103D3000FDF730F83846FCF777FD6CAF584647F88A
:103D4000ECBDFDF74BF883463846FDF723F86CAF22
:103D50005846FCF769FD404647F8E48DFDF73EF80C
:103D600080463846FDF716F84046FCF75DFD002D0D
:103D7000C0F2FD873146204606F036FB05467068E6
:103D8000379040B1FDF72AF8074637A8FDF702F84B
:103D90003846FCF749FD6CAF304647F8D86DFDF763
:103DA0001DF806463846FCF7F5FF3046FCF73CFDAB
:103DB00028464DE61C01002018461F460893FCF7D4
:103DC000DBFCFCF715FF804600283FF4DEAEDFF891
:103DD0008CBC2946DBF800303A469847F31F1A4658
:103DE00003FB06F308EB020008EB0305119208EB56
:103DF0000602294694190D9309910B46214601EBC1
:103E0000060E851933440EEB060C02929C19AA1972
:103E1000039105939119A3190C940CEB06040B92D2
:103E20000A46194623462746334494190A921091AC
:103E30008A1902990E930F94C123C02488F8003088
:103E400088F8013088F8023088F8033088F80430A8
:103E500088F8053088F8063008F806304C708C7009
:103E6000CC708B710C714C71039908F816304C7042
:103E70008B70CB700B714C718B710299129701F89A
:103E8000163003998EF801408EF802308EF8033018
:103E90008EF804308EF805408EF8063001F81630A2
:103EA0000E998CF801408CF802308CF803308CF8B5
:103EB00004308CF805408CF806300EF816307C7013
:103EC000BC70FC703C717C71BB710CF816304B708F
:103ED0008B70CB700B714B71119F8B710B9908F824
:103EE0000730971943708370C370037143718371F6
:103EF00083556C70AC70EC702C716C71AB7100F808
:103F000016304C708B70CB700B714C718B713946C5
:103F10000A9F05F816300F987C70BB70FB703B71E0
:103F20007C71BB710B9F0A9D07F816300F9F0B9198
:103F300030447C70BB70FB703B717C71BB7105F8C9
:103F40001630851944708470C47004714471837193
:103F500007F816306B70AB70EB702B716B71AB7137
:103F6000750008460A9509990D9D08F805304B70B3
:103F70008B70CB700B71059F4B718B71059D8B55B1
:103F80007C70BC70FC703C717C71BB710C9F01F843
:103F900016307C70BB70FB703B717C71BB7105F897
:103FA0001630109D0F9530446C70AB70EB702B7118
:103FB0006C71AB71294607F8163017465470937030
:103FC000D37013710B9D5471937101F816306C709E
:103FD000AC70EC702C716C71AB71099907F81630EC
:103FE000029D43708370C370037143718371A6F1A6
:103FF000080388F8074008F80340CC71EC71EC54D2
:10400000059DEC71039D7200EC719119EC540C9DAF
:104010004A00EC7109928EF807400F990EF80340A0
:10402000CC718CF807400CF80340FC71129F0B997F
:10403000FC71FC540E9FCC71099AFC71FC54029BDC
:10404000C47113441F462146DBF80030F5003846A2
:1040500008229847A5F108002146DBF80030082225
:10406000404498470D9B9B1B08EB03022146DBF85D
:1040700000301F92104608229847DBF80030B8192C
:10408000092284219847A8190838DBF80030082253
:104090008421404498470D9B03F1080E06F1080364
:1040A0001946434408EB0E049F1904EB060CB8199B
:1040B000821902930CEB060303EB060B0B931346DA
:1040C000334403930BEB06030593842388F80830ED
:1040D00008F8013002998B5501F8163007F81630B0
:1040E000039900F8163002F816300B9A01F81630D2
:1040F00008F80E30A35504F816300CF8163002F804
:104100001630059A0BF816300635102E454402F885
:10411000163011DD099B07334344A6F10F0001213E
:1041200001F0010262F06F020131D2B2814203F864
:10413000012F2A703544F3D1079B012B00F0B78281
:10414000069B159A9A18D2F84C3AD2F8502AB2EB3C
:10415000030B00F1C085F21A92FBFBF2911C01FBEC
:1041600001F1042900F0B7850132012A039240F3DE
:10417000A8850A9F9A1E06FB02F0C4190294B91979
:10418000BC46029F16927518B2004744D418059594
:104190000D970D180A9F01EB020E454421440B9127
:1041A0000C9505991518274494441395029708EB2C
:1041B00004050D9F09951797351987190C440EEBC7
:1041C00003010CEB030ECDF814E008EB070E08EB2F
:1041D00000071398129140441A9009981990029878
:1041E000DDF830C045440F9508EB00050B9811959C
:1041F00008EB000512980E95444499190A4410944E
:1042000008EB00040B94059808EB02040BFB06F284
:1042100003EBC60105920022129208EB0005012271
:1042200008EB0100CDF86CA0CDF87890DDF85CA02B
:10423000DDF86490CDF85C80DDF868800292A02102
:10424000A1221C961D931890129B13983A711E1868
:104250000D987A71184419901798BA71064402980B
:10426000FA71013002900C983A7218441A9018466C
:10427000059B8EF804201844129019988EF80510AA
:104280008EF806108EF807108EF8082002711A9822
:104290008AF805108AF806208AF807108AF808209C
:1042A00002718CF805108CF806108CF807108CF849
:1042B0000820099832710F9E88F8052088F806209A
:1042C00088F8072088F808201F449E449A449C449C
:1042D000984400EB0B0300F8022C099309F8012C19
:1042E00089F8002089F8012089F80220334606F871
:1042F000022C119E04F8011C5B4421706170A270B5
:104300000F9306F8022C33460E9E0B9805F8011CFD
:104310005B44119333465B442A706970AA7006F8B7
:10432000022C00F8011C017041708270109E0E93E7
:1043300003465B4418980B9333465B441093034643
:104340005B4406F8022C189300F8012C02704270AE
:104350008270039B02989842D9445C445D447FF488
:1043600073AFDDF86CA01C9EDDF85C801D9BDDF852
:104370007890169ACDF834A006FB02334344099393
:1043800000230B93A022A1230C96CDF83880CDF802
:104390003C900C9D099F02972946394428460844C1
:1043A0002C4604446519A946A04684468E463E46DE
:1043B0004FF0000A029F07F8023C5F440297039FF8
:1043C00006F8013C0AF1010A574533707370B37067
:1043D0000EF8023C5E4401F8012C0A704A708B70A2
:1043E000DE440CF8023C594400F8012C0370427082
:1043F0008370DC4408F8023C584404F8012C227015
:104400006270A370D84409F8023C5C4405F8013C92
:104410002B706B70AB70D9445D44CBD10B9909986C
:10442000059C013120448F420B910990B1D1DDF8F8
:1044300034A00C9EDDF83880DDF83C90079B062BFD
:1044400040F33581073B212B98BF069A0A9C98BF01
:1044500002EB8303A6F10B0298BFD3F8943B1892AA
:1044600088BF002308EB02018F191691C3F30011D6
:104470000991C3F380110B91C3F3C0110C91C3F3E5
:1044800000210D91C3F340210E91C3F380210F91C0
:10449000C3F3C0211091C3F300311191C3F3403134
:1044A0000297C3F34005C3F3C0071291C3F38031F1
:1044B00003950597C3F380051391C3F3C031029FA1
:1044C0001E9165F07701059D07EB060C039F039194
:1044D00065F07701099D0591C3F3401B65F07701F5
:1044E0000B9D09916BF077010A9165F077010C9DA6
:1044F0000B9165F077010D9D0C9165F077010D91A1
:104500000E9D9DF814B065F077010F9D179165F031
:104510007701109D199165F07701119D1A9165F051
:104520007701129D1B9165F07701139D1C9165F039
:1045300077011E9D1D9106FB02F003F0010262F05F
:10454000770265F077010D46D1B20A469DF80C104E
:1045500012919DF8241011919DF8281010919DF84A
:104560002C100F919DF830100E919DF834100D9184
:104570009DF85C100C9167F077079DF864100B9123
:104580000444FFB29DF868101397A6460A91A41B35
:104590009DF86C1008F80020099117929DF8701092
:1045A000059108EB00029DF84C0008F804009DF806
:1045B00074109DF8480008F80E00444408EB0E0003
:1045C00003919DF8441082F801B061709DF840108D
:1045D00041709DF83C1091709DF83810A1709DF8C5
:1045E000341081709DF83010D1709DF82C10E1705E
:1045F0009DF82810C1709DF8241011719DF81410B9
:104600002171EDB29DF80C1001715571C3F3004298
:10461000C3F3404362F0770263F077035FFA82FEF0
:10462000DBB2189A84F805E00CEB060743719DF89D
:104630005C10169808F802101C469DF84C20427039
:10464000BB199A199DF848101392029A81709DF82F
:10465000441000F806B051709DF8401091709DF81C
:104660003C1000F816109DF838108CF801100298D4
:104670009DF834108CF802109DF8301000F81610D8
:104680009DF82C1079709DF82810B9709DF82410B1
:104690000CF816109DF8141059709DF80C109970B4
:1046A000139A139B07F8165083F801E09470149A3C
:1046B000049B1F99089C134481220A72C3F804804A
:1046C000FFF790B805F0EEFE0028BFF6ABAA7068C1
:1046D0002F9040B1FCF782FB05462FA8FCF75AFB50
:1046E0002846FCF7A1F86CAD304645F8F86DFCF7AC
:1046F00075FB06462846FCF74DFB3046FCF794F860
:104700006068399040B1FCF769FB054639A8FCF7B1
:1047100041FB2846FCF788F86CAD204645F8D04DA3
:10472000FCF75CFB04462846FCF734FB2046FCF70C
:104730007BF8FEF782BBDAF8043008980293FCF7A6
:104740001BF8FCF755FA0746002800F0B28270000B
:10475000B21E00EB060C06FB02F2CCEB020EC6EB1F
:104760000E03059308321C92059A069001460EF13D
:10477000080E1944CDF874E002F1080E069A039170
:104780007518CDF814E0B10002F1080E039A0495F3
:104790006D1A05EB4C00CDF848E002F1080E049AC2
:1047A0000990CDF818E002F1080E099AAA4B01937E
:1047B000083214928A190832159201F108022292E5
:1047C0000299A74ACDF844E04FEAC60808EB060371
:1047D00002EB411202925A1E1A929A1E1892DA1E87
:1047E00017921A1F10925A1F0D929A1F08350E9297
:1047F000C6EB0800DA1F083B1E9516930CF108055E
:1048000000F108030F921395099308F103031B931A
:1048100008F10503219308F102030B9308F1040347
:104820000C9308F107031F9308F10103209308F18B
:1048300008030A9306F1080319936FF0004200235E
:10484000049403921C4604E0864B019A934200F0C4
:104850000D81019B3A4653F8045F01935946304657
:10486000A847029B53F8041B0293024601F0010083
:1048700000281A9B14BF85208420C1F3400CF854F3
:1048800016BF022500254FF0040E189B387208BF92
:104890004FF0020EBCF1000F0CBF4FF0840C4FF034
:1048A000850C07F803C0199B4FEA910118BF7546A4
:1048B00007F803C0CB07179B4CBF85208420F85412
:1048C000129B4FEA5101F85448BF0235109BC807AC
:1048D0004CBF85208420F854139B4FEA5101F854B3
:1048E00048BF0235CB070D9B4CBF85208420F85470
:1048F000229B4FEA5101F85448BF02350E9BC8076E
:104900004CBF85208420F854159B4FEA5101F85480
:1049100048BF0235CB070F9B4CBF85208420F8543D
:10492000099B4FEA5101F85448BF0235169BC8074E
:104930004CBF85208420F8540A9B23924FEA5101F2
:10494000F85448BF0235CB071E9B4CBF85208420FE
:10495000F8541F9B4FEA5101F85448BF0235059B9C
:10496000C8074CBF85208420F854219B4FEA510191
:10497000F85448BF0235CB071D9B4CBF85208420CF
:10498000F8540C9B4FEA5101F85448BF0235069B7E
:10499000C8074CBF85208420F8541B9B4FEA510167
:1049A000F85448BF0235CB07119B4CBF85208420AB
:1049B000F8540B9B4FEA5101F85448BF02351C9B39
:1049C000C8074CBF85208420F854209B48BF02357F
:1049D000F8548B07149B4CBF85208420F85439462B
:1049E00007F80800304648BF023509F0B9FC239AA1
:1049F0001D4B2A44089DC82101FB025292FBF5F28F
:104A000002EBD2725210323A002AB8BF524283FBF4
:104A10000235D217C2EB650505EB8505039B00EB5C
:104A200045059D42BFF610AF5C944CB12046FCF7A3
:104A3000D5F904465CA8FCF7ADF92046FBF7F4FE77
:104A40000898FBF799FEFCF7D3F8002867D03C469E
:104A500003950746F8E600BF684B010820010020D7
:104A60008C4B0108884B0108676666666CAD38465A
:104A700045F83C7DA046049CFCF7B0F90746284663
:104A8000FCF788F93846FBF7CFFE4346002B00F0D1
:104A900010810C20FBF770FEFCF7AAF8074620B146
:104AA000079B43608660C7F800806CAD204645F8E0
:104AB000344DFCF793F904462846FCF76BF9204681
:104AC0006CACFBF7B1FE584644F838BDFCF786F9EC
:104AD00005462046FCF75EF92846FBF7A5FEDAF806
:104AE0000840002C3EF4F3A9FEF7BBB9DAF8003019
:104AF000DAF80420AB490691C3EBC3031A4401EB77
:104B0000820201EB8303D2F8BC20D3F8B450C2EB8D
:104B100005085FEAC8037EF502AD3997FCE5049C01
:104B20005D90B846B5E76CAC504644F820ADFCF754
:104B300055F905462046FCF72DF92846FBF774FE8B
:104B4000FEF7A8BA019BD868469048B1FCF746F931
:104B5000044646A8FCF71EF92046FBF765FE019BBC
:104B60001869459048B1FCF739F9044645A8FCF7A7
:104B700011F92046FBF758FE019BD869449048B1D3
:104B8000FCF72CF9044644A8FCF704F92046FBF78F
:104B90004BFE019B43931846FCF720F9044643A8BB
:104BA000FCF7F8F82046FBF73FFEFEF754B9019BEF
:104BB000D8683E9048B1FCF711F904463EA8FCF7CE
:104BC000E9F82046FBF730FE019B6CAC184644F830
:104BD000BC3DFEF72CBF019BD868429048B1FCF762
:104BE000FDF8044642A8FCF7D5F82046FBF71CFE6A
:104BF000019B1869419048B1FCF7F0F8044641A8C0
:104C0000FCF7C8F82046FBF70FFE019BD8694090DF
:104C100048B1FCF7E3F8044640A8FCF7BBF820468F
:104C2000FBF702FE019B3F931846FCF7D7F80446BA
:104C30003FA8FCF7AFF82046FBF7F6FDFEF70BB9EF
:104C4000019BD8684F9048B1FCF7C8F804464FA8BC
:104C5000FCF7A0F82046FBF7E7FD019B18694E9092
:104C600048B1FCF7BBF804464EA8FCF793F8204681
:104C7000FBF7DAFD019BD8694D9048B1FCF7AEF81F
:104C800004464DA8FCF786F82046FBF7CDFD019BB6
:104C90004C931846FCF7A2F804464CA8FCF77AF8A7
:104CA00020466CACFBF7C0FD584644F884BDFEF7C7
:104CB000BEBE204607F0C6FE584607F0C3FEFEF70C
:104CC000CAB8002A7FF7BAAB9A1E16920BFB06F2FF
:104CD0000592FFF74EBB9A1E06FB02339A1E08EBA5
:104CE00002018C19A123A01908F802308519A0220D
:104CF0004B708B70CB700B718B5523716270A270EF
:104D0000E27001F81630A91942708370C270037105
:104D100004F816306A70AA70EA702B7100F8163029
:104D20004B708B70CB700B71FFF788BB6CAE20465D
:104D300046F8C84DFCF752F804463046FCF72AF80E
:104D40002046FBF771FD019BDD60FEF7A8BE5846CB
:104D500005F098FC6CAD404645F8E48DFCF73EF854
:104D600007462846FCF716F83846FBF75DFD7068E5
:104D7000359040B1FCF732F8054635A8FCF70AF843
:104D80002846FBF751FD6CAD304645F8E06DAEE4CA
:104D9000304605F077FCB3E4204607F053FEFEF7FB
:104DA0004CB800BF503F010800B97047FBF73CBD4D
:104DB00000B97047F0B5044683B016460D46FCF7BF
:104DC00087FC2046FBF714FF02AC00F1300C00F129
:104DD0001C0E00F1280744F8040DC0F808C0C0F804
:104DE0000CE0324629464762FCF786FA2046FBF77C
:104DF000D1FF00F027FE03B0F0BD00BFF0B5164CA8
:104E0000059E2568069CB5F908E0B5F90C7070455B
:104E1000B8BF7046BA42A8BF3A4690421ADCB5F90C
:104E20000A70B5F90E50B942B8BF3946AB42A8BFB7
:104E30002B468B4203DAF0BD25682DB12C46E56880
:104E40002D6835F00405F7D106940596BDE8F040CD
:104E500002F010B8F0BD00BFFC000020B0F9022045
:104E6000B1F906309A4214DCB1F90220B0F90630EB
:104E70009A420EDCB0F90020B1F904309A4208DC05
:104E8000B0F90400B1F900308342CCBF002001200A
:104E900070470020704700BF08B5034B01467422DD
:104EA0001868FBF71CFA08BDFC00002000B9704729
:104EB0002DE9F04FABB004460D4616461D921C91ED
:104EC000FCF706FC2046FBF793FEB0F904300468BB
:104ED00027909D42129400F083810020FCF76CFF24
:104EE0009F4B129A1B689269597C20900846279D17
:104EF0002191824218BF5A74B5F9043007931846BD
:104F0000B5F90810B5F906301992B5F90A201393CE
:104F10001C46091A121B0E460B911A922146144682
:104F2000324601322B8A1B92224601329B071E9287
:104F300040F137811C9B6A6903921B1A1D9A1493D6
:104F4000002BA2EB010440F3BD810993DDF86C90C6
:104F500000234FF0010A1193002C40F3BE811E9BE9
:104F600016930123179415934FF0000B129E7D4B5F
:104F7000B0691B56012B40F39F810023ADF8A2308E
:104F8000ADF8A03001F03EFE431EB069ADF8A4308C
:104F900001F07EFE0138ADF8A6002798524600F1D8
:104FA000140105F00BFC2290002800F0F9802798EE
:104FB000524600F1140105F001FC2490002800F095
:104FC000EA80279BD868002840F09781169A5A45B6
:104FD00000F0DD801B9B119923909A000BFB0313BB
:104FE00005EB83030E93C4EB0B030C93139B1599F2
:104FF000234418934FEA8A0301FB02F204935B46B1
:105000001F92D346C8469A46179B534500F3098121
:105010001A9B5345B4BF002301231093139B119C8B
:1050200053440F93189BA0455344089300F0A0806D
:105030001498079B0E9D0344C0EB04090A935FE09C
:105040000B9BA3426CDB109B002B69D0BDF9A02009
:10505000BA4240F3778200230593B9F1000FC0F202
:10506000CC800C9B002BC0F2C8801A46494603989E
:10507000FCF7F2F9030E40F0C080BDF9A030069AAB
:105080009A420FDBBDF9A2200F998A420ADCBDF9D2
:10509000A42006998A4205DBBDF9A6200F998A4211
:1050A00080F2A4809F4223DBBDF9A230089883429E
:1050B0001EDCBDF9A430BB421ADBBDF9A630834229
:1050C00016DB3046284B239E1B6846F07F41FF22AB
:1050D0009847199A254B53F822301B691B6898474B
:1050E000229B00930246129B0899384609F0DAFF8A
:1050F000059B2B625C44049BA0451D44D94437D0DA
:10510000524621460398FCF7A7F9030E0646F1D054
:10511000079BE31806930A9B1F19099BA3428FDD87
:10512000BDF9A030BB421A466ADCBDF9A23008992D
:105130008B424FF0000371DC0D93BDF9A430BB42EC
:1051400004DBBDF9A630089A93426DDA002305937B
:105150000D9B002B81D1BDF9A02013468FE700BF26
:10516000FC000020F0F9002030010020F4F90020BC
:105170000E9B1F99159A0B440E930C9B1946169B78
:105180009244114453450C917FF43EAF279B18681D
:10519000249909F015FC279B2299186809F010FC46
:1051A000279D1C9B1B9A1D99AB801E98E980134478
:1051B000013B4A1E02442B81199B6A81219A1946A0
:1051C000914202D0A64B1B685A742098FCF7F4FD5C
:1051D00027A8FBF7DFFD00F035FC2BB0BDE8F08F12
:1051E000B0F906309E427FF478AEF1E7249B2A6A3C
:1051F00006980093129B09F055FFBDF9A03051E7C6
:10520000069A934207DCBDF9A2200F99914202DB76
:10521000002205923BE70023059369E705931346B7
:105220002DE700231093F9E6279BB3F90420BA4237
:105230002DDCB3F90810B94229DBB3F906E0089870
:10524000864524DCB3F90A10814220DB5869259396
:10525000E8B1BB1A19460593089BCEEB03031A4627
:105260002393FCF7F9F8030E259B10D0B3F9041033
:10527000B3F90820521A239902FB011205990A4436
:1052800003EB82031B6A059343F07F400BE0129B04
:10529000186800282DD0C368089A5B69394698477A
:1052A000059040F07F40199A6E4B53F822301B69ED
:1052B0005B68984723904BE7F368304628A91B6B3F
:1052C00098476AE600220992149A119633464FF0E5
:1052D000FF391344CA460B933EE64FF0FF331A9A48
:1052E00016931593002317931346234493461A935A
:1052F0003CE605904FF07F40D5E7FBF779FC169B25
:1053000026905B4500F0A6801B9B11999A000BFB31
:10531000031305EB83030D93C4EB0B030C93139B57
:105320001599234401FB02F218934FEA8A03109265
:105330000493079A149B1344C8460A93D946179BB3
:105340004B4500F3AF801A9B4B45B4BF00230123AC
:105350000F93139B4B440E93189B4B440893119B44
:10536000984569D0149A0D9D1C46C2EB030B4A4622
:1053700021460398FCF770F80646002856D0079B94
:10538000E31806930A9B1F19099BA3426CDC0B9B35
:10539000A34269DB0F9B002B66D0BDF9A030BB4256
:1053A000D8BF012300F3CB80BDF9A22008998A421F
:1053B00007DCBDF9A420BA4203DBBDF9A6208A426E
:1053C0007DDA0022059263B1BBF1000F62DB0C9B1A
:1053D000002B5FDB1A4659460398FCF73DF800287E
:1053E00058D1BDF9A030069A9A420EDBBDF9A22031
:1053F0000E998A4209DCBDF9A42006998A4204DB91
:10540000BDF9A6200E998A423DDA9F420CDBBDF918
:10541000A23008998B4207DCBDF9A430BB4203DB04
:10542000BDF9A6308B4240DA059B2B625444049BA5
:1054300044451D44D3449AD10D9B1099159A0B44B1
:105440000D930C9B1946169B9144114499450C9160
:105450007FF475AF26A8FBF79DFC279B97E600BF5E
:10546000FC000020F4F90020BDF9A030BB4217DD9C
:10547000069A934211DCBDF9A2200E9991420CDBF1
:1054800000220592B7E7249B2A6A06980093129B94
:1054900009F008FEBDF9A030B7E700230593C3E784
:1054A000002381E700230F9353E7269B53F8262020
:1054B000229B00933846129B09F0F4FDB4E7279A2B
:1054C0000592B2F90420BA420DDC0598B0F9081033
:1054D000B94208DBB0F906E008998E4503DCB0F963
:1054E0000A0088420DDA129A106800283FF469AF6A
:1054F000C2681F9339465369089A98471F9B0590C5
:1055000061E72593BB1A1F93CEEB01021946059B59
:1055100023925869FBF7A0FF259B0028E3D005984C
:10552000B0F90410B0F90820521A239902FB0112B5
:105530001F990A4400EB8202126A059243E7002396
:10554000059341E7BDF9A230089A93423FF783AD36
:1055500001230D93F1E500BF08B5034B74221968D0
:10556000FAF7BDFE08BD00BFFC00002008B5FCF73F
:10557000AFF801F079FD01F059FE01F0E9FFBDE857
:10558000084000F05FBA00BF70B50D4D2B680446AF
:105590005E7CFCF79DF8012C03D900F053FA3046ED
:1055A00070BD2046FBF752FE0028F6D02B685C74D5
:1055B000FFF7DCFF034B1C6000F044FA304670BD7F
:1055C000FC0000203C1A012010B50446FCF780F8CE
:1055D000204601F06BFDBDE8104000F033BA00BF7B
:1055E00010B50446FCF774F8204601F099FDBDE8BB
:1055F000104000F027BA00BF10B50446FCF768F869
:10560000204601F0A5FD044600F01CFA204610BD1E
:1056100070B504460D461646FCF75AF83246294640
:10562000204601F0B5FD044600F00CFA204670BD9E
:1056300038B505460C46FCF74BF8094A094B126889
:105640000949507C094A53F820000D80C368148032
:10565000294622461C6AA047BDE8384000F0F2B94E
:10566000FC000020F4F90020E2F90020E4F9002019
:10567000024B1B6803B11847704700BFE8F70020D2
:10568000024B1A6802B91860FFF7F2BF74F70020E6
:1056900000B970472DE9F041DFF8C08082B00546BF
:1056A000FCF716F8D8F80040A54242D06E461CB967
:1056B00017E0FBF76FFBA4B12046FBF799FA84686B
:1056C0000090A5423046F4D12846FBF791FA009BA2
:1056D0008268019001A89A60FBF75CFB3046FBF7FB
:1056E00059FB2846FBF784FAD8F804400090A542FD
:1056F0001A4B2CD001AF1CB910E0FBF74BFB6CB17F
:105700002046FBF775FA44680190A54203463846E7
:10571000F3D1009A52685A60FBF73CFB3046FBF726
:1057200039FB2846FBF780F800F08CF902B0BDE8A1
:10573000F0812846FBF75CFA02AF836847F8040D56
:105740003846C8F800306E46FBF724FBC9E74268CC
:105750005A603046FBF71EFBE3E700BFACF80020C1
:1057600030B583B018B90124204603B030BD0446DB
:105770000D46FBF7ADFF2046FBF73AFA02AB8289F4
:1057800043F8040D2A42184614BF01240024FBF7F5
:1057900001FB00F057F9204603B030BD30B50A4B8D
:1057A0001C68002383B003605CB105462046FBF70C
:1057B0001FFA02AB026943F8040D2A601846FBF792
:1057C000E9FA204603B030BDACF8002070B50023E4
:1057D00082B00B6018B90446204602B070BD0D4679
:1057E000FBF706FA8468019001AE2CB93046FBF74E
:1057F000D1FA204602B070BD3046FBF7CBFA204606
:10580000FBF7F6F9036901902B60EFE72DE9F84308
:10581000089C054689469846AB6849465F68284615
:105820004346561CB847013C3246F5D1BDE8F883E3
:10583000F8B5B0F90040B0F904500C1BAC422BDABB
:10584000B0F9021005692344013B521AE61005FB2A
:105850000265DF4307F00707FF21143504F0070452
:1058600001FA07F241FA04F4D6EBE306D7B2E4B248
:1058700000EB0502435D10D0013E1C43002E02F1F7
:105880000103445505DD18463246FAF752FD03463A
:1058900033441C783C431C70F8BD3C401C434455C9
:1058A000F8BD00BF70B4B0F902600369B0F9004000
:1058B000921B03FB02F2091B143202EBE10280256A
:1058C000835C01F0070145FA01F11943815470BC72
:1058D000704700BF03460021B3F906201B6914304E
:1058E00003FB02F2FAF725BD2DE9F04302F10F04A4
:1058F000241164001E4603FB04F383B0804603F1C9
:10590000140017468946FAF745FF0546B8B1FBF77C
:10591000DFFE2846FBF76CF9014602A80A4A40F868
:10592000041D01238F80CE800C61A1F80080A1F8B6
:1059300002908A608B81FBF72DFA00F083F82846ED
:1059400003B0BDE8F08300BFEC580108B0F90630A1
:1059500093423CDDF0B50D68B0F90470BD4234DA15
:1059600006694FEAE50E06FB02E6143605F007036A
:10597000845D04FA03F3013F013613F0FF03CEEB1D
:10598000E702304408D122B310F8013B083525F076
:105990000705013A002BF6D01E0634D45B00DBB2BB
:1059A0001C0605F10105F9D55F062C4605D55B00FF
:1059B000DBB25E0604F10104F9D404F00703072BFF
:1059C00009D0621B501C0D60F0BD0020F0BD00200E
:1059D00070471046F0BD002AF3DD0678FF2E00F177
:1059E00001070DD1831803E017F8016BFF2E07D1D3
:1059F000BB4204F10804F7D1E3E77600F6B20134C4
:105A00003306FAD4DDE7FF2B08BFEC1DD5D0CBE77A
:105A100030B5054683B0FBF75BFE2846FBF7E8F898
:105A200002AB848943F8040D013C24B284811846FA
:105A3000FBF7B0F914B92846FAF7F6FE00F002F8C1
:105A400003B030BD034A5368013B536003B1704754
:105A50000AF030BAD4F70020F0B583B0C0B9224CB8
:105A600023690546CBB1E0681F4E18B91F4B186873
:105A7000F060D8B123681C4F002623B363681A4F27
:105A8000C3B115B1A368184C2BB3304603B0F0BDB9
:105A9000154C236901AD002BE5D12046144B40F88D
:105AA000143F0123236100F04FFDDCE701F064F8AF
:105AB000F060DFE7F8688000FAF7E0FE002808BF32
:105AC00001267860DDE78000FAF7D8FEB0FA80F6AC
:105AD00038607609D2E7E0688000FAF7CFFE002848
