:020000040800F2
:1000000050A20120590200088F000108E9FB0008F6
:100010008D00010819F40008F11501080000000026
:10002000000000000000000000000000A101000826
:1000300091F8000800000000F50100088112010895
:1000400073020008730200087302000873020008BC
:1000500073020008730200087302000873020008AC
:10006000730200087302000873020008730200089C
:10007000730200087302000873020008730200088C
:10008000730200087302000873020008730200087C
:10009000730200087302000873020008730200086C
:1000A000730200087302000873020008730200085C
:1000B000730200087302000873020008730200084C
:1000C000730200087302000873020008730200083C
:1000D000730200087302000873020008730200082C
:1000E000730200087302000873020008730200081C
:1000F000730200087302000873020008730200080C
:10010000730200082D03010873020008730200083F
:1001100073020008730200087302000873020008EB
:100120007302000873020008730200087DF60008DD
:1001300073020008730200087302000873020008CB
:1001400073020008730200087302000873020008BB
:1001500073020008730200087302000873020008AB
:10016000730200087302000873020008730200089B
:10017000730200087302000873020008730200088B
:100180007302000873020008DFF810D000F010F9C5
:1001900000480047D9340108AFF3008050A2012085
:1001A0002A4B19680868B0E8F04F80F30988BFF35C
:1001B0006F8F4FF0000080F311887047000000003F
:1001C00006480068006880F3088862B661B6BFF32D
:1001D0004F8FBFF36F8F00DF00BF00BF08ED00E05F
:1001E000DFF80C00016841F470010160704700BF46
:1001F00088ED00E0EFF30980BFF36F8F134B1A68AF
:100200001EF0100F08BF20ED108A20E9F04F10609B
:1002100008B44FF0500080F31188BFF34F8FBFF345
:100220006F8F14F0FBF84FF0000080F3118808BCCA
:1002300019680868B0E8F04F1EF0100F08BFB0EC66
:10024000108A80F30988BFF36F8F70476800002021
:10025000EFF30580704700000648804706480047D6
:10026000FEE7FEE7FEE7FEE7FEE7FEE7FEE7FEE766
:10027000FEE7FEE795120108890100082DE9F05F0D
:100280000546002092469B46884606468146402405
:100290001BE0284641464746224600F078F8534680
:1002A0005A46C01A914110D311461846224600F012
:1002B0005FF82D1A67EB01084F4622460120002106
:1002C00000F056F817EB00094E41201EA4F101047E
:1002D000DFDC484631462A464346BDE8F09F10B56C
:1002E000441A0346944209D28418114403E011F8D9
:1002F000013D04F8013D521EF9D210BD40EA01044F
:10030000A40703D009E010C9121F10C3042AFAD2AF
:1003100003E011F8014B03F8014B521EF9D210BD56
:10032000D2B201E000F8012B491EFBD27047002237
:10033000F6E710B513460A4604461946FFF7F0FFE4
:10034000204610BD30B50B46014600202022012476
:1003500009E021FA02F59D4205D303FA02F5491B93
:1003600004FA02F52844151EA2F10102F1DC30BDA9
:10037000202A04DB203A00FA02F100207047914065
:10038000C2F1200320FA03F3194390407047202A5A
:1003900004DB203A21FA02F00021704721FA02F32F
:1003A000D040C2F120029140084319467047000036
:1003B000064C074D06E0E06840F0010394E80700B2
:1003C00098471034AC42F6D3FFF7E2FE240F04083E
:1003D000440F040870B58C1810F8015B15F0070382
:1003E00001D110F8013B2A1106D110F8012B03E0CE
:1003F00010F8016B01F8016B5B1EF9D12B0705D4D6
:100400000023521E0DD401F8013BFAE710F8013B1E
:10041000CB1A921C03E013F8015B01F8015B521E3A
:10042000F9D5A142D8D3002070BD000038B5204BCB
:10043000204C1D6801F014FA284605F0CDFA03F0AF
:100440009FFB1D4B1D6801F00BFA284605F0FEFAD4
:1004500003F096FB01F004FA236801221A7603F0F8
:100460008FFB01F0FDF9236800259D8503F088FBD3
:1004700001F0F6F923685D8503F082FB01F0F0F9E5
:10048000284605F0FBFA03F07BFB0C4B1D6801F0DE
:10049000E7F9236805B1DD6103F072FB01F0E0F9D3
:1004A000236800229A76BDE8384003F069BB00BF9C
:1004B000F4000020F8000020F0000020EC000020F4
:1004C0002DE9F04F4F4E3368DA69B3F92250D46901
:1004D000B4F80CB083458BB07DD8E18981427AD3E2
:1004E000216808914FF0FF31CBEB000B0791BBF176
:1004F000FF3F6AD0177EB3F92A80A27CB3F924901B
:1005000094F810A017FB02F34046069305F0B6FAE4
:100510003368069A0899099002FB0B109A6BDB6905
:1005200004900592A27C03924FF0010BCDF808B025
:10053000DA7E01929B7E009328463B46524649460E
:1005400004F0ACFB079801301CD048F0020005F025
:1005500095FA2C4A079812680899069B03FB00132A
:10056000916BD26905910493A37C0393CDF808B0F5
:10057000D37E0193937E009352463B4649462846DC
:1005800004F08CFB33681F4FDB695A7E1B7E9A4256
:1005900014D9B8F1020F11D088F0040005F06EFAFA
:1005A0003B68DB69187ED97E9A7E5B7E00FB0191F9
:1005B0000AFB02524B44284604F056FD9DF82400E5
:1005C00005F05CFA3368B3F92250627C15445D840F
:1005D0000BB0BDE8F08FA1680029F6D00F88B842B3
:1005E000F3D3B1F802E08645EFD34968C01B80B26F
:1005F0006768089701EB800731F920B0B7F902105E
:10060000079174E7F8000020044B1B68DB69DB6985
:1006100009B11A7C0A60587C704700BFF8000020BE
:1006200002230B80704700BFC3699A898A4202D8AF
:10063000DA898A4211D2986818B10388994201D2A6
:100640000020704742888A42FAD3C91A436833F8B7
:100650002100C043C0F3C03070470120704700BF85
:100660002DE9F047234E3368002B3FDD224D234F09
:100670002C68D7F80090C3EB431804EB880808F106
:100680000C080C344FF0000AA4F108037422184639
:100690004946FFF724FE221F2063A06344F80CACF8
:1006A0006263E4607C34A045EED10024A04603E000
:1006B00092B13268904514DA0FF034FA2B681A5967
:1006C000904203EB040108F1010804F17C04EFD12E
:1006D00004313960BDE8F087086004313960BDE855
:1006E000F087194604313960BDE8F087024B034FAB
:1006F0001968EDE718010020E47E0120F8000020D1
:10070000F8B5194F194B1A4E384640F80C3F04F013
:1007100009FA3468C4EB4414A400204600F0AEF893
:10072000144B386022461B68002198474FF0FF3376
:1007300073600FF0FDF93368002B11DD00242546AE
:1007400003E072B133689D420ADA0FF0EBF93B68BF
:100750001A599042234405F1010504F17C04F0D1BB
:10076000F8BD1860F8BD00BFE47E0120B1E20008CA
:10077000180100202401002000B9704710B504467C
:1007800001F06EF8204608F031F9044603F0F8F95C
:10079000204610BD70B5054601F062F825B9002469
:1007A00003F0EEF9204670BD01F05AF8284608F033
:1007B0001DF9044603F0E4F9002CF0D0144E15495D
:1007C000F269736B0132F26113F83420013203F8DD
:1007D000342003EBC4032A465D680B6805F108006A
:1007E000002198472968726B12F83130012B01D92A
:1007F000F06930B9013B02F8313003F0C1F920460D
:1008000070BD0138013BF06102F83130F5E700BFFF
:100810004481012024010020024B21F0030183E8E0
:1008200003007047D07D012000B9704770B50D4CB2
:10083000054601F015F8636BEE00334459684868CB
:1008400007F026FF626B6368616A1644013300207B
:100850006360716002F835006562BDE8704003F0C6
:100860008FB900BF4481012028B1034AD36B0360D4
:1008700003B15860D063704744810120F8B5894EB8
:1008800096F828300446002B2FD00334356CF26BD9
:1008900024F003040434A54238BF254662B152F85F
:1008A000043C9D42144604D114E054F8043C9D429B
:1008B00010D02468002CF8D1F368B46B1C4454F8B1
:1008C000041C611A0B68002B65D14B689D426CDDDE
:1008D000002408E023680BB161685960616801B1C8
:1008E0000B60A24253D02046F8BD6F4B9A685868FF
:1008F000012186F828100AB982089A605A253562C3
:1009000010272022402519683764B2643565802796
:100910004FF480724FF40075B7653266B5664FF4D8
:1009200080674FF400624FF48055A1F114033767DC
:10093000B267C6F880504FF400574FF480424FF42E
:1009400000450344C6F88870C6F89020C6F8985051
:100950004FF480374FF400324FF48025C6F8A07072
:10096000C6F8A820C6F8B050022201254FF400278F
:10097000B16373633261F060C6F8B8705D60756230
:10098000756007F085FE0CF0F9FB35637DE72368A1
:10099000F3632046F8BD00200DF01AFE54F8041C45
:1009A000611A0B68002B93D18FE7D6F8B8703D4AD7
:1009B000581B041DBB420C4472D2D2F8B070BB422B
:1009C0006CD2D2F8A870BB4266D2D2F8A070BB42FB
:1009D00060D2D2F898709F425AD9D2F89070BB4238
:1009E00054D2D2F88870BB424ED2D2F88070BB424B
:1009F00048D2926F934243D2376F2A4ABB423DD2CC
:100A0000976EBB4238D2176EBB4233D2976DBB4252
:100A10002ED2176DBB4229D2976CBB4224D2126CE6
:100A200093420CD2F2687369521B2B44F2607361DB
:100A300010B944F8045C56E707F02AFEF9E70022F3
:100A40003768D1F808E0FB1A3360CB68BEF1000FBD
:100A500001D0CEF8043013B1C3F800E0E2E706EBB2
:100A6000C202C2F844E0DDE70122E9E70222E7E73B
:100A70000322E5E70422E3E70522E1E70622DFE7B8
:100A80000722DDE70822DBE70922D9E70A22D7E7B8
:100A90000B22D5E70C22D3E70D22D1E70E22CFE7B8
:100AA0000F22CDE744810120D07D0120F8B54A4CCA
:100AB00094F82830002B3DD0D4F8BC30464A3BBBDC
:100AC000D2F8B43023BBD2F8AC300BBBD2F8A43090
:100AD000F3B9D2F89C30DBB9D2F89430C3B9D2F86C
:100AE0008C30ABB9D2F8843093B9D36F83B9536FDC
:100AF00073B9E36E63B9536E53B9D36D43B9536D94
:100B000033B9D36C23B9536C13B96FF00B00F8BD34
:100B10009B68002BF9D0002201E09B6843B1596823
:100B20009B689142104684BF0A461046002BF4D1C0
:100B30000C38F8BD294B9A685868012184F82810B0
:100B40000AB982089A601968A1635A2610222025E2
:100B500026622264A564402780264FF480724FF4F9
:100B60000075A1F114032765A6652266A5664FF4FA
:100B700080674FF400664FF480524FF400550344F1
:100B80002767A667C4F88020C4F888504FF48047D0
:100B90004FF400464FF480324FF40035C4F89070A3
:100BA000C4F89860C4F8A020C4F8A8500222012517
:100BB0004FF480274FF4002663632261E060C4F89D
:100BC000B070C4F8B8605D606562656007F060FD94
:100BD0000CF0D4FA25636FE744810120D07D012019
:100BE000024A936901339361704700BF4481012039
:100BF000074AD169536B0131D16113F830200132BA
:100C000003F8302003EBC00358680830704700BF7A
:100C100044810120F8B5584C00F022FE94F82830A9
:100C2000002B57D0D4F8BC30534A9BBBD2F8B43019
:100C300083BBD2F8AC306BBBD2F8A43053BBD2F834
:100C40009C303BBBD2F8943023BBD2F88C300BBB2A
:100C5000D2F88430F3B9D36FE3B9536FD3B9E36EED
:100C6000C3B9536EB3B9D36DA3B9536D93B9D36CF4
:100C700083B9536C73B96FF00B034049DA1781FBEA
:100C80000313C2EB6313246A04FB03F402F078FF3E
:100C90002046F8BD9B68002BF5D0002201E09B6840
:100CA00043B159689B689142104684BF0A4610467A
:100CB000002BF4D10C38B0F5800F0346DDD8226A42
:100CC0002E4B02FB00F0A3FB00235C0902F058FF4F
:100CD0002046F8BD2A4B9A685868012184F82810EC
:100CE0000AB982089A601968A1635A261022202541
:100CF00026622264A564402780264FF480724FF458
:100D00000075A1F114032765A6652266A5664FF458
:100D100080674FF400664FF480524FF4005503444F
:100D20002767A667C4F88020C4F888504FF480472E
:100D30004FF400464FF480324FF40035C4F8907001
:100D4000C4F89860C4F8A020C4F8A8500222012575
:100D50004FF480274FF4002663632261E060C4F8FB
:100D6000B070C4F8B8605D606562656007F090FCC3
:100D70000CF004FA256355E7448101201F85EB51EF
:100D8000D07D0120024A9369013B9361704700BF07
:100D90004481012030B403680A4A53F8085C0446D1
:100DA000506B10F83530012B03D9D16909B10139E5
:100DB000D161013B00F8353000221046226030BC82
:100DC000704700BF44810120034B5B6B03EBC00005
:100DD00040680830704700BF448101202DE9F04190
:100DE00014460646884600F03BFD204600F05AFCBB
:100DF000E8B9A7001B4D3B1905EB8303DA68B24243
:100E000006D11B69434503D1BDE8F04102F0B8BEED
:100E10003B1905EB83035869D0B93C4405EB8404C6
:100E2000E660C4F81080BDE8F04102F0A9BE0D4BA9
:100E300004EB840403EB840463689A685968C2EB8A
:100E40000802711A02F082FCBDE8F04102F098BE7F
:100E50005B689A685968C2EB0802711A02F0B2F82E
:100E6000DBE700BFF07F0120C3B2CAB29A1A92B288
:100E700030B415B2002DBCBF524215B2C0F30723E7
:100E8000C1F307229B1A9BB2090C1AB2C1EB1041A5
:100E9000002A89B20CB2BCBF5B421AB2002CBCBFA4
:100EA00049420CB202FB02F205FB0520A1B201FB94
:100EB000010030BC704700BF2DE9F041002182B035
:100EC000084600F03FFC00F0CBFC042004F0D6FD07
:100ED000174B1B69DD6C1C6DA5F57F57A4F57F567C
:100EE00005F57F5504F57F5480463F3F3F353F3E33
:100EF0003F346846ADF80070ADF80450ADF80260BC
:100F0000ADF8064006F0D2FD48B123462A463146E8
:100F1000384604F0A9F806F087FC0028F5D14046D1
:100F200004F0ACFD02F02CFE02B0BDE8F08100BF81
:100F3000E800002070B586B005460E4602A81146AE
:100F4000144603F0C7FDBDF80A1006395E296AD8B9
:100F5000DFE801F0676563615F5D5B596957555371
:100F6000514F4D4B49474543413F3D3B6969696995
:100F700069696969696969696969696969696969E1
:100F800069696969696969696969696969696969D1
:100F900069696969696969696969696969696969C1
:100FA00069696969696969696969696969696969B1
:100FB000696930000023009302A833462A4621467F
:100FC00003F01AF8002006B070BD184BF3E7184B79
:100FD000F1E7184BEFE7184BEDE7184BEBE7184B31
:100FE000E9E7184BE7E7184BE5E7184BE3E7184B41
:100FF000E1E7184BDFE7184BDDE7184BDBE7184B51
:10100000D9E7184BD7E7184BD5E7184BD3E7184B60
:10101000D1E7184BCFE7184BCDE7184BCBE7184B70
:10102000C9E7184BC7E70120CDE700BF60010408FE
:10103000A0010408B001040880010408900104081C
:10104000C0000408D0000408E0000408F000040810
:101050000001040810010408880E0408B000040808
:10106000700104089C0604086C0604087C06040849
:10107000200104083001040840010408500104085C
:10108000DC060408BC060408012B12DCF8B5064691
:101090001C2017460C461D46FFF7F0FBB8B154B1B3
:1010A00004610023836085618782C66003604360BA
:1010B000F8BD00207047074B53F825200AB9F0E728
:1010C0001A461368002BFBD113690361E9E700207E
:1010D000F8BD00BF1C820120012B3BDC2DE9F84349
:1010E00081461C2090460F461E46FFF7C7FB05466B
:1010F00000287FD0414A002F31D00023DFF804E1DF
:1011000052F8264003609EF8001007618E42866107
:10111000A0F81480C0F80C904360836002DB731C5D
:101120008EF80030002C5DD021464C68002CFBD19D
:10113000D9F80000CB681B6883422CDD09680029C0
:10114000F8D148B92E4B16361A68284642F8265070
:10115000BDE8F883002070472846BDE8F88352F8C0
:101160002610002930D0084600E018460368002BFE
:10117000FBD1DFF890E000692B6028619EF8000049
:10118000AE618642A5F81480C5F80C906B60AB6028
:10119000CBDB0C46C3E70AD04B6843B31D606B60E2
:1011A0008D4214BF0B4600234D602B60C9E7B8F198
:1011B000010FF1D104E0D9680C6884421946EBDBD9
:1011C0000B68002BF7D1E7E7DFF838E001609EF805
:1011D000003086619E42A0F81480C0F80C904160F7
:1011E0008160D6DA42F82650D9F80000A9E742F823
:1011F0002650D5E70020BDE8F88300BF1C820120FF
:10120000F800002015820120FFF72EBB00283CD0FB
:1012100070B48469012C03DD0123184670BC70474B
:101220001E4B1F4D1A789442A4BF621C1A7055F8C9
:1012300024300BB92FE013465A68002AFBD1C2684C
:10124000116802E01B68002BE6D0DA681268914250
:10125000F8DB0DD05A68DAB110604260984214BFD2
:101260001A46002258600023026070BC184670477E
:10127000828A012AEED104E0D3681E68B142134687
:10128000E8DC1A68002AF7D1E4E701231846704722
:1012900045F82400E2E745F82400BEE71582012066
:1012A0001C82012000284DD02DE9F041DFF89CE0A0
:1012B000254F9EF80060BC4602E02846002D27D04E
:1012C00084690568012CF8DCB44257F82430A4BFC7
:1012D000661CF6B20BB932E013465A68002AFBD1FD
:1012E000C268116802E01B68002BE6D0DA68126859
:1012F0008A42F8DC10D05A68A2B11060426098426D
:1013000014BF1A460022586002602846002DD7D12B
:101310008EF80060BDE8F081828A012A0BD05A68FD
:10132000002AEAD147F82400E9E7D368D3F800801F
:1013300088451346DFDB1A68002AF6D1DBE74CF854
:101340002400BAE7704700BF1C82012015820120EB
:101350000F4A816952F8213098420AD042680AB196
:1013600003681360036803B15A600023036043609D
:101370007047036842F821302BB100225A6042685E
:10138000002AEED1F0E74268002AEAD1EDE700BF7B
:101390001C8201200020704701280EDC084B53F806
:1013A000200058B1C3681B681BB908E0C3681B68FC
:1013B00023B100680028F9D17047002070477047BA
:1013C0001C8201202DE9F84307460EF0ADFB0744CF
:1013D0000EF0AAFB3E1A002EDFF86090DFF8608066
:1013E00022DD00F0C7F8D9F800309E42A8BF1E46A3
:1013F00000F036FAD8F80040FFF7F2FBB4B125460A
:1014000002F0BEFB013DFBD130460EF089FB00F03F
:1014100027FA013CFBD1FFF7B5FC02F0B1FB0EF05F
:1014200083FB3E1A002EDCDCBDE8F88330460EF06C
:1014300077FBFFF7A7FC02F0A3FBF0E70401002015
:10144000E87E01202DE9F04FDFF8F49089B00446E2
:1014500090460F4600F004FAD9F800302088DA6C84
:101460001D6D63881744A844421E013B3A4443441F
:1014700006A8ADF81870ADF81A80ADF81C20ADF8CC
:101480001E3006F013FB00284ED0DFF8B8A0CB4684
:101490001AE040F0020002F04DF9216921B3D4F8BE
:1014A0000CE0A668638822888DE840400120039004
:1014B00002900E6838464146B047284602F03AF995
:1014C00006F0B2F900282FD00020E66802F032F9C9
:1014D000054616B13379002BDBD125F0020002F06E
:1014E00029F921690029DAD1D9F80020DAF8003089
:1014F000527CE06821469847E188D0B16388228811
:10150000A6680590A08802910121039001910091A5
:1015100038464146049603F0C1FB284602F00AF91A
:1015200006F082F90028CFD102F02AFB09B0BDE80D
:10153000F08F012904BFDBF80030986BDEE700BFB5
:10154000F8000020E800002070B5044688B00D4681
:10155000164600F085F9224603A86946FFF7EAFC23
:1015600020B93246294603A8FFF76CFF02F008FBBA
:1015700008B070BD2DE9F041124F134EDFF84C80DA
:1015800000253C681CB1A047041C18BF012404F0CE
:1015900041FF3368002818BF01244BB1984738B188
:1015A000D8F8003013B1012498473CB10125E8E791
:1015B000D8F80030002BF7D1002CF7D12846BDE831
:1015C000F08100BF40820120448201203C82012042
:1015D000002850D0C388013B10B5848880681F2B39
:1015E00047D8DFE803F0162346314646463C4646D8
:1015F0004646464646404646464646464646464691
:10160000464646464610A31002FB031150F821003F
:1016100010BD02FB04F200EBD104C843A35C00F050
:10162000070023FA00F000F0010010BD02FB04F2F5
:1016300000EB91046FEA4100A35C00F0060023FA7E
:1016400000F000F0030010BD02FB04F200EB5104B7
:10165000CB07A05C4CBF00F00F00000910BD02FBDF
:101660000404605C10BD631002FB031130F811002C
:1016700010BD002010BD7047034B53F82000C36815
:1016800008219B6A184700BF1C82012010B500F09A
:10169000E7F803F029FD03F01FFF044602F070FA9B
:1016A000204610BD01289ABF024B53F820000020AD
:1016B000704700BF9C80012070B504460E46154659
:1016C00000F0CEF820462A46314603F0B1FD04462C
:1016D00010B1002333602B6002F052FA204670BD37
:1016E00038B505460C4600F0BBF8064A064BB2F981
:1016F0000020B3F900302A602360BDE8384002F0D2
:101700003FBA00BF0A8201200C8201200448342322
:1017100035216122017002718370C370704700BF70
:1017200008010020024B53F820301B6918687047ED
:101730001C820120024B53F820301B695868704707
:101740001C82012038B505460C4600F089F8044B90
:101750001B685D849C8402F013FA002038BD00BF32
:10176000F800002090B583B000AF344A334B1B68BB
:1017700023F001031360324B01221A6000BF304B8B
:101780001B68002BFBD12F4B2F4A1A602D4B1B6877
:101790002E4A934200D0FEE702F0EEFB2C4B2E22A5
:1017A0001A700EF0C3F92B480CF00CFA0DF054FD32
:1017B000786003F0A7FD0346002B0CBF0123002334
:1017C000DCB203F0E5FD0346002B0CBF0123002330
:1017D000DBB22343DBB2002B09D003F0A9FD0446A2
:1017E00003F0ECFD03461946204604F041F90021C0
:1017F000002001F0BBFF05F035FAFEF731FF164B74
:101800001B68002B12D00DE0134B1B681B68002BCC
:1018100003D0114B1B681B6898470F4B1B685B6814
:101820000D4A13600C4B1B68002BEDD10B4B0122B2
:101830001A707B6818460C37BD4690BD002000E04A
:101840000830024000300240C2A507F4CDB5E8B52B
:1018500008820120E47D01205C7E012014820120A9
:101860002DE9F041234D6B6823B10EF05BF9AB68B5
:10187000984204D00EF09CF90EF054F9A8606B6801
:101880000133012B6B6001D0BDE8F0811A4F3B683A
:10189000002B29DD0024264606E042B33B680136D2
:1018A0009E4204F17C041FDA0EF03CF92B681A59B1
:1018B00090422344F1D17B68B342E5D0002B10DB8A
:1018C0002A68C3EB431302EB8308FFF763FD2B6821
:1018D000C8F878001C44094BA06F04341C60FFF763
:1018E000E1FC7E60BDE8F08100242646E3E7186055
:1018F000E1E700BFE47E012018010020F80000208D
:1019000010B582B028B9134B1B681C6E14B902B015
:1019100010BD0446FFF7A4FF2046FFF769F902ABAC
:10192000446943F8080D1846FFF734FA1CB902F071
:1019300027F902B010BD2046FFF75AF902AC8268C1
:1019400044F8040D936898472046FFF723FA02F005
:1019500017F9EEE7F800002000B97047014A114678
:1019600000F002B801F0FFFF2DE9F04784B00C460B
:1019700015460646FFF774FF002001F0DBFEDFF896
:10198000E480D8F80030814630461F6EFFF730F90A
:1019900003680090986901F083FE314B9C42009BE4
:1019A00004BFB3F90440B3F906501A895B89ADF856
:1019B0000840013A013B22442B448246ADF80C20FA
:1019C000ADF80E30ADF80A5004F07EFA6846FFF725
:1019D000E1F902A806F06AF848BB504601F060FE43
:1019E000FFF73EFF002F38D0D8F800301B6E8BBBBE
:1019F00004F0B4FB3846FFF7FBF804ACD8F800302D
:101A000044F80C0D1F660068FFF700FC2046FFF746
:101A1000C1F904F0C7F804F00BF802F0B1F8484639
:101A200001F088FE02F0ACF804B0BDE8F0872A4669
:101A30002146304600F0A0FC05F0F6FE0028CCD090
:101A40002A462146304600F097FC05F0EDFE0028BE
:101A5000EDD1C2E701F016FECAE701F013FEDCE7A4
:101A600001F0FFFFF80000202DE9F04385B00646A5
:101A7000904699460F46FFF7F3FE1C4A1C4B12682E
:101A8000507C53F8204001E02468FCB1E3681A68F8
:101A9000042AF9D1DB6A0121204698470546D8B1CE
:101AA0002469A3689847013018D00C9B02940093D6
:101AB00001954B4642463946304600F0E3FA04466B
:101AC00002F05EF8204605B0BDE8F083FFF764FC45
:101AD000044648B1C368DDE70446F1E70C9B054CBA
:101AE00043F001030C93E0E72046ECE7F800002008
:101AF0001C820120280E040800B9704710B582B07E
:101B00000446FFF7ADFE104B1B681B6E9C4217D0BE
:101B10002046FFF76DF84369019063B90068FFF74D
:101B200073FB01A8FFF736F92046FEF77DFE02F0B1
:101B300027F802B010BD184602F008F80198EDE74A
:101B400001F0A0FDE4E700BFF80000202DE9F04F10
:101B500087B0064692461C468946FFF781FE564BE3
:101B60001A68564B577CDB57012B384640F3978059
:101B700003F0CEFB0546384603F010FC0746002E66
:101B800000F08A8005A904A8FFF7AAFD049A059B26
:101B9000B6F900C0B6F90200B6F904E0B6F90610CD
:101BA00015441F44013D2CEAEC73013F20EAE0722A
:101BB000029303927545D4BFC3EB0503C3EB0E0339
:101BC0008F42D4BFC2EB0702C2EB01021D4617468B
:101BD0000135013704B97C42002D4FDD002F4DDD6A
:101BE000109B00932A46234603990298FFF73CFF77
:101BF0008046002848D000F099F88742064604D075
:101C00002D4B1B68986C002851D1404600F09CF980
:101C1000DFF8ACB03D4600240EE0AD1BACB9504639
:101C2000C847DBF800303444FF2003B198474046F2
:101C3000FFF792FEA74212DDAE42EEDD2946404696
:101C400000F062F9AD1B002CE9D0039B02994046DD
:101C50001A1900F0A9F94046FFF752FEDFE74046A7
:101C6000FFF74AFF002000F06FF9B74206D0124B91
:101C70001B68986C10B1332106F02CFC01F080FF3A
:101C8000002007B0BDE8F08F5046C84701F078FF4C
:101C9000012007B0BDE8F08F039602969AE703F0A3
:101CA000E1FA0546384603F007FB074667E73221AD
:101CB00006F010FCA9E700BFF80000201882012000
:101CC0002081012030B5044683B098B1FFF7C8FDEC
:101CD0002046FEF78DFF036802AD1B6945F8040D31
:101CE0009B68984704F0BEF804462846FFF752F870
:101CF00001F046FF204603B030BD00BFA0B110B5D3
:101D0000044682B0FFF7ACFD2046FEF771FF02AB40
:101D100000F1180443F8040D1846FFF73BF801F0F2
:101D20002FFF204602B010BD704700BF10B504461B
:101D300082B0FFF795FD7CB12046FEF759FF02AB5C
:101D4000B0F90A4043F8040D1846FFF723F801F0F4
:101D500017FF204602B010BD044B1B681C6E002C00
:101D6000EAD101F00DFF204602B010BDF8000020BE
:101D70002DE9F04FDFF888B189B0064605273046D7
:101D8000FEF736FF034607A8B3F90080B3F9044015
:101D9000B3F90290B3F906500793C8EB0404013479
:101DA000D3F824A0C9EB0505FEF7F4FF002C05F1DC
:101DB000010555DD002D53DDBAF1000F55D104F0BA
:101DC00077FC86427FD04A4B01934FF0010A494687
:101DD00040462B462246CDF808B0CDF800A000F0D2
:101DE00051F980463046FEF703FF0790C0F8248083
:101DF000B8F1000F60D0836ADFF8089143F48033B4
:101E0000836207A8FEF7C6FF404600F09DF80590E4
:101E1000504601F00DFF4046FFF770FF354A364B44
:101E20001978136805FB04F29200344C9847304649
:101E30002568C9F8006004F06DFC2060304606F0AB
:101E40003BFA002210462560C9F8002001F0F0FEA0
:101E5000059800F079F83046FEF7B6FF406AF0B911
:101E6000013F8CD109B0BDE8F08F5046FEF7C0FEAF
:101E7000034608A8B3F9045040F8083DB3F90640FA
:101E8000FEF788FFA8450FD04A464146504600F06D
:101E90008BF83046FEF798FF406A0028E0D000F04B
:101EA000BFF809B0BDE8F08FA145D4D04A464146FD
:101EB000504600F079F8ECE707A8FEF76BFF3046D4
:101EC00006F0FAF9CCE703F007FA824603F04AFA83
:101ED000544503DC85427FF776AFA2468542A8BF12
:101EE00005462A465146304605F070FB54466AE7DF
:101EF000980E040824010020248101204081012043
:101F0000280E0408C8A2012030B50D4683B028B9B8
:101F10000C4B1B681C6E14B903B030BD0446FFF7B0
:101F20009FFC2046FEF764FEB0F90A300190AB42F8
:101F3000C8BF458101A8FEF72DFF01F021FE03B0C7
:101F400030BD00BFF8000020F0B5164F83B0044646
:101F5000FFF786FC3B681E6EE4B1C6B904F0FEF8DC
:101F60002046FEF745FE02AD3B6845F8040D1C66B1
:101F70000068FFF74BF92846FEF70CFF03F012FE4E
:101F800003F056FD01F0FCFD304603B0F0BD01F05A
:101F900079FBE3E701F076FB01F0F2FD304603B098
:101FA000F0BD00BFF800002070B50D4682B01646A7
:101FB00028B91A4B1B681C6E14B902B070BD0446D8
:101FC000FFF74EFC2046FEF713FE36B22DB2C68058
:101FD0008580009003F02CFD009B586930B968465D
:101FE000FEF7D8FE01F0CCFD02B070BDFEF700FE9A
:101FF000009A0190B2F90830B2F90A20C2808380B9
:1020000013B10AB10580468001A8FEF7C3FE6846F9
:10201000FEF7C0FE01F0B4FDE6E700BFF8000020C7
:1020200000B9704770B5044684B0FFF719FC20462C
:10203000FEF7DEFD014601A8B1F90460B1F90650D2
:102040000A894B89019132442B44013A013BADF896
:102050000860ADF80C20ADF80E30ADF80A50FEF770
:1020600099FE02A805F022FD40B12A4631462046DD
:1020700000F064F905F0D8FB0028F6D101F080FDEE
:1020800004B070BD2DE9F04FDFF82C8187B0D8F88F
:10209000004081468A4617461E461299637C119875
:1020A0000022FEF7F1FF00284DD003699B6805462A
:1020B000984703F0D7FE00FB07F48346FEF7AAFD1E
:1020C000109B073413F001034FEAD4043FD0002ED5
:1020D0002CDD002B42D004FB06F01830FEF74CFB41
:1020E000034668B30022029218460393FEF780FD70
:1020F000024606A8029BA2F8049040F8042DA2F81C
:1021000006A017815681D460C2F810B053611560E3
:10211000FEF740FE129B2B61D8F80020039BAB60BA
:10212000527CAA61184607B0BDE8F08F002C34D16C
:10213000204676428642A8BF064693B3002ECADCEC
:102140002846FFF761F8002007B0BDE8F08F0028AF
:10215000B8BF0330801000EB4000B8E700933A4668
:1021600033465146484601F05DFC029004FB06F000
:102170001830FEF70FFB03460028B5D1284603931D
:10218000FFF742F8029B002BDDD01846FEF74CFB10
:10219000039B184607B0BDE8F08F1838B0FBF4F089
:1021A000C7E700933A4633465146484601F03AFCA9
:1021B000002E0290DADCC3E7F80000202DE9F04F92
:1021C000594C5A4BD4F800C0DFF868919CF8115074
:1021D000D9F8006053F825408BB02369002E00F039
:1021E00088801746DCF8602080460D46002A00F003
:1021F0008580E2681268072A78D04D4A9A1AB2FAA6
:1022000082F25209002A71D04046FEF7F1FC0346E3
:102210000AA8B3F908B040F8083DB3F90AA0DB6892
:102220000593FEF7B7FD404B18680BEB0504B0F9BA
:102230000C30013CE41AB0F90830002CCCBFC4EBE0
:102240000B045C469D42BDBF591B641A1D4600210C
:10225000002C50DD0AEB0703B0F90EE0B0F90A00DC
:102260000791013BCEEB0303002BC8BFC3EB0A0A67
:10227000B842C5BFC31BC3EB0A0A00230746BAF125
:10228000000F069337DD4046FFF738FD264B0799D0
:102290001A68069BD2F860C003FB0B1100EB8106A5
:1022A000BCF1000F30D06046FEF7A2FCB0F904305C
:1022B000D0F80C800AAAED1AB0F9063042F8040DE5
:1022C000AD001835FF1A08FB075707441046FEF704
:1022D00061FD87B1059B0193CDF80080D9F80050CE
:1022E0005346224631463846A84704E03A46294636
:1022F00040460CF0D9FD0BB0BDE8F08FE2681268E3
:10230000B2FA82F252097DE7507CDFF82CE0CDF87A
:1023100004A04FEA8B020292009433463A462946C3
:10232000DEF80040A047E6E7F80000201C8201200C
:10233000280E040828820120248201202DE9F04182
:1023400082B00F4690460646FEF752FC036802AC88
:10235000DB6844F8040D16215B6A002098470546A7
:102360002046FEF717FD1DB1424639463046A847C4
:1023700002B0BDE8F08100BF2DE9F04FA1B00D9192
:1023800010B921B0BDE8F08F92460746FEF730FC49
:1023900020AB446943F81C0D1846FEF7FBFC384699
:1023A000FFF790FC0828054602DD002C00F0D980DC
:1023B00001234FF0000B38461F930A93CDF878B0F5
:1023C000FEF716FC0168DFF8688409690446D8F84E
:1023D0000000E3684D68B4F908100F9320AE23693C
:1023E0001491407CB4F90A10099346F8144DD4F8BE
:1023F00014901691FFF740F9D8F800100890487C27
:10240000FFF798F904463046FEF7C4FC099A0A9B88
:10241000082A40F2A080102A13468CBF042302230E
:10242000CDF828B00E93A54200F0AC81D8F800306A
:10243000587CFFF777F9149B06469800FEF79CF945
:10244000129000289DD03846FFF758FC0746B9F196
:10245000000F00F0F5804846FEF7CAFB169B1C9063
:10246000002B40F38B8100230C930F9BCDF840A0F1
:10247000FB1815931DAB11934FF0010819468368A3
:1024800000221D925B690C9A9847159B0F9A9B1A24
:102490000B93149B8342044600F03181099B012B6E
:1024A00000F0F280002845D01AAB13931298FEF783
:1024B0009FFB099B1A90082B07461D9A40F2D48077
:1024C0000E9B0B99A34602FB031A81463AF8020BB6
:1024D000A847B047BBF1010B49F8040BF6D1089BA4
:1024E0001F2B04D838461A46214601F0B7FB0A9A3A
:1024F000059200220392089A1D9802920D9A1A9B47
:1025000010990493104401232246CDF80480CDF89D
:10251000008002F0C3FB1398FEF73CFC1C981D9B47
:102520008268119957690C9A1C441D94B847044657
:102530000028BBD1159A0F990C9B0A441592109A4A
:1025400001321092169A01339A420C9300F01681D0
:102550001C98119993E7012A6ED11EAB0E920A9333
:1025600061E73846FEF744FB20ABB0F9088043F83A
:10257000100D02460168B0F90A00089018460E696D
:10258000D2F80CB009920E93FEF704FCA848A949B2
:1025900000687368407C0C9351F820100C69236824
:1025A0000A93FFF769F80828099A40D910288CBFC8
:1025B0002023102309938CBF4FF004094FF0020928
:1025C000A64200F02D82202D00F09E81102D7FF478
:1025D000D8AE08FB09F0FEF7CFF8109000283FF4C2
:1025E000D0AEFEF705FB1E903846FEF701FB1C90AF
:1025F000236900F118020B92002B00F0228273690C
:10260000002B00F01E82B0F908008000FEF7B4F83D
:102610000F90002840F069821D900E98FEF7BAFBDB
:102620001EA8FEF7B7FB1098FEF7FEF8A9E60823F0
:1026300009934FF00109C3E70E93CDF828B0F2E6F5
:102640000A9B05930F9B03930124099B049002931B
:10265000149A169B0D9801945146009402F01EFBAB
:102660001298FEF7E1F88CE60E9B0B99A14602FB4F
:10267000031B82461BF8010BA847B047B9F10109BB
:102680004AF8040BF6D12AE700283FF453AF179617
:102690000C9F0A9EDDF84090DDF834A0DDF844B0D0
:1026A0001395DDF874E00B9D05960EF0070006907B
:1026B0000AEB0E00BEF1000FB8BF0EF1070E05EBDE
:1026C000EE0E0F9DCDF810E02246012349460395FA
:1026D000CDF80880CDF80480CDF8008003F074FABE
:1026E0001C981D9B82681C44594653691D943A46A8
:1026F000984704460028D4D1139D179E1AE71298D4
:10270000FEF776FA099B1A90082B8146149FDDF894
:102710002CA0044629D93AF8020BA847B047013F3C
:1027200044F8040BF7D1089B1F2B04D848461A46DF
:10273000149901F093FA0A9A059220AB1A460D9863
:1027400052F8183D0493144600220392089A02920C
:10275000CDF80480CDF800800123149A109902F07E
:102760009DFA2046FEF716FBE4E61AF8010BA8478F
:10277000B047013F44F8040BF7D1D4E71CA8FEF79B
:1027800009FB6DE73846FFF7B9FA0746B9F1000FC4
:1027900000F0A9804846FEF72BFA169B1C90002BF0
:1027A00040F39D8000261DABCDF82CA0DDF834A0B1
:1027B000B146012598468368CDF874905B6932462E
:1027C00041469847149B834204462DD0099B012B18
:1027D00055D008B30B9B03EB060B0A9B1D98059382
:1027E0000E9B0F9A039203FB0073099A02920493C3
:1027F00022465044012359460195009502F04EFAB5
:102800001C981D9B82681C44414653691D943246A6
:10281000984704460028E0D10F9B01361F44169BC1
:10282000B3425CDD1C98C6E70897B3461F4604E038
:10283000F80000201C820120A3461C9883680BF13D
:1028400001045B692246414698478742F4D00999C2
:1028500002910B990A9A089F0592C6EB0B030F9AF7
:10286000049731440F9E0392013301950095149A09
:10287000504606FB0377264602F010FACFE7002801
:10288000CAD00B9B089603EB060BDDF874E00A98A0
:1028900005900EF0070006900AEB0E00BEF1000F47
:1028A000B8BF0EF1070E07EBEE0E0F9ECDF810E04D
:1028B000224601235946039602950195009503F09F
:1028C00083F91C981D9B82681C44414653691D94E2
:1028D000089A984704460028D7D1089E9CE71CA870
:1028E000FEF758FA4DE50A9B05930F9B03930124CD
:1028F000099B04900293149A169B0D9801945146DB
:10290000009402F0CBF93CE509FB08F0FDF734FF39
:102910000B9000283FF435ADFEF76AF91E9038465B
:10292000FEF766F91C90256900F1180745B34FEAD8
:10293000880B012619E0B9F1040F19D0B9F1010F84
:1029400016D000221E990998029001230592039245
:10295000049101965146009642460D989A4402F021
:102960009DF9089B013B089350D0B9F1020FE2D1C9
:1029700038461E9925694B464246A8475F44E0E722
:102980000C950126089C14E0B9F1040F00F08D812C
:10299000994500F035810C9D05950395099D02959B
:1029A0001E9D01960096049502F078F9013C2DD009
:1029B000DA460123B9F1020F514642460D980AEB5F
:1029C000030BE1D108944FEA88050124DDF87890E3
:1029D000BB4646465BF8040B0A9B9847013E29F824
:1029E000020BF7D11E9B099A0292049351460123D0
:1029F000059603960194009442460D989A4402F07D
:102A00004DF9089B013B2F440893DFD10E98FEF748
:102A1000C1F91EA8FEF7BEF90B98FDF705FFB0E45B
:102A20000124183200260492CDF80CB00295089BC0
:102A30000D980596424651460194009402F02EF9F5
:102A40009FE400250126089C16E0B9F1040F00F070
:102A5000FC80994500F0A4801E9F0897099F02976B
:102A6000089F0595039501960096049702F016F9C4
:102A7000013C3FF4D2ADDA460123B9F1020F5146D1
:102A800042460D980AEB030BDFD14FEA48060C9D36
:102A900008940A9F0A9601241E9EDDF82CB0C146B8
:102AA0003BF8020BA847B847B9F1010926F8020B19
:102AB000F6D10B9E1E9A099B0293B6460A9E04927B
:102AC00001235146B644CDF81490CDF80C900194F2
:102AD000009442460D98CDF82CE09A4402F0DEF8BE
:102AE000089B013B0893D7D197E5FEF781F81D902D
:102AF00000283FF492AD4FEA480337460A93012578
:102B00000C940B9E19E0B9F1040F30D0B9F1010F0C
:102B100028D000221E990998029001230592039261
:102B2000049101955146009542460D989A4402F051
:102B3000B5F8089B013B08932BD0B9F1020FE2D105
:102B4000DDF878B01D994B46424630467C69A04777
:102B50000A9C1D9826440C9C59464B4642462469C3
:102B6000A047D6E7DDF878B01D990223ECE73046A0
:102B70001D997C69DDF878B002234246A0470C9C81
:102B80001D9824694B4659464246A0470A9B1E445D
:102B9000BFE71DA8FEF7FEF80F98FDF745FE3CE5E0
:102BA00008FA03F60C9D08940A9F0A964C461E9E4E
:102BB000DDF82CB0C1463BF8020BA847B847B9F185
:102BC000010906F8010BF6D10B9E1E9A099B029390
:102BD000B6460A9E049201235146B644CDF814909D
:102BE000CDF80C900194009442460D98CDF82CE05D
:102BF0009A4402F053F8089B013B0893D7D10CE5A7
:102C000008944FEA88054C46DDF87890BB46464666
:102C10005BF8040B0A9B9847013E09F8010BF7D1BA
:102C20001E9B099A0292049351460123059603962E
:102C30000194009442460D989A4402F02FF8089BA4
:102C4000013B2F440893DFD1E0E64FEA48060C9D94
:102C500008940A9F0A9601241E9EDDF82CB0C146F6
:102C60003BF8020BA847B847B9F1010946F8040B35
:102C7000F6D10B9E1E9A099B0293B6460A9E0492B9
:102C800001235146B644CDF81490CDF80C90019430
:102C9000009442460D98CDF82CE09A4401F0FEFFD6
:102CA000089B013B0893D7D1B7E408944FEA880505
:102CB0000124DDF87890BB4646465BF8040B0A9B7E
:102CC0009847013E49F8040BF7D11E9B099A0292DE
:102CD00004935146012305960396019400944246BD
:102CE0000D989A4401F0DAFF089B013B2F440893AA
:102CF000DFD18BE620B321B322B3B2F900C0B1F922
:102D00000630F0B5B1F90050B2F902E0B1F9024075
:102D1000B2F90470B2F90660B1F904206545A8BFA4
:102D20006546A6457146A8BF2146BA42B8BF3A4695
:102D3000B342B8BF3346058041808280C380F0BD76
:102D4000704711460B684A6842600360704700BFD5
:102D500078B170B4068844888588C38889B292B2F5
:102D60000E44144429440680448070BC1A44818077
:102D7000C280704770B4104D2B686A689342044655
:102D80000FD093E807000D4E84E80700B34214BF4C
:102D90000C333C3B2B60207A003018BF012070BC04
:102DA0007047074A934206BF3C3393E8070013E994
:102DB000070084E80700EEE7FC000020BC7E01204D
:102DC000807E0120034B09CBC01AB0FA80F0400985
:102DD000704700BFFC000020F0B5374E336D85B062
:102DE0000446002B55D094E80700344C344DF36C66
:102DF000256001AD85E807000BB128469847314FA3
:102E0000D7F800E07B689E4538D0B3422A4C9DF845
:102E10000C2035D013F8041C914212D03C3495E8B4
:102E20000700A34283E807001BD00C339E457B605C
:102E30001BD0B36C0BB12846984700F0B7FC05B027
:102E4000F0BDA3F10C018E45E8D0A1422ED03C3458
:102E50000C39097A9142E2D1B34214BF0C3B2346AC
:102E6000DDE7154B7B609E45E3D1174B9E4514BFB4
:102E70000EF10C03AEF13C033B60DAE7124CCEE7F7
:102E800096F8441091420BD095E8070086E80700B9
:102E9000CBE730460D4B40F8503F01F043FEA2E730
:102EA00006F13C04A645EFD02146D1E701F13C04F0
:102EB00003F13001CDE700BF807E0120D4A20120C4
:102EC00031670008FC000020BC7E012099E2000868
:102ED00010B5FEF7C5FC0D4A136851688B420FD040
:102EE0000B4CA34293E803004FF0010414BF0833D6
:102EF000503B136004F00AFA00F042FE204610BD79
:102F0000002400F03DFE204610BD00BF340100202B
:102F100090800120F0B5164C059E2568069CB5F9F9
:102F200008E0B5F90C707045B8BF7046BA42A8BF4A
:102F30003A4690421ADCB5F90A70B5F90E50B9421A
:102F4000B8BF3946AB42A8BF2B468B4203DAF0BD6F
:102F500025682DB12C46E5682D6835F00405F7D1BC
:102F600006940596BDE8F04002F01ABCF0BD00BF23
:102F7000F8000020B0F90220B1F906309A4214DCC2
:102F8000B1F90220B0F906309A420EDCB0F9002007
:102F9000B1F904309A4208DCB0F90400B1F900300C
:102FA0008342CCBF0020012070470020704700BF43
:102FB00008B5034B014674221868FDF790F908BD67
:102FC000F800002000B970472DE9F04FABB004467F
:102FD0000D4616461D921C91FEF742FC2046FDF759
:102FE00007FEB0F90430046827909D42129400F067
:102FF00083810020FEF7A8FF9F4B129A1B689269FD
:10300000597C20900846279D2191824218BF5A740E
:10301000B5F9043007931846B5F90810B5F906302C
:103020001992B5F90A2013931C46091A121B0E4671
:103030000B911A9221461446324601322B8A1B927A
:10304000224601329B071E9240F137811C9B6A6920
:1030500003921B1A1D9A1493002BA2EB010440F358
:10306000BD810993DDF86C9000234FF0010A1193A4
:10307000002C40F3BE811E9B1693012317941593D9
:103080004FF0000B129E7D4BB0691B56012B40F395
:103090009F810023ADF8A230ADF8A03002F038F9DE
:1030A000431EB069ADF8A43002F078F90138ADF8EC
:1030B000A6002798524600F1140105F025FF229042
:1030C000002800F0F9802798524600F1140105F01D
:1030D0001BFF2490002800F0EA80279BD868002876
:1030E00040F09781169A5A4500F0DD801B9B11999C
:1030F00023909A000BFB031305EB83030E93C4EBA1
:103100000B030C93139B1599234418934FEA8A03DE
:1031100001FB02F204935B461F92D346C8469A46CF
:10312000179B534500F309811A9B5345B4BF0023F5
:1031300001231093139B119C53440F93189BA0459C
:103140005344089300F0A0801498079B0E9D0344FD
:10315000C0EB04090A935FE00B9BA3426CDB109B5E
:10316000002B69D0BDF9A020BA4240F3778200233A
:103170000593B9F1000FC0F2CC800C9B002BC0F27C
:10318000C8801A4649460398FEF722FA030E40F01B
:10319000C080BDF9A030069A9A420FDBBDF9A2208B
:1031A0000F998A420ADCBDF9A42006998A4205DB00
:1031B000BDF9A6200F998A4280F2A4809F4223DBAA
:1031C000BDF9A230089883421EDCBDF9A430BB4291
:1031D0001ADBBDF9A630834216DB3046284B239E0E
:1031E0001B6846F07F41FF229847199A254B53F8F8
:1031F00022301B691B689847229B00930246129B52
:10320000089938460BF010FD059B2B625C44049B2B
:10321000A0451D44D94437D0524621460398FEF7B5
:10322000D7F9030E0646F1D0079BE31806930A9BD5
:103230001F19099BA3428FDDBDF9A030BB421A467E
:103240006ADCBDF9A23008998B424FF0000371DCB3
:103250000D93BDF9A430BB4204DBBDF9A630089A3A
:1032600093426DDA002305930D9B002B81D1BDF9AC
:10327000A02013468FE700BFF8000020188201202D
:103280003C0100201C8201200E9B1F99159A0B44C3
:103290000E930C9B1946169B9244114453450C9176
:1032A0007FF43EAF279B186824990BF04BF9279BBE
:1032B000229918680BF046F9279D1C9B1B9A1D99B3
:1032C000AB801E98E9801344013B4A1E02442B81C7
:1032D000199B6A81219A1946914202D0A64B1B681C
:1032E0005A742098FEF730FE27A8FDF753FD00F032
:1032F00047FC2BB0BDE8F08FB0F906309E427FF45A
:1033000078AEF1E7249B2A6A06980093129B0BF093
:103310008BFCBDF9A03051E7069A934207DCBDF95A
:10332000A2200F99914202DB002205923BE7002385
:10333000059369E7059313462DE700231093F9E6FB
:10334000279BB3F90420BA422DDCB3F90810B94227
:1033500029DBB3F906E00898864524DCB3F90A10A6
:10336000814220DB58692593E8B1BB1A19460593C1
:10337000089BCEEB03031A462393FEF729F9030EAD
:10338000259B10D0B3F90410B3F90820521A2399E1
:1033900002FB011205990A4403EB82031B6A0593A1
:1033A00043F07F400BE0129B186800282DD0C368C3
:1033B000089A5B6939469847059040F07F40199A12
:1033C0006E4B53F822301B695B68984723904BE79C
:1033D000F368304628A91B6B98476AE600220992D9
:1033E000149A119633464FF0FF391344CA460B9393
:1033F0003EE64FF0FF331A9A169315930023179366
:103400001346234493461A933CE605904FF07F40C1
:10341000D5E7FDF7EDFB169B26905B4500F0A680F7
:103420001B9B11999A000BFB031305EB83030D9370
:10343000C4EB0B030C93139B1599234401FB02F27D
:1034400018934FEA8A0310920493079A149B13442B
:10345000C8460A93D946179B4B4500F3AF801A9B89
:103460004B45B4BF002301230F93139B4B440E9392
:10347000189B4B440893119B984569D0149A0D9D55
:103480001C46C2EB030B4A4621460398FEF7A0F800
:103490000646002856D0079BE31806930A9B1F197F
:1034A000099BA3426CDC0B9BA34269DB0F9B002BA7
:1034B00066D0BDF9A030BB42D8BF012300F3CB805A
:1034C000BDF9A22008998A4207DCBDF9A420BA42BE
:1034D00003DBBDF9A6208A427DDA0022059263B1A2
:1034E000BBF1000F62DB0C9B002B5FDB1A465946D9
:1034F0000398FEF76DF8002858D1BDF9A030069A60
:103500009A420EDBBDF9A2200E998A4209DCBDF970
:10351000A42006998A4204DBBDF9A6200E998A42AE
:103520003DDA9F420CDBBDF9A23008998B4207DCE3
:10353000BDF9A430BB4203DBBDF9A6308B4240DAB3
:10354000059B2B625444049B44451D44D3449AD1AB
:103550000D9B1099159A0B440D930C9B1946169BC5
:103560009144114499450C917FF475AF26A8FDF75D
:1035700011FC279B97E600BFF80000201C82012069
:10358000BDF9A030BB4217DD069A934211DCBDF9AC
:10359000A2200E9991420CDB00220592B7E7249BF2
:1035A0002A6A06980093129B0BF03EFBBDF9A030EF
:1035B000B7E700230593C3E7002381E700230F93B8
:1035C00053E7269B53F82620229B00933846129BF4
:1035D0000BF02AFBB4E7279A0592B2F90420BA420D
:1035E0000DDC0598B0F90810B94208DBB0F906E027
:1035F00008998E4503DCB0F90A0088420DDA129A68
:10360000106800283FF469AFC2681F9339465369B8
:10361000089A98471F9B059061E72593BB1A1F9353
:10362000CEEB01021946059B23925869FDF7D0FFA6
:10363000259B0028E3D00598B0F90410B0F90820C4
:10364000521A239902FB01121F990A4400EB8202CD
:10365000126A059243E70023059341E7BDF9A230C2
:10366000089A93423FF783AD01230D93F1E500BF24
:1036700008B5034B74221968FCF731FE08BD00BF82
:10368000F800002008B5FEF7EBF802F083F902F02D
:1036900089FA02F019FCBDE8084000F071BA00BFD9
:1036A00070B50D4D2B6804465E7CFEF7D9F8012CF1
:1036B00003D900F065FA304670BD2046FDF76CFE78
:1036C0000028F6D02B685C74FFF7DCFF034B1C600E
:1036D00000F056FA304670BDF80000206CA20120C0
:1036E00010B50446FEF7BCF8204602F075F9BDE8B7
:1036F000104000F045BA00BF10B50446FEF7B0F820
:10370000204602F0A3F9BDE8104000F039BA00BF2E
:1037100010B50446FEF7A4F8054B1B686FF0704225
:1037200020461A6302F098F9BDE8104000F028BA6C
:10373000F800002010B50446FEF792F8204602F08B
:103740009DF9044600F01CFA204610BD70B50446F1
:103750000D461646FEF784F832462946204602F00A
:10376000D3F9044600F00CFA204670BD38B5054682
:103770000C46FEF775F8094A094B12680949507C56
:10378000094A53F820000D80C36814802946224658
:103790001C6AA047BDE8384000F0F2B9F8000020EC
:1037A0001C8201200A8201200C820120024B1B682E
:1037B00003B11847704700BFF87E0120024B1A681A
:1037C00002B91860FFF7F2BF3C80012000B97047D2
:1037D0002DE9F041DFF8C08082B00546FEF740F8E1
:1037E000D8F80040A54242D06E461CB917E0FDF75C
:1037F000D1FAA4B12046FDF7FBF984680090A542F8
:103800003046F4D12846FDF7F3F9009B8268019019
:1038100001A89A60FDF7BEFA3046FDF7BBFA2846CC
:10382000FDF7E6F9D8F804400090A5421A4B2CD0D9
:1038300001AF1CB910E0FDF7ADFA6CB12046FDF701
:10384000D7F944680190A54203463846F3D1009A5F
:1038500052685A60FDF79EFA3046FDF79BFA2846FB
:10386000FCF7E2FF00F08CF902B0BDE8F0812846D9
:10387000FDF7BEF902AF836847F8040D3846C8F873
:1038800000306E46FDF786FAC9E742685A60304656
:10389000FDF780FAE3E700BFA480012030B583B0D4
:1038A00018B90124204603B030BD04460D46FDF78B
:1038B000D7FF2046FDF79CF902AB828943F8040D3F
:1038C0002A42184614BF01240024FDF763FA00F0D1
:1038D00057F9204603B030BD30B50A4B1C680023B1
:1038E00083B003605CB105462046FDF781F902AB69
:1038F000026943F8040D2A601846FDF74BFA20468A
:1039000003B030BDA480012070B5002382B00B60ED
:1039100018B90446204602B070BD0D46FDF768F99F
:103920008468019001AE2CB93046FDF733FA204689
:1039300002B070BD3046FDF72DFA2046FDF758F96C
:10394000036901902B60EFE72DE9F843089C0546D9
:1039500089469846AB6849465F6828464346561CE8
:10396000B847013C3246F5D1BDE8F883F8B5B0F967
:103970000040B0F904500C1BAC422BDAB0F9021035
:1039800005692344013B521AE61005FB0265DF433B
:1039900007F00707FF21143504F0070401FA07F2C6
:1039A00041FA04F4D6EBE306D7B2E4B200EB050229
:1039B000435D10D0013E1C43002E02F1010344552B
:1039C00005DD18463246FCF7B4FC034633441C7848
:1039D0003C431C70F8BD3C401C434455F8BD00BF3F
:1039E00070B4B0F902600369B0F90040921B03FBA8
:1039F00002F2091B143202EBE1028025835C01F024
:103A0000070145FA01F11943815470BC704700BFAA
:103A100003460021B3F906201B69143003FB02F2B0
:103A2000FCF787BC2DE9F04302F10F042411640078
:103A30001E4603FB04F383B0804603F114001746CF
:103A40008946FCF7A7FE0546B8B1FDF709FF2846F1
:103A5000FDF7CEF8014602A80A4A40F8041D0123EA
:103A60008F80CE800C61A1F80080A1F802908A605E
:103A70008B81FDF78FF900F083F8284603B0BDE88D
:103A8000F08300BF0C0F0408B0F9063093423CDD10
:103A9000F0B50D68B0F90470BD4234DA06694FEA3A
:103AA000E50E06FB02E6143605F00703845D04FA12
:103AB00003F3013F013613F0FF03CEEBE70230447E
:103AC00008D122B310F8013B083525F00705013A6B
:103AD000002BF6D01E0634D45B00DBB21C0605F1C9
:103AE0000105F9D55F062C4605D55B00DBB25E0605
:103AF00004F10104F9D404F00703072B09D0621B79
:103B0000501C0D60F0BD0020F0BD00207047104635
:103B1000F0BD002AF3DD0678FF2E00F101070DD17C
:103B2000831803E017F8016BFF2E07D1BB4204F1A5
:103B30000804F7D1E3E77600F6B201343306FAD48D
:103B4000DDE7FF2B08BFEC1DD5D0CBE730B5054630
:103B500083B0FDF785FE2846FDF74AF802AB84895D
:103B600043F8040D013C24B284811846FDF712F994
:103B700014B92846FCF758FE00F002F803B030BD37
:103B8000034A5368013B536003B170470CF022B8FD
:103B9000E47E0120F0B583B0C0B9224C236905460C
:103BA000CBB1E0681F4E18B91F4B1868F060D8B150
:103BB00023681C4F002623B363681A4FC3B115B1A5
:103BC000A368184C2BB3304603B0F0BD154C2369E5
:103BD00001AD002BE5D12046144B40F8143F0123E2
:103BE000236100F09FFFDCE701F04CFBF060DFE7B2
:103BF000F8688000FCF742FE002808BF01267860C4
:103C0000DDE78000FCF73AFEB0FA80F6386076090E
:103C1000D2E7E0688000FCF731FE002808BF0126EB
:103C2000A060D0E7B88001201082012089E300085D
:103C300010B5094B1C7838B902464FF07F401A7016
:103C400001F016F8204610BD012200201A7001F084
:103C50000FF8204610BD00BF16820120082A10B4BC
:103C60000EDD102A1CDC00EB4101034650F8042B4A
:103C700023F8022B9942F9D101205DF8044B7047DB
:103C8000022A11D0042A00F09080012A3CD001447D
:103C9000034650F8042B03F8012B9942F9D1EBE7C6
:103CA00000205DF8044B704700F1100252F8103C00
:103CB00001294FEA8313DBB223D052F80C4C2401C4
:103CC00004F03004022943EA04031AD052F8084CE5
:103CD000A40004F00C04032943EA040311D052F8B1
:103CE000044C04F003042343043900F8013B02F1BF
:103CF0001002C1D052F8103C01294FEA8313DBB205
:103D0000DBD103700120B8E700F1200252F8203C1B
:103D100001294FEAC313DBB2F3D052F81C4CA401C3
:103D200004F04004022943EA0403EAD052F8184C94
:103D3000640104F02004032943EA0403E1D052F8AB
:103D4000144C240104F01004042943EA0403D8D0DD
:103D500052F8104CE40004F00804052943EA040377
:103D6000CFD052F80C4CA40004F00404062943EA16
:103D70000403C6D052F8084C640004F0020407396A
:103D800043EA040302F12002BBD052F8244C04F0B1
:103D90000104234300F8013B52F8203C01294FEA7B
:103DA000C313DBB2B9D10370ACE700F1080454F8D7
:103DB000083C01294FEA0313DBB212D054F8042C5B
:103DC00002F00F021343023900F8013B04F108042A
:103DD0003FF452AF54F8083C01294FEA0313DBB219
:103DE000ECD103705DF8044B08467047082A2DE9B2
:103DF000F0410C461F6805460CDD102A21DC1E69C7
:103E0000002E00F09180224629460223B04701206F
:103E1000BDE8F081013A072A10D8DFE802F004512A
:103E20000F770F0F0F9A00F1200858F8200CB847B1
:103E3000012C4FEAC010C6B206D12E700120BDE899
:103E4000F0810020BDE8F08158F81C0CB847022C26
:103E500046EA8010C6B2F0D058F8180CB847032CC8
:103E600046EA4010C6B2E8D058F8140CB847042C03
:103E700046EA0010C6B2E0D058F8100CB847052C3E
:103E800046EAC000C6B2D8D058F80C0CB847062C89
:103E900046EA8000C6B2D0D058F8080CB847072CC4
:103EA00046EA4000C6B2C8D058F8040CB847083CEF
:103EB00040EA060005F8010B08F12008B5D1BDE77E
:103EC00000F1100858F8100CB847012C4FEA801088
:103ED000C6B2B2D058F80C0CB847022C46EA001013
:103EE000C6B2AAD058F8080CB847032C46EA80009E
:103EF000C6B2A2D058F8040CB847043C40EA060009
:103F000005F8010B08F11008DCD197E700F108086B
:103F100058F8080CB847012C4FEA0010C6B20CD173
:103F20002E702046BDE8F081861E55F8040BB84778
:103F3000013C26F8020FF8D180E758F8040CB84786
:103F4000023C40EA060005F8010B08F10808DFD141
:103F500074E71E693EB12846224601232946B04730
:103F60000120BDE8F0816E1E55F8040BB847013CF6
:103F700006F8010FF8D161E730B51B4DEB6F85B046
:103F80000BB105B030BD194B0FCB6C4607C404A96B
:103F900024F8023B1B0C237011F8102D0123EB6752
:103FA00005F1800404F8012B11F8012F002AF9D142
:103FB000FDF7ACFB234610F8012B194603F8012B43
:103FC0000278002AF7D14A700BF0A2FDFCF798FBAB
:103FD0000CF026F8064B0748C5F8943005B0BDE84C
:103FE000304000F09FBD00BFE47D01202C0004089C
:103FF00055E20008787E0120F0B48489468905895D
:104000008788D68001EB8404C68895801034049D8F
:104010009460D3601780568015612BB1C2891A71E4
:1040200082891A6012B99A60F0BC704701F11002DF
:10403000F9E700BF2DE9F04F964C8FB01D4624697B
:10404000199B05900026079193461E60002C00F0F6
:10405000F080904BDF681C462FB98F4B1F68E760DC
:10406000002F00F0F0808B4B8A4E1B680293002BD0
:1040700000F0FF80874B874C5B680393002B00F0B8
:10408000EA80864A864B1268507C53F820300893A9
:104090001B690D93FDF7F0FA804B04901B68587C68
:1040A000FDF748FB7F4B0B90AF42A8BF2F469842CD
:1040B00000F0CE807C4BC31A18BF01230A93059BE6
:1040C0003B440C930026013B09933446BA465F46B5
:1040D000189B57F8040B98474FEA1068B8F1FF0F88
:1040E000814647D0002C2BD16C4B059A1B68B3F945
:1040F00008309519AB4259DD5A1B069214461D46ED
:10410000029B0799099A344403EB8404089B0193AA
:1041100000940B462846FEF7FDFE049B172B7EDD20
:104120000A9B002B44D00C9B06965D1B2E460B9DD4
:104130002068A847013E44F8040BF9D1069E0124EB
:10414000544BDD69002D38D15FFA88F2B8F1000FC9
:104150001AD1029B039A53F8263042F82630BAF15E
:10416000010A06F10106BB46B1D1039C20460FB0FF
:10417000BDE8F08F199B039A1B6842F82600199A34
:1041800043F001031360EAE70299484B51F8261007
:104190001B6849F07F409847199B039A1B6842F8B7
:1041A0002600199A43F001031360D8E70694A7E7A5
:1041B000384BDD690124002DC6D0029BB600334484
:1041C0001C46039B1E443246214653465846A84788
:1041D0005746ABF1040207E023683360013F04F166
:1041E000040406F104060FD052F8043F13F07F4F89
:1041F000F2D0216811F07F4F08BF3360013F04F116
:10420000040406F10406EFD1199B039C1B68199A5C
:1042100043F00103204613600FB0BDE8F08F1A464B
:10422000069B2046C3EB0A010D9B00F0E3F9012435
:1042300086E718481E4B174A40F8143F01231361C4
:1042400000F070FC05E701F01DF80746E0600AE7A2
:1042500000230A9333E7E0688000FCF70FFB03902C
:10426000606000287FF40DAF002420460FB0BDE849
:10427000F08FB800FCF702FB306008B10290F9E65D
:104280007468002CF0D1F0688000FCF7F7FA7060D9
:104290006CE700BFB880012010820120F8000020E8
:1042A0001C820120DD560008D55600083C01002084
:1042B00089E300082DE9F04F91B01D9E1C9D0992E5
:1042C000354306930E461A9C0A90FDF7DFF90D90D0
:1042D00000F00AFF012D51D0069B002B44DD099B05
:1042E0005B000893A14B079381464FF0000A079BA0
:1042F0001D9A1B6802EB060BB3F90A200BF1FF377E
:10430000974237DBB3F90E30B34233DB099B002B06
:10431000089B04EB030820DD0A9ACDF830B0CDF8F5
:104320002CA0934600E0AB4634F802AB1C9BCA4578
:1043300003EB0B05504604D01E9B984701F086FB0B
:10434000D14658463B466A1E314600F08DFEA045D8
:10435000E9D1DDF82CA0DDF830B0069B0AF1010AA6
:10436000534544465E46C2D10D98FFF7C5F911B0DA
:10437000BDE8F08F089B04EB0308EEE77B4B079347
:104380001B68587C099B4FEA430AFDF7D3F91E9B33
:10439000834200F0A080079B06991B68B3F90A20AE
:1043A0007518964205F1FF3505DA961B891B0AFB45
:1043B000064406911646B3F90E20AA1A002A02DD19
:1043C00006998A1A0692069A002AD0DD09990A9857
:1043D000B3F90C2001EB000B0BF1FF3BC2EB0B021E
:1043E000002AC4BF8A1A0992B3F90820904206DA5B
:1043F000111A09980A92401A099004EB4104099A8B
:10440000002AB4DD5A4F3A68002A7DD01A6E002A7D
:1044100073D05A7C574B584853F822301B69181AEE
:10442000B0FA80F04009554B1F9A9A4200F0A880DC
:1044300000230F931F9B002B00F09680D3F814905D
:10444000B9F1000F05D000231A4619460FA800F055
:104450009DF900F051FE079B1B680746587CFDF74D
:1044600061F92B4680465A4631460A983D68A8476E
:1044700000287FF479AF0F99069B00294CD01A943D
:10448000DDF824B0CDF818904446DDF868805D1E54
:104490004E4602235A464046B047DDF83C9000267F
:1044A00059F8040BA0470136B34549F8040CF7D17D
:1044B000DDF83C90002601367A6859F8040B9047E5
:1044C000B345F8D1013DBB6898476A1CD04441D040
:1044D0000F99069EDDE7049400271024CDF80CA068
:1044E00001950095069B099A0A9805973146029412
:1044F00000F0D4FB11B0BDE8F08F587C1D4B53F891
:104500002030DB681B6843B31C4B1F9A9A428FD143
:1045100000230F931F9B91E75E1E099B1A945D0079
:10452000AB4644461E9DDDF86880CDF818A008EB28
:104530000B09C2463AF8020BA847A0477A68904791
:10454000CA45F7D136B1069ABB68013E90449847F8
:10455000731CECD1FB68984706E700F0B5FD0F2807
:10456000D4BF002001205EE7994672E7F8000020E2
:10457000308201201C820120280E04080C0004084F
:104580000028C5D0079B1B68186E10B3FCF730FBE2
:10459000B0F90630D0F80C80B0F904500A9910AA8E
:1045A000F31A08FB03F34D1B42F8040D183303EB19
:1045B0008503C5181046FCF7EDFB002D3FF4D7AE80
:1045C0008DE80005069B3E68099A21462846B047BB
:1045D000CDE6587C069B0193054D099B0093CDF8D1
:1045E00008A0234632460A992C68A047BFE600BFC0
:1045F0002C82012000292ADD082A2DE9F0470446F3
:104600005E6803DD102A0CDDBDE8F087531E072B22
:1046100005D8DFE803F02A53047C0404041DBDE838
:10462000F0875D6935B10A46AC4621460223BDE8F4
:10463000F047604749000C446518671A34F8020DCA
:10464000B047BC4245F8040DF8D1BDE8F08770478B
:1046500065186F1A04EB810415F8010DB047BD42CF
:1046600044F8040DF8D1BDE8F0874F1EFB1001F1AE
:10467000804107F0070A4FF0800801395A1E48FAB6
:104680000AF814F8039004EB81055FFA88F81444E3
:10469000CAF1070308EA09001841B04745F80409C0
:1046A000BAF1000F5FD194F800904FF00108013C7F
:1046B0004FF0070A002FB2D0013FE9E74F1E07F085
:1046C0000309BB1001F180414FEA4900C0250139BF
:1046D00005415A1E14F8038004EB810AEDB214441C
:1046E00005EA0803C0F1060043FA00F0B0474AF8B3
:1046F0000409B9F1000F44D1032594F80080A946BC
:10470000013C002F8BD0013F4FEA4900E8E74F1EE4
:1047100007F001087A1001F180414FEA8800F02388
:104720000139034102F1FF3EA55C04EB81095FFA08
:1047300083FA74440AEA0503C0F1040043FA00F066
:10474000B04749F80409B8F1000F13D125784FF0AC
:104750000F0A013C4FF00108002F3FF460AF013F0A
:104760004FEA8800E6E74FEA48085FFA88F80AF15E
:10477000FF3A9FE74FEA0A135FFA83FA4FF0000807
:10478000EAE7AD00EDB209F1FF39BAE72DE9F043F0
:104790002D4C276983B005468846164699461FB3B7
:1047A000E068294F18B9294B1868F86028B3B9F1A7
:1047B000000F01D0C9F800001DB32368224A00276A
:1047C000002B36D02B60B8F1000F04D065681E4B6B
:1047D0001DB3C8F800501EB1A4681B4D9CB13460D5
:1047E000384603B0BDE8F0832046194B40F8143F2B
:1047F0000123236100F096F9D2E700F043FDF86051
:10480000D5E72F46DFE7E8688000FCF737F8002897
:104810000CBF01270446A860E1E7D8680193800037
:10482000FCF72CF8019B00280CBF012705465860B7
:10483000CFE780000192FCF721F8019AB0FA80F7E7
:1048400010607F090346BDE7B88001201082012077
:1048500089E30008B1F90030B0F900209A42B8BFEE
:104860000380B0F90220B1F902309A42B8BF438008
:10487000B0F90420B1F904309A42C8BF8380B0F97E
:104880000620B1F906309A42C8BFC380704700BF06
:10489000F0B5B2F900C0B1F90050B1F90240B2F977
:1048A0000230B2F904E0B2F90670B1F90420B1F9AE
:1048B0000660AC456146B8BF2946A342B8BF23464F
:1048C0007245A8BF7246B7423C46A8BF34469142E3
:1048D000018043808280C48004DCA342CCBF0020DE
:1048E0000120F0BD0020F0BD2DE9F041394B1B68DF
:1048F0005D7C012D82B003DD012002B0BDE8F081B6
:10490000354E7368044613B1014628469847012C7A
:1049100027D0022C0FD0002CEED1AC003719DFF8D5
:10492000B880BB68012B3AD001202644002B18BF69
:10493000013BB360E1E72846FCF72EFD019000281B
:10494000DAD0C3680D215B6A01A8984704460028A5
:10495000D2D0336803B1984702210198A0470020C4
:10496000CBE706EB8506B7681FB1781CB060204620
:10497000C3E72846FCF710FD01900028BCD0C368AF
:104980000D215B6A01A8984703460028B4D0214650
:1049900001989847B36801333846B360ADE72846BD
:1049A000FCF7FAFC019088B1C3680D215B6A01A88D
:1049B0009847054650B1D8F8003003B19847002118
:1049C0000198A847331900209B68AEE7BB68012017
:1049D000ABE700BFF8000020D8800120F0B40B0E38
:1049E0004FEA1064124B02FB04F208BF20F07F4133
:1049F000A3FB0232D20900F0FF160D0AC2F1FF0735
:104A000005F0FF1501F0FF13C0F3072402FB06F1C8
:104A100007FB05F044F0807407FB031102FB040060
:104A2000090A00F0FF2001F0FF110843F0BC7047B5
:104A3000818080802DE9F04F87B09246139A109BB9
:104A40009DF8509001900291002A35D0129ADFF81B
:104A500070B0DFF87080920002EB830304930023B0
:104A600005920393129C029E019D574655F8040B34
:104A7000DBF8003056F8041B020E09FB02F2A8FB1B
:104A800002E2C2F3C71240F07F409847013C40F079
:104A90007F4047F8040BE9D1019A0599039B104622
:104AA0000844029A01908A4404990A440292139A93
:104AB00001339A420393D5D107B0BDE8F08F00BF10
:104AC0003C010020818080800368024633F8020B9D
:104AD0001360704730B583B002AC054644F8041D3E
:104AE0002046FFF7F1FF28802046FFF7EDFF6880A2
:104AF0002046FFF7E9FFA8802046FFF7E5FFE880A2
:104B00002046FFF7E1FF28812046FFF7DDFF68819F
:104B10002046FFF7D9FFA8812046FFF7D5FFE8819F
:104B200003B030BD80B483B000AF7860064B1A6824
:104B30007B685A60044A7B68136000BF0C37BD462F
:104B40005DF8047B704700BF587E01202DE9F041DD
:104B5000184E3468B4F90A708F420DDCB4F90E7047
:104B6000B9420D4608DCB4F908708742864603DC7A
:104B7000B4F90C40A04201DDBDE8F0811F460446B7
:104B8000904600F01DFB0C4B014642461B68384620
:104B9000984700F075F83268084B527C53F8226051
:104BA000F7682146BC6903462A463046A446BDE85C
:104BB000F0416047F80000203C0100201C820120E9
:104BC00070B4840702D50180013A023056080DD036
:104BD000032E334601EB01440DD8012B046003D0B2
:104BE000022B446018BF846000EB8300D30748BFEA
:104BF000018070BC704700F110033546043D032D61
:104C000043F8104C43F80C4C43F8084C43F8044C60
:104C100003F11003F2DC043EB3085D1CB6EB830322
:104C200000EB0510D9D1E1E708B50B0E03D1030E57
:104C3000FF2B0FD04BB10C4B02EB0212D2B21B6810
:104C400098470A4B5A68104308BD084B5A6841EA16
:104C5000020008BD054B5B6820F07F4002EB0212AA
:104C6000184340EA026008BD3C01002044010020D6
:104C7000024B5A6858601046704700BF440100203C
:104C8000044A054B1268527C53F822301B691B689A
:104C9000184700BFF80000201C8201202DE9F04FCA
:104CA000B64C91B0D4F800E01B9D1D9E1E9F1F9C2A
:104CB000DDF868A00D95DDF870C00E960797089492
:104CC0000F9005920C93BEF1000F06D0DEF8004065
:104CD000A44611B0BDE8F04F60474AEA0503012B36
:104CE000894600F09280CCF1080302930C9B002BC4
:104CF00040F38880A24BCDF828E018680491F04674
:104D0000E1460D9A049953181A460B93B0F90A30EC
:104D1000013A9342099268DCB0F90E308B4264DBB1
:104D2000059B002B61DD0F9B079F069700263546EC
:104D300003EB0A044CE0029BC9EB060648FA03F3B6
:104D400013F0FF0308FA09F85FFA88F802D1027C31
:104D5000920738D4D0F83CE0DEF800200392089A9D
:104D60000AB152F82330B0F908B0B0F90CC0CEF84F
:104D70000030621E5945B8BF594662451346A8BF68
:104D800063468B421CDBB0F90A20049FB0F90EC0C9
:104D9000BA42B8BF3A46099FBC45A8BFBC46624567
:104DA0000EDC407C774F57F82000D0F80CE0CDF8AF
:104DB00000C0DEF810B0D847714B1868D0F83CE05E
:104DC000039BCEF80030059B0135AB4254440CD018
:104DD000CAEB0401002EAED1069A029E92F8008022
:104DE0001346013306933346A8E7079A0E990A9BA8
:104DF0000A4407920B9A04920C9A01339A420A933E
:104E00007FF47FAF11B0BDE8F08F5D4B1968B1F949
:104E10000A20C9EB0203002B40F3C2800C98C41A8D
:104E2000002CEFDD06FB037307930C9BB1F90E001A
:104E30004B44013B1B1A002B02DDE41A002CE1DD80
:104E40000F98059D4319B1F90C00013B1B1A002B6B
:104E500001DDEB1A0593B1F908000F9D854216DBC1
:104E60000023059E002ECDDD487C464951F82000E8
:104E70000899C5681E93079B1D930E9B1F911C9359
:104E8000CDF86CC01A9433460F996C6820E7059EE4
:104E9000431BF61A0CF1FF3505961F2DE1D801A62C
:104EA00056F825F0894F0008654F0008634E00084A
:104EB0004D4F0008634E0008634E0008634E000823
:104EC000414F0008634E0008634E0008634E00081F
:104ED000634E0008634E0008634E0008634E0008EE
:104EE000334F0008634E0008634E0008634E00080D
:104EF000634E0008634E0008634E0008634E0008CE
:104F0000254F0008634E0008634E0008634E0008FA
:104F1000634E0008634E0008634E0008634E0008AD
:104F2000254F0008079D0F9005EB8303079300238F
:104F300097E7079D0F9005EB43030793002390E746
:104F4000079D0F901D44079500238AE7079D05EBF9
:104F5000630507950F9D23F0010005440F9503F0AD
:104F600001037EE7079D05EBA30507950F9D23F041
:104F7000030005440F9503F0030372E73482012018
:104F8000F80000201C820120079D05EBE305079532
:104F90000F9D23F0070005440F9503F0070360E71A
:104FA0000C9C4A46234641E7124B30B41C68B4F9C6
:104FB0000A308B420FDCB4F90E3099420BDCB4F9A5
:104FC0000850B4F90C30A842B8BF28469A42A8BF8E
:104FD0001A46904201DD30BC7047074B647C53F8A1
:104FE0002440E568AD681346AC460A4601462046B3
:104FF00030BC6047F80000201C820120184B1B6861
:10500000B3F90A208A421DDCB3F90E20914219DC63
:10501000B3F90820824215DCB3F90C20904211DC70
:1050200030B41A7CD2070ED40E4A5C7CDB6B52F88B
:1050300024401B68E568AD690A46AC460146204637
:1050400030BC604770475A7C064B53F82230DC680E
:10505000E4690A4601461846234630BC184700BF9B
:10506000F80000201C82012070B5154C2468B4F9AA
:105070000860B4F90C50B042B8BF3046AA42A8BF8D
:105080002A46824282B00BDBB4F90A60B4F90E50B2
:10509000B142B8BF3146AB42A8BF2B46994201DDB1
:1050A00002B070BD657C074C54F82540E56800935C
:1050B00013460A46014620462C69A04702B070BD3F
:1050C000F80000201C820120012801DD002070472B
:1050D00010B5FCF761F928B1C36808219B6ABDE8E7
:1050E00010401847002010BD024B1B68DB6B18688E
:1050F000704700BFF800002000B50B4A0B4B126848
:10510000527C83B053F822300193DB685B6A33B181
:10511000082101A8984710B103B05DF804FB0448CA
:1051200003B05DF804FB00BFF80000201C820120E2
:105130005C010020094B1B68587C012801DD002020
:10514000704710B5FCF728F928B1C36809219B6A9C
:10515000BDE810401847002010BD00BFF800002037
:10516000012801DD0020704710B5FCF715F928B1C2
:10517000C36809219B6ABDE810401847002010BD94
:1051800010B50020FCF708F9041C4FF0010018BF0F
:105190000124FCF701F900B10134204610BD00BF25
:1051A00010B5064B1B68587CFCF7F6F828B1C368AD
:1051B0000221DB6ABDE81040184710BDF80000204E
:1051C00008B500F005F8BDE8084000F085B900BF5B
:1051D000F0B5154E154D33685B7C55F82330DA6811
:1051E00083B004460F461846126B69469047BDF9D6
:1051F0000030A3420BDCBDF904309C4207DCBDF952
:105200000230BB4203DCBDF906309F4202DD0020C4
:1052100003B0F0BD33685B7C55F82300C3683A46A1
:1052200021465B699847F3E7F80000201C820120C3
:1052300030B583B00C461546FCF7AEF8019070B15E
:10524000C36804215B6A0DEB01009847034630B147
:1052500001982A4621469847002003B030BD01201E
:1052600003B030BD012801DD0020704710B5FCF708
:1052700093F828B1C36803219B6ABDE81040184722
:10528000002010BD38B501252846FCF785F800241C
:10529000032178B1C3689B6A98478442B8BF04462B
:1052A0000DB9204638BD00252846FCF775F80321C6
:1052B0000028EFD1F1E700BF012801DD0020704791
:1052C00010B5FCF769F828B1C36804219B6ABDE8F2
:1052D00010401847002010BD094B1B68587C01285E
:1052E00001DD0020704710B5FCF756F828B1C368FF
:1052F00001219B6ABDE810401847002010BD00BF87
:10530000F8000020014B1868704700BFD87E0120CC
:10531000012801DD0020704710B5FCF73DF828B1E9
:10532000C36801219B6ABDE810401847002010BDEA
:1053300038B501252846FCF72FF80024012178B163
:10534000C3689B6A98478442B8BF04460DB920469B
:1053500038BD00252846FCF71FF801210028EFD1B1
:10536000F1E700BF094B1B68587C012801DD0020D4
:10537000704710B5FCF710F828B1C36802219B6A8A
:10538000BDE810401847002010BD00BFF800002005
:10539000014B5868704700BFD87E0120012801DD0D
:1053A0000020704710B5FBF7F7FF28B1C368022152
:1053B0009B6ABDE810401847002010BD38B5012594
:1053C0002846FBF7E9FF0024022178B1C3689B6AF5
:1053D00098478442B8BF04460DB9204638BD002521
:1053E0002846FBF7D9FF02210028EFD1F1E700BFE3
:1053F0002DE9F84360B3856865B3DFF86480D8F8B9
:10540000006006B30768B7F5807F1FDC124B1B688E
:105410009F42A8BF1F46002F81460DDD043D00249A
:1054200001E0D8F8006055F8040FFFF729FC46F8B2
:1054300024000134BC42F4D1084B1B680BB1484630
:105440009847D8F800603046BDE8F8830026FAE7B0
:105450000646F8E72E46F6E72C010020007F0120E3
:10546000488201202DE9F84360B3856865B3DFF811
:105470006480D8F8006006B30768B7F5807F1FDC4A
:10548000124B1B689F42A8BF1F46002F81460DDDAF
:10549000043D002401E0D8F8006055F8040FFFF740
:1054A000EFFB46F824000134BC42F4D1084B1B68E2
:1054B0000BB148469847D8F800603046BDE8F883FD
:1054C0000026FAE70646F8E72E46F6E72C0100200C
:1054D000007F012048820120044A054B1268527C5B
:1054E00053F822301B695B68184700BFF8000020A2
:1054F0001C820120094910B4C0F3032300F00F04FB
:10550000C0F30312CB5C085D8A5C5DF8044B03EBCF
:10551000004000EB022040F07F4070473005040857
:105520000849C0F30322C0F303138A5CCB5CC0F3C9
:1055300003301202085C02EB0343184440F07F4042
:10554000704700BF300504080849C0F38312C0F358
:1055500043038A5CCB5CC0F3C3201202085C02EBFD
:105560000343184440F07F40704700BF30050408F3
:10557000094910B4C0F3842300F01F04C0F344129F
:10558000CB5C085D8A5C5DF8044B03EB004000EBEC
:10559000022040F07F4070471005040830B4C0F38B
:1055A000C4230849084CCB5C00F01F05C0F345122A
:1055B000485DA25C03EB004000EB022040F07F401E
:1055C00030BC704710050408D00404080304C0F37D
:1055D000074203F47F03134343F07F4300F47F400B
:1055E00018437047C243C0F30741030402F07F42EF
:1055F0000A4303F47F03134300F47F4018437047CA
:105600000849C0F30312C0F303238A5CCB5C00F0AB
:105610000F001202085C02EB0343184440F07F4085
:10562000704700BF300504080849C0F30322C0F3E7
:1056300003338A5CCB5CC0F303101202085C02EBFC
:105640000343184440F07F40704700BF3005040812
:105650000849C0F38312C0F3C3238A5CCB5CC0F358
:1056600043001202085C02EB0343184440F07F4001
:10567000704700BF300504080849C0F38422C0F316
:1056800044138A5CCB5C00F01F001204085C02EB40
:105690000323184440F07F40704700BF1005040802
:1056A000C0F3C423094910B4CA5C094CC0F34513C4
:1056B00000F01F00E35C085C5DF8044B120402EB91
:1056C0000323184440F07F40704700BF10050408D2
:1056D000D004040840F07F40704700BF704700BF0F
:1056E00038B50B4D2C680CB1002038BD094B18683B
:1056F0008000FBF7C3F8286038B10748074B40F833
:10570000043FFFF70FFA204638BD012038BD00BF27
:10571000488201202C010020007F0120C5E2000802
:105720002DE9F84FFFF72CFDB0F100092FDD194FDF
:10573000DFF868B000252846FBF72EFE20B33B6853
:10574000284693F811805D74FFF7BEFC082818DC2A
:105750005BF82530104A1B69934212D02846FFF7A8
:10576000FFFC061E0DDD00245FFA84FA5046FFF7A9
:10577000B3FE013402465146284600F085F9A642A0
:10578000F2D13B6883F811800135A945D3D1BDE83A
:10579000F88F00BFF8000020400E04081C82012092
:1057A0002DE9F04F85B081460F9D0E9CED68D5F830
:1057B00024806F6916460D469A46B8F1000F0FD047
:1057C00001210FA8C047804650B10F980194CDF831
:1057D00000A033462A464946C04705B0BDE8F08FD1
:1057E0006B4B1B68587CFBF747FF082834DC012310
:1057F0005545F2DC022B0AD0042B1DD0012B30D0F2
:105800000135AA45F6DAE8E701355545E5DCB1454D
:10581000D8BFC846F8DC41462A460F98B84708F179
:105820000108464524F8020BF5DA0135AA45EEDAFF
:10583000D3E70135AA45D0DBB145D8BFC84600F350
:10584000A18041462A460F98B84708F1010846450D
:1058500044F8040BF5DAECE71128B4BF0223042363
:10586000C6E7431E03934FF00008CDF808A0039B42
:10587000072B00F28180DFE803F033581717040488
:105880000404B145D8BFCB4609DC59462A460F98D7
:10589000B8470BF1010B5E4504F8010BF5DA029BEA
:1058A0000135AB42E3DA98E7B145F8DCCA464FF080
:1058B0000F0B51462A460F98B8474FEA88032178C4
:1058C000C3F104020BFA03F390400B400AF1010A02
:1058D000034356452370444488F00108E9DADEE7C3
:1058E000DDF808B0B145DADCCA4651462A460F98C1
:1058F000B84721784FF67F72C8F1070342FA08F2E1
:1059000098400AF1010A01EA020308F10102184372
:1059100022F007085645207042FA08F804EBE2042A
:10592000E3DA0135AB45DDDA57E74FF63F7BB145AA
:10593000B5DCCA4651462A460F98B8474FEA480395
:1059400094F800E0C3F106024BFA03F308F10101F9
:1059500090400EEA03030AF1010A034321F0030811
:105960005645237041FA08F804EBA104E2DA029BE1
:105970000135AB42DBDA30E7029B01359D427FF710
:1059800076AF2AE7013555457FF756AF25E700BFCB
:10599000F800002010B50E4C0E4B2268517C53F8D5
:1059A000210038B1C36813B11B68042B0BD0006809
:1059B0000028F7D1002102F1080311665361BDE808
:1059C000104000F035B8FBF7C3FC2268F2E700BFD7
:1059D000F80000201C820120014B1B685B681847FF
:1059E00028010020044B1B681A7C52074CBFDB6B5C
:1059F0009B6B1860704700BFF800002030B50A4C60
:105A00000A4B2268527C53F82230DA6883B005468C
:105A100069461846126B904720686A462946083046
:105A2000FEF736FF03B030BDF80000201C820120D5
:105A3000044A054B11684A7C53F82200C3680831B8
:105A40001B6B1847F80000201C820120014B1B68CB
:105A50001B68184728010020044B1B681A7C52075A
:105A60004CBF9B6BDB6B1860704700BFF8000020D9
:105A7000014B83E803007047D87E0120014B1B686F
:105A80009B6818472801002030B583B00C461546A6
:105A9000FBF782FC019068B1C36810215B6A01A822
:105AA0009847034630B101982A462146984700207E
:105AB00003B030BD012003B030BD00BF104B30B487
:105AC0001C68B4F9085085420BDCB4F90C50A842AC
:105AD00007DCB4F90A308B4203DCB4F90E3099428A
