:020000040800F2
:10000000E839012059020008350A0108A505010850
:10001000330A010891030108E50F01080000000000
:10002000000000000000000000000000A101000826
:10003000B903010800000000F5010008750C010873
:1000400073020008730200087302000873020008BC
:1000500073020008730200087302000873020008AC
:10006000730200087302000873020008730200089C
:10007000730200087302000873020008730200088C
:10008000730200087302000873020008730200087C
:10009000730200087302000873020008730200086C
:1000A000730200087302000873020008730200085C
:1000B000730200087302000873020008730200084C
:1000C000730200087302000873020008730200083C
:1000D000730200087302000873020008730200082C
:1000E000730200087302000873020008730200081C
:1000F000730200087302000873020008730200080C
:1001000073020008730200087302000873020008FB
:1001100073020008730200087302000873020008EB
:1001200073020008730200087302000873020008DB
:1001300073020008730200087302000873020008CB
:1001400073020008730200087302000873020008BB
:1001500073020008730200087302000873020008AB
:10016000730200087302000873020008730200089B
:10017000730200087302000873020008730200088B
:100180007302000873020008DFF810D000F0C0F816
:10019000004800470D1A0108AFF30080E83901203C
:1001A0002A4B19680868B0E8F04F80F30988BFF35C
:1001B0006F8F4FF0000080F311887047000000003F
:1001C00006480068006880F3088862B661B6BFF32D
:1001D0004F8FBFF36F8F00DF00BF00BF08ED00E05F
:1001E000DFF80C00016841F470010160704700BF46
:1001F00088ED00E0EFF30980BFF36F8F134B1A68AF
:100200001EF0100F08BF20ED108A20E9F04F10609B
:1002100008B44FF0500080F31188BFF34F8FBFF345
:100220006F8F12F0FBF94FF0000080F3118808BCCB
:1002300019680868B0E8F04F1EF0100F08BFB0EC66
:10024000108A80F30988BFF36F8F70475000002039
:10025000EFF30580704700000648804706480047D6
:10026000FEE7FEE7FEE7FEE7FEE7FEE7FEE7FEE766
:10027000FEE7FEE7890C01088901000810B5441A61
:100280000346944209D28418114403E011F8013D59
:1002900004F8013D521EF9D210BD40EA0104A40742
:1002A00003D009E010C9121F10C3042AFAD203E0D8
:1002B00011F8014B03F8014B521EF9D210BD10B5D5
:1002C0000346C9B201E003F8011B521EFBD210BD68
:1002D000034611F8012B00F8012B002AF9D118462A
:1002E000704730B50B46014600202022012409E06A
:1002F00021FA02F59D4205D303FA02F5491B04FADF
:1003000002F52844151EA2F10102F1DC30BD000007
:10031000064C074D06E0E06840F0010394E8070052
:1003200098471034AC42F6D3FFF732FF845C0108E3
:10033000A45C010870B58C1810F8015B15F0070378
:1003400001D110F8013B2A1106D110F8012B03E06E
:1003500010F8016B01F8016B5B1EF9D12B0705D476
:100360000023521E0DD401F8013BFAE710F8013BBF
:10037000CB1A921C03E013F8015B01F8015B521EDB
:10038000F9D5A142D8D3002070BD000070B54568F2
:1003900082B004460146284608F092F968B1236805
:1003A0000F2B59D00BDD282B45D0B3F5107F3CD057
:1003B000112B49D0204608F035FC02B070BD0B2B44
:1003C00020D00E2BF6D1E3681A6859680D2A53D055
:1003D000202A31D1002928464FF480717DDD08F0B4
:1003E0005BFA284602F0C8FB02AB846A43F8040DAE
:1003F000184602F093FCA207DFD52846012109F038
:10040000C7FFDAE7284602F0B7FB02AD03466830C3
:10041000019302F093F955F8040D03216C3002F0BA
:10042000B3F9284602F07AFCC4E7324B214628464D
:100430001B689847C1E7E368002BBBD128464FF4FF
:10044000807108F021F9B5E72B4B1B68002BB4D065
:10045000214628469847B0E7284602F08DFB02ABBC
:1004600043F8040D426E1468184602F057FC002C45
:10047000A3D02846A047A0E70029DDDD4FF4807116
:10048000284608F009FA284602F076FB02AC866A94
:1004900044F8040D204602F041FCB10703D50121C8
:1004A000284609F075FF4FF48071284608F0ECF8F3
:1004B000284602F061FB034620461E8E9C6A01938B
:1004C00002F02CFC304605F0DBFBA3077FF575AF8F
:1004D0002846022109F05CFF6FE708F0D5F82846AE
:1004E00002F04AFB02AB846A43F8040D068E1846FC
:1004F000E6E700BFD8000020541701202DE9F04F97
:10050000B0F90A60B0F90C708569B0F90E80B0F9E5
:100510001090B0F908A087B08B4616441F440446DB
:100520004C3503F0F1FBDFF8CCC0CDF800B04FF054
:10053000000E42463946304603954B46CDF808C07A
:10054000CDF804E008F070FA804628B905F0A2FD65
:10055000404607B0BDE8F08F02F00EFB244F059037
:10056000514610223E1D08F0B3F90DF118090FCEC7
:1005700059F804ED0EF134050FC50FCE0FC596E8FE
:100580000F0085E80F007B6BCEF86430484602F020
:10059000C5FB7B6B40465B68984705F07BFD656853
:1005A00003F0B2FB404602F0E7FA846E049004A820
:1005B000059402F0B3FB2946484606F027FF0028C1
:1005C000C4D0059B9C4209D0404602F0D5FA059A5A
:1005D0008266034604A8049302F0A0FB404609F09B
:1005E00013FB05F057FD404607B0BDE8F08F00BF94
:1005F000D80000208D030008F0B5954A8168436853
:1006000052F8216089B00446122B3FD8DFE803F08E
:10061000AE3E3E3E3E0A963E3E3E3E3E3E3E3E3E66
:100620003E3E4100F569002D40F0B280371F57F87B
:10063000040F05F0B5FA04F110000FC85B1B521B44
:1006400029442844013503F0C7F8022DEFD132695F
:100650006169E3690192A2692069F76800970B4418
:100660005B100231521B284402F08CFFE369616980
:10067000B2690192A2692069746900941944491011
:100680000131023B521B284402F07CFF002009B0DC
:10069000F0BD006802F070FA856E0490002D00F045
:1006A000CF80A368B0F95C70002B00F0C780032BEB
:1006B00014BF0023022300EB8303406D1C6C05F084
:1006C00087FA204605F06CFA08AC06A803F010FA89
:1006D000B6F81CE0BDF81810BDF81C20BDF81A00D3
:1006E00054F8106DBDF81E307144CEEB020202309A
:1006F000023BADF81810ADF81C20B6F95E10B6F943
:100700006020ADF81A0006A8ADF81E3004F074FDA4
:10071000204602F003FB022005F09AFA284602F078
:100720002BFA08AC06A944F80C0D3A4602F024FE58
:10073000204602F0F3FA002009B0F0BD006802F094
:100740001BFA049020680BF011F9A8B9049B5D6FA7
:1007500005B9DD6E04A802F0E1FA002328462168FD
:100760001A4602F0ADFD002009B0F0BD00680AF0A5
:100770000FF9002009B0F0BDA368002B64D1049AE2
:10078000136F002B14BF6C23682313445D68E1E7EB
:10079000B368039373680293374600F1140157F866
:1007A00004090EC901902069009506F01BFA002586
:1007B00057F8040F05F0F4F9F369A269216960693B
:1007C000D21A1944284402F0B1FFF369A2692169E1
:1007D000E069D21A1944401B02F0A8FFF369E269EC
:1007E00061692069D21A1944284403F03DF8F3697D
:1007F000E2696169A069D21A401B1944013503F00E
:1008000033F8022DD4D1B06805F0CAF9F169206936
:100810006569E36942185B1A013A2944023003F022
:100820007BF8F169A2696569E369501A5B1A0130C6
:100830002944023A03F070F8F56908E701233AE722
:1008400004A802F06BFA21E7049BDD6E82E700BF8B
:10085000EC51010800B9704730B5044683B00D462D
:1008600003F052FA204602F087F902AB456543F8DF
:10087000040D184602F052FA204609F0C5F905F0B9
:1008800009FC03B030BD00BF70B582B018B90125B6
:10089000284602B070BD04460D4603F035FA2046E6
:1008A00002F06AF9866E00906846019602F036FA08
:1008B000294601A806F0AAFD00280CBF0125002545
:1008C0000FD0019B9E4209D0204602F055F9019AB3
:1008D000826603466846009302F020FA204609F03B
:1008E00093F905F0D7FB284602B070BD2DE9F0431F
:1008F000456883B004460146284607F0E1FE60B330
:1009000023680E2B3CD074DD0F2B29D0B3F5107F5C
:1009100020D1284602F030F9034602A8B3F930701E
:1009200040F8083D93F8749093F8758002F0F6F95A
:10093000E668002E75D0284609F02EF800286BD105
:10094000337A002B6FD12846022109F021FD384669
:1009500005F096F9204608F065F903B0BDE8F0838C
:10096000284602F009F902AB43F8040D026F14683F
:10097000184602F0D3F9002CEFD02846A047ECE748
:10098000284602F0F9F8034602A840F8083D93F81B
:10099000747093F8756002F0C1F928460AF0E6FF1A
:1009A0000028D7D0E3685A68002AD3DD1B68202BC3
:1009B000D0D1002DCED0013696FBF7F307FB13669E
:1009C00003F0A2F9284602F0D7F8019090F87430AD
:1009D0009E422FD280F8756001A802F09FF9284648
:1009E00009F012F92846052109F0D2FC05F052FB66
:1009F000B0E70B2BAED1284602F0BEF802AD03469D
:100A000045F8043D783001F099FE284602F086F959
:100A1000204608F007F9A0E70021284609F0B8FCB5
:100A200098E70321F9E70121284609F039FE2DB99D
:100A30000121F2E701A802F071F9D7E708F10108F6
:100A400098FBF9F309FB138803F05EF9284602F0DE
:100A500093F8019090F8743098450FD280F8758023
:100A600001A802F05BF9284609F0CEF805212846D6
:100A700009F08EFC05F00EFB0121CEE701A802F083
:100A80004DF9F7E72DE9F04FB0F90A50B0F90C60D5
:100A9000B0F90E70B0F91080B0F90890D0F818A035
:100AA000DFF8C0B087B00C4615441E4403F02CF9A3
:100AB0002FB9DBF800309B681B6898470746B8F1F0
:100AC000000F47D0DBF8103000946FF070441C1B0F
:100AD000B4FA84F4DFF890E0CDF808E00AF15402AB
:100AE0006409039231463A4643462846019407F08A
:100AF0009BFF1C4F064638B302F03EF83D1D4946A9
:100B00001022059007F0E4FE0FCD0DF1180C5CF8F3
:100B100004ED0EF134040FC40FCD0FC40FCD0FC47C
:100B200095E807000F2384E8070002253A68CEF80D
:100B300070206046CEF87C308EF8745002F0EEF8EB
:100B40003B6830465B68984705F0A4FA304607B02A
:100B5000BDE8F08FDBF800309B681B689847804643
:100B6000B0E700BF10010020ED0800082DE9F04FAC
:100B70000546006895B010BBDFF8BC9280466C68F3
:100B8000192C00F25281DFE814F02A0050015001C4
:100B900050015001500141007A0050015001B7004E
:100BA00050015001500150015001500150011201FB
:100BB00050015001500150015001500124000AF031
:100BC000D5FEB0FA80F84FEA5818994B53F82890A0
:100BD000D5E7D9F81840204615B0BDE8F08F286851
:100BE00009F0D6FE286801F0C7FF024614A8B2F942
:100BF0000630B2F9021040F8082D5B1A0133D367B2
:100C000002F08CF8204615B0BDE8F08FAB682C6878
:100C100003931F4603F078F8204601F0ADFF14ABB4
:100C2000C56F43F8080D834E184602F077F805F0BB
:100C300031FA56F8284007F1FF3B002C00F0FE8007
:100C40004FEA8B0101EB0B02920003E0E46C002CF5
:100C500000F0F480B4F84830AB42F7D1A31808464E
:100C60009B68002BF2D00322584404EB800011460D
:100C700002F0AAFB0024204615B0BDE8F08F2C68D6
:100C800003F042F8204601F077FF14ABC66F43F83B
:100C9000080D184602F042F805F0FCF9286808F043
:100CA00047FB002800F0FC81A9F10407002457F855
:100CB000040F04F075FF286969698319013B1B1B48
:100CC000204421441A46013402F086FD032CEED163
:100CD0002869D9F81030696901938319D9F80C2073
:100CE0000092043B033003311A4602F04BFC00240F
:100CF000204615B0BDE8F08F286801F03DFF03469F
:100D000014A8B3F9547040F80C3D9E6CD3F834909D
:100D100093F8568002F002F82C6802F0F5FF2046A6
:100D200001F02AFF14ACD0F87CA044F8080D20464E
:100D300001F0F4FF05F0AEF9204608F03BFABDF8EB
:100D40004830286A53449844ADF8488002F022FFA6
:100D50000546484602F034FF27F00303042B00F059
:100D600097810C2B00F06E81BDF94A3080B227F0DC
:100D70000C01012900F08481022900F07281BDF983
:100D80004820ADB2013D013803442A443046ADF855
:100D90004C20ADF84E3004F003FF20464FF0FF31F9
:100DA00002F094FB0024204615B0BDE8F08F2868BF
:100DB00001F0E2FE034614A8B3F9547040F80C3D6C
:100DC000D3F84480D3F8349093F8566001F0A6FF2E
:100DD0002C6802F099FF204601F0CEFE14ACD0F84A
:100DE0007CA044F8080D204601F098FF05F052F968
:100DF000204608F0DFF9BDF848302D6A53441E4400
:100E00004846ADF8486004F0E3FE022004F020FFFD
:100E1000404604F0C5FE214628463A4602F0ACFAA8
:100E20000024204615B0BDE8F08F0024D3E600BFB3
:100E3000645201083818012040020020502001F0BF
:100E4000D5FC044600283FF4C6AEC14F50223B6893
:100E5000002198474FEA4B0318460B935844BD4B6B
:100E6000D9F814206264A5F1060904EB800083FB25
:100E700009232830B9F1000F09EBD9724FEA620259
:100E80004FEAE97E0A904846B8BFE81ECEEB6303FE
:100E9000A2EBA00056F8281046F8284000EB030A01
:100EA000D61A6B1C48BF05F10803DB1003FB09F8D9
:100EB000E164A4F8485004F14001404609910893C8
:100EC00001F094FC0490002800F0C8803B68424682
:100ED00000219847012E40F38E81BBF1010F0AF1EA
:100EE000020240F039810899CDF818B04B005B42FE
:100EF00018465B46DDF810B0CDF830A057460AF131
:100F0000010E01FB02F24FF0800807940D958C460C
:100F10000596824603F0070402EB0A01B94548FA38
:100F200004F402EBE30501EBE301774603F101036F
:100F30000EF1010E6244204604DD1BF801603443CB
:100F40000BF80140F14504DD1BF8051001430BF8D7
:100F5000051005999942DDD1DDF830A0DDF818B013
:100F6000079C0D9D4B1E0E469A44A5F10708B045FF
:100F70003EDDBBF1010F0AF1020340F09980089DAC
:100F8000CDF814B06A00524205FB03F04FF0800E1A
:100F90000694AC46934601E00AF1020306F007010D
:100FA000D1454EFA01F100EB0B050AF1FF3A374645
:100FB00034460A4609DD002EB8BFF71D05EBE705EC
:100FC000049F7F5D3943049F7955994508DD002EC4
:100FD000B8BFF41D00EBE40404990B5D1A430A55F5
:100FE00001364645CCEB0000D6D1DDF814B0069CA6
:100FF0000B9B099E5B441946039B04EB810103EBA9
:1010000083030E6304EB830302264FEA8B008E6298
:1010100000EB0B02012681F82C6004EB820223F81E
:101020000E6CBDF8206023F8106C049E96601FFAC9
:1010300089F500210A9ED660116123F8145C23F81B
:10104000125C10E6BDF94E301B1A013303EBD3736B
:1010500043F34F03ADF84A3080B288E64FEA8B0085
:1010600001E6BDF94820BDF94C10891A491B01EB76
:10107000D17102EB610212B2ADF84820ADB281E647
:10108000BDF84C10ADB2491B0AB2ADF8482079E664
:10109000BDF84E3080B21B1A1BB2ADF84A3066E67E
:1010A000286800F0ABF804F06FFD01F0C9FEFBE525
:1010B0000899CDF814B00A464FEA410C02FB03F23E
:1010C000CCF1000C4FF0800E06948B46049826E07D
:1010D000002E3446CBEB0201B8BFF41D01EBE40453
:1010E00006F00707055D4EFA07F73D43055599459C
:1010F0000CDD002E3346B8BFF31D02EBE30206F011
:101100000704835C4EFA04F42343835401364645B6
:101110000AF1FF3A0A463FF468AF0AF10203D145EB
:101120000EDD002E314602EB0C04B8BFF11D04EBBE
:10113000E10106F00705445C4EFA05F52C434454E2
:101140000AF101018945C3DCCBEB0201CFE700BF07
:1011500098010020676666660898CDF830B04300B5
:101160005B420793DDF810B00D94012300FB02F2FF
:10117000D0460AEB03014FF0800CCDF838A00F9554
:1011800086460696079803F0070714184CFA07F7E7
:10119000CEEB0200C14502EBE30A04EBE30400EBF3
:1011A000E300724403F1010388463E46059704DDDF
:1011B0001BF804502F430BF80470894501F101011D
:1011C00004DD1BF8004034430BF80040894505DD81
:1011D0001BF80A00059C20430BF80A000698984269
:1011E000D0D1DDF838A0DDF830B00D9C0F9D431E46
:1011F00006469A44B9E60126B7E600BF30B583B08B
:1012000018B90446204603B030BD054602F07CFD07
:10121000284601F0B1FC0446019018B12846246C20
:1012200008F0F2FC01A801F079FD04F033FF20463C
:1012300003B030BD00B9704730B5044683B00D46E9
:1012400002F062FD204601F097FC436B0190AB4237
:1012500003D04563204608F0D7FC01A801F05EFDED
:1012600004F018FF03B030BD40B339B370B5044685
:1012700082B00D4602F048FD204601F07DFC866FED
:1012800000906846019601F049FD294601A806F044
:10129000BDF878B1019B9E4209D0204601F06CFC5C
:1012A000019A826703466846009301F037FD2046A5
:1012B00008F0AAFC04F0EEFE02B070BD704700BF5B
:1012C00000B58BB0002101A82422FEF7F8FF054BE2
:1012D0001B689B6819225B68029201A898470BB0B3
:1012E0005DF804FB100100202DE9F047466886B048
:1012F0000546304601F040FCC36D0090D0F88840B0
:10130000D0F88070D0F86880B0F87C90002B63D063
:10131000D3F800A0684601F001FD14B909E0246883
:101320003CB16368284698470028F8D006B0BDE86D
:10133000F0872B68172B00F0A4801DDC0F2B00F02A
:101340008C807CDC0B2B00F0BE800D2B0AD119F0B9
:10135000080F07D1EB68DB6823B11B7A13B1304665
:1013600009F02AFA3046294607F0AAF90028DDD00C
:10137000284607F057FCD9E7262B74D02EDC1E2B0D
:1013800000F0AD80202BEDD1EC68002CEAD0314686
:1013900060680AF0D5FA002800F0BE80304601F0FF
:1013A000EBFBB0F87C300190190740F12A8101A8CD
:1013B00001F0B4FC314660680AF0B0FA0028D1D0E0
:1013C000304601F0D9FB03466268019001A8C3F8DA
:1013D000802001F0A3FCC5E79A469BE72A2B65D045
:1013E000B3F5107FBED13046D5F80C8001F0C4FBB8
:1013F00006ACB0F87C7044F8140D204601F08EFC69
:10140000EB68002B92D098F80830002B00F0A980F0
:10141000390740F1B580304607F0BEFA07F488730B
:10142000B3F5887F82D107F080039BB2002B7FF455
:101430007DAF41463046052209F05AF976E7112B77
:1014400022D0142B8ED1304601A900F04BFC02AB08
:1014500003CBEB681860596068E7BAF1000F81D0E0
:101460003046D0477EE7EB68022B7FF45FAF06A9DA
:10147000272241F8142DA868039604930AF0DAFB9A
:1014800054E7C5F80C8051E73046EC6801F074FB76
:1014900001902389012B05D1B0F87C3043F480738F
:1014A000A0F87C3001A801F039FC5BE7304601F080
:1014B00063FBEB680090002B66D0C0F88430684670
:1014C00001F02CFC32E7304601F056FB0346703049
:1014D000009301F033F9684601F020FC42E7EC6824
:1014E000012C55D0002E3FF421AF02F00DFC304608
:1014F00001F042FBB0F87C3001901C0706D523F0C8
:101500000803A0F87C30304608F07EFB01A801F00B
:1015100005FC04F0BFFD09E7304601F02DFBB0F8F3
:101520007C3001901A0706D523F00803A0F87C3020
:10153000304608F069FB01A801F0F0FB3146206855
:101540000AF0ECF900283FF40DAF304601F014FB2F
:1015500003462268019001A8C3F8802001F0DEFB59
:1015600000E7304601F008FBB0F87C20019003460C
:1015700022F480722046A3F87C2001F0CFFBD5E650
:10158000304609F019F946E7D0F88430EB6096E769
:10159000384608F059FE18B3384609F00DF93846B8
:1015A00008F008FAA8B926B9002F7FF4BFAEEF60A3
:1015B000BCE602F0A9FB304601F0DEFAB0F87C3060
:1015C00001901A0725D501A801F0A8FB04F062FDDF
:1015D000EAE72146384607F05FF9002EE4D0E8E755
:1015E000404609F055F90746304601F0C5FA034672
:1015F0006846C3F88070009301F090FB002ED3D0B2
:10160000D7E743F00803A0F87C30304608F0FCFA36
:10161000CDE643F00803A0F87C30304608F0F4FA39
:10162000D1E700BF2DE9F04F0F46B0F90C10B0F92B
:101630000AB08569B0F90E60B0F910A0B0F8128058
:101640004D4C8FB001EB0309B0F9083004934368A7
:1016500005939344603502F057FB4FF4805E3246A9
:10166000009749465846039553460294CDF804E046
:1016700007F0DAF9064628B904F00CFD30460FB041
:10168000BDE8F08F01F078FADFF8F4A00499069035
:101690003022554607F01CF90DF1380B0FCD5BF8E1
:1016A000207D07F134040FC40FCD0FC495E803006B
:1016B000189B84E8030000257B66DAF82830FB6578
:1016C000C7F88050FD66C7F88850A7F87C80584658
:1016D00001F024FB09A9304600F004FBBDF92A10F3
:1016E000BDF92800BDF92C20BDF92E30234C0395FF
:1016F0005B1A121A41F2827501320133029400968C
:10170000019507F091F9DAF8283004465B68304615
:101710009847304601F030FA034658469C660693D7
:1017200001F0FCFA304607F0CDFB02F0EDFA30464E
:1017300001F022FA036F079007A8089301F0EEFA70
:10174000059908A805F062FE38B904F0A3FC04F07E
:10175000A1FC30460FB0BDE8F08F304601F00CFA26
:10176000089A0267034607A8079301F0D7FA3046A4
:1017700008F04AFAE9E700BFE91200087D200008F6
:10178000500100202DE9F041044690B0006800F0BF
:10179000CDF9B04B6668A3F12C05002808BF1D46A3
:1017A0001C2E00F2F880DFE816F02200F600F600AA
:1017B000F600F6003500F600F600F600F600F6003A
:1017C0005100F600F600FB00F600F600F6000F01EF
:1017D000F600F60049014B014D014F01F600F600FD
:1017E000F6001D006E69304610B0BDE8F08120683B
:1017F00001F0C2F910ABB0F85A2043F82C0D42F0BA
:101800000C02A0F85A20184601F088FA206809F066
:10181000BFF8E8E72B690193B4F910E0B4F914704C
:10182000B4F91860B4F91C40EB6800933246704676
:1018300039462346ADF82060ADF81CE0ADF81E70C7
:10184000ADF82240002601F09DFECCE71C23206865
:101850000893079001F090F9036D059007A8984749
:10186000064605A801F05AFA012E40F32681AB681E
:1018700002936B6801932B686269A16920690093E8
:10188000334605F0A5F82769A3693744C6EB03087A
:10189000286804F085F942463946606901F046FF40
:1018A000686804F07DF9606942460130394601F00C
:1018B0003DFF6B6A022B00F3F3802A6A964218DA26
:1018C00063692069012E03F1020740F32481024479
:1018D00006EB0308013A30444346394602F01CF84F
:1018E000A069821BEB69C01A39464346013002F0F9
:1018F00013F8012ED4BF66696369E7692868CCBF15
:10190000F6180236013F04F04BF93A463146206999
:1019100001F0AAFF3A463146A06901F0A5FFE76948
:10192000686804F03DF92069023F3A4601303146CB
:1019300001F09AFFA0693A460138314601F094FF60
:10194000EB69022B40F38280AB6AE769A868022B3F
:10195000CCBFFF1A023F04F023F9EA69022A00F320
:1019600096802B6A022B00F38880286804F018F90F
:10197000A2692169E06901F0D9FE686804F010F9F4
:10198000A2692169E069013A0131013801F0CEFE16
:10199000AE6A022E60DC0026304610B0BDE8F08151
:1019A00004F114010EC9A8682569ADF81E10ADF840
:1019B0002020ADF82230ADF81C5004F0F1F807A853
:1019C00001F0D6FF00260EE7298B2269A36966691C
:1019D000E5692068ADF81E605B1A0A44ADF8203056
:1019E000ADF81C20ADF8225001F0C6F8036F059049
:1019F000FBB1022004F02CF9059AB2F87C30C3F355
:101A0000C0030E3302EB8303986804F0C9F8059B0A
:101A1000586B04F0DDF8059B186F01F0ADF8059BDD
:101A20000690B3F95A2007A901F0A6FC06A801F018
:101A300075F905A801F072F90026D4E6AE6AD2E67F
:101A4000EE69D0E62E6ACEE66E6ACCE62B6A022BF1
:101A50008BDD79E7B8020020A269E7692169A868EF
:101A60008C1C951E04F09CF8B91B2A4620460131B7
:101A7000BB1E01F051FF0026B5E6A269E869101A05
:101A80003B4631460130023A01F046FF6DE72069DE
:101A90000244013A02303B46314601F03DFF60E727
:101AA000A86804F07DF861696B6A0B4442463846C9
:101AB000013B023101F030FF1BE7286804F070F8A9
:101AC0002169EA6960690A44013A01F02FFEA269BE
:101AD000E9696069511A013101F028FE67692069DE
:101AE0000137394601F04EFE3946A06901F04AFE41
:101AF000686804F055F820693946013001F042FE6B
:101B0000A0693946013801F03DFE2769A369023713
:101B1000A3F10208BCE60244013A02303B463946D2
:101B200001F0FAFEA069B846821EDBE610B5044655
:101B300082B080B102F0E8F8204601F01DF802AB57
:101B4000B0F87C4043F8040D1846C4F3C00401F01B
:101B5000E5F804F09FFA204602B010BD2DE9F041EF
:101B6000044684B00E4602F0CFF824B904F092FA8D
:101B700004B0BDE8F081204600F0FEFF458EC36D45
:101B8000039005F02005ADB29F6845B1B0F95450FF
:101B90002DB9406B02F014F8039B851C00E003464E
:101BA0005E6303A801F0BAF83B680121204698471C
:101BB0003B6806460321204698473B688046002143
:101BC000204698470746204600F01AFA4346324618
:101BD00029462046009700F099F9204608F014F8AD
:101BE00004F058FA04B0BDE8F08100BF00B97047B6
:101BF00030B5044683B00D4602F086F8204600F06A
:101C0000BBFF036F00906846019301F087F82946F7
:101C100001A805F0FBFB18B904F03CFA03B030BD95
:101C2000204600F0A9FF019A026703466846009328
:101C300001F074F8204607F0E7FF04F02BFA03B038
:101C400030BD00BF2DE9F04385B020B905462846D8
:101C500005B0BDE8F08304460E4602F055F8204674
:101C600000F08AFFB0F954500390B5422AD0418E5B
:101C700001F0200189B219B16DB303462F4601E08E
:101C800003460F46DA6DA3F8546096680121336865
:101C9000204698473368804603212046984733689A
:101CA00000218146204698470646204600F0A8F9C4
:101CB000204600964B464246394600F027F920461A
:101CC00007F0A2FF03A801F029F804F0E3F9284681
:101CD00005B0BDE8F083406B01F072FF039B871CE9
:101CE000D0E700BF2DE9F04F89B007460D4600F060
:101CF00043FFC36D05909C680121236838469847CF
:101D0000236803218046384698472368022183468A
:101D100038469847236800218246384698478146CE
:101D2000059809F019FA0646059809F01DFA0346C8
:101D30000598448E04F02004A4B2B4B1B0F9542044
:101D4000B0F95840002A4ED091B2C06E0C44A4B2F3
:101D500080B103910292019307F066FB019B029A06
:101D600003990FFA80FE80B205E021462246C06E3C
:101D70000028EED186461FFA89FC013ECBEB060B0C
:101D80006444013B0CF1FF3C8C44CAEB03030FFAA3
:101D90008BFB0FFA88F804446B812A80A5F802E0D7
:101DA000A5F812C0A5F808B0A5F810B0A5F80480F1
:101DB000A5F80C80A5F80E90EC8005A800F0AEFF09
:101DC00008AAB5F9103042F8043D3846B5F90C3090
:101DD000069306A900F04CF8069A079BAA812B826D
:101DE00009B0BDE8F08F406B019301F0E9FE0230CD
:101DF00081B20C4402B2A4B20598019BB7E700BFC0
:101E000008B5438E03F020039BB24BB10246B0F9F4
:101E1000540000B108BD506B01F0D2FE023008BD85
:101E2000184608BD70B58AB00C46064600F0A4FE00
:101E30000AABC26D43F8280D1846956800F06EFF96
:101E40000196032C05D8DFE804F00F0C09021723D4
:101E500002936B6801A898470AB070BD15230293DE
:101E6000F7E716230293F4E718230293F1E700BF84
:101E70002DE9F04383B088460446914600F07CFE8D
:101E8000034602A8DA6D40F8083D9568B3F9007082
:101E9000B3F9026000F042FF2B682046002198470A
:101EA0000546204607F026FA60B3044607E001A87D
:101EB00000F034FF204607F05BFA044610B32046DA
:101EC00000F05AFEB0F9023001909B1B9D42EED10A
:101ED000836A1B060BD5B0F90030D9F80020DB1B54
:101EE000934203F1FF33E2DCC9F80030DFE7B0F9D9
:101EF0000430D8F80020DB1B9342A4BF0133C8F89C
:101F00000030D4E703B0BDE8F08300BF2DE9F04F07
:101F100083B00E469B460546144600F02DFE0DF19B
:101F20000808C26D48F8080DD2F80890FFF768FF5E
:101F30000746404600F0F2FED9F80030012128465D
:101F40009847D9F800300321824628469847D9F8A7
:101F500000308046002128469847B742814644D049
:101F6000284607F0C7F9BE1B0546002844D00C9B45
:101F70000027C8EB0B0BC3EB0909C4EB0A0AB846F0
:101F80000AE0B4F5007F10D001A800F0C7FE284693
:101F900007F0EEF9054678B3284600F0EDFD846AB7
:101FA000019004F42074802CEBD1BEB9836A1A0628
:101FB00009D49B05E8D507FB06A14A46284608F048
:101FC0008DF90137E0E708FB16B14A46284608F0CC
:101FD00085F9019B08F101089B6AEAE72846324629
:101FE000314608F045FA0198E0E7A245B8D1D84556
:101FF000B6D10C9B9842B3D103B0BDE8F08F00BFBF
:1020000070B586B0064600F0B7FD034606A89C6E84
:1020100040F8183DDD6E00F081FE84B96DB13046A8
:1020200001A9FFF75FFEBDF90A20BDF90630BDF931
:1020300008102846D21A08F013F906B070BD3046D1
:1020400001A9FFF74FFEBDF90A20BDF9081020468F
:1020500008F006F9BDF90A00BDF90E20BDF90C30F3
:10206000BDF90810121A591A20460132013108F040
:10207000B9FC002DD7D106B070BD00BF2DE9F043EB
:10208000456887B00446284607F080F9074600F007
:1020900073FD034606A85E6E40F8143DD3F84880F1
:1020A000D3F8809000F03AFE23680E3B232B3FD8F4
:1020B000DFE803F035463E3E3E3E12123E123E3E03
:1020C0003E3E3E3E18243E3E2B3E3E3E3E3E3E3E83
:1020D0003E3E3E3E3E3E3E30204606F0A3FD07B06B
:1020E000BDE8F083E368002BF9D0B9F1000F3BD0D5
:1020F0004D4539D0484608F05FFBF0E721463846A9
:1021000006F0DEFA07B0BDE8F083C4F80C8007B033
:10211000BDE8F0830023E36007B0BDE8F083E36827
:102120005A68002A04DD1B68092B1DD00A2B1FD01A
:10213000002ED1D067602046B04707B0BDE8F083DD
:102140006FF07043984504D0404606F04BF800F01D
:1021500077FE002EC3D094E80F0002AC84E80F0095
:1021600020460395B047BAE7284608F091FBB6E74A
:10217000284608F0D5FBB2E738B5204B204C1D6847
:1021800001F0C2FD284606F02DF803F083FF1D4B39
:102190001D6801F0B9FD284606F05EF803F07AFFED
:1021A00001F0B2FD236801221A7603F073FF01F0FB
:1021B000ABFD236800259D8503F06CFF01F0A4FDB5
:1021C00023685D8503F066FF01F09EFD284606F05A
:1021D0005BF803F05FFF0C4B1D6801F095FD236871
:1021E00005B1DD6103F056FF01F08EFD236800228A
:1021F0009A76BDE8384003F04DBF00BFC400002010
:10220000C8000020C0000020BC0000202DE9F04FD5
:102210004F4E3368DA69B3F92250D469B4F80CB080
:1022200083458BB07DD8E18981427AD321680891BA
:102230004FF0FF31CBEB000B0791BBF1FF3F6AD0B2
:10224000177EB3F92A80A27CB3F9249094F810A0E9
:1022500017FB02F34046069306F016F83368069A19
:102260000899099002FB0B109A6BDB6904900592A8
:10227000A27C03924FF0010BCDF808B0DA7E0192F8
:102280009B7E009328463B465246494605F040FA5D
:10229000079801301CD048F0020005F0F5FF2C4AE9
:1022A000079812680899069B03FB0013916BD2698B
:1022B00005910493A37C0393CDF808B0D37E0193DA
:1022C000937E009352463B464946284605F020FA45
:1022D00033681F4FDB695A7E1B7E9A4214D9B8F1CE
:1022E000020F11D088F0040005F0CEFF3B68DB69D7
:1022F000187ED97E9A7E5B7E00FB01910AFB02521A
:102300004B44284605F014FC9DF8240005F0BCFF62
:102310003368B3F92250627C15445D840BB0BDE88C
:10232000F08FA1680029F6D00F88B842F3D3B1F836
:1023300002E08645EFD34968C01B80B26768089702
:1023400001EB800731F920B0B7F90210079174E76B
:10235000C8000020044B1B68DB69DB6909B11A7CEB
:102360000A60587C704700BFC800002002230B8021
:10237000704700BFC3699A898A4202D8DA898A42C3
:1023800011D2986818B10388994201D20020704791
:1023900042888A42FAD3C91A436833F82100C043FD
:1023A000C0F3C03070470120704700BF2DE9F04FE7
:1023B0003E4D2B68DA69B3F92A60D36989B043B11D
:1023C0001A88904202D35988814205D29B68002B1B
:1023D000F6D109B0BDE8F08FD3F80480DFF8CC90D7
:1023E000841A08EBC407304697F802B005F04CFF9A
:1023F0008246286818F83420D0F81CE0D0F838C09D
:102400009EF81830B0F92410B0F92200CDF814C0AD
:1024100006934FF0010C7B680493CDF80CB0CDF817
:1024200008C09EF81BC0CDF804C09EF81AE0069BB9
:10243000CDF800E005F06CF92B68DA69537E92F86C
:1024400018B05B4523D9022E069320D0D17E079188
:1024500001F052FB064601F019FB03F0A1FBD9F88D
:10246000002018F834C0D469B2F9220094F81BE0B7
:102470000799B2F92440069B0CFB0E0201FB0343B3
:1024800001FB0B4105F054FB304603F089FB50463D
:1024900005F0FAFE2B687978D8695A8C807E00FBAB
:1024A00001225A8409B0BDE8F08F00BFC8000020A7
:1024B000114B70B41B68DD69EB6943B11A88904217
:1024C00002D35C88844205D29B68002BF6D1184663
:1024D00070BC70475E68AC7E821A06EBC2035B7804
:1024E00013FB04F00029F3D016F8323014FB03F389
:1024F0000B6070BC704700BFC800002001230B8038
:10250000704700BFC06950B103888B4202D843882E
:102510008B4203D280680028F6D1704701207047B3
:102520002DE9F047234E3368002B3FDD224D234F2A
:102530002C68D7F80090C3EB431804EB880808F127
:102540000C080C344FF0000AA4F10803742218465A
:102550004946FDF793FE221F2063A06344F80CACAC
:102560006263E4607C34A045EED10024A04603E021
:1025700092B13268904514DA0DF0B2FF2B681A5907
:10258000904203EB040108F1010804F17C04EFD14F
:1025900004313960BDE8F087086004313960BDE876
:1025A000F087194604313960BDE8F087024B034FCC
:1025B0001968EDE78C010020C0170120C800002039
:1025C000F8B5194F194B1A4E384640F80C3F04F035
:1025D00009FF3468C4EB4414A400204600F006F957
:1025E000144B386022461B68002198474FF0FF3398
:1025F00073600DF07BFF3368002B11DD002425464E
:1026000003E072B133689D420ADA0DF069FF3B685E
:102610001A599042234405F1010504F17C04F0D1DC
:10262000F8BD1860F8BD00BFC0170120BDEF00085D
:102630008C0100209801002000B9704710B50446B5
:1026400001F062FB204609F0C3FD044603F022FDC1
:10265000204610BD70B5054601F056FB25B9002493
:1026600003F018FD204670BD01F04EFB284609F02E
:10267000AFFD044603F00EFD002CF0D0144E1549BA
:10268000F269736B0132F26113F83420013203F8FE
:10269000342003EBC4032A465D680B6805F108008B
:1026A000002198472968726B12F83130012B01D94B
:1026B000F06930B9013B02F8313003F0EBFC204601
:1026C00070BD0138013BF06102F83130F5E700BF21
:1026D000DC18012098010020024B21F0030183E85F
:1026E000030070471016012000B9704770B50D4CFB
:1026F000054601F009FB636BEE00334459684868F6
:1027000009F0B8FB626B6368616A1644013300200C
:102710006360716002F835006562BDE8704003F0E7
:10272000B9BC00BFDC18012028B1034AD36B036099
:1027300003B15860D0637047DC180120F8B5054636
:1027400001F0E2FA2C68B4B10E4E01F0DDFA736BC1
:10275000E7003B445968486809F08CFB716B73686B
:10276000726A0F440133002073607A6001F834000C
:10277000746203F08FFC00232B60BDE8F84003F087
:1027800089BC00BFDC18012000292BDD2DE9F047B2
:102790000025154F8A46041FA94601F0B5FA54F8E2
:1027A000046F0135B6B101F0AFFA7B6B4FEAC60892
:1027B00043445968486809F05DFB796B7B687A6A25
:1027C000884401337B60C8F8042001F836907E62AB
:1027D00003F060FCC4F8009003F05CFCAA45DCD177
:1027E000BDE8F087704700BFDC180120F8B5894EBE
:1027F00096F828300446002B2FD00334356CF26B4A
:1028000024F003040434A54238BF254662B152F8CF
:10281000043C9D42144604D114E054F8043C9D420B
:1028200010D02468002CF8D1F368B46B1C4454F821
:10283000041C611A0B68002B65D14B689D426CDD4E
:10284000002408E023680BB161685960616801B138
:102850000B60A24253D02046F8BD6F4B9A6858686F
:10286000012186F828100AB982089A605A25356233
:1028700010272022402519683764B2643565802707
:102880004FF480724FF40075B7653266B5664FF449
:1028900080674FF400624FF48055A1F1140337674D
:1028A000B267C6F880504FF400574FF480424FF49F
:1028B00000450344C6F88870C6F89020C6F89850C2
:1028C0004FF480374FF400324FF48025C6F8A070E3
:1028D000C6F8A820C6F8B050022201254FF4002700
:1028E000B16373633261F060C6F8B8705D607562A1
:1028F000756009F0BFFA0BF0FFFA35637DE72368D6
:10290000F3632046F8BD00200CF052FE54F8041C7E
:10291000611A0B68002B93D18FE7D6F8B8703D4A47
:10292000581B041DBB420C4472D2D2F8B070BB429B
:102930006CD2D2F8A870BB4266D2D2F8A070BB426B
:1029400060D2D2F898709F425AD9D2F89070BB42A8
:1029500054D2D2F88870BB424ED2D2F88070BB42BB
:1029600048D2926F934243D2376F2A4ABB423DD23C
:10297000976EBB4238D2176EBB4233D2976DBB42C3
:102980002ED2176DBB4229D2976CBB4224D2126C57
:1029900093420CD2F2687369521B2B44F26073614C
:1029A00010B944F8045C56E709F064FAF9E700222C
:1029B0003768D1F808E0FB1A3360CB68BEF1000F2E
:1029C00001D0CEF8043013B1C3F800E0E2E706EB23
:1029D000C202C2F844E0DDE70122E9E70222E7E7AC
:1029E0000322E5E70422E3E70522E1E70622DFE729
:1029F0000722DDE70822DBE70922D9E70A22D7E729
:102A00000B22D5E70C22D3E70D22D1E70E22CFE728
:102A10000F22CDE7DC18012010160120F8B54A4C32
:102A200094F82830002B3DD0D4F8BC30464A3BBB4C
:102A3000D2F8B43023BBD2F8AC300BBBD2F8A43000
:102A4000F3B9D2F89C30DBB9D2F89430C3B9D2F8DC
:102A50008C30ABB9D2F8843093B9D36F83B9536F4C
:102A600073B9E36E63B9536E53B9D36D43B9536D04
:102A700033B9D36C23B9536C13B96FF00B00F8BDA5
:102A80009B68002BF9D0002201E09B6843B1596894
:102A90009B689142104684BF0A461046002BF4D131
:102AA0000C38F8BD294B9A685868012184F8281021
:102AB0000AB982089A601968A1635A261022202553
:102AC00026622264A564402780264FF480724FF46A
:102AD0000075A1F114032765A6652266A5664FF46B
:102AE00080674FF400664FF480524FF40055034462
:102AF0002767A667C4F88020C4F888504FF4804741
:102B00004FF400464FF480324FF40035C4F8907013
:102B1000C4F89860C4F8A020C4F8A8500222012587
:102B20004FF480274FF4002663632261E060C4F80D
:102B3000B070C4F8B8605D606562656009F09AF9CC
:102B40000BF0DAF925636FE7DC180120101601207D
:102B500030B1044B5B6B03EBC000436858680C3822
:102B6000704700BFDC180120024A9369013393616A
:102B7000704700BFDC180120074AD169536B01314F
:102B8000D16113F83020013203F8302003EBC00389
:102B900058680830704700BFDC180120F8B5584C61
:102BA00001F0B2F894F82830002B57D0D4F8BC309C
:102BB000534A9BBBD2F8B43083BBD2F8AC306BBB6A
:102BC000D2F8A43053BBD2F89C303BBBD2F894303F
:102BD00023BBD2F88C300BBBD2F88430F3B9D36F5F
:102BE000E3B9536FD3B9E36EC3B9536EB3B9D36DC1
:102BF000A3B9536D93B9D36C83B9536C73B96FF0A8
:102C00000B034049DA1781FB0313C2EB6313246AF9
:102C100004FB03F403F03EFA2046F8BD9B68002B4A
:102C2000F5D0002201E09B6843B159689B6891424E
:102C3000104684BF0A461046002BF4D10C38B0F57C
:102C4000800F0346DDD8226A2E4B02FB00F0A3FB67
:102C500000235C0903F01EFA2046F8BD2A4B9A684F
:102C60005868012184F828100AB982089A60196806
:102C7000A1635A261022202526622264A5644027DB
:102C800080264FF480724FF40075A1F1140327657C
:102C9000A6652266A5664FF480674FF400664FF480
:102CA00080524FF4005503442767A667C4F880207C
:102CB000C4F888504FF480474FF400464FF48032F8
:102CC0004FF40035C4F89070C4F89860C4F8A020A0
:102CD000C4F8A850022201254FF480274FF40026A3
:102CE00063632261E060C4F8B070C4F8B8605D60EE
:102CF0006562656009F0BEF80BF0FEF8256355E7E4
:102D0000DC1801201F85EB5110160120024A93693F
:102D1000013B9361704700BFDC18012030B40368A9
:102D20000A4A53F8085C0446506B10F83530012B02
:102D300003D9D16909B10139D161013B00F83530BE
:102D400000221046226030BC704700BFDC18012012
:102D5000034B5B6B03EBC00040680830704700BF5B
:102D6000DC1801202DE9F04114460646884600F0A3
:102D7000CBFF204600F0CCFEE8B9A7001B4D3B1965
:102D800005EB8303DA68B24206D11B69434503D1E0
:102D9000BDE8F04103F07EB93B1905EB83035869A8
:102DA000D0B93C4405EB8404E660C4F81080BDE86B
:102DB000F04103F06FB90D4B04EB840403EB840482
:102DC00063689A685968C2EB0802711A02F010FF32
:102DD000BDE8F04103F05EB95B689A685968C2EBE0
:102DE0000802711A02F042FBDBE700BF4018012025
:102DF000C3B2CAB29A1A92B230B415B2002DBCBF97
:102E0000524215B2C0F30723C1F307229B1A9BB2AB
:102E1000090C1AB2C1EB1041002A89B20CB2BCBF36
:102E20005B421AB2002CBCBF49420CB202FB02F258
:102E300005FB0520A1B201FB010030BC704700BFBB
:102E40002DE9F041002182B0084600F0CFFE00F0ED
:102E50005BFF042005F018FA174B1B69DD6C1C6D35
:102E6000A5F57F57A4F57F5605F57F5504F57F54EA
:102E700080463F3F3F353F3E3F346846ADF80070E7
:102E8000ADF80450ADF80260ADF8064008F074F9F2
:102E900048B123462A463146384604F049FE07F039
:102EA000FFFF0028F5D1404605F0EEF903F0F2F8F7
:102EB00002B0BDE8F08100BFB80000202DE9F04766
:102EC000044682B00D461646002B38D09A4600962E
:102ED00026680B9B0A9A51462046B047074618B908
:102EE000384602B0BDE8F08706F07EF9618A804678
:102EF000384605F0D1FC384607F0B6FD013D4046A6
:102F000007F0B2FD002DC8BF4FF0000904DC1AE045
:102F100007F0AAFD013D16D054F81C6FCDF80090C3
:102F2000002320461A464146B04706460028EFD106
:102F3000384605F0A7FE304602B0BDE8F08706F03F
:102F400061F98246C3E740461D2107F07BFBBAF1D9
:102F5000FF3FC5D000F0D8FE06F0DAF960B9BA45F7
:102F600002D0384607F094FC03F094F8384602B0DB
:102F7000BDE8F0870028F4D0FFF7EAFE80698742B9
:102F8000F8D1F1E7012B12DCF8B506461C201746F4
:102F90000C461D46FFF72AFCB8B154B1046100236A
:102FA000836085618782C66003604360F8BD00204E
:102FB0007047074B53F825200AB9F0E71A46136803
:102FC000002BFBD113690361E9E70020F8BD00BFC6
:102FD000B4190120012B3BDC2DE9F84381461C206C
:102FE00090460F461E46FFF701FC054600287FD09D
:102FF000414A002F31D00023DFF804E152F8264087
:1030000003609EF8001007618E428661A0F814806C
:10301000C0F80C904360836002DB731C8EF80030B4
:10302000002C5DD021464C68002CFBD1D9F8000063
:10303000CB681B6883422CDD09680029F8D148B9A8
:103040002E4B16361A68284642F82650BDE8F883FB
:10305000002070472846BDE8F88352F82610002962
:1030600030D0084600E018460368002BFBD1DFF89B
:1030700090E000692B6028619EF80000AE618642F6
:10308000A5F81480C5F80C906B60AB60CBDB0C46E8
:10309000C3E70AD04B6843B31D606B608D4214BF19
:1030A0000B4600234D602B60C9E7B8F1010FF1D149
:1030B00004E0D9680C6884421946EBDB0B68002BEE
:1030C000F7D1E7E7DFF838E001609EF8003086616D
:1030D0009E42A0F81480C0F80C9041608160D6DA5E
:1030E00042F82650D9F80000A9E742F82650D5E763
:1030F0000020BDE8F88300BFB4190120C8000020FB
:10310000AD190120FFF710BB00283CD070B48469D2
:10311000012C03DD0123184670BC70471E4B1F4D68
:103120001A789442A4BF621C1A7055F824300BB967
:103130002FE013465A68002AFBD1C268116802E0EA
:103140001B68002BE6D0DA6812689142F8DB0DD0DC
:103150005A68DAB110604260984214BF1A460022E1
:1031600058600023026070BC18467047828A012AAA
:10317000EED104E0D3681E68B1421346E8DC1A6859
:10318000002AF7D1E4E701231846704745F82400E8
:10319000E2E745F82400BEE7AD190120B41901208B
:1031A00000284DD02DE9F041DFF89CE0254F9EF836
:1031B0000060BC4602E02846002D27D084690568DF
:1031C000012CF8DCB44257F82430A4BF661CF6B2D8
:1031D0000BB932E013465A68002AFBD1C268116865
:1031E00002E01B68002BE6D0DA6812688A42F8DC3D
:1031F00010D05A68A2B110604260984214BF1A46BB
:103200000022586002602846002DD7D18EF8006059
:10321000BDE8F081828A012A0BD05A68002AEAD1DF
:1032200047F82400E9E7D368D3F8008088451346BF
:10323000DFDB1A68002AF6D1DBE74CF82400BAE796
:10324000704700BFB4190120AD1901200F4A8169F0
:1032500052F8213098420AD042680AB103681360DC
:10326000036803B15A60002303604360704703683A
:1032700042F821302BB100225A604268002AEED178
:10328000F0E74268002AEAD1EDE700BFB419012057
:103290000020704701280EDC084B53F8200058B17D
:1032A000C3681B681BB908E0C3681B6823B10068CA
:1032B0000028F9D17047002070477047B4190120E9
:1032C00000B970472DE9F04182B01E4615460C4604
:1032D0000746FFF751FC02AB026843F8040D18469D
:1032E000D2F80080FFF71AFD33462A4621463846B9
:1032F000C04702B0BDE8F0812DE9F84307460DF064
:10330000F1F807440DF0EEF83E1A002EDFF8609059
:10331000DFF8608022DD00F0D1FAD9F800309E425B
:10332000A8BF1E4600F0F0FCD8F80040FFF71CFCD8
:10333000B4B1254602F0AEFE013DFBD130460DF0A2
:10334000CDF800F0E1FC013CFBD1FFF7DFFC02F01F
:10335000A1FE0DF0C7F83E1A002EDCDCBDE8F883B4
:1033600030460DF0BBF8FFF7D1FC02F093FEF0E71A
:10337000D4000020C417012020B3F0B50C4683B060
:103380000546164600F0C0FCD4B1204607F05CFBB1
:10339000074638B168463A46214603F0F7FE6846CC
:1033A00007F052FB3246214647F6FF73284603F0EA
:1033B00007F9384607F048FB02F06CFE03B0F0BD99
:1033C0002746EFE7704700BF2DE9F04FDFF8F49094
:1033D00089B0044690460F4600F096FCD9F80030BC
:1033E0002088DA6C1D6D63881744A844421E013B97
:1033F0003A44434406A8ADF81870ADF81A80ADF809
:103400001C20ADF81E3007F0B7FE00284ED0DFF8C4
:10341000B8A0CB461AE040F0020002F0CDFB2169D3
:1034200021B3D4F80CE0A668638822888DE8404078
:103430000120039002900E6838464146B047284666
:1034400002F0BAFB07F02CFD00282FD00020E66820
:1034500002F0B2FB054616B13379002BDBD125F023
:10346000020002F0A9FB21690029DAD1D9F8002075
:10347000DAF80030527CE06821469847E188D0B104
:1034800063882288A6680590A08802910121039094
:103490000191009138464146049604F039F92846D6
:1034A00002F08AFB07F0FCFC0028CFD102F0F2FD0D
:1034B00009B0BDE8F08F012904BFDBF80030986B3C
:1034C000DEE700BFC8000020B800002070B582B061
:1034D0000A460146684603F075FF00F015FC284BCC
:1034E000BDF800401B68BDF80410B3F84C60B3F899
:1034F0005050BDF80220BDF80630344431442A440F
:103500002B446846ADF80040ADF80410ADF8022039
:10351000ADF8063007F030FE68B3BDF90040BDF9E4
:1035200004309C420EDC2046BDF9021004F0A0FAE3
:103530002046BDF9061004F09BFABDF904300234B0
:103540009C42F0DDBDF90240BDF906309C420EDC24
:103550002146BDF9000004F08BFA2146BDF90400B4
:1035600004F086FABDF9063002349C42F0DD07F023
:1035700097FC0028D1D102F08DFD02B070BD00BFD4
:10358000C80000202DE9F04F91B081461E460F463D
:10359000904600F0B9FB644B1C68E56C246DA019E3
:1035A000E11905EB090305EB0802044601900EA89A
:1035B000079308920291ADF83830ADF83C20ADF891
:1035C0003A10ADF83E4007F0D7FD002800F091809A
:1035D000019B029A9DF868409DF86C70C2EB030B4A
:1035E0001A9AC2F307201B9AC2F307261A9AC2F34B
:1035F00007411B9A0BEBDB735B10C2F3074E1A9A61
:103600000BFB04353C1B120E06940BFB0034301AE6
:1036100003900BFB01300BFB02330D931B9B0A95B0
:10362000C1EB0E01C2EB13630B940C900491059354
:103630005E4600F061FA1A9B1B9A0990934269D08A
:10364000002E52D0029D019A95425BDC0AAF0246E1
:1036500097E880074FF0010B06E00BF1010B019B8F
:103660000135AB4222462FDB9AFBF6F399FBF6F4C9
:103670001B0697FBF6F143EA044398FBF6F441EA94
:10368000042405991C43039B8A4404999844029B93
:1036900089440699AB4210460F44E0DA9442DCD0EC
:1036A00004F0DAFDBBF1010FCBEB050105F1FF33AF
:1036B000089A079822D004F03BFA019B0135AB42EF
:1036C0004FF0010B2246CFDA204604F0C5FDBBF1D6
:1036D000010F19D0019B089A0798CBEB0301013128
:1036E00004F026FA099804F0B7FD07F0D9FB00288A
:1036F0009FD102F0CFFC11B0BDE8F08F691E04F03D
:103700008DF9ACE704F0A8FD089A0199079804F038
:1037100085F9E7E7184604F09FFD019B089A029996
:10372000079804F005FADDE7C8000020F0B5144F53
:1037300083B006460D46144600F0E6FA3B68196D64
:10374000DA6C0E4433B2154414446846ADF80050A8
:10375000ADF80440ADF80230ADF8063007F00CFDCE
:1037600050B13B685B6E22461B683146284698473D
:1037700007F096FB0028F4D102F08CFC03B0F0BDFA
:10378000C800002070B5134E82B005460C4600F00C
:10379000BBFA3368DA6C1B6D15441C442AB223B2A1
:1037A0006846ADF80420ADF80020ADF80630ADF85D
:1037B000023007F0E1FC48B133685B6E21465B687C
:1037C0002846984707F06CFB0028F5D102F062FC10
:1037D00002B070BDC80000202DE9F04782B0044659
:1037E00089469246984600F08FFA1E4B1F683E7E2F
:1037F000FD6C3F6D013EB6B22C44B9445544B8440B
:10380000A11B7219C6EB090368464644ADF80010C7
:10381000ADF80420ADF80230ADF8066007F0ACFC5E
:10382000D8B109F1010708F1FF362A46494620467A
:1038300004F0F4F82A464146204604F0EFF83246F8
:103840003946204604F04AF932463946284604F003
:1038500045F907F025FB0028E7D102F01BFC02B078
:10386000BDE8F087C800002070B582B00646144657
:103870000D4600F049FA104B1A68D36C126D1E44C5
:1038800033B2154414446846ADF80250ADF8064012
:10389000ADF80030ADF8043007F06EFC40B12246C0
:1038A0002946304604F01AF907F0FAFA0028F6D152
:1038B00002F0F0FB02B070BDC80000202DE9F0411D
:1038C000124F134EDFF84C8000253C681CB1A04716
:1038D000041C18BF012405F009FB3368002818BF39
:1038E00001244BB1984738B1D8F8003013B1012406
:1038F00098473CB10125E8E7D8F80030002BF7D114
:10390000002CF7D12846BDE8F08100BFD81901206E
:10391000DC190120D4190120F0B583B00746164602
:103920001C460D4600F0F0F9104B1B68DA6C1B6D5D
:10393000174416441D441C446846ADF80070ADF8A9
:103940000460ADF80250ADF8064007F015FC48B130
:10395000234632462946384604F0EAF807F0A0FA32
:103960000028F5D102F096FB03B0F0BDC80000209E
:10397000F0B583B0B0F90070B0F90260B0F904504E
:10398000B0F9064000F0C0F9104B1B68DA6C1B6DF3
:10399000174415441E441C446846ADF80070ADF849
:1039A0000450ADF80260ADF8064007F0E5FB48B101
:1039B00023462A463146384604F0BAF807F070FA32
:1039C0000028F5D102F066FB03B0F0BDC80000206E
:1039D000002850D0C388013B10B5848880681F2B15
:1039E00047D8DFE803F0162346314646463C4646B4
:1039F000464646464640464646464646464646466D
:103A0000464646464610A31002FB031150F821001B
:103A100010BD02FB04F200EBD104C843A35C00F02C
:103A2000070023FA00F000F0010010BD02FB04F2D1
:103A300000EB91046FEA4100A35C00F0060023FA5A
:103A400000F000F0030010BD02FB04F200EB510493
:103A5000CB07A05C4CBF00F00F00000910BD02FBBB
:103A60000404605C10BD631002FB031130F8110008
:103A700010BD002010BD7047034B53F82000C368F1
:103A800008219B6A184700BFB419012010B500F047
:103A90003BF904F08DF804F0FBF9044602F0FAFA61
:103AA000204610BD10B5044600F02EF9054B1B68EA
:103AB000DB6900215B6820469847044602F0EAFA79
:103AC000204610BDC800002038B504460D4600F061
:103AD0001BF9064B1B68DB6929465B682046984743
:103AE000044602F0D7FA204638BD00BFC8000020C7
:103AF00008B105F05FBB704710B500F005F904F0A0
:103B00005FF804F0C5F9044602F0C4FA204610BD7F
:103B100001289ABF024B53F820000020704700BFD5
:103B2000B817012010B500F0EFF8044B1B68DB69F3
:103B30005C7E02F0AFFA204610BD00BFC800002036
:103B400070B504460E46154600F0DEF820462A46BB
:103B5000314604F083F8044610B1002333602B6033
:103B600002F098FA204670BD38B505460C4600F0C4
:103B7000CBF8064A064BB2F90020B3F900302A60B0
:103B80002360BDE8384002F085BA00BFA2190120C9
:103B9000A419012010B5044603F0A8FA01462046F6
:103BA000BDE8104003F036BA0448342335216122C1
:103BB000017002718370C370704700BF7C010020E8
:103BC000027EC07E02FB00F0704700BF024B53F83C
:103BD00020301B6918687047B4190120024B53F854
:103BE00020301B6958687047B419012038B5054664
:103BF0000C4600F089F8044B1B685D849C8402F03D
:103C000049FA002038BD00BFC800002090B583B03D
:103C100000AF344A334B1B6823F001031360324B6F
:103C200001221A6000BF304B1B68002BFBD12F4BC9
:103C30002F4A1A602D4B1B682E4A934200D0FEE794
:103C400002F024FC2C4B2E221A700CF04DFC2B4859
:103C50000AF054FF0CF0CCFA786004F069F80346DF
:103C6000002B0CBF01230023DCB204F0A7F80346AD
:103C7000002B0CBF01230023DBB22343DBB2002B5C
:103C800009D004F06BF8044604F0AEF80346194678
:103C9000204604F0F3FA0021002001F0B9FF05F0FE
:103CA00097FEFEF73DFC164B1B68002B12D00DE073
:103CB000134B1B681B68002B03D0114B1B681B6840
:103CC00098470F4B1B685B680D4A13600C4B1B68D1
:103CD000002BEDD10B4B01221A707B6818460C3774
:103CE000BD4690BD002000E0083002400030024098
:103CF000C2A507F4CDB5E8B5A0190120241601200E
:103D00009C160120AC1901202DE9F041234D6B6870
:103D100023B10CF0E5FBAB68984204D00CF026FC14
:103D20000CF0DEFBA8606B680133012B6B6001D0E7
:103D3000BDE8F0811A4F3B68002B29DD00242646A0
:103D400006E042B33B6801369E4204F17C041FDA70
:103D50000CF0C6FB2B681A5990422344F1D17B68C2
:103D6000B342E5D0002B10DB2A68C3EB431302EB10
:103D70008308FFF78DFA2B68C8F878001C44094BBC
:103D8000A06F04341C60FFF70BFA7E60BDE8F08181
:103D900000242646E3E71860E1E700BFC0170120D2
:103DA0008C010020C800002010B582B028B9134B48
:103DB0001B681C6E14B902B010BD0446FFF7A4FFC7
:103DC0002046FEF7D9FE02AB446943F8080D1846B9
:103DD000FEF7A4FF1CB902F05DF902B010BD204649
:103DE000FEF7CAFE02AC826844F8040D9368984757
:103DF0002046FEF793FF02F04DF9EEE7C8000020E1
:103E000000B97047014A114600F002B801F0FFFF07
:103E10002DE9F04784B00C4615460646FFF774FFBF
:103E2000002001F0C9FEDFF8E480D8F800308146B8
:103E300030461F6EFEF7A0FE03680090986901F0FF
:103E400083FE314B9C42009B04BFB3F90440B3F99D
:103E500006501A895B89ADF80840013A013B2244BB
:103E60002B448246ADF80C20ADF80E30ADF80A5068
:103E700004F036FD6846FEF751FF02A807F07CF912
:103E800048BB504601F060FEFFF73EFF002F38D0E0
:103E9000D8F800301B6E8BBB04F0B4FE3846FEF73A
:103EA0006BFE04ACD8F8003044F80C0D1F660068B7
:103EB000FFF72AF92046FEF731FF04F053FA04F029
:103EC000BDF902F0E7F8484601F076FE02F0E2F8AC
:103ED00004B0BDE8F0872A462146304600F0A0FC39
:103EE00006F0DEFF0028CCD02A462146304600F0FE
:103EF00097FC06F0D5FF0028EDD1C2E701F016FED1
:103F0000CAE701F013FEDCE701F0FFFFC800002064
:103F10002DE9F04385B00646904699460F46FFF7D7
:103F2000F3FE1C4A1C4B1268507C53F8204001E001
:103F30002468FCB1E3681A68042AF9D1DB6A01211C
:103F4000204698470546D8B12469A36898470130B0
:103F500018D00C9B0294009301954B46424639467B
:103F6000304600F0E3FA044602F094F8204605B02B
:103F7000BDE8F083FFF78EF9044648B1C368DDE77A
:103F80000446F1E70C9B054C43F001030C93E0E77A
:103F90002046ECE7C8000020B41901206C5201084B
:103FA00000B9704710B582B00446FFF7ADFE104B64
:103FB0001B681B6E9C4217D02046FEF7DDFD43694F
:103FC000019063B90068FFF79DF801A8FEF7A6FE0F
:103FD0002046FEF789FB02F05DF802B010BD1846DE
:103FE00002F03EF80198EDE701F0A0FDE4E700BF24
:103FF000C80000202DE9F04F87B0064692461C46C7
:104000008946FFF781FE564B1A68564B577CDB57A3
:10401000012B384640F3978003F090FE0546384662
:1040200003F0D2FE0746002E00F08A8005A904A8FE
:10403000FFF79AFD049A059BB6F900C0B6F9020095
:10404000B6F904E0B6F9061015441F44013D2CEA08
:10405000EC73013F20EAE072029303927545D4BFEE
:10406000C3EB0503C3EB0E038F42D4BFC2EB0702C1
:10407000C2EB01021D4617460135013704B97C42E7
:10408000002D4FDD002F4DDD109B00932A46234667
:1040900003990298FFF73CFF8046002848D000F0C3
:1040A00099F88742064604D02D4B1B68986C00286F
:1040B00051D1404600F09CF9DFF8ACB03D460024F9
:1040C0000EE0AD1BACB95046C847DBF800303444B5
:1040D000FF2003B198474046FFF792FEA74212DD4A
:1040E000AE42EEDD2946404600F062F9AD1B002CE1
:1040F000E9D0039B029940461A1900F0A9F94046FD
:10410000FFF752FEDFE74046FFF74AFF002000F0CE
:104110006FF9B74206D0124B1B68986C10B133216F
:1041200007F0CAFD01F0B6FF002007B0BDE8F08F30
:104130005046C84701F0AEFF012007B0BDE8F08F40
:10414000039602969AE703F0A3FD0546384603F06E
:10415000C9FD074667E7322107F0AEFDA9E700BFBA
:10416000C8000020B01901200018012030B5044615
:1041700083B098B1FFF7C8FD2046FEF7FDFC036849
:1041800002AD1B6945F8040D9B68984704F04AFA94
:1041900004462846FEF7C2FD01F07CFF204603B02E
:1041A00030BD00BFA0B110B5044682B0FFF7ACFD32
:1041B0002046FEF7E1FC02AB00F1180443F8040DC1
:1041C0001846FEF7ABFD01F065FF204602B010BDBA
:1041D000704700BF10B5044682B0FFF795FD7CB173
:1041E0002046FEF7C9FC02ABB0F90A4043F8040DC3
:1041F0001846FEF793FD01F04DFF204602B010BDBA
:10420000044B1B681C6E002CEAD101F043FF2046D2
:1042100002B010BDC80000202DE9F04FDFF888B1D2
:1042200089B0064605273046FEF7A6FC034607A8D8
:10423000B3F90080B3F90440B3F90290B3F9065022
:104240000793C8EB04040134D3F824A0C9EB050597
:10425000FEF764FD002C05F1010555DD002D53DD51
:10426000BAF1000F55D104F0CDFF86427FD04A4B02
:1042700001934FF0010A494640462B462246CDF8AD
:1042800008B0CDF800A000F051F980463046FEF7A6
:1042900073FC0790C0F82480B8F1000F60D0836AE7
:1042A000DFF8089143F48033836207A8FEF736FDF8
:1042B000404600F09DF80590504601F043FF40460F
:1042C000FFF770FF354A364B1978136805FB04F287
:1042D0009200344C984730462568C9F8006005F0D4
:1042E00063F82060304607F0B7FB002210462560D7
:1042F000C9F8002001F026FF059800F079F8304653
:10430000FEF726FD406AF0B9013F8CD109B0BDE847
:10431000F08F5046FEF730FC034608A8B3F904506E
:1043200040F8083DB3F90640FEF7F8FCA8450FD069
:104330004A464146504600F08BF83046FEF708FDED
:10434000406A0028E0D000F0BFF809B0BDE8F08F67
:10435000A145D4D04A464146504600F079F8ECE7F2
:1043600007A8FEF7DBFC304607F076FBCCE703F04E
:10437000C9FC824603F00CFD544503DC85427FF7FF
:1043800076AFA2468542A8BF05462A46514630462A
:1043900006F028FB54466AE7D85B01089801002024
:1043A00004180120D81801206C520108603A01203D
:1043B00030B50D4683B028B90C4B1B681C6E14B980
:1043C00003B030BD0446FFF79FFC2046FEF7D4FB48
:1043D000B0F90A300190AB42C8BF458101A8FEF791
:1043E0009DFC01F057FE03B030BD00BFC8000020A7
:1043F000F0B5164F83B00446FFF786FC3B681E6E8F
:10440000E4B1C6B904F0FEFB2046FEF7B5FB02ADF1
:104410003B6845F8040D1C660068FEF775FE2846EB
:10442000FEF77CFC03F09EFF03F008FF01F032FE74
:10443000304603B0F0BD01F079FBE3E701F076FB15
:1044400001F028FE304603B0F0BD00BFC8000020D8
:1044500070B50D4682B0164628B91A4B1B681C6E03
:1044600014B902B070BD0446FFF74EFC2046FEF7BB
:1044700083FB36B22DB2C6808580009003F0DEFE4D
:10448000009B586930B96846FEF748FC01F002FE0F
:1044900002B070BDFEF770FB009A0190B2F90830CF
:1044A000B2F90A20C280838013B10AB10580468028
:1044B00001A8FEF733FC6846FEF730FC01F0EAFD88
:1044C000E6E700BFC800002000B9704770B5044699
:1044D00084B0FFF719FC2046FEF74EFB014601A809
:1044E000B1F90460B1F906500A894B89019132444F
:1044F0002B44013A013BADF80860ADF80C20ADF853
:104500000E30ADF80A50FEF709FC02A806F034FEA2
:1045100040B12A463146204600F064F906F0C0FC5E
:104520000028F6D101F0B6FD04B070BD2DE9F04FC2
:10453000DFF82C8187B0D8F8004081468A461746BC
:104540001E461299637C11980022FEF71BFD00287D
:104550004DD003699B680546984704F063F800FB5B
:1045600007F48346FEF71AFB109B073413F0010390
:104570004FEAD4043FD0002E2CDD002B42D004FBA8
:1045800006F01830FEF758F8034668B3002202928E
:1045900018460393FEF7F0FA024606A8029BA2F81B
:1045A000049040F8042DA2F806A017815681D4602B
:1045B000C2F810B053611560FEF7B0FB129B2B617F
:1045C000D8F80020039BAB60527CAA61184607B064
:1045D000BDE8F08F002C34D1204676428642A8BF39
:1045E000064693B3002ECADC2846FEF78BFD00205A
:1045F00007B0BDE8F08F0028B8BF0330801000EB93
:104600004000B8E700933A4633465146484601F029
:1046100093FC029004FB06F01830FEF71BF80346EB
:104620000028B5D128460393FEF76CFD029B002BB2
:10463000DDD01846FEF758F8039B184607B0BDE8D2
:10464000F08F1838B0FBF4F0C7E700933A463346D2
:104650005146484601F070FC002E0290DADCC3E7B8
:10466000C80000202DE9F04F594C5A4BD4F800C037
:10467000DFF868919CF81150D9F8006053F8254094
:104680008BB02369002E00F088801746DCF860208C
:1046900080460D46002A00F08580E2681268072AED
:1046A00078D04D4A9A1AB2FA82F25209002A71D091
:1046B0004046FEF761FA03460AA8B3F908B040F88D
:1046C000083DB3F90AA0DB680593FEF727FB404BD2
:1046D00018680BEB0504B0F90C30013CE41AB0F992
:1046E0000830002CCCBFC4EB0B045C469D42BDBF20
:1046F000591B641A1D460021002C50DD0AEB0703EC
:10470000B0F90EE0B0F90A000791013BCEEB0303CC
:10471000002BC8BFC3EB0A0AB842C5BFC31BC3EB1B
:104720000A0A00230746BAF1000F069337DD404618
:10473000FFF738FD264B07991A68069BD2F860C030
:1047400003FB0B1100EB8106BCF1000F30D060467B
:10475000FEF712FAB0F90430D0F80C800AAAED1A6C
:10476000B0F9063042F8040DAD001835FF1A08FB09
:10477000075707441046FEF7D1FA87B1059B01930E
:10478000CDF80080D9F800505346224631463846CD
:10479000A84704E03A46294640460BF04FFB0BB0D1
:1047A000BDE8F08FE2681268B2FA82F252097DE742
:1047B000507CDFF82CE0CDF804A04FEA8B02029287
:1047C000009433463A462946DEF80040A047E6E723
:1047D000C8000020B41901206C520108C019012042
:1047E000BC1901202DE9F04182B00F4690460646E3
:1047F000FEF7C2F9036802ACDB6844F8040D162129
:104800005B6A0020984705462046FEF787FA1DB1EF
:10481000424639463046A84702B0BDE8F08100BFA5
:104820002DE9F04FA1B00D9110B921B0BDE8F08F86
:1048300092460746FEF7A0F920AB446943F81C0DE9
:104840001846FEF76BFA3846FFF790FC0828054635
:1048500002DD002C00F0D98001234FF0000B384618
:104860001F930A93CDF878B0FEF786F90168DFF858
:10487000688409690446D8F80000E3684D68B4F913
:1048800008100F9320AE23691491407CB4F90A10EC
:10489000099346F8144DD4F814901691FFF7ECF8EC
:1048A000D8F800100890487CFFF798F90446304685
:1048B000FEF734FA099A0A9B082A40F2A080102ACF
:1048C00013468CBF04230223CDF828B00E93A542D3
:1048D00000F0AC81D8F80030587CFFF777F9149BD2
:1048E00006469800FDF7A8FE129000289DD0384695
:1048F000FFF758FC0746B9F1000F00F0F580484675
:10490000FEF73AF9169B1C90002B40F38B81002395
:104910000C930F9BCDF840A0FB1815931DAB119382
:104920004FF001081946836800221D925B690C9ABA
:104930009847159B0F9A9B1A0B93149B834204462E
:1049400000F03181099B012B00F0F280002845D056
:104950001AAB13931298FEF70FF9099B1A90082BC4
:1049600007461D9A40F2D4800E9B0B99A34602FB8A
:10497000031A81463AF8020BA847B047BBF1010B76
:1049800049F8040BF6D1089B1F2B04D838461A4669
:10499000214601F0EDFB0A9A059200220392089A43
:1049A0001D9802920D9A1A9B1099049310440123AA
:1049B0002246CDF80480CDF8008002F0A9FE1398BD
:1049C000FEF7ACF91C981D9B8268119957690C9AE7
:1049D0001C441D94B84704460028BBD1159A0F9972
:1049E0000C9B0A441592109A01321092169A0133C8
:1049F0009A420C9300F016811C98119993E7012AB2
:104A00006ED11EAB0E920A9361E73846FEF7B4F8FA
:104A100020ABB0F9088043F8100D02460168B0F9E8
:104A20000A00089018460E69D2F80CB009920E934D
:104A3000FEF774F9A848A94900687368407C0C9394
:104A400051F820100C6923680A93FFF715F808281D
:104A5000099A40D910288CBF2023102309938CBFBA
:104A60004FF004094FF00209A64200F02D82202DDC
:104A700000F09E81102D7FF4D8AE08FB09F0FDF701
:104A8000DBFD109000283FF4D0AEFEF775F81E90C5
:104A90003846FEF771F81C90236900F118020B925A
:104AA000002B00F022827369002B00F01E82B0F907
:104AB00008008000FDF7C0FD0F90002840F06982DB
:104AC0001D900E98FEF72AF91EA8FEF727F91098F8
:104AD000FDF70AFEA9E6082309934FF00109C3E791
:104AE0000E93CDF828B0F2E60A9B05930F9B039333
:104AF0000124099B04900293149A169B0D9801942B
:104B00005146009402F004FE1298FDF7EDFD8CE68C
:104B10000E9B0B99A14602FB031B82461BF8010B5F
:104B2000A847B047B9F101094AF8040BF6D12AE7C2
:104B300000283FF453AF17960C9F0A9EDDF8409073
:104B4000DDF834A0DDF844B01395DDF874E00B9D7A
:104B500005960EF0070006900AEB0E00BEF1000F5E
:104B6000B8BF0EF1070E05EBEE0E0F9DCDF810E06D
:104B70002246012349460395CDF80880CDF80480EC
:104B8000CDF8008003F000FC1C981D9B82681C443B
:104B9000594653691D943A46984704460028D4D193
:104BA000139D179E1AE71298FDF7E6FF099B1A90CE
:104BB000082B8146149FDDF82CA0044629D93AF829
:104BC000020BA847B047013F44F8040BF7D1089BFC
:104BD0001F2B04D848461A46149901F0C9FA0A9ABC
:104BE000059220AB1A460D9852F8183D04931446CE
:104BF00000220392089A0292CDF80480CDF800803A
:104C00000123149A109902F083FD2046FEF786F8DE
:104C1000E4E61AF8010BA847B047013F44F8040B3B
:104C2000F7D1D4E71CA8FEF779F86DE73846FFF70F
:104C3000B9FA0746B9F1000F00F0A9804846FDF720
:104C40009BFF169B1C90002B40F39D8000261DAB04
:104C5000CDF82CA0DDF834A0B14601259846836834
:104C6000CDF874905B69324641469847149B834265
:104C700004462DD0099B012B55D008B30B9B03EBA9
:104C8000060B0A9B1D9805930E9B0F9A039203FB3C
:104C90000073099A02920493224650440123594614
:104CA0000195009502F034FD1C981D9B82681C4400
:104CB000414653691D943246984704460028E0D186
:104CC0000F9B01361F44169BB3425CDD1C98C6E760
:104CD0000897B3461F4604E0C8000020B41901201D
:104CE000A3461C9883680BF101045B692246414688
:104CF00098478742F4D0099902910B990A9A089F24
:104D00000592C6EB0B030F9A049731440F9E039252
:104D1000013301950095149A504606FB0377264609
:104D200002F0F6FCCFE70028CAD00B9B089603EBF5
:104D3000060BDDF874E00A9805900EF00700069067
:104D40000AEB0E00BEF1000FB8BF0EF1070E07EB25
:104D5000EE0E0F9ECDF810E0224601235946039631
:104D600002950195009503F00FFB1C981D9B82682E
:104D70001C44414653691D94089A984704460028EC
:104D8000D7D1089E9CE71CA8FDF7C8FF4DE50A9BFC
:104D900005930F9B03930124099B04900293149A9B
:104DA000169B0D9801945146009402F0B1FC3CE52D
:104DB00009FB08F0FDF740FC0B9000283FF435ADEF
:104DC000FDF7DAFE1E903846FDF7D6FE1C902569E9
:104DD00000F1180745B34FEA880B012619E0B9F135
:104DE000040F19D0B9F1010F16D000221E990998AD
:104DF0000290012305920392049101965146009678
:104E000042460D989A4402F083FC089B013B0893AC
:104E100050D0B9F1020FE2D138461E9925694B46B0
:104E20004246A8475F44E0E70C950126089C14E041
:104E3000B9F1040F00F08D81994500F035810C9D8A
:104E400005950395099D02951E9D01960096049572
:104E500002F05EFC013C2DD0DA460123B9F1020FCD
:104E6000514642460D980AEB030BE1D108944FEAF4
:104E700088050124DDF87890BB4646465BF8040BB4
:104E80000A9B9847013E29F8020BF7D11E9B099A0D
:104E900002920493514601230596039601940094CF
:104EA00042460D989A4402F033FC089B013B2F4484
:104EB0000893DFD10E98FDF731FF1EA8FDF72EFFF6
:104EC0000B98FDF711FCB0E401241832002604927F
:104ED000CDF80CB00295089B0D98059642465146B8
:104EE0000194009402F014FC9FE400250126089C24
:104EF00016E0B9F1040F00F0FC80994500F0A480A1
:104F00001E9F0897099F0297089F05950395019694
:104F10000096049702F0FCFB013C3FF4D2ADDA4668
:104F20000123B9F1020F514642460D980AEB030BDB
:104F3000DFD14FEA48060C9D08940A9F0A96012487
:104F40001E9EDDF82CB0C1463BF8020BA847B847BF
:104F5000B9F1010926F8020BF6D10B9E1E9A099BA6
:104F60000293B6460A9E049201235146B644CDF8F8
:104F70001490CDF80C900194009442460D98CDF811
:104F80002CE09A4402F0C4FB089B013B0893D7D164
:104F900097E5FDF7F1FD1D9000283FF492AD4FEA33
:104FA000480337460A9301250C940B9E19E0B9F18A
:104FB000040F30D0B9F1010F28D000221E990998B2
:104FC00002900123059203920491019551460095A8
:104FD00042460D989A4402F09BFB089B013B0893C4
:104FE0002BD0B9F1020FE2D1DDF878B01D994B4614
:104FF000424630467C69A0470A9C1D9826440C9C7A
:1050000059464B4642462469A047D6E7DDF878B0BA
:105010001D990223ECE730461D997C69DDF878B0D4
:1050200002234246A0470C9C1D9824694B465946D2
:105030004246A0470A9B1E44BFE71DA8FDF76EFE2F
:105040000F98FDF751FB3CE508FA03F60C9D089418
:105050000A9F0A964C461E9EDDF82CB0C1463BF8CE
:10506000020BA847B847B9F1010906F8010BF6D1C0
:105070000B9E1E9A099B0293B6460A9E0492012338
:105080005146B644CDF81490CDF80C90019400949C
:1050900042460D98CDF82CE09A4402F039FB089B6B
:1050A000013B0893D7D10CE508944FEA88054C469C
:1050B000DDF87890BB4646465BF8040B0A9B9847A0
:1050C000013E09F8010BF7D11E9B099A0292049345
:1050D00051460123059603960194009442460D988B
:1050E0009A4402F015FB089B013B2F440893DFD143
:1050F000E0E64FEA48060C9D08940A9F0A960124B0
:105100001E9EDDF82CB0C1463BF8020BA847B847FD
:10511000B9F1010946F8040BF6D10B9E1E9A099BC2
:105120000293B6460A9E049201235146B644CDF836
:105130001490CDF80C900194009442460D98CDF84F
:105140002CE09A4402F0E4FA089B013B0893D7D183
:10515000B7E408944FEA88050124DDF87890BB464F
:1051600046465BF8040B0A9B9847013E49F8040B3E
:10517000F7D11E9B099A029204935146012305968A
:1051800003960194009442460D989A4402F0C0FAA6
:10519000089B013B2F440893DFD18BE620B321B35A
:1051A00022B3B2F900C0B1F90630F0B5B1F9005040
:1051B000B2F902E0B1F90240B2F90470B2F9066046
:1051C000B1F904206545A8BF6546A6457146A8BF4C
:1051D0002146BA42B8BF3A46B342B8BF334605800B
:1051E00041808280C380F0BD704711460B684A68D9
:1051F00042600360704700BF78B170B4068844888D
:105200008588C38889B292B20E441444294406802A
:10521000448070BC1A448180C280704770B4104DC5
:105220002B686A68934204460FD093E807000D4E3E
:1052300084E80700B34214BF0C333C3B2B60207A58
:10524000003018BF012070BC7047074A934206BF68
:105250003C3393E8070013E9070084E80700EEE712
:10526000CC000020FC160120C0160120034B09CB06
:10527000C01AB0FA80F04009704700BFCC0000208F
:10528000F0B5374E336D85B00446002B55D094E809
:105290000700344C344DF36C256001AD85E8070000
:1052A0000BB128469847314FD7F800E07B689E4500
:1052B00038D0B3422A4C9DF80C2035D013F8041C8A
:1052C000914212D03C3495E80700A34283E80700DE
:1052D0001BD00C339E457B601BD0B36C0BB12846B2
:1052E000984700F0C5FC05B0F0BDA3F10C018E4558
:1052F000E8D0A1422ED03C340C39097A9142E2D157
:10530000B34214BF0C3B2346DDE7154B7B609E4543
:10531000E3D1174B9E4514BF0EF10C03AEF13C03D5
:105320003B60DAE7124CCEE796F8441091420BD07E
:1053300095E8070086E80700CBE730460D4B40F8BC
:10534000503F02F04FF8A2E706F13C04A645EFD02B
:105350002146D1E701F13C0403F13001CDE700BF64
:10536000C01601206C3A012065940008CC00002092
:10537000FC160120FDEE000810B5FEF7C5FC0D4A35
:10538000136851688B420FD00B4CA34293E8030083
:105390004FF0010414BF0833503B136005F018F8B8
:1053A00000F078FE204610BD002400F073FE204679
:1053B00010BD00BF84010020AC170120F0B5164CD1
:1053C000059E2568069CB5F908E0B5F90C70704596
:1053D000B8BF7046BA42A8BF3A4690421ADCB5F947
:1053E0000A70B5F90E50B942B8BF3946AB42A8BFF2
:1053F0002B468B4203DAF0BD25682DB12C46E568BB
:105400002D6835F00405F7D106940596BDE8F04007
:1054100002F0CCBDF0BD00BFC8000020B0F90220F2
:10542000B1F906309A4214DCB1F90220B0F9063025
:105430009A420EDCB0F90020B1F904309A4208DC3F
:10544000B0F90400B1F900308342CCBF0020012044
:1054500070470020704700BF08B5034B0146742217
:105460001868FAF70BFF08BDC800002000B97047A4
:105470002DE9F04FABB004460D4616461D921C9127
:10548000FEF742FC2046FDF777FBB0F904300468D4
:1054900027909D42129400F083810020FEF7A8FF20
:1054A0009F4B129A1B689269597C20900846279D51
:1054B0002191824218BF5A74B5F9043007931846F7
:1054C000B5F90810B5F906301992B5F90A20139309
:1054D0001C46091A121B0E460B911A9221461446BD
:1054E000324601322B8A1B92224601329B071E92C2
:1054F00040F137811C9B6A6903921B1A1D9A149311
:10550000002BA2EB010440F3BD810993DDF86C9000
:1055100000234FF0010A1193002C40F3BE811E9B23
:1055200016930123179415934FF0000B129E7D4B99
:10553000B0691B56012B40F39F810023ADF8A230C8
:10554000ADF8A03002F0FAFB431EB069ADF8A4300C
:1055500002F03AFC0138ADF8A6002798524600F157
:10556000140107F0B3F82290002800F0F980279882
:10557000524600F1140107F0A9F82490002800F029
:10558000EA80279BD868002840F09781169A5A45F0
:1055900000F0DD801B9B119923909A000BFB0313F5
:1055A00005EB83030E93C4EB0B030C93139B15992C
:1055B000234418934FEA8A0301FB02F204935B46EB
:1055C0001F92D346C8469A46179B534500F309815C
:1055D0001A9B5345B4BF002301231093139B119CC6
:1055E00053440F93189BA0455344089300F0A080A8
:1055F0001498079B0E9D0344C0EB04090A935FE0D7
:105600000B9BA3426CDB109B002B69D0BDF9A02043
:10561000BA4240F3778200230593B9F1000FC0F23C
:10562000CC800C9B002BC0F2C8801A4649460398D8
:10563000FEF7CEF9030E40F0C080BDF9A030069A07
:105640009A420FDBBDF9A2200F998A420ADCBDF90C
:10565000A42006998A4205DBBDF9A6200F998A424B
:1056600080F2A4809F4223DBBDF9A23008988342D8
:105670001EDCBDF9A430BB421ADBBDF9A630834263
:1056800016DB3046284B239E1B6846F07F41FF22E5
:105690009847199A254B53F822301B691B68984785
:1056A000229B00930246129B089938460AF0ACFAF6
:1056B000059B2B625C44049BA0451D44D94437D014
:1056C000524621460398FEF783F9030E0646F1D0B1
:1056D000079BE31806930A9B1F19099BA3428FDDC2
:1056E000BDF9A030BB421A466ADCBDF9A230089968
:1056F0008B424FF0000371DC0D93BDF9A430BB4227
:1057000004DBBDF9A630089A93426DDA00230593B5
:105710000D9B002B81D1BDF9A02013468FE700BF60
:10572000C8000020B0190120EC020020B4190120AB
:105730000E9B1F99159A0B440E930C9B1946169BB2
:105740009244114453450C917FF43EAF279B186857
:10575000249909F0E7FE279B2299186809F0E2FED8
:10576000279D1C9B1B9A1D99AB801E98E9801344B2
:10577000013B4A1E02442B81199B6A81219A1946DA
:10578000914202D0A64B1B685A742098FEF730FE57
:1057900027A8FDF7C3FA00F07DFC2BB0BDE8F08F21
:1057A000B0F906309E427FF478AEF1E7249B2A6A76
:1057B00006980093129B0AF027FABDF9A03051E732
:1057C000069A934207DCBDF9A2200F99914202DBB1
:1057D000002205923BE70023059369E705931346F2
:1057E0002DE700231093F9E6279BB3F90420BA4272
:1057F0002DDCB3F90810B94229DBB3F906E00898AB
:10580000864524DCB3F90A10814220DB58692593D0
:10581000E8B1BB1A19460593089BCEEB03031A4661
:105820002393FEF7D5F8030E259B10D0B3F904108F
:10583000B3F90820521A239902FB011205990A4470
:1058400003EB82031B6A059343F07F400BE0129B3E
:10585000186800282DD0C368089A5B6939469847B4
:10586000059040F07F40199A6E4B53F822301B6927
:105870005B68984723904BE7F368304628A91B6B79
:1058800098476AE600220992149A119633464FF01F
:10589000FF391344CA460B933EE64FF0FF331A9A82
:1058A00016931593002317931346234493461A9394
:1058B0003CE605904FF07F40D5E7FDF75DF9169B7C
:1058C00026905B4500F0A6801B9B11999A000BFB6C
:1058D000031305EB83030D93C4EB0B030C93139B92
:1058E0001599234401FB02F218934FEA8A031092A0
:1058F0000493079A149B1344C8460A93D946179BEE
:105900004B4500F3AF801A9B4B45B4BF00230123E6
:105910000F93139B4B440E93189B4B440893119B7E
:10592000984569D0149A0D9D1C46C2EB030B4A465C
:1059300021460398FEF74CF80646002856D0079BF0
:10594000E31806930A9B1F19099BA3426CDC0B9B6F
:10595000A34269DB0F9B002B66D0BDF9A030BB4290
:10596000D8BF012300F3CB80BDF9A22008998A4259
:1059700007DCBDF9A420BA4203DBBDF9A6208A42A8
:105980007DDA0022059263B1BBF1000F62DB0C9B54
:10599000002B5FDB1A4659460398FEF719F80028DA
:1059A00058D1BDF9A030069A9A420EDBBDF9A2206B
:1059B0000E998A4209DCBDF9A42006998A4204DBCB
:1059C000BDF9A6200E998A423DDA9F420CDBBDF953
:1059D000A23008998B4207DCBDF9A430BB4203DB3F
:1059E000BDF9A6308B4240DA059B2B625444049BE0
:1059F00044451D44D3449AD10D9B1099159A0B44EC
:105A00000D930C9B1946169B9144114499450C919A
:105A10007FF475AF26A8FDF781F9279B97E600BFB5
:105A2000C8000020B4190120BDF9A030BB4217DD29
:105A3000069A934211DCBDF9A2200E9991420CDB2B
:105A400000220592B7E7249B2A6A06980093129BCE
:105A50000AF0DAF8BDF9A030B7E700230593C3E7F1
:105A6000002381E700230F9353E7269B53F826205A
:105A7000229B00933846129B0AF0C6F8B4E7279A97
:105A80000592B2F90420BA420DDC0598B0F908106D
:105A9000B94208DBB0F906E008998E4503DCB0F99D
:105AA0000A0088420DDA129A106800283FF469AFA4
:105AB000C2681F9339465369089A98471F9B0590FF
:105AC00061E72593BB1A1F93CEEB01021946059B94
:105AD00023925869FDF77CFF259B0028E3D00598A9
