:020000040800F2
:10000000E8060020312B0008392B00083B2B0008A4
:100010003D2B00083F2B0008412B0008000000008A
:10002000000000000000000000000000432B00085A
:10003000452B000800000000472B0008492B000852
:100040004B2B00084B2B00084B2B00084B2B0008B8
:100050004B2B00084B2B00084B2B00084B2B0008A8
:100060004B2B00084B2B00084B2B00084B2B000898
:100070004B2B00084B2B00084B2B00084B2B000888
:100080004B2B00084B2B00084B2B00084B2B000878
:100090004B2B00084B2B00084B2B00084B2B000868
:1000A0004B2B00084B2B00084B2B00084B2B000858
:1000B0004B2B00084B2B00084B2B00084B2B000848
:1000C0004B2B00084B2B00084B2B00084B2B000838
:1000D0004B2B00084B2B00084B2B00084B2B000828
:1000E0004B2B00084B2B00084B2B00084B2B000818
:1000F0004B2B00084B2B00084B2B00084B2B000808
:100100004B2B00084B2B00084B2B00084B2B0008F7
:100110004B2B00084B2B00084B2B00084B2B0008E7
:100120004B2B00084B2B00084B2B00084B2B0008D7
:100130004B2B00084B2B00084B2B00084B2B0008C7
:100140004B2B00084B2B00084B2B00084B2B0008B7
:100150004B2B00084B2B00084B2B00084B2B0008A7
:100160004B2B00084B2B00084B2B00084B2B000897
:100170004B2B00084B2B00084B2B00084B2B000887
:100180004B2B00084B2B000800F002F800F03CF865
:100190000AA090E8000C82448344AAF10107DA45E2
:1001A00001D100F031F8AFF2090EBAE80F0013F0F8
:1001B000010F18BFFB1A43F001031847EC6200005F
:1001C0000C630000103A24BF78C878C1FAD85207EF
:1001D00024BF30C830C144BF04680C6070470000C1
:1001E0000023002400250026103A28BF78C1FBD840
:1001F000520728BF30C148BF0B6070471FB504F0DD
:1002000088F81FBD10B510BD03F018FD1146FFF7AB
:10021000F5FF00F008F803F036FD03B4FFF7F2FF36
:1002200003BC03F039FD02F011FDA82001F00EFA25
:1002300001F0B4FB01E000F072FBFCE73EB50446C0
:100240001F200090FE48028814230021084600F079
:100250000BFD1F200090FA4843880288408814381C
:1002600081B2002000F000FD4FF6FF70F5490880D4
:10027000012010211F234FF6FF72CDE900410290AB
:100280000221002001F090F901201021EEA2CDE919
:1002900000210290EA484088123881B21F234FF6AD
:1002A000FF72002001F080F900200090E4484088AF
:1002B000143883B2E24802881421002000F0D4FCF4
:1002C0003EBD0EB5E4A0FFF7B9FF01201021E8A262
:1002D0001F23CDE900210290DA021E21002001F047
:1002E00063F901201021DEA21F23CDE90021029035
:1002F000DA023C21002001F057F901201021DFA291
:100300001F23CDE9002102904FF6E0725A21002010
:1003100001F04AF901201021DEA21F23CDE90021BE
:1003200002901A467821002001F03EF940F2DC509C
:1003300001F0A6F940F2DC5001F0A2F90EBD0EB5B5
:100340004FF6FF700090BE48408883B2BC480288D8
:100350000021084600F088FC01201021D4A2CDE93C
:1003600000210290B6490988323988B24FF6E0730D
:100370001F221E2101F086F800200090B04840881E
:1003800083B2AF4802880021084600F06DFC0120CE
:100390001021C9A2CDE900210290A949098832396A
:1003A00088B24FF6E0731F221E2101F06BF84FF464
:1003B00078400090A248408883B2A148028800217A
:1003C000084600F051FC01201021BDA2CDE900211A
:1003D00002909B490988323988B24FF6E0731F2298
:1003E0001E2101F04FF84FF4FC60009094484088C3
:1003F00083B2934802880021084600F035FC0120B2
:100400001021B0A2CDE9002102908D49098832392E
:1004100088B24FF6E0731F221E2101F033F81F202F
:1004200000908748408883B28548028800210846AA
:1004300000F01AFC01201021A4A2CDE900210290B5
:100440007F490988323988B24FF6E0734FF6FF7260
:100450001E2101F017F80EBD2DE9F84300249DA0E0
:10046000FFF7ECFE4FF6FF70009075484088143897
:1004700083B2734802881421002000F0F5FB00BF0E
:1004800048E0DFF8BCC1BCF8025005EBD57C4FEA70
:100490006C0CACF1500CC4EB0419CC440CF13C0CCA
:1004A0001FFA8CF3DFF898C1BCF8006006EBD67C2D
:1004B0004FEA6C0CACF1500CC4EB0419CC440CF1B9
:1004C0003C0C1FFA8CF2DFF878C1BCF8027007EB25
:1004D000D77C4FEA6C0CACF1500CC4EB0419CC4443
:1004E0001FFA8CF1DFF858C1BCF8008008EBD87C0B
:1004F0004FEA6C0CACF1500CC4EB0419CC441FFA5D
:100500008CF000F058FC794830F814004D49088010
:10051000601CC4B2052CB4DB40F2DC5001F0B0F832
:100520004FF6FF70009046484088143883B2444824
:1005300002881421002000F097FB002448E0DFF837
:1005400000C1BCF8027007EBD77C4FEA6C0CACF131
:10055000500CC4EB0419CC440CF13C0C1FFA8CF386
:10056000DFF8DCC0BCF8005005EBD57C4FEA6C0C22
:10057000ACF1500CC4EB0419CC440CF13C0C1FFA48
:100580008CF2DFF8BCC0BCF8028008EBD87C4FEAE4
:100590006C0CACF1500CC4EB0419CC441FFA8CF178
:1005A000DFF89CC0BCF8006006EBD67C4FEA6C0C10
:1005B000ACF1500CC4EB0419CC441FFA8CF000F0E1
:1005C0001AFC4A4830F814001E490880601CC4B266
:1005D000052CB4DB40F2DC5001F052F8BDE8F883A2
:1005E000F8B5002442A0FFF729FE4FF6FF700090F7
:1005F00013484088143883B211480288142100201F
:1006000000F032FB00BF84E000200D4B00905D88BD
:1006100005EBD5735B10323B04EBC40707EB041703
:10062000D919074B1E8806EBD6735B10503B04EBC1
:10063000C40707EB0417D8192C4B33F8142063E0D8
:10064000680000200E000020514474656368B0E625
:10065000C8A8CBF9D3D00000C8ABB6AFB5E7D7D3A5
:10066000D7DBBACFB2E2CAD4B3CCD0F200000000DC
:10067000C8ABB6AFB5E7D7D300000000322E3427A1
:1006800020494C49393334312032343058333230F8
:10069000000000007869616F46656E6740514474E0
:1006A00065636820323031342D30322D3235000010
:1006B0005768697465000000426C61636B0000005C
:1006C00052656400477265656E000000426C756596
:1006D00000000000B2E2CAD4323A475549BED8D031
:1006E000CECCEEB3E4B2E2CAD40000000000002099
:1006F000B2E2CAD4333A475549BBADD4B2CCEEB31B
:10070000E4B2E2CAD40000001E2300F0C5FB601C66
:10071000C4B2052CFFF678AF40F2DC5000F0B0FF19
:100720004FF6FF700090DA484088143883B2D848FA
:1007300002881421002000F097FA00241FE0012015
:10074000D34B00905D8805EBD5735B10323B04EB17
:10075000C40707EB0417D919CD4B1E8806EBD673D7
:100760005B10503B04EBC40707EB0417D819C94BC7
:1007700033F814201E2300F08FFB601CC4B2052C3C
:10078000DDDB40F2DC5000F07BFFF8BD08B5C2A015
:10079000FFF754FD4FF47840C44908801F20C44936
:1007A00008800020C3A30C221E2100900A2000F024
:1007B0004AFC0120CAA30C222D2100900A2000F03F
:1007C00042FC0020D1A30C223C2100900A2000F022
:1007D0003AFC0020D5A31022502100900A2000F0FE
:1007E00032FC0120DCA31022642100900A2000F0DA
:1007F0002AFC0020E3A31022782100900A2000F0B8
:1008000022FC4FF4966000F03BFF08BD0EB5E5A05A
:10081000FFF714FD00201021E7A24FF6E073CDE9A9
:10082000002102901F221E210A2000F02BFE012031
:100830001021EAA24FF6E073CDE9002102901F22B9
:1008400032210A2000F01EFE01201821E9A24FF6F5
:10085000E073CDE9002102901F2246210A2000F01A
:1008600011FE01202021E9A24FF6E073CDE900211D
:1008700002901F2264210A2000F004FE4FF49660CB
:1008800000F0FEFE0EBD0EB5E4A0FFF7D7FC4FF65C
:10089000FF7000907E484088143883B27C480288FC
:1008A0001421002000F0E0F9E14A1E21084600F082
:1008B0009DFE01201021DFA24FF6E073CDE900215B
:1008C00002901F224B212A2000F0DCFDD84A1E2175
:1008D0005A2000F08BFE01201021D6A24FF6E073C3
:1008E000CDE9002102901F224B21662000F0CAFDB5
:1008F000CF4A1E21962000F079FE01201021CDA2C2
:100900004FF6E073CDE9002102901F224B21A22077
:1009100000F0B8FD4FF4966000F0B2FE0EBD08B5D1
:1009200000250024002602F0B2F801F076FCC2A0F7
:10093000FFF784FC0120564900900988183988B2D5
:10094000C1A31022002100F07EFB4FF478405049F3
:10095000009009881E398AB24D490988343988B215
:100960001223022100F080F94FF478404F490880AB
:100970008CE0B648416800208847B448007D00F00C
:100980008000002878D0B148008A4149098888420F
:1009900075DAAE48408A3E49498888426FDAAB48EA
:1009A000018A3B4800881838814222DDA748408AE6
:1009B00010281EDAA0A0FFF741FC01203449009066
:1009C0000988183988B2A0A31022002100F03BFB4F
:1009D0003648068000882E49009009881E398AB260
:1009E0002B490988343988B21223022100F03CF9DE
:1009F00045E09648018A264800883C38814233DD2C
:100A00009248018A224800881E3881422CDA8F4899
:100A1000408A142828DA052094FBF0F100FB1140ED
:100A20001C4931F810701A49009709881E398AB29A
:100A300017490988343988B21223022100F014F9C9
:100A40002046611C8CB2052190FBF1F201FB1200E3
:100A5000104931F8100015490880084606880A2018
:100A600000F00EFE0BE007E0784A518A108A0F4A28
:100A7000128801F07CFA02E00A2000F001FE681CF6
:100A8000C5B2142D02D10025601C84B271E70000AC
:100A90006800002000000020B2E2CAD4343AD3A299
:100AA000CEC4CFD4CABEB2E2CAD400000E00002029
:100AB00010000020365831323A616263646566671F
:100AC00068696A6B6C6D6E6F70717273747576772E
:100AD00078797A303132333435363738390000009E
:100AE000365831323A4142434445464748494A4BD9
:100AF0004C4D4E4F505152535455565758595A30E9
:100B00003132333435363738390000003658313217
:100B10003A7E21402324255E262A28295F2B7B7DCF
:100B20003A3C3E3F2F7C2D2B2E00000038583136AA
:100B30003A6162636465666768696A6B6C6D6E6F63
:100B4000707172737475767778797A3031323334A4
:100B50003536373839000000385831363A4142438B
:100B60004445464748494A4B4C4D4E4F50515253CD
:100B70005455565758595A30313233343536373840
:100B800039000000385831363A7E21402324255E52
:100B9000262A28295F2B7B7D3A3C3E3F2F7C2D2B3C
:100BA0002E000000B2E2CAD4353AD6D0CEC4CFD49B
:100BB000CABEB2E2CAD4000031365831363AC8ABA8
:100BC000B6AFB5E7D7D3BCBCCAF5D3D0CFDEB9AB8F
:100BD000CBBEBBB6D3ADC4FA0000000031365831ED
:100BE000363A57656C636F6D65C8ABB6AFB5E7D77E
:100BF000D300000032345832343AC9EEDBDACAD0BE
:100C0000D6D0CEC4B2E2CAD400000000333258338A
:100C1000323AD7D6CCE5B2E2CAD40000B2E2CAD4A6
:100C2000363ACDBCC6ACCFD4CABEB2E2CAD40000FC
:100C30001C43000851510000B2E2CAD4373A546F45
:100C4000756368B2E2CAD400525354001400002005
:100C500070B505460E4614463146284600F035FE6E
:100C6000204600F015FE70BD2DE9F84F06460F46F0
:100C700014461D46DDF82880A01B401C1FFA80FB8F
:100C8000E81B401C80B20090681E83B2601E82B2D6
:100C90003946304600F0ADFF4FF40050FE49088061
:100CA0004010891E08804FF0000917E04FF0000A3D
:100CB0000DE04FEA2821F94800F039FD08F0FF0166
:100CC000F64800F034FD0AF101001FFA80FA00989E
:100CD0008245EEDB09F101001FFA80F9D945E5DB19
:100CE0004FF40050EC49891E0880ED484088401EB2
:100CF00083B2EB480088401E82B20021084600F013
:100D000078FFBDE8F88F2DE9FF4F85B081468A4610
:100D10000020049003900798A0EB09050898A0EB29
:100D20000A06CDF80890CDF804A0002D01DD0127BA
:100D300005E00DB9002702E04FF0FF376D42002EAD
:100D400002DD4FF0010806E016B94FF0000802E09E
:100D50004FF0FF387642B54201DD2C4600E03446C4
:100D60004FF0000B21E0019A91B2029A90B200F08C
:100D7000C6FD0498284404900398304403900498D6
:100D8000A04205DD0498001B0490029838440290AC
:100D90000398A04205DD0398001B0390019840448E
:100DA00001900BF101001FFA80FB601C8345DADD26
:100DB00009B0BDE8F08F2DE9F04104460D46164616
:100DC0001F462B46324629462046FFF79CFF3B46EE
:100DD000224629462046FFF796FF3B4632463946D3
:100DE0002046FFF790FF3B46324629463046FFF744
:100DF0008AFFBDE8F081F8B504460D4616461F4649
:100E0000A84800883B463246294600902046FFF716
:100E10002BFFF8BD2DE9F04104460D4616461F464E
:100E2000DDF81880EA1991B2A21990B24246FFF794
:100E30000FFFEA1991B2A21B90B24246FFF708FFDA
:100E4000EA1B91B2A21990B24246FFF701FFEA1BDA
:100E500091B2A21B90B24246FFF7FAFEAA1991B2D4
:100E6000E21990B24246FFF7F3FEAA1991B2E21BD3
:100E700090B24246FFF7ECFEAA1B91B2E21990B283
:100E80004246FFF7E5FEAA1B91B2E21B90B2424632
:100E9000FFF7DEFEBDE8F0812DE9FF4F81B082460D
:100EA00017469846DDF838B0002445464FEA48001A
:100EB000C0F10306BBF1000F1FD01BE0A14608E004
:100EC0004B462246009750460299FFF7A3FF09F1CF
:100ED0000109A945F4DD002E04DA042000FB0460BA
:100EE000861D06E0601B042101FB006000F10A067C
:100EF0006D1E641CAC42E1DD18E015E02B46224675
:100F0000009750460299FFF785FF002E04DA04206F
:100F100000FB0460861D06E0601B042101FB0060ED
:100F200000F10A066D1E641CAC42E7DD05B0BDE8A9
:100F3000F08F2DE9FF4F83B081468A469346DDE965
:100F40001064584800880290A6F12000C6B204EB55
:100F5000D47009EB6000401E82B20AEB0400401E10
:100F600083B251464846019400F043FE129850BBAC
:100F7000002525E00C2C07D106EB46004A4901EB81
:100F8000800010F8058004E0484800EB061010F8D7
:100F9000058000270DE008F0010018B1584600F068
:100FA00077FC02E0069800F073FC4FEA6808781CB2
:100FB000C7B204EBD471B7EB610FECDB681CC5B2B0
:100FC000A542D7DB2DE0002529E00C2C07D106EB4C
:100FD0004600354901EB800010F8058004E03348F5
:100FE00000EB061010F80580002711E02D48A0F84E
:100FF00000B008F0010038B10AEB050291B209EB2C
:10100000070290B200F07BFC4FEA6808781CC7B278
:1010100004EBD471B7EB610FE8DB681CC5B2A542E5
:10102000D3DB2049029808801D484088401E83B2C7
:101030001B480088401E82B20021084600F0D9FDFE
:1010400007B0BDE8F08F2DE9FE4306460F46154672
:101050001C46DDF828801DE011480088401EB04283
:1010600004DB0F484088401EB84201DABDE8FE8329
:1010700020788DE821010E4803880A480288394605
:101080003046FFF756FF284605EBD07106EB6101AD
:101090008EB2641C20780DE01A0402400038004033
:1010A000680000200E0000209C4F0008105400082B
:1010B000100000207E2802DC20782028CCDA00BF37
:1010C000D4E710B50246012000E050430B1EA1F109
:1010D0000104E1B2F9D110BD2DE9FF4F83B00746FD
:1010E00091461E46109C4FF0000A002543E0701BFD
:1010F000401EC1B20A20FFF7E4FFB9FBF0F00A215D
:10110000B0FBF1F201FB1208BAF1000F1BD1701E07
:10111000A84218DDB8F1000F13D100202021A3460A
:10112000CDE90014029004EBDB71491001FB05715D
:1011300088B2FD490B88FD490A880499FFF7F9FE3A
:1011400017E04FF0010A002108F13000C0B2A346B9
:10115000CDE90141009004EBDB71491001FB057101
:1011600088B2F1490B88F1490A880499FFF7E1FE3A
:1011700000BF681CC5B2B542B9DB07B0BDE8F08F4F
:101180002DE9FC5F0546884691469A46DDF830B069
:1011900000952E20019000245FE004EB0410E44948
:1011A00011F810009BF80010884253D104EB041092
:1011B000DF4901EB400040789BF80110884249D19B
:1011C00008F10F0083B205F10F0082B241462846B4
:1011D00000F00FFD00263BE0002734E00D9890B9A9
:1011E00004EB0410D24901EB4000801C805D80219B
:1011F0003941084018B1484600F04AFB21E050460A
:1012000000F046FB1DE0C948A0F8009004EB041074
:10121000C74901EB4000801C805D802139410840B6
:1012200018B14146284600F06AFB681C85B2009858
:10123000281A102805D1009D08F101001FFA80F836
:1012400003E0781CC7B2082FC8DB00BF701CC6B211
:10125000202EC1DB00BF601C84B2019884429CDB5D
:10126000B4484088401E83B2B2480088401E82B213
:101270000021084600F0BDFCBDE8FC9F2DE9FC5FA5
:101280000546884691469A46DDF830B0009507201D
:101290000190002467E004EB840000EB4410A649B1
:1012A00011F810009BF80010884259D104EB84001B
:1012B00000EB4410A04901EB400040789BF801107E
:1012C00088424DD108F1170083B205F1170082B2B0
:1012D0004146284600F08DFC00263FE0002738E01C
:1012E0000D98A0B904EB840000EB4410924901EB87
:1012F0004000801C805D80213941084018B148467B
:1013000000F0C6FA23E0504600F0C2FA1FE087481A
:10131000A0F8009004EB840000EB4410864901EB38
:101320004000801C805D80213941084018B1414651
:10133000284600F0E4FA681C85B20098281A18289C
:1013400005D1009D08F101001FFA80F803E0781C28
:10135000C7B2082FC4DB00BF701CC6B2482EBDDB6D
:1013600000BF601C84B20198844294DB71484088BD
:10137000401E83B26F480088401E82B2002108469A
:1013800000F037FCBDE8FC9F2DE9FC5F0546884670
:1013900091469A46DDF830B0009504200190002473
:1013A0005FE004EB8410654911F810009BF8001011
:1013B000884253D104EB8410604901EB400040782F
:1013C0009BF80110884249D108F11F0083B205F152
:1013D0001F0082B24146284600F00BFC00263BE08D
:1013E000002734E00D9890B904EB8410534901EBC9
:1013F0004000801C805D80213941084018B148467A
:1014000000F046FA21E0504600F042FA1DE047485D
:10141000A0F8009004EB8410484901EB4000801CC8
:10142000805D80213941084018B14146284600F0CE
:1014300066FA681C85B20098281A202805D1009DFC
:1014400008F101001FFA80F803E0781CC7B2082FEA
:10145000C8DB00BF701CC6B2802EC1DB00BF601CA1
:1014600084B2019884429CDB32484088401E83B29B
:1014700030480088401E82B20021084600F0B9FBC7
:10148000BDE8FC9F2DE9FF4F83B006468846914694
:10149000DDE91147109DB2464FF0000B7EE0BBF135
:1014A000000F4DD104EBD471224A1288A2EB6101E6
:1014B000B14204DB1F494988091B414502DA07B0E4
:1014C000BDE8F08F2878802802DD4FF0010B65E041
:1014D00028780D2806D108EB04001FFA80F856463C
:1014E0006D1C1EE0102C0DDD102128788DE8830086
:1014F0004A4641463046069BFFF71BFD06F10800B1
:1015000086B20EE028788DE891004A464146304682
:10151000069BFFF70EFD204604EBD07106EB610140
:101520008EB26D1C3AE00000100000200E0000207A
:10153000005A0008680000201C60000822620008B1
:1015400041480088001BB04204DB3F484088001B34
:10155000404500DAB3E74FF0000B202C08D1CDE96D
:1015600000574A4641463046069BFFF70DFF12E002
:10157000182C08D1CDE900574A4641463046069B13
:10158000FFF77CFE07E0CDE900574A46414630466A
:10159000069BFFF7F5FDAD1C301986B228780028B0
:1015A0007FF47DAF00BF8AE72DE9FF4F83B004468B
:1015B0000F469046DDE9119A109D284602F008FB7F
:1015C00086B221490988A1EBC60000EBD071C1F3B6
:1015D0004F0B04EB0B0188B28DE8200642463946DA
:1015E000069BFFF74FFF07B0BDE8F08F2DE9F047EE
:1015F00006460F46154607F1270083B206F127007D
:1016000082B23946304600F0F4FA00240AE015F8B8
:10161000149005EB440090F8018049EA082000F09E
:1016200037F9641CB4F5C86FF1DB07484088401EE9
:1016300083B205480088401E82B20021084600F0AF
:10164000D8FABDE8F08700006800002010B5044615
:101650006FF0040001F0E6FBE11704EB5171C1F3F8
:10166000C701234A11701046007800EB4001C1EB1E
:10167000C0104FF6FF7101EAC0001E49088010BD7E
:1016800001461C4A12884A434FF0E0235A61002267
:101690009A6101221A6100BF4FF0E022106900F048
:1016A00001021AB100F48032002AF5D000224FF076
:1016B000E0231A619A61704701460D4A12784A4345
:1016C0004FF0E0235A6100229A6101221A6100BFA3
:1016D0004FF0E022106900F001021AB100F48032EC
:1016E000002AF5D000224FF0E0231A619A6170477A
:1016F0000A0000200C0000200021082114E000F066
:1017000080021AB10822FE4B1A8003E00822FC4B2B
:101710009B1C1A804FF48062FA4B1A809B1E1A8021
:101720004206100E4A1ED1B20029E8DC704702467C
:1017300000BF108900F002000028FAD0918100BF9C
:10174000108900F001000028FAD09089C0B27047DB
:1017500002884FF6C7731A400280012902D102881D
:10176000028003E0028842F020020280028842F0F8
:1017700040020280704700B587B00121022001F0CD
:1017800093FE0121042001F08FFE0121880301F066
:10179000D4FE05220A21DB481A3801F072FC05222A
:1017A0000321D748183801F06CFC4FF4806000909A
:1017B00002208DF805008DF804006946D1481A38DA
:1017C00001F0D4FB082000906946CD48183801F09C
:1017D000CDFB4FF4F040009002208DF80500012071
:1017E0008DF8040000208DF806006946C5481A38B7
:1017F00001F0BCFB0121880301F09FFE0020ADF841
:1018000008004FF48270ADF80A000020ADF80C001B
:101810000220ADF80E000120ADF810004002ADF836
:1018200012000020ADF81400ADF816000720ADF846
:10183000180002A9B44801F0D7FF0121B24802F014
:10184000CDF807B000BD00B503464FF40050AD49D8
:101850000880401008801946AB48FFF768FF4FF436
:101860000050A849891E088000BD00B503464FF40A
:101870000050A44908804010891E08801946A248DB
:10188000FFF755FF4FF400509E49891E088000BDA8
:1018900000B503464FF400509A4908804010891E55
:1018A000088019129848FFF742FFD9B29648FFF70F
:1018B0003EFF4FF400509349891E088000BD00B5DB
:1018C0009249087AFFF7BFFF00BD30B504460D46C8
:1018D0008E49887AFFF7B7FF2012FFF7C6FFE0B204
:1018E000FFF7C3FF8949087BFFF7ADFF2812FFF719
:1018F000BCFFE8B2FFF7B9FFFFF7E1FF30BD30B53D
:1019000004460D4629462046FFF7DFFF4FF40050FE
:101910007C4908804010891E08807D48008801129B
:101920007948FFF704FF7A4801787748FFF7FFFE10
:101930004FF400507349891E088030BD30B505460C
:101940000C462846FFF77FFFE0B2FFF78EFF30BD61
:10195000704710B54FF480406A4908806420FFF753
:101960008FFE4FF480406749891E08803220FFF7C0
:1019700087FE10BD00B52C206449088100208871C5
:10198000F02008804FF4A07048802A2048812B2046
:101990008881C9213620FFF7D1FF00BD10B5FFF7C0
:1019A000EAFEFFF7D6FFCF20FFF74DFF0020FFF73D
:1019B0005CFFC120FFF759FF3020FFF756FFED20F5
:1019C000FFF741FF6420FFF750FF0320FFF74DFFB3
:1019D0001220FFF74AFF8120FFF747FFE820FFF7BB
:1019E00032FF8520FFF741FF1020FFF73EFF7A20EE
:1019F000FFF73BFFCB20FFF726FF3920FFF735FF2E
:101A00002C20FFF732FF0020FFF72FFF3420FFF7D5
:101A10002CFF0220FFF729FFF720FFF714FF2020FB
:101A2000FFF723FFEA20FFF70EFF0020FFF71DFF5F
:101A30000020FFF71AFFC020FFF705FF1B20FFF76C
:101A400014FFC120FFF7FFFE0120FFF70EFFC520A6
:101A5000FFF7F9FE3020FFF708FF3020FFF705FF02
:101A6000C720FFF7F0FEB720FFF7FFFE3620FFF795
:101A7000EAFE4820FFF7F9FE3A20FFF7E4FE552082
:101A8000FFF7F3FEB120FFF7DEFE0020FFF7EDFECB
:101A90001A20FFF7EAFEB620FFF7D5FE0A20FFF76F
:101AA000E4FEA220FFF7E1FEF220FFF7CCFE0020CB
:101AB000FFF7DBFE2620FFF7C6FE0120FFF7D5FE6D
:101AC000E020FFF7C0FE0F20FFF7CFFE2A20FFF730
:101AD000CCFE2820FFF7C9FE0820FFF7C6FE0E2027
:101AE000FFF7C3FE0820FFF7C0FE5420FFF7BDFE3E
:101AF000A920FFF7BAFE4320FFF7B7FE0A2009E04E
:101B0000180802401A040240003800406800002013
:101B10000E000020FFF7A9FE0F20FFF7A6FE002011
:101B2000FFF7A3FE0020FFF7A0FE0020FFF79DFEB9
:101B30000020FFF79AFEE120FFF785FE0020FFF767
:101B400094FE1520FFF791FE1720FFF78EFE072069
:101B5000FFF78BFE1120FFF788FE0620FFF785FEBA
:101B60002B20FFF782FE5620FFF77FFE3C20FFF779
:101B70007CFE0520FFF779FE1020FFF776FE0F2090
:101B8000FFF773FE3F20FFF770FE3F20FFF76DFE6B
:101B90000F20FFF76AFE2B20FFF755FE0020FFF70E
:101BA00064FE0020FFF761FE0120FFF75EFE3F208C
:101BB000FFF75BFE2A20FFF746FE0020FFF755FEE9
:101BC0000020FFF752FE0020FFF74FFEEF20FFF747
:101BD0004CFE1120FFF737FE7820FFF751FD29203A
:101BE000FFF731FEFFF7C6FE4FF400602C49088076
:101BF00010BDF0B504460D4616461F462949887AA1
:101C0000FFF721FE2012FFF730FEE0B2FFF72DFEB6
:101C10003012FFF72AFEF0B2FFF727FE2149087BBA
:101C2000FFF711FE2812FFF720FEE8B2FFF71DFEB6
:101C30003812FFF71AFEF8B2FFF717FEFFF73FFE64
:101C4000F0BD30B50446002516484088401E83B2DA
:101C500014480088401E82B200210846FFF7C9FFE1
:101C60004FF400500E49891C08804010891E0880DE
:101C700000BF08E021120C48FFF759FDE1B20A4805
:101C8000FFF755FD6D1C0748008806494988484301
:101C9000A842EFD84FF400500149088030BD000041
:101CA000180402406800002000380040002100BFF6
:101CB0001EE000F0800232B1FE4A126842F4805207
:101CC000FC4B1A6005E0FB4A126822F48052F94B83
:101CD0001A604206100EF74A126822F48062F54B31
:101CE0001A601A46126842F480621A604A1CD1B225
:101CF0000829DEDB704770B5064600250024ED4854
:101D0000006820F48060EB4908600846006820F411
:101D1000805008600846006820F0100008603046D7
:101D2000FFF7C4FF0620FFF7C7FCE248006820F475
:101D30008060E04908600120FFF7BEFCDD480068D4
:101D400040F48060DB4908600846006820F4806049
:101D5000086000BF17E04FF6FF7000EA4404D54862
:101D6000006820F48060D34908600846006840F4A9
:101D700080600860081F006800F4006008B1601C03
:101D800084B2681CC5B2102DE5DB2411C948006877
:101D900040F01000C7490860204670BD2DE9FE43A1
:101DA00080460027002406E04046FFF7A4FF2DF8F8
:101DB0001400601C84B2052CF6DB002416E0601CC5
:101DC00085B20FE03DF814003DF81510884207DD9C
:101DD0003DF814603DF815002DF814002DF815603D
:101DE000681C85B2052DEDDB601C84B2042CE6DB9B
:101DF0000027012405E03DF81400384487B2601C38
:101E000084B2042CF7DB032097FBF0F086B2304657
:101E1000BDE8FE832DE9F04104460D46A648007852
:101E2000FFF7BCFF0646A5480078FFF7B7FF074657
:101E300026802F800120BDE8F0817FB504460D4645
:101E400002A903A8FFF7E6FF064616B9002004B072
:101E500070BD694601A8FFF7DDFF06460EB90020F8
:101E6000F5E7BDF80400BDF80C10884206DCBDF8AB
:101E70000C10BDF80400323081420CDBBDF80C00C0
:101E8000BDF80410884236DCBDF80410BDF80C0023
:101E9000323081422FDABDF80000BDF808108842C8
:101EA00006DCBDF80810BDF80000323081420CDBC2
:101EB000BDF80800BDF8001088421CDCBDF8001019
:101EC000BDF808003230814215DABDF80C10BDF8BB
:101ED0000420881800EBD071C1F34F012180BDF8B8
:101EE0000810BDF80020881800EBD071C1F34F0135
:101EF00029800120ABE70020A9E7F8B504460D468C
:101F000016466F48068004F10D018AB2193988B26D
:101F10002B462946FEF7F7FE05F10D0083B219386E
:101F200081B222462046FEF7EEFE6A1C91B2621C88
:101F300090B2FFF7E4FC6A1C91B2621E90B2FFF708
:101F4000DEFC6A1E91B2621C90B2FFF7D8FC6A1EDA
:101F500091B2621E90B2FFF7D2FC002006230090DF
:101F60005748028829462046FEF796FFF8BD70B50F
:101F700004460D4616465248068029462046FFF77D
:101F8000BEFC611C88B22946FFF7B9FC681C81B20F
:101F90002046FFF7B4FC6A1C91B2621C90B2FFF7B6
:101FA000AEFC70BD10B504464248001F006800F04A
:101FB000040000284BD124B14249881EFFF73DFFA1
:101FC00034E04049881EFFF738FF78B33D481238A7
:101FD000B0F9200000EE100AB8EEC00A39481238F5
:101FE00090ED061A008A00EE900AF8EE600A01EE03
:101FF000200ABCEEC00A10EE100A324912390882DB
:102000000846B0F9220000EE100AB8EEC00A0846F1
:1020100090ED071A408A00EE900AF8EE600A01EE91
:10202000200ABCEEC00A10EE100A48822548123879
:10203000007D00F0800010BBC020224912390875D5
:102040000846008A88810846408AC88117E01D48F2
:102050001238007D00F0800040B11A481238007D2F
:1020600020F0800017491239087508E00020154952
:1020700012398881C8814FF6FF7008824882114862
:102080001238007D00F0800010BD0E49123991ED2C
:10209000060ADFED0D0A20EE200ABDEEC00A10EEA2
:1020A000100A91ED070ADFED080A20EE200ABDEEC6
:1020B000C00A0BE0140802403C0000203D00002054
:1020C0000E0000202600002020BCBE4C10EE100A9E
:1020D0000A207047002070472DE9F84F04460D464E
:1020E00017461E46DDE90CABDDE90A894FF478405E
:1020F000FD4908800120FDA31022A0210090282086
:10210000FEF7A1FF0120FAA31022A0210090782061
:10211000FEF799FF0120F7A31022B4210090282098
:10212000FEF791FF0120F4A31022B4210090782043
:10213000FEF789FF0120F1A31022C821009028207A
:10214000FEF781FF0120EEA31022C8210090782025
:10215000FEF779FF0120EBA31022DC21009028205C
:10216000FEF771FF0120E8A31022DC210090782007
:10217000FEF769FF0120E5A31022F021009028203E
:10218000FEF761FF102004232246A021009040208A
:10219000FEF7A2FF102004232A46A02100909020E1
:1021A000FEF79AFF102004233A46B4210090402005
:1021B000FEF792FF102004233246B42100909020B5
:1021C000FEF78AFF102004234246C82100904020D9
:1021D000FEF782FF102004234A46C8210090902079
:1021E000FEF77AFF102004235246DC2100904020A5
:1021F000FEF772FF102004235A46DC210090902045
:10220000FEF76AFF10200090C24801880323602077
:102210000E9AFEF761FFBDE8F88F2DE9F0472DED2E
:10222000068B8AB04FF00008C14600BF1F20AE49A0
:1022300008804FF6FF70B8490880FFF702FD4FF4A1
:102240007840A94908804FF6FF70FFF7FAFC00209C
:10225000A54908800120B1A31022282100900A205E
:10226000FEF7F1FE0120B5A31022382100900A20CC
:10227000FEF7E9FE0120BAA31022482100900A20AF
:10228000FEF7E1FE0120BEA31022582100900A2093
:10229000FEF7D9FE4FF4784214210846FFF72DFED1
:1022A0000020BE4908759FEDBE0A084680ED060A6B
:1022B000E9E3BA48416801208847B848007D00F04A
:1022C000C000402873D14FF00009B448007D20F0D1
:1022D0004000B24908750846008A06A921F828007E
:1022E000AE48408A01EB8801488008F1010000F007
:1022F000FF08B8F1010F09D0B8F1020F1DD0B8F1F5
:10230000030F2DD0B8F1040F16D13FE0A348008A87
:10231000A4490860A148408A48604FF6FF72142122
:102320000846FFF7EAFD7B490988143988B24FF463
:1023300078421421FFF7E1FD98E3764909881439C2
:1023400088B24FF6FF721421FFF7D7FD714840881D
:10235000143881B24FF478421420FFF7CEFD85E3A4
:102360006C484088143881B24FF6FF721420FFF792
:10237000C4FD684A5288143A91B2664A1288143AE7
:1023800090B24FF47842FFF7B8FD6FE38348008ABC
:10239000844988608148418A8248C160BDF818102C
:1023A000BDF81C20881A002802DB014601E05EE32C
:1023B00041420C46BDF81A20BDF81E10501A0028E4
:1023C00001DB014600E041420D4664436D43601964
:1023D00001F0DFFC41EC1A0BB0EE4A0AF0EE6A0A9B
:1023E00001F061FCB0EE409AF0EE609A51EC190BEE
:1023F00001F0A2FC86B2BDF82010BDF82420881A96
:10240000002801DB014600E041420C46BDF82220D5
:10241000BDF82610501A002801DB014600E04142B9
:102420000D4664436D43601901F0B3FC41EC1A0B97
:10243000B0EE4A0AF0EE6A0A01F035FCB0EE409ABE
:10244000F0EE609A51EC190B01F076FC87B200EEC9
:10245000106AF8EE400A00EE107AB8EE400A80EEFC
:10246000801A11EE10AA504601F0E2FE41EC180B62
:102470009FED4D0B53EC102B51EC180B01F09CFC15
:102480000AD39FED4B0B53EC102B51EC180B01F0C2
:10249000CDFD01D306B137BB4FF000081D4A52886D
:1024A000143A91B21B4A1288143A90B24FF6FF7256
:1024B000FFF723FD4FF4784214210846FFF71DFD76
:1024C0009FED3D0B53EC102B51EC180B01F0B0FCC1
:1024D00041EC190B01F030FC1FFA80FABDF8260020
:1024E000BDF824106CE07FE00E00002078313A0047
:1024F00079313A0078323A0079323A0078333A004A
:1025000079333A0078343A0079343A0066616320CE
:1025100069733A006800002010000020506C65616B
:1025200073652075736520746865207374796C75A4
:102530007320636C69636B207468650063726F73EA
:1025400073206F6E207468652073637265656E2EEC
:102550005468652063726F73732077696C6C000038
:10256000616C77617973206D6F766520756E746923
:102570006C207468652073637265656E20000000CE
:1025800061646A7573746D656E7420697320636F1E
:102590006D706C657465642E0000000014000020EE
:1025A00000000000780000209A9999999999E93FD4
:1025B000CDCCCCCCCCCCF03F00000000000059408A
:1025C000BDF82220CDE9030ACDE90121BDF82000A4
:1025D0000090BDF81E30BDF81C20BDF81A10BDF8E3
:1025E0001800FFF779FD4EE2BDF81810BDF8202065
:1025F000881A002801DB014600E041420C46BDF884
:102600001A20BDF82210501A002801DB014600E014
:1026100041420D4664436D43601901F0BAFB41EC41
:102620001A0BB0EE4A0AF0EE6A0A01F03CFBB0EE7B
:10263000409AF0EE609A51EC190B01F07DFB86B2E6
:10264000BDF81C10BDF82420881A002801DB0146C3
:1026500000E041420C46BDF81E20BDF82610501A7D
:10266000002801DB014600E041420D4664436D4312
:10267000601901F08EFB41EC1A0BB0EE4A0AF0EE45
:102680006A0A01F010FBB0EE409AF0EE609A51EC4D
:10269000190B01F051FB87B200EE106AF8EE400A08
:1026A00000EE107AB8EE400A80EE801A11EE10AA01
:1026B000504601F0BDFD41EC180B1FED450B53ECEE
:1026C000102B51EC180B01F077FB08D31FED480BD2
:1026D00053EC102B51EC180B01F0A8FC39D24FF041
:1026E0000008FE4A5288143A91B2FC4A1288143A01
:1026F00090B24FF6FF72FFF700FC4FF478421421BE
:102700000846FFF7FAFB1FED540B53EC102B51EC6E
:10271000180B01F08DFB41EC190B01F00DFB1FFABA
:1027200080FABDF82600BDF82410BDF82220CDE9BE
:10273000030ACDE90121BDF820000090BDF81E304C
:10274000BDF81C20BDF81A10BDF81800FFF7C4FC36
:1027500099E1BDF81C10BDF82020881A002801DB83
:10276000014600E041420C46BDF81E20BDF8221093
:10277000501A002801DB014600E041420D46644347
:102780006D43601901F005FB41EC1A0BB0EE4A0AEB
:10279000F0EE6A0A01F087FAB0EE409AF0EE609A25
:1027A00051EC190B01F0C8FA86B2BDF81810BDF84B
:1027B0002420881A002801DB014600E041420C4633
:1027C000BDF81A20BDF82610501A002801DB01467A
:1027D00000E041420D4664436D43601901F0D9FAAF
:1027E00041EC1A0BB0EE4A0AF0EE6A0A01F05BFA0D
:1027F000B0EE409AF0EE609A51EC190B01F09CFAA1
:1028000087B200EE106AF8EE400A00EE107AB8EED9
:10281000400A80EE801A11EE10AA504601F008FD21
:1028200041EC180B1FEDA00B53EC102B51EC180BC7
:1028300001F0C2FA08D31FEDA20B53EC102B51ECA0
:10284000180B01F0F3FB39D24FF00008A34A52886D
:10285000143A91B2A14A1288143A90B24FF6FF721C
:10286000FFF74BFB4FF4784214210846FFF745FB76
:102870001FEDAF0B53EC102B51EC180B01F0D8FAF5
:1028800041EC190B01F058FA1FFA80FABDF8261036
:10289000BDF82400BDF82220CDE9031ACDE90120BE
:1028A000BDF820000090BDF81E30BDF81C20BDF81A
:1028B0001A10BDF81800FFF70FFCE4E0BDF81C008B
:1028C000BDF81810401A00EE100AF8EEC00A83484E
:1028D0000088283800EE100AB8EEC00A80EE201AF0
:1028E0007F4880ED061ABDF81C00BDF8181008449A
:1028F00000EE100AF8EEC00A7848008800EE100AD0
:10290000B8EE400A764890ED061A01EE600AF0EE45
:10291000000A80EE201ABDEEC10A10EE100A00B2C5
:102920006F490884BDF82200BDF81A10401A00EE65
:10293000100AF8EEC00A69484088283800EE100AEC
:10294000B8EEC00A80EE201A654880ED071ABDF87F
:102950002200BDF81A10084400EE100AF8EEC00A72
:102960005E48408800EE100AB8EE400A5C4890EDE0
:10297000071A01EE600AF0EE000A80EE201ABDEEA2
:10298000C10A10EE100A00B2554948840A4692ED79
:10299000060ABDEEC00A10EE101A002901DB0A4635
:1029A00000E04A42022A0DDC4D4A92ED070ABDEED4
:1029B000C00A10EE100A002801DB024600E0424285
:1029C000022A37DD4FF00008444A5288143A91B287
:1029D000424A1288143A90B24FF6FF72FFF78DFA0E
:1029E0004FF4784214210846FFF787FA01203DA3EF
:1029F00010221A2100902820FEF725FB384890F875
:102A0000240008B9012000E00020354981F82400A5
:102A1000084690F8240030B1902037490870D02043
:102A20003649087005E0D0203349087090203349BA
:102A3000087028E01F20324908804FF6FF70FFF72A
:102A400000F901202FA310226E2100902320FEF711
:102A5000FAFA4FF47A70FEF713FE4FF6FF70FFF7A5
:102A6000F0F80AB0BDEC068BBDE8F08700BF0A2085
:102A7000FEF706FE09F101001FFA80F9B9F57A7F29
:102A800000DD01E000BF14E400BF00BFE9E71CB5B2
:102A90000121042000F008FD41F2104000900120C7
:102AA0008DF8040000208DF8060002208DF8050046
:102AB00069461A4800F05AFA40F6040000900020D7
:102AC0008DF8040001208DF807006946134800F0D6
:102AD0004DFA03491231881E22E0000068000020F0
:102AE000140000205450204E6565642072656164B6
:102AF0006A757374210000003C0000203D00002036
:102B00000E000020546F7563682053637265656E14
:102B10002041646A757374204F4B21000008024005
:102B2000FFF778F94FF6FF70FFF78BF801201CBD17
:102B30000948804709480047FEE7FEE7FEE7FEE751
:102B4000FEE7FEE7FEE7FEE7FEE7FEE7044805498D
:102B5000054A064B704700004D2C0008890100080B
:102B6000E8000020E8060020E8020020E80200203B
:102B70000CB50020019000907648006840F4803049
:102B80007449086000BF7348006800F4003000908A
:102B90000198401C0190009818B90198B0F5A04F19
:102BA000F1D16C48006800F4003010B101200090B1
:102BB00001E0002000900098012846D1654840308F
:102BC000006840F080506349403108606248006806
:102BD00040F44040604908605E48083000685D4944
:102BE000083108600846006840F400400860084664
:102BF000006840F4A05008605848091F0860081F8A
:102C0000006840F08070091F086000BF51480068EC
:102C100000F000700028F9D040F2057050490860BB
:102C20004C480830006820F003004A490831086029
:102C30000846006840F00200086000BF45480830C0
:102C4000006800F00C000828F8D10CBD10B545480C
:102C5000006840F47000434908603E48006840F056
:102C600001003C49086000203A49083108603948B1
:102C700000683D490840374908603C48091D086024
:102C8000081F006820F48020091F086000203149D7
:102C90000C310860FFF76CFF4FF00060314980395C
:102CA000086010BD70B5002000220223002402211C
:102CB000284D08352D6805F00C0020B1042806D0F9
:102CC000082834D107E02A4D2A4E356033E02A4DDA
:102CD000284E35602FE01F4D2D1D2D68C5F3805403
:102CE0001C4D2D1D2D6805F03F0154B1224DB5FB43
:102CF000F1F5184E361D3668C6F3881605FB06F248
:102D000009E01B4DB5FBF1F5124E361D3668C6F3D2
:102D1000881605FB06F20F4D2D1D2D68C5F30145E4
:102D20006D1C6B00B2FBF3F5124E356003E0104DE5
:102D3000104E356000BF00BF064D08352D68C5F345
:102D400003150E4E705D0B4D2D68C540094E356064
:102D500070BD000000380240007000401954400768
:102D6000003C024088ED00E0FFFFF6FE103000243A
:102D70000024F4004400002000127A0048000020E3
:102D800032490143324A1160704770B50021002377
:102D90000F22C4781CB32E4C246804F4E064C4F5FC
:102DA000E064C4F30721C1F10404E3B20A414478AA
:102DB0009C40E1B28478144021430C07210E254C3D
:102DC00005786155047804F01F050124AC400578AE
:102DD0006D11AD0005F1E025C5F8004109E004786A
:102DE00004F01F050124AC401B4D0678761145F810
:102DF000264070BD194A0A400243154B1B1F1A603A
:102E0000704739B1124A121D12680243104B1B1D44
:102E10001A6006E00E4A121D126882430C4B1B1DFD
:102E20001A607047042808D14FF0E021096941F089
:102E300004014FF0E022116107E04FF0E021096941
:102E400021F004014FF0E022116170470000FA0503
:102E50000CED00E000E400E080E100E080FFFF1FF7
:102E600010B504469848844208D10121084600F074
:102E700086FB0021012000F082FB76E0934884422B
:102E800008D10121022000F07AFB0021022000F08D
:102E900076FB6AE08E48844208D10121042000F0CC
:102EA0006EFB0021042000F06AFB5EE0894884424A
:102EB00008D10121082000F062FB0021082000F069
:102EC0005EFB52E08448844208D10121102000F0CA
:102ED00056FB0021102000F052FB46E07F48844260
:102EE00008D10121202000F04AFB0021202000F021
:102EF00046FB3AE07A48844208D10121402000F0A4
:102F00003EFB0021402000F03AFB2EE07548844251
:102F100008D10121802000F032FB0021802000F048
:102F20002EFB22E07048844208D10121801500F078
:102F300026FB0021A01500F022FB16E06B4884421E
:102F400008D10121401500F01AFB0021601500F0A6
:102F500016FB0AE06648844207D10121001500F003
:102F60000EFB0021201500F00AFB10BDF0B50A464B
:102F700000210023002400BF3DE0012505FA01F3F4
:102F8000156805EA03049C4234D105684F00032606
:102F9000BE40B543056015794E00B540066835431F
:102FA00005601579012D02D01579022D16D185689D
:102FB0004F000326BE40B543856055794E00B540AD
:102FC000866835438560456801268E40B543456077
:102FD000456896798E40B6B235434560C5684F0066
:102FE0000326BE40B543C560D5794E00B540C668DE
:102FF0003543C560491C1029BFD3F0BD4FF6FF71A2
:1030000001600021017141718171C171704708B582
:103010004FF480320092009A0A430092009AC261F3
:10302000C161009AC261C2690092C269009208BD82
:103030000246002013690B400BB1012000E0002084
:1030400070470146086980B2704702460020536904
:103050000B400BB1012000E0002070470146486999
:1030600080B2704701837047418370470AB1018382
:1030700000E0418370474161704742694A404261C4
:103080007047F0B5002300244D07ED0E02FA05F35A
:10309000CE1000F1200555F826504E07F70E0F26EA
:1030A000BE40B543CF1000F1200646F82750CE10A1
:1030B00000F1200555F8265045EA0304CE1000F132
:1030C000200545F82640F0BD000002400004024003
:1030D00000080240000C02400010024000140240B0
:1030E00000180240001C0240002002400024024060
:1030F00000280240F948006840F00100F7490860E4
:103100000020F64908310860F4480068F449084096
:10311000F2490860F348091D0860F348EF4984311B
:103120000860F0481038091D0860EC48006820F479
:103130008020EA4908600020E8490C310860E7492E
:103140008C31086070470021E44A921C11701146CE
:103150000870704710B501460022002300204A1174
:10316000012A02D1DD4C236808E0022A03D1DB4C9E
:103170007034236802E0D94C7434236801F01F02D4
:10318000012494401C400CB1012000E0002010BD3F
:1031900038B5002000900024002500BF3120FFF743
:1031A000D9FF05460098401C00900098B0F5A04F4C
:1031B00001D0002DF2D03120FFF7CCFF08B101245F
:1031C00000E00024204638BD01460020C34A1068B4
:1031D00020F0F80040EAC10010607047C349086061
:1031E00070470021BD4A703211701170012802D061
:1031F00004280AD104E00121B84A7032117005E0B8
:103200000521B64A7032117000E000BF00BF704760
:10321000B7490860704770B5049C41EA82150126E1
:10322000C6EB530645EA0645054345EA0465AB4E41
:10323000361D356070BDAD4908667047820142EAAF
:103240000172A64B84331A607047A849886670479C
:1032500010B5830143EA016343EA02739F4C88344B
:10326000236010BDA14908677047A049C864704732
:1032700002460020994B0833186820F0EC6042EABF
:1032800001031843954B083318607047024600202D
:10329000924B0833186820F0784042EA0103184343
:1032A0008E4B083318607047014600208B4A083265
:1032B000106820F00300084310607047874808300A
:1032C000006800F00C00704701460020834A083275
:1032D000106820F0F000084310607047014600209D
:1032E0007E4A0832106820F4E050084310607047AE
:1032F00001460020794A0832106820F4604040EA14
:10330000C10010607047F0B50021002200240225A2
:1033100000260223714F08373F6807F00C0121B1E6
:10332000042905D0082937D105E0724F076036E03F
:10333000714F076033E0694F3F1D3F68C7F3805608
:10334000664F3F1D3F6807F03F036EB16A4FB7FB02
:10335000F3F7DFF888C10CF1040CDCF800C0CCF303
:10336000881C07FB0CF40CE0624FB7FBF3F7DFF8A7
:103370006CC10CF1040CDCF800C0CCF3881C07FB1A
:103380000CF4564F3F1D3F68C7F301477F1C7D007B
:10339000B4FBF5F7076002E0564F076000BF00BFBF
:1033A0004E4F08373F6807F0F0010909534F7A5C28
:1033B0000768D7404760494F08373F6807F4E05136
:1033C000890A4E4F7A5C4768D7408760434F083779
:1033D0003F6807F46041490B484F7A5C4768D74023
:1033E000C760F0BD002100F44072B2F5407F0AD101
:1033F0003A4A0832116821F4F811414A0240114357
:10340000364A08321160354A70321268C0F30B0335
:103410001A43324B70331A6070473549443908609B
:103420007047334940390860704736490860704733
:1034300001460020294A8C32106820F440100843CD
:103440001060704701460020244A8C32106820F436
:103450004000084310607047014600201F4A8C322C
:10346000106820F01F004A1E10431C4A8C32106066
:10347000704701460020194A8C32106820F4F85039
:103480004A1E40EA0220154A8C32106070470146FD
:103490000020124A8C32106820F44030084310603B
:1034A000704719490860704739B10C4A30321268C8
:1034B00002430A4B30331A6006E0084A3032126881
:1034C0008243064B30331A607047F9B1034A3432F5
:1034D00012680243014B34331A601CE0003802408A
:1034E000FFFFF6EA103000240030002000004742C1
:1034F000800E47420024F40000127A005800002099
:10350000FFFCFF0F5C014742E01147428F4A1268FF
:1035100082438E4B1A60704739B18C4A121D126873
:1035200002438A4B1B1D1A6006E0884A121D12686E
:103530008243864B1B1D1A60704739B1834A0C3297
:1035400012680243814B0C331A6006E07F4A0C324A
:10355000126882437D4B0C331A60704739B17B4A45
:10356000103212680243794B10331A6006E0774A32
:10357000103212688243754B10331A60704739B1AC
:10358000724A243A12680243704B243B1A6006E0E8
:103590006E4A243A126882436C4B243B1A6070478F
:1035A00039B16A4A203A12680243684B203B1A60DC
:1035B00006E0664A203A12688243644B203B1A6058
:1035C000704739B1614A1C3A126802435F4B1C3B99
:1035D0001A6006E05D4A1C3A126882435B4B1C3B52
:1035E0001A60704739B1594A143A12680243574B6E
:1035F000143B1A6006E0554A143A12688243534B52
:10360000143B1A60704739B1504A103A12680243AD
:103610004E4B103B1A6006E04C4A103A1268824347
:103620004A4B103B1A60704739B1484A1C32126845
:103630000243464B1C331A6006E0444A1C321268AF
:103640008243424B1C331A60704739B13F4A2032E3
:10365000126802433D4B20331A6006E03B4A203299
:1036600012688243394B20331A60704739B1374AA8
:10367000243212680243354B24331A6006E0334A81
:10368000243212688243314B24331A60704739B1B7
:103690002E4A2C32126802432C4B2C331A6006E05F
:1036A0002A4A2C3212688243284B2C331A60704706
:1036B00039B1264A303212680243244B30331A6043
:1036C00006E0224A303212688243204B30331A60BF
:1036D0007047012808D11D493C31096841F00801B3
:1036E0001A4A3C32116007E018493C31096821F060
:1036F0000801164A3C321160704739B1134A273A23
:1037000012780243114B273B1A7006E00F4A273A02
:10371000127882430D4B273B1A7070470B4840309C
:10372000006840F0807009494031086070470146E8
:103730000020064A283A12680A400AB1012000E037
:10374000002070470149263908707047343802401C
:1037500010B50446FB48844208D101218014FFF7CC
:1037600052FF0021A014FFF74EFF3CE0F6488442D0
:1037700008D101210014FFF735FF00212014FFF7C5
:1037800031FF30E0F148844208D10121C013FFF736
:1037900029FF0021E013FFF725FF24E0EC488442D5
:1037A00008D101214014FFF72EFF00216014FFF71C
:1037B0002AFF18E0E748844209D101210805FFF7F4
:1037C00022FF00214FF48010FFF71DFF0BE0E248BD
:1037D000844208D101214805FFF715FF00214FF46D
:1037E0000010FFF710FF10BD10B50022028802F490
:1037F00041520B884C8823438C882343CC88234335
:103800000C8923434C8923438C892343CC8923434C
:103810001A430280838B4FF2FF74234083830B8A09
:10382000038210BD2DE9F04F0025022300244FF044
:10383000010900220026002794469046B0F81CA0FB
:103840004FF2400B0AEA0B0AA0F81CA04FF0020A44
:10385000A0F820A0858BD1F808A0BAF1020F01D101
:1038600000BF82E0B1F804A0BAF1000F02D14FF01E
:10387000010901E04FF00209DFF8E0A2DAF800A048
:103880000AF4000ABAF1000F09D0DFF8D0A2DAF882
:1038900000A02AF4000ADFF8C4B2CBF800A0DFF8D9
:1038A000BCA20AF17C0ADAF800A0CAF3881CDFF88F
:1038B000ACA20AF17C0ADAF800A0CAF30278DFF8B9
:1038C0009CA2AAF1040ADAF800A00AF03F07DFF888
:1038D0008CA2AAF1040ADAF800A00AF4800ABAF568
:1038E000800F08D1DFF878A2BAFBF7FA0AFB0CFACE
:1038F000BAFBF8F607E0DFF86CA2BAFBF7FA0AFBAE
:103900000CFABAFBF8F6B1F806A0BAF5007F0ED1B2
:103910004FEA162A0AEB8A0A4FEA4A0AD1F808B097
:10392000BAFBFBFA0AF1050A1FFA8AF20FE04FEA26
:10393000491AB6FBFAFA0AEB8A0A4FEA4A0AD1F8A0
:1039400008B0BAFBFBFA0AF1050A1FFA8AF24FF037
:103950000A0AB2FBFAF202F00104A2EB040ACAF36B
:103960004F034FF6FF7A0AEA0424022B01DBFF2BF8
:1039700001DD02230024B1F806A04AEA040A4AEA5B
:10398000030AA0F820A0B1F804A0B1F80CB04AEAEC
:103990000B0AB1F802B04AEA0B0AB1F800B04AEAE1
:1039A0000B0A4AF4006A4AEA05058583BDE8F08FF0
:1039B0000021018041808180C1800181418181811C
:1039C000C1810721018270470021018041808180EF
:1039D000C1800221816000218181704721B102886C
:1039E00042F04002028004E002884FF6BF731A40A2
:1039F0000280704721B1828B42F48062828304E0AE
:103A0000828B4FF6FF331A408283704702884FF251
:103A1000FF731A40028002880A4302807047B1F5A2
:103A2000804F04D1028842F48042028004E0028880
:103A30004BF6FF731A40028070474FF6FF629142C7
:103A400004D0028842F48072028004E002884FF6BB
:103A5000FF631A400280704721B1828842F004025D
:103A6000828004E082884FF6FB731A4082807047A0
:103A700021B1828842F01002828004E082884FF6F1
:103A8000EF731A408280704730B500220023848B88
:103A90004FF240052C40848302240484828B0C88DE
:103AA000B4F5007F01D00C8814B94FF4807308E09E
:103AB0000C88B4F5407F03D00C88B4F5807F00D12A
:103AC00000238C888D892C434D882C431C4344F45F
:103AD00000642243828330BD01468889704781811A
:103AE000704721B1028842F40052028004E002884B
:103AF0004DF6FF731A4002807047018841F48051EF
:103B00000180704702460020012901D0108B00E09F
:103B1000908A70470146088A70471AB183880B4320
:103B2000838002E083888B438380704730B5002414
:103B300000230C110125A540ABB2AAB185881D4315
:103B4000858014E00030014000380040003C004017
:103B50000034014000500140005401400838024048
:103B600000127A000024F40085889D43858030BDD2
:103B70000246002013890B400BB1012000E0002019
:103B80007047CA4302817047F0B502460020002406
:103B90000023002501F00F070126BE40B4B20B112F
:103BA00001269E40B3B2968806EA03051689264090
:103BB00016B10DB1012000E00020F0BD10B50022CB
:103BC00001F00F040123A3409AB2D343038110BD37
:103BD00010B5431C02E010F8011B71B18107FAD146
:103BE0004FF0013202C88C1A8C4314EAC211F9D08A
:103BF000C01A0A0603D0C01E10BDC01A10BD0A04A8
:103C000001D0801E10BD0902FCD0401E10BD7047BF
:103C10007047704710B500F009F8006810BD10B586
:103C2000044600F003F8046010BD0000004870472F
:103C30008800002000487047880000207546FFF784
:103C4000F9FFAE4605006946534620F00700854659
:103C500018B020B5FEF77AFFBDE820404FF000060F
:103C60004FF000074FF000084FF0000B21F0070164
:103C7000AC46ACE8C009ACE8C009ACE8C009ACE8A7
:103C8000C0098D46704710B50446AFF3008020464A
:103C9000BDE81040FCF7C1BA01491820ABBEFEE7F1
:103CA00026000200704700B52DED048BB0EE409A5F
:103CB000F0EE609A83B051EC190B00F0EDF941EC95
:103CC000180B18EE100A18EE901A8DED008B0028D4
:103CD00018BF0120084320F00040C0F17F6000F1D0
:103CE000E040C00F14D019EE101A19EE900A8DEDB5
:103CF000009B002918BF0121084320F00040C0F1BB
:103D00007F6000F1E040C00F04BF0120FFF787FF94
:103D1000B0EE480A03B0F0EE680ABDEC048B00BDBB
:103D2000491058BFC1F140415B1058BFC3F1404337
:103D30008B42EFF3008070474FEA1153A3F5806385
:103D4000D3F11E03A8BFD3F1200C08DB4FF00042D3
:103D500042EAC12252EA505232FA03F07047094255
:103D60000BD4102BC4BF0020704703F5787CBCF146
:103D7000FF3F05D04FF0FF3070474FF00000704715
:103D800070B500F0FFF800BF499224800020704712
:103D9000F0E7B0FA80F310FA03F10AD0C3F11D0383
:103DA00003F580634FEA41504FEA035202EBD12101
:103DB00070474FF00000704751EA030C17D41CF510
:103DC000801F58BFBCF5801F00F10680994218BFC4
:103DD000704708BF9042704707D711F5801F58BF42
:103DE00013F5801F19D499427047894270471CF51A
:103DF000801F08D5BCF5801FF7D58B4218BF7047D0
:103E000008BF824270474FF4001C1CEB410F38BFC3
:103E10001CEB430F01D28B42704770B500F0B2F833
:103E2000922449004FF000514FF08053FFF778BFC4
:103E3000DFF848C170B51CEA111E1EBF1CEA13153D
:103E40009EEA0C0F95EA0C0F00F06F8081EA0304E4
:103E500023EA4C134EEAD47E21EA4C1141F480113E
:103E600043F48013AE44A1FB024CA0FB0365AEF10A
:103E70007F7E361955EB0C05A1FB034C4CF100037A
:103E8000A0FB021C16EB0C06654153F1000309422E
:103E900018BF46F0010613F4007F0BD14FEA03313F
:103EA0004FEA0530340341EA155140EA16506FF0ED
:103EB00003020AE04FEAC3214FEAC520F40241EAB7
:103EC000555140EA56506FF0020202EB2E4201EBD0
:103ED000025585EACE710AD05FEA440C18BF24F07F
:103EE000004450F1000041F1000120EAD47040F29A
:103EF000FE7C624500D270BDA84214BF4FF08044E2
:103F00004FF04044002E08BF0024BEF1806FA8BFD0
:103F1000A1F1C041BDE8704080F282804FF0000006
:103F200001F1C04101F0004170479EEA0C0F0CEA1C
:103F3000131518BF95EA0C0F06D04FF0000081EA68
:103F4000030E0EF0004170BD00F01CF88900013E28
:103F500000F007B800F009B84FEA430C5FEA5C5C78
:103F600008D081EA030100F05BB84FEA410C5FEA38
:103F70005C5CF6D14FF00000014970470000FF077C
:103F80000000F87F0EF1020E2EF0030E5EF8046BB7
:103F9000364205D4012A43EB030515F5001F12D85C
:103FA000012841EB010C1CF5001F0CD80ED14FEA83
:103FB000D17C15F5001F0CEB4C0C0CF1020C08BF6A
:103FC0004CEBD37C04E04FF0080C01E04FEAD37CCB
:103FD0000CEB4C0526FA05F606F00706B6F1040CC4
:103FE00006D20EEB860CBDE870404CF0010C604729
:103FF000DFE80CF0090B02024FF000414FF0000027
:10400000A1F5002170BD19461046012851EB0104AD
:1040100018BFD4F5001484BF002001F0004170BD2A
:104020000808A0F500114FEA3101704753EA010C6E
:1040300017D41CF5801F58BFBCF5801F00F1068007
:104040008B4218BF704708BF8242704707D713F5ED
:10405000801F58BF11F5801F19D48B4270479B42B7
:1040600070471CF5801F08D5BCF5801FF7D5994215
:1040700018BF704708BF904270474FF4001C1CEBFC
:10408000430F38BF1CEB410F01D2994270470FB468
:104090000CBC03BCFFF7C1BE2DE9F04101F5801C4B
:1040A000BCF5001FC0F2A9804FEA115C21EA0C5157
:1040B0000CF1FD0C41F480115FEA5C0C0CF5C07C46
:1040C00001D34000494130A4890241EA905187025E
:1040D0008E0E0A0CA45D04FB04F602FB06F6C6F184
:1040E0004046A4FB0662F60D46EA422606FB06F4AD
:1040F000A4FB01235242C3F1404338BF5B1EA6FB21
:1041000002420024E6FB0324D20B42EA4446A6FB0B
:104110000623A1FB02E2A3FB07E4E3FB6142644246
:10412000C2F1404E38BFAEF1010EA6FB04234FF0A2
:104130000002E6FB0E32A2FB03463400E2FB62649F
:10414000A1FB06E6A4FB07E8E4FB61687642C8F140
:10415000405838BFA8F10108A2FB06E4A3FB08E51C
:10416000E2FB6854A1FB05E6A7FB04E8E1FB6486DB
:1041700018F1200556F10006A809A8F11B08B1099D
:1041800008F03F08B8F10A0F40EA86601CD901EB3D
:104190000C51BDE8F08100BFFCF5EEE8E2DDD8D3BC
:1041A000CFCBC7C3C0BDB9B6B4B1AEACA9A7A5A3A8
:1041B000A19F9D9B9A9896959392908F8D8C8B89B9
:1041C0008887868584838281A0FB006800FB01F2DA
:1041D00008EB4208B8EB872807D5341858EB0104E0
:1041E000D5D5401C51F10001D1E7341A78EB010418
:1041F000CDD4401E71F10001C9E75FEA4C0C5FEAC3
:104200009C5C0DD105D34FF0000001F00041BDE8EA
:10421000F081BDE8F04170B5FFF7B4FE6DDBFFBE85
:10422000BDE8F0414FF00000004970470000F87F02
:1042300043004FEAD30C4FEA3C0C43401FBF4007FA
:104240000CF1605113F0FE4F70471CF0006F03D16A
:1042500000200CF0004170470CF0004343EA50701E
:1042600010B540EACC0000F00EF800BF000000924C
:104270004FEA0001FFF7D4BE4FF000414FF00000BD
:10428000A1F5002170470EF1020E2EF0030E5EF82C
:10429000044B244204D44FEA4102B2F17F4F11D8BB
:1042A0004FEA4003B3F17F4F0CD80ED14FEAD07CD8
:1042B000B2F17F4F0CEB4C0C0CF1020C08BF4CEB35
:1042C000D17C04E04FF0080C01E04FEAD17C0CEB0C
:1042D0004C0324FA03F404F00704B4F1040C06D2EE
:1042E0000EEB840CBDE810404CF0010C6047DFE899
:1042F0000CF0070802024FF00040A0F5800010BD4E
:104300000846420018BFD2F1807288BF00F000401A
:1043100010BD4FF04070E1EE100A7047FFFFFFFF45
:10432000FFFFFFFFFFFFFFFFFFFFFFFFFFFFFFFF9D
:10433000FFFFFFFFFFFFFFFFFFFFBEF7FFFFDEFFF7
:1043400038C6928C8E6B6E6B107C96AD3CE7FFFF8F
:10435000FFFFFFFFFFFFFFFFFFFFFFFFFFFFFFFF6D
:10436000FFFFFFFFFFFFFFFFFFFFFFFFFFFFFFFF5D
:10437000FFFFFFFFFFFFFFFFFFFFFFFFFFFFFFFF4D
:10438000FFFFFFFFFFFFFFFFFFFF5DEF159D4F6387
:104390006C420A328829461925194521E8318E6B6D
:1043A00038C6FFFFFFFFFFFFFFFFFFFFFFFFFFFF1D
:1043B000FFFFFFFFFFFFFFFFFFFFFFFFFFFFFFFF0D
:1043C000FFFFFFFFFFFFFFFFFFFFFFFFFFFFFFFFFD
:1043D000FFFFFFFFFFFFFFFF36A51053104B5153A8
:1043E0000F4B6C3AE93167212519E410A3086200EC
:1043F0008308CB529AD6FFFFFFFFFFFFFFFFFFFFAF
:10440000FFFFFFFFFFFFFFFFFFFFFFFFFFFFFFFFBC
:10441000FFFFFFFFFFFFFFFFFFFFFFFFFFFFFFFFAC
:10442000FFFFFFFF3CE77063B363B87CF5631143A4
:104430004D32EA298821261905190519041104119C
:10444000E4108300A308728CFFFFFFFFFFFFFFFF54
:10445000FFFFFFFFFFFFFFFFFFFFFFFFFFFFFFFF6C
:10446000FFFFFFFFFFFFFFFFFFFFFFFFFFFFFFFF5C
:10447000FFFFDBDE4B3AF042356C544BB1322E2A53
:10448000EB21A92167190519041104110411041164
:1044900004110519E4104200AF73FFFFFFFFFFFF97
:1044A000FFFFFFFFFFFFFFFFFFFFFFFFFFFFFFFF1C
:1044B000FFFFFFFFFFFFFFFFFFFFFFFFFFFFFFFF0C
:1044C0005DEF09324C32104B8F324F2A2E2ACC1915
:1044D000891989214719051904110411C410C41040
:1044E000041104110411E41042003184FFFFFFFFA6
:1044F000FFFFFFFFFFFFFFFFFFFFFFFFFFFFFFFFCC
:10450000FFFFFFFFFFFFFFFFFFFFFFFFFFFFFFFFBB
:10451000EC5247194C320B2AEC21EC210C22915B16
:10452000EE4A061126190419E410E410A7296621A1
:10453000A308051904110411E4108200F7BDFFFF60
:10454000FFFFFFFFFFFFFFFFFFFFFFFFFFFFFFFF7B
:10455000FFFFFFFFFFFFFFFFFFFFFFFFFFFF35A58F
:104560008308882188218921AA218A216B42718CA4
:10457000FFFF728C83080411C4082942FBDE5DEF43
:10458000EC5A83080411041104118308E831DFFF99
:10459000FFFFFFFFFFFFFFFFFFFFFFFFFFFFFFFF2B
:1045A000FFFFFFFFFFFFFFFFFFFFFFFFBEF7C7316A
:1045B000C4102519261947194719A8298A52284ACB
:1045C00055ADFFFFE831A30805194D6B4D6BFFFF9B
:1045D0007DEF4521C410041104110411620076AD71
:1045E000FFFFFFFFFFFFFFFFFFFFFFFFFFFFFFFFDB
:1045F000FFFFFFFFFFFFFFFFFFFFFFFF96B562001A
:104600000411041905110519C4088B4AB6B55DEFEC
:10461000F7BDFFFF8E6B62002942AA5A0842FFFFD6
:10462000FFFFCC528308041104110411A308AD52FA
:10463000FFFFFFFFFFFFFFFFFFFFFFFFFFFFFFFF8A
:10464000FFFF1CE7FFFFFFFFFFFFFFFF4E6362005E
:10465000041104110411E41062008E63FFFFFFFFD8
:10466000FFFFFFFFCF730100F39C2C6396B5FFFFA4
:10467000FFFF2D5B8300041104110411E410672176
:104680003DEFFFFFFFFFFFFFFFFFFFFFF8BDB7B5E7
:104690009EEFCB52B394FFFFFFFFDFFFE831A3088B
:1046A0000411041104110411A3084942FFF7FFF794
:1046B000FFFFFFFF6A4A01007284FFFFFFFFFFF761
:1046C000DFEF093AA30804110411041104110511C4
:1046D00018BEFFFFFFFFFFFFFFFFFFFFF07B620041
:1046E000E831C731410035A5FFFF5DEF4621C41019
:1046F0000411041104110411E410A308769DFFF7BE
:10470000FFFFB7ADA308A308C7319EE7FFF7FFF788
:1047100076A5A308E4100411041104110511051174
:1047200035A5FFFFFFFFFFFFFFFFFFFFDBDEA72930
:104730008300C410C410C4101CE79EEF0511E410E0
:1047400004110411041104110419C408E510D16BFB
:10475000D16BC5086400A50843002B32779DB38454
:104760002519C41004110411041104112519260976
:10477000359DFFFFFFFFFFFFFFFFFFFFFFFFAF7351
:1047800062000419051982000D5B8E9B62100511F1
:10479000041104110419E41085000511C439815A6B
:1047A000407B229C43AC03A4839B82728249C21843
:1047B000A400C500E4100419041105194719671174
:1047C000EC5ABEFFFFFFFFFFFFFFFFFFDFFFDBDE57
:1047D000C410E41004110511A41801C08388E4007A
:1047E00005190419C5084421438323D542FEE4FE7C
:1047F00027FF07FFA4FE64FE03FEA3FDE2FC42ECDC
:1048000083B32462E510C40804192619A819872166
:104810000090D3BCFFFFFFFFFFFFFFFFDFFFFFFFA5
:10482000107C420005190511832801D044F8A348E3
:10483000E400C508445A02EDE2FD02FE66FE74FF84
:10484000B8FF73FFE7F6A6F645F6A4F5C3FC62FCD5
:10485000C2FCC2FCE3CBC449061188198701A490AD
:1048600001F8EC9AFFFFFFFFFFFFFFFFFFFFFFFFD5
:10487000BEF7E83183000509824001C023F885F0C6
:10488000A348A400445A02FD23CCC2DC04FE28FE47
:1048900048F646F624F6E4F564FDE3FC62FCC2FC4F
:1048A00002E402DCE2FCA47A48016701C47824F83F
:1048B00002F884B07DE7FFFFFFFFFFFFFFFFFFFF70
:1048C000FFFFDBDE2519A300C43802E022D844F83C
:1048D000A6F8A4786300432183728339829B21F573
:1048E00061FD22FDE2FCA2FC42FC42FC42FC22AB48
:1048F0008341C392045226012519A49844F823F851
:1049000002F8A4D09EEFFFFFFFFFFFFFFFFFFFFFB6
:10491000FFFFFFFF9AD68729A50043B822F823E0BE
:1049200065F8E8F807C983484200A30084006329BA
:10493000A27A62B3A2CB62D302BB828A8339A4007B
:10494000E500E500E508C46064D844F824F823F8DD
:1049500002F88388DBC6FFFFFFFFFFFFFFFFFFFFBB
:10496000FFFFFFFFFFFF3DE7505B083123E843F8FF
:1049700044F065F809F9ABF989D10689A3484218D2
:104980000200420061008200620062008300A320F6
:10499000C450A58885D865F844F844F823F823F86E
:1049A00003D08210C7295DEFFFFFFFFFFFFFFFFF6E
:1049B000FFFFFFFFFFFFFFFFFFFF6C32A53802D8AC
:1049C00023F865F866F8A7F84AF90CFA4DFA4CEAAC
:1049D0000BD2A9B968B147A927B107B907D1E7E850
:1049E000C7F8A7F865F865F844F823F803F802D08B
:1049F000A3280509C408EC5AFFFFFFFFFFFFFFFFD4
:104A0000FFFFFFFFFFFFFFFFFBDE0519C400A7410B
:104A1000E6C003F886F8A7F887F886F8C7F829F9FA
:104A20008AF9ABF9ABF98BF96AF929F908F9C7F8F2
:104A3000A6F886F865F864F823F802F006B125298F
:104A4000E400E41025192519149DFFFFFFFFFFFF67
:104A5000FFFFFFFFFFFFFFFF96AD62008208359565
:104A6000BACE8BA244D025F887F8A7F8C7F8A7F8E4
:104A700087F886F886F886F887F8A7F8A7F8A6F8E2
:104A800085F865F864F824F064B80D93BBB6CF637D
:104A900083080411E4106621493A5DEFFFFFFFFF30
:104AA000FFFFFFFFFFFFFFFFD3944200E410BBCEE8
:104AB000FFFFBEE776B5CCAA07C145E045F846F84A
:104AC00066F886F886F886F886F865F845F865F899
:104AD00065E844D043A8018882903CD7FFEF559504
:104AE00083080411041105194619B394FFFFFFFF51
:104AF000FFFFFFFFFFFFFFFFB394410086215DDF53
:104B0000FFFFFFFFFFFFDFE77AC6D3B44EB32AC231
:104B100068D1E6E0A6E8A5E8A5E8E6D888C906A930
:104B200022A802A800A000C800D8F7E5FFE7F8AD6A
:104B3000C410E4100411E41005118B4AFFFFFFFFBD
:104B4000FFFFFFFFFFFFFFFF55A54100A7295DDF26
:104B5000FFF7FFFFFFFFFFFFFFFFFFFFFFEF7DDF1F
:104B6000DBCE59CEF8CDD7CDF7C579CEFBBEABA203
:104B700003F045F842D043E800F072D4FFDF39AECD
:104B8000E410E4100411E41005118729FFFFFFFF72
:104B9000FFFFFFFFFFFFFFFF59CE830846211CD711
:104BA000FFF7FFFFFFFFFFFFFFFFFFFFFFFFFFFF1D
:104BB000FFFFFFFFFFFFFFFFFFFFFFFFFFEF8BBACE
:104BC00004F845F862E044F000F88EDBFFDFF8A55A
:104BD000C410E410E4100411E4102519FFFFFFFFD6
:104BE000FFFFFFFFFFFFFFFFBEF78729830839B6EE
:104BF000FFF7DFF7FFFFFFFFFFFFFFFFFFFFFFFFF5
:104C0000FFFFFFFFFFFFFFFFFFFFFFFFBEE74ABA07
:104C100003F845F864F844F800F86EE3FFD7F48C25
:104C200083080411E410E410E4100519FFFFFFFFEE
:104C3000FFFFFFFFFFFFFFFFFFFFEF730000728426
:104C4000FFEFBEEFDFFFFFFFFFFFFFFFFFFFFFFFF5
:104C5000FFFFFFFFFFFFFFFFFFFFFFFFDFE78BBA55
:104C600003F845F845F823F800F8D3D4FFD74E5B96
:104C70002100293A55A58308C4102519FFFFFFFF1D
:104C8000FFFFFFFFFFFFFFFFFFFFFBDEA308E83191
:104C90009EDF9EE7BFEFFFFFFFFFFFFFFFFFFFFF6E
:104CA000FFFFFFFFFFFFFFFFFFFFFFFFFFF751BC0D
:104CB00002E003F803F043E0ECC27ECFFCBE4621E5
:104CC0002100D394FFFF518400008729FFFFFFFFDD
:104CD000FFFFFFFFFFFFFFFFFFFFFFFF518400000B
:104CE000F48CFFEF9EE7BFEFDFFFFFFFFFFFFFFF4B
:104CF000FFFFFFFFFFFFFFFFFFFFFFFFFFFF3DDFA6
:104D000055BD52BC72BCB7B55DC7FFDFF06B00008C
:104D1000093ABFF7FFFFFFFF149D55A5FFFFFFFFF7
:104D2000FFFFFFFFFFFFFFFFFFFFFFFFFFFFAC4A9B
:104D3000A408BBBEDFE77EE7BEEFDFF7DFFFFFFFC4
:104D4000FFFFFFFFFFFFFFFFFFFFFFFFDFFFDFF7BB
:104D5000FFEFDFDFBFD79ED7DFDFD8A5830826119F
:104D6000DBD6FFFFFFFFFFFFFFFFFFFFFFFFFFFFA0
:104D7000FFFFFFFFFFFFFFFFFFFFFFFF79EE8BDC71
:104D80002131A9213DCFBFDF7EDF9EE7BEEFBFEF20
:104D9000DFF7DFF7DFF7DFF7DFF7BFEFBEEF9EE705
:104DA0007EDF5ED75ED7DFDF9AB626194208EDA315
:104DB000BFFFFFFFFFFFFFFFFFFFFFFFFFFFFFFF43
:104DC000FFFFFFFFFFFFFFFFFFFF74DDC0DB00FE03
:104DD00042EE024289217BB6DFDF7ED77EDF7EDFB7
:104DE0009EE79EE79EE79EE79EE77EDF7EDF5DD73C
:104DF0005DD79EDFFFE7F8A50711E31802C560FD48
:104E0000E6D3DBEEFFFFFFFFFFFFFFFFFFFFFFFF2C
:104E1000FFFFFFFFFFFFFFFF9EF784BAC1FC42FECA
:104E200082FEA2FE8183452174745EC7DFDF7ED7D8
:104E30005ED75DD75ED75ED75DD75DD75ED79EDF85
:104E4000FFE73DC7F1638408425226E629FF86FE4C
:104E5000E0F36AC3FFFFFFFFFFFFFFFFFFFFFFFF5E
:104E6000FFFFFFFFFFFFFFFF18DEC1D2A2FD22FE02
:104E700042FE42FE62FEE2D4416A494253743BA6BE
:104E80003EC7BFD7BFD7BFD7BFDFBFD73EC71AA662
:104E9000F263A729824122B462FE83FEAAFE0FFFBD
:104EA00067FD63BA3CEFFFFFFFFFFFFFFFFFFFFF60
:104EB000FFFFFFFFFFFFFFFF9AE680D221FDC2FD4B
:104EC000E2F5C2F582F582FD62FD61DC219B846A18
:104ED000E96A2C63AF6311746E632C63895A0452C0
:104EE000817AC2CBE2FC62FD82FDC2FDC2FDE4FD1F
:104EF00024FD62CA1CE7FFFFFFFFFFFFFFFFFFFF6C
:104F0000FFFFFFFFFFFFFFFFFFFFB1CC81D2C0F328
:104F1000C1FC02FD02FDE2FCC2FCC2FC81FC80FB84
:104F2000C0C9A48135AD59CE719C218100DAA1FBA5
:104F300082FCA2FC82FCA2FC02FD22FDE2FC00FC41
:104F400060DA90CCFFFFFFFFFFFFFFFFFFFFFFFFD7
:104F5000FFFFFFFFFFFFFFFFFFFFFFFF59DE0DC455
:104F600006CBE4D203DB03DBE3DAC3D2A4C209B38A
:104F7000D2BC9EF7FFFFFFFFFFFFFBE60EB4A6BA11
:104F800083D2E3E202EB22EB22E303DBE4D26AC347
:104F9000B6D5FFFFFFFFFFFFFFFFFFFF0000000090
:104FA00000000000000000000000040404040404E9
:104FB0000004000000140A0A0000000000000000C5
:104FC000000014143F140A3F0A0A000000041E15D2
:104FD00005060C14150F0400000012150D0A142C00
:104FE0002A1200000000040A0A1E151509360000E6
:104FF0000002020100000000000000000020100874
:10500000080808080810200000020408080808081A
:105010000804020000000004150E0E150400000034
:1050200000000404041F0404040000000000000049
:10503000000000000002020100000000001F00004C
:10504000000000000000000000000000000200005E
:1050500000100808080404020202010000000E11FA
:1050600011111111110E00000000040604040404C3
:10507000040E000000000E1111080402011F0000C0
:1050800000000E11100C1010110E00000000080C92
:105090000A0A091E0818000000001F01010F101065
:1050A000110E000000000E09010F1111110E000079
:1050B00000001F09080404040404000000000E118D
:1050C000110E1111110E000000000E1111111E1011
:1050D000120E0000000000000400000000040000A8
:1050E000000000000004000000040400002010087C
:1050F0000402040810200000000000001F00001F30
:105100000000000000020408102010080402000043
:1051100000000E11110804040004000000000E112C
:105120001915151D011E0000000004040C0A0A1EBA
:105130001233000000000F12120E1212120F0000A4
:1051400000001E1101010101110E000000000F12EC
:1051500012121212120F000000001F120A0E0A0291
:10516000121F000000001F120A0E0A0202070000B0
:1051700000001C1201013911120C00000000331252
:10518000121E12121233000000001F040404040453
:10519000041F000000003E0808080808080907006E
:1051A000000037120A060A0A123700000000070240
:1051B00002020202223F000000001B1B1B1B1515F0
:1051C0001515000000003B1216161A1A12170000DF
:1051D00000000E1111111111110E000000000F122C
:1051E000120E02020207000000000E111111111729
:1051F000190E180000000F12120E0A1212370000CA
:1052000000001E1101060810110F000000001F15FC
:1052100004040404040E00000000331212121212DF
:10522000120C000000003312120A0A0C04040000E1
:1052300000001515150E0A0A0A0A000000001B0AD4
:105240000A04040A0A1B000000001B0A0A040404E2
:10525000040E000000001F0908040402121F0000D1
:10526000001C04040404040404041C0000020202E0
:105270000404080808100000000E080808080808C0
:1052800008080E0000040A000000000000000000F2
:1052900000000000000000000000003F00040000CB
:1052A000000000000000000000000000000C121CC4
:1052B000123C000000000302020E1212120E000047
:1052C00000000000001C1202021C00000000181068
:1052D000101C1212123C000000000000000C121EF4
:1052E000021C000000003804041E0404041E000018
:1052F00000000000003C120C021E221C00000302F1
:10530000020E12121237000000000400000604040E
:10531000040E000000000800000C08080808080738
:1053200000000302023A0A0E1237000000000704D0
:1053300004040404041F000000000000000F151501
:105340001515000000000000000F121212370000B7
:1053500000000000000C1212120C000000000000FF
:10536000000F1212120E020700000000001C1212A1
:10537000121C103800000000001B0602020700008B
:1053800000000000001E020C101E000000000004BF
:10539000040E04040418000000000000001B121298
:1053A000123C0000000000000037120A0C0400004C
:1053B000000000000015150E0A0A000000000000A1
:1053C000001B0A040A1B0000000000000037120A3C
:1053D0000C04040300000000001E0804041E00006A
:1053E0000018080808040808080818000808080831
:1053F000080808080808080800060404040804044B
:10540000040406000225180000000000000000004F
:10541000000000000000000000000000000000008C
:105420000000000808080808080800001818000014
:1054300000486C2412000000000000000000000082
:105440000000002424247F1212127F121212000086
:105450000000081C2A2A0A0C1828282A2A1C0808D6
:1054600000000022251515152A5854545422000016
:105470000000000C1212120A76252911916E00000C
:105480000006060403000000000000000000000009
:1054900000402010100808080808081010204000DC
:1054A0000002040808101010101010080804020070
:1054B0000000000008086B1C1C6B080800000000BE
:1054C00000000000080808087F080808080000001D
:1054D00000000000000000000000000006060403B9
:1054E0000000000000000000FE00000000000000BE
:1054F00000000000000000000000000006060000A0
:10550000000080404020201010080804040202001F
:105510000000001824424242424242422418000045
:10552000000000080E08080808080808083E0000E7
:105530000000003C4242422020100804427E00004D
:105540000000003C4242201820404042221C000043
:10555000000000203028242422227E202078000011
:105560000000007E0202021A26404042221C000077
:10557000000000382402021A264242422418000089
:105580000000007E22221010080808080808000009
:105590000000003C4242422418244242423C0000A7
:1055A000000000182442424264584040241C00007D
:1055B000000000000000181800000000181800008B
:1055C00000000000000000080000000000080804BF
:1055D00000000040201008040204081020400000D1
:1055E0000000000000007F0000007F0000000000BD
:1055F00000000002040810204020100804020000EF
:105600000000003C424246402010100018180000E4
:105610000000001C225A555555552D42221C0000F1
:105620000000000808181414243C224242E700003D
:105630000000001F2222221E22424242221F00009E
:105640000000007C4242010101010142221C0000D5
:105650000000001F2242424242424242221F0000FA
:105660000000003F4212121E12120242423F00008E
:105670000000003F4212121E121202020207000036
:105680000000003C2222010101712122221C0000A5
:10569000000000E7424242427E42424242E70000AE
:1056A0000000003E0808080808080808083E000036
:1056B0000000007C10101010101010101010110FAE
:1056C0000000007722120A0E0A121222227700002E
:1056D000000000070202020202020202427F0000F2
:1056E00000000077363636362A2A2A2A2A6B00002E
:1056F000000000E346464A4A5252526262470000A6
:105700000000001C2241414141414141221C000056
:105710000000003F424242423E02020202070000F5
:105720000000001C2241414141414D53321C6000A8
:105730000000003F4242423E1212222242C70000B5
:105740000000007C4242020418204042423E000019
:105750000000007F4908080808080808081C000025
:10576000000000E74242424242424242423C0000C4
:10577000000000E742422224241414180808000004
:105780000000006B49494949555536222222000044
:10579000000000E7422424181818242442E70000DF
:1057A000000000772222141408080808081C0000D2
:1057B0000000007E2120101008040442423F000037
:1057C0000078080808080808080808080808780089
:1057D00000000202040408080810102020204040A5
:1057E000001E1010101010101010101010101E00BD
:1057F000003844000000000000000000000000002D
:10580000000000000000000000000000000000FF99
:10581000000608000000000000000000000000007A
:10582000000000000000003C4278444242FC0000BE
:10583000000000030202021A26424242261A000019
:10584000000000000000003844020202443800005A
:1058500000000060404040784442424264D800006A
:10586000000000000000003C427E0202423C0000BA
:10587000000000F08808087E08080808083E0000BC
:10588000000000000000007C22221C023C42423C3E
:10589000000000030202023A4642424242E7000090
:1058A0000000000C0C00000E08080808083E00006C
:1058B0000000003030000038202020202020221E50
:1058C0000000000302020272120A16122277000080
:1058D0000000000E0808080808080808083E000034
:1058E000000000000000007F9292929292B70000A8
:1058F000000000000000003B4642424242E7000038
:10590000000000000000003C42424242423C0000D5
:10591000000000000000001B26424242221E020737
:10592000000000000000007844424242447840E019
:1059300000000000000000774C040404041F000075
:10594000000000000000007C42023C40423E00009B
:10595000000000000008083E0808080808300000A1
:1059600000000000000000634242424262DC00008E
:1059700000000000000000E7422424140808000092
:1059800000000000000000EB4949555522220000AC
:10599000000000000000007624181818246E000093
:1059A00000000000000000E7422424141808080743
:1059B000000000000000007E22100808447E000065
:1059C00000C0202020202010202020202020C000E7
:1059D00010101010101010101010101010101010C7
:1059E0000006080808080810080808080808060043
:1059F0000C32C200000000000000000000000000A7
:105A0000C9EE000027FC140414A481104208404091
:105A1000104017FC2040E0E0215022482C46204056
:105A20000040DBDA11041124112411241124FD2477
:105A3000112411241124112411241D24E1244224B1
:105A400002040404CAD00200010000007FFC01002F
:105A5000010001003FF82108210821082108212820
:105A6000211001000100C8AB0000000001800240CD
:105A70000430180860061FF90100010001003FF81A
:105A80000100010001007FFEB6AF00000000002011
:105A90003E20007C002200227F22102210221222AF
:105AA0001222224223423D82009CB5E70000010001
:105AB00001001FF0610C410441047FFC41044104DA
:105AC00041047FFC01000102010201FCD7D3000068
:105AD00000003FF8001000600080010000807FFEA1
